{
	"Contracts/SashoToken.sol": {
		"SashoToken": {
			"abi": [
				{
					"inputs": [],
					"stateMutability": "nonpayable",
					"type": "constructor"
				},
				{
					"anonymous": false,
					"inputs": [
						{
							"indexed": true,
							"internalType": "address",
							"name": "owner",
							"type": "address"
						},
						{
							"indexed": true,
							"internalType": "address",
							"name": "spender",
							"type": "address"
						},
						{
							"indexed": false,
							"internalType": "uint256",
							"name": "amount",
							"type": "uint256"
						}
					],
					"name": "Approval",
					"type": "event"
				},
				{
					"anonymous": false,
					"inputs": [
						{
							"indexed": true,
							"internalType": "address",
							"name": "delegator",
							"type": "address"
						},
						{
							"indexed": true,
							"internalType": "address",
							"name": "fromDelegate",
							"type": "address"
						},
						{
							"indexed": true,
							"internalType": "address",
							"name": "toDelegate",
							"type": "address"
						}
					],
					"name": "DelegateChanged",
					"type": "event"
				},
				{
					"anonymous": false,
					"inputs": [
						{
							"indexed": true,
							"internalType": "address",
							"name": "delegate",
							"type": "address"
						},
						{
							"indexed": false,
							"internalType": "uint256",
							"name": "previousBalance",
							"type": "uint256"
						},
						{
							"indexed": false,
							"internalType": "uint256",
							"name": "newBalance",
							"type": "uint256"
						}
					],
					"name": "DelegateVotesChanged",
					"type": "event"
				},
				{
					"anonymous": false,
					"inputs": [
						{
							"indexed": true,
							"internalType": "address",
							"name": "previousOwner",
							"type": "address"
						},
						{
							"indexed": true,
							"internalType": "address",
							"name": "newOwner",
							"type": "address"
						}
					],
					"name": "OwnershipTransferred",
					"type": "event"
				},
				{
					"anonymous": false,
					"inputs": [
						{
							"indexed": true,
							"internalType": "address",
							"name": "from",
							"type": "address"
						},
						{
							"indexed": true,
							"internalType": "address",
							"name": "to",
							"type": "address"
						},
						{
							"indexed": false,
							"internalType": "uint256",
							"name": "amount",
							"type": "uint256"
						}
					],
					"name": "Transfer",
					"type": "event"
				},
				{
					"inputs": [],
					"name": "DELEGATION_TYPEHASH",
					"outputs": [
						{
							"internalType": "bytes32",
							"name": "",
							"type": "bytes32"
						}
					],
					"stateMutability": "view",
					"type": "function"
				},
				{
					"inputs": [],
					"name": "DOMAIN_TYPEHASH",
					"outputs": [
						{
							"internalType": "bytes32",
							"name": "",
							"type": "bytes32"
						}
					],
					"stateMutability": "view",
					"type": "function"
				},
				{
					"inputs": [
						{
							"internalType": "address",
							"name": "account",
							"type": "address"
						},
						{
							"internalType": "address",
							"name": "spender",
							"type": "address"
						}
					],
					"name": "allowance",
					"outputs": [
						{
							"internalType": "uint256",
							"name": "",
							"type": "uint256"
						}
					],
					"stateMutability": "view",
					"type": "function"
				},
				{
					"inputs": [
						{
							"internalType": "address",
							"name": "spender",
							"type": "address"
						},
						{
							"internalType": "uint256",
							"name": "rawAmount",
							"type": "uint256"
						}
					],
					"name": "approve",
					"outputs": [
						{
							"internalType": "bool",
							"name": "",
							"type": "bool"
						}
					],
					"stateMutability": "nonpayable",
					"type": "function"
				},
				{
					"inputs": [
						{
							"internalType": "address",
							"name": "account",
							"type": "address"
						}
					],
					"name": "balanceOf",
					"outputs": [
						{
							"internalType": "uint256",
							"name": "",
							"type": "uint256"
						}
					],
					"stateMutability": "view",
					"type": "function"
				},
				{
					"inputs": [
						{
							"internalType": "address",
							"name": "",
							"type": "address"
						},
						{
							"internalType": "uint32",
							"name": "",
							"type": "uint32"
						}
					],
					"name": "checkpoints",
					"outputs": [
						{
							"internalType": "uint32",
							"name": "fromBlock",
							"type": "uint32"
						},
						{
							"internalType": "uint96",
							"name": "votes",
							"type": "uint96"
						}
					],
					"stateMutability": "view",
					"type": "function"
				},
				{
					"inputs": [],
					"name": "decimals",
					"outputs": [
						{
							"internalType": "uint8",
							"name": "",
							"type": "uint8"
						}
					],
					"stateMutability": "view",
					"type": "function"
				},
				{
					"inputs": [
						{
							"internalType": "address",
							"name": "delegatee",
							"type": "address"
						}
					],
					"name": "delegate",
					"outputs": [],
					"stateMutability": "nonpayable",
					"type": "function"
				},
				{
					"inputs": [
						{
							"internalType": "address",
							"name": "delegatee",
							"type": "address"
						},
						{
							"internalType": "uint256",
							"name": "nonce",
							"type": "uint256"
						},
						{
							"internalType": "uint256",
							"name": "expiry",
							"type": "uint256"
						},
						{
							"internalType": "uint8",
							"name": "v",
							"type": "uint8"
						},
						{
							"internalType": "bytes32",
							"name": "r",
							"type": "bytes32"
						},
						{
							"internalType": "bytes32",
							"name": "s",
							"type": "bytes32"
						}
					],
					"name": "delegateBySig",
					"outputs": [],
					"stateMutability": "nonpayable",
					"type": "function"
				},
				{
					"inputs": [
						{
							"internalType": "address",
							"name": "",
							"type": "address"
						}
					],
					"name": "delegates",
					"outputs": [
						{
							"internalType": "address",
							"name": "",
							"type": "address"
						}
					],
					"stateMutability": "view",
					"type": "function"
				},
				{
					"inputs": [
						{
							"internalType": "address",
							"name": "account",
							"type": "address"
						}
					],
					"name": "getCurrentVotes",
					"outputs": [
						{
							"internalType": "uint96",
							"name": "",
							"type": "uint96"
						}
					],
					"stateMutability": "view",
					"type": "function"
				},
				{
					"inputs": [
						{
							"internalType": "address",
							"name": "account",
							"type": "address"
						},
						{
							"internalType": "uint256",
							"name": "blockNumber",
							"type": "uint256"
						}
					],
					"name": "getPriorVotes",
					"outputs": [
						{
							"internalType": "uint96",
							"name": "",
							"type": "uint96"
						}
					],
					"stateMutability": "view",
					"type": "function"
				},
				{
					"inputs": [
						{
							"internalType": "address",
							"name": "account",
							"type": "address"
						},
						{
							"internalType": "uint256",
							"name": "rawAmount",
							"type": "uint256"
						}
					],
					"name": "mint",
					"outputs": [],
					"stateMutability": "nonpayable",
					"type": "function"
				},
				{
					"inputs": [],
					"name": "name",
					"outputs": [
						{
							"internalType": "string",
							"name": "",
							"type": "string"
						}
					],
					"stateMutability": "view",
					"type": "function"
				},
				{
					"inputs": [
						{
							"internalType": "address",
							"name": "",
							"type": "address"
						}
					],
					"name": "nonces",
					"outputs": [
						{
							"internalType": "uint256",
							"name": "",
							"type": "uint256"
						}
					],
					"stateMutability": "view",
					"type": "function"
				},
				{
					"inputs": [
						{
							"internalType": "address",
							"name": "",
							"type": "address"
						}
					],
					"name": "numCheckpoints",
					"outputs": [
						{
							"internalType": "uint32",
							"name": "",
							"type": "uint32"
						}
					],
					"stateMutability": "view",
					"type": "function"
				},
				{
					"inputs": [],
					"name": "owner",
					"outputs": [
						{
							"internalType": "address",
							"name": "",
							"type": "address"
						}
					],
					"stateMutability": "view",
					"type": "function"
				},
				{
					"inputs": [],
					"name": "renounceOwnership",
					"outputs": [],
					"stateMutability": "nonpayable",
					"type": "function"
				},
				{
					"inputs": [],
					"name": "symbol",
					"outputs": [
						{
							"internalType": "string",
							"name": "",
							"type": "string"
						}
					],
					"stateMutability": "view",
					"type": "function"
				},
				{
					"inputs": [],
					"name": "totalSupply",
					"outputs": [
						{
							"internalType": "uint96",
							"name": "",
							"type": "uint96"
						}
					],
					"stateMutability": "view",
					"type": "function"
				},
				{
					"inputs": [
						{
							"internalType": "address",
							"name": "dst",
							"type": "address"
						},
						{
							"internalType": "uint256",
							"name": "rawAmount",
							"type": "uint256"
						}
					],
					"name": "transfer",
					"outputs": [
						{
							"internalType": "bool",
							"name": "",
							"type": "bool"
						}
					],
					"stateMutability": "nonpayable",
					"type": "function"
				},
				{
					"inputs": [
						{
							"internalType": "address",
							"name": "src",
							"type": "address"
						},
						{
							"internalType": "address",
							"name": "dst",
							"type": "address"
						},
						{
							"internalType": "uint256",
							"name": "rawAmount",
							"type": "uint256"
						}
					],
					"name": "transferFrom",
					"outputs": [
						{
							"internalType": "bool",
							"name": "",
							"type": "bool"
						}
					],
					"stateMutability": "nonpayable",
					"type": "function"
				},
				{
					"inputs": [
						{
							"internalType": "address",
							"name": "newOwner",
							"type": "address"
						}
					],
					"name": "transferOwnership",
					"outputs": [],
					"stateMutability": "nonpayable",
					"type": "function"
				}
			],
			"devdoc": {
				"kind": "dev",
				"methods": {
					"allowance(address,address)": {
						"params": {
							"account": "The address of the account holding the funds",
							"spender": "The address of the account spending the funds"
						},
						"returns": {
							"_0": "The number of tokens approved"
						}
					},
					"approve(address,uint256)": {
						"details": "This will overwrite the approval amount for `spender`  and is subject to issues noted [here](https://eips.ethereum.org/EIPS/eip-20#approve)",
						"params": {
							"rawAmount": "The number of tokens that are approved (2^256-1 means infinite)",
							"spender": "The address of the account which may transfer tokens"
						},
						"returns": {
							"_0": "Whether or not the approval succeeded"
						}
					},
					"balanceOf(address)": {
						"params": {
							"account": "The address of the account to get the balance of"
						},
						"returns": {
							"_0": "The number of tokens held"
						}
					},
					"delegate(address)": {
						"params": {
							"delegatee": "The address to delegate votes to"
						}
					},
					"delegateBySig(address,uint256,uint256,uint8,bytes32,bytes32)": {
						"params": {
							"delegatee": "The address to delegate votes to",
							"expiry": "The time at which to expire the signature",
							"nonce": "The contract state required to match the signature",
							"r": "Half of the ECDSA signature pair",
							"s": "Half of the ECDSA signature pair",
							"v": "The recovery byte of the signature"
						}
					},
					"getCurrentVotes(address)": {
						"params": {
							"account": "The address to get votes balance"
						},
						"returns": {
							"_0": "The number of current votes for `account`"
						}
					},
					"getPriorVotes(address,uint256)": {
						"details": "Block number must be a finalized block or else this function will revert to prevent misinformation.",
						"params": {
							"account": "The address of the account to check",
							"blockNumber": "The block number to get the vote balance at"
						},
						"returns": {
							"_0": "The number of votes the account had as of the given block"
						}
					},
					"owner()": {
						"details": "Returns the address of the current owner."
					},
					"renounceOwnership()": {
						"details": "Leaves the contract without owner. It will not be possible to call `onlyOwner` functions anymore. Can only be called by the current owner. NOTE: Renouncing ownership will leave the contract without an owner, thereby removing any functionality that is only available to the owner."
					},
					"transfer(address,uint256)": {
						"params": {
							"dst": "The address of the destination account",
							"rawAmount": "The number of tokens to transfer"
						},
						"returns": {
							"_0": "Whether or not the transfer succeeded"
						}
					},
					"transferFrom(address,address,uint256)": {
						"params": {
							"dst": "The address of the destination account",
							"rawAmount": "The number of tokens to transfer",
							"src": "The address of the source account"
						},
						"returns": {
							"_0": "Whether or not the transfer succeeded"
						}
					},
					"transferOwnership(address)": {
						"details": "Transfers ownership of the contract to a new account (`newOwner`). Can only be called by the current owner."
					}
				},
				"version": 1
			},
			"evm": {
				"assembly": "    /* \"Contracts/SashoToken.sol\":3217:15932  contract SashoToken is Ownable {... */\n  mstore(0x40, 0x80)\n    /* \"Contracts/SashoToken.sol\":3620:3621  0 */\n  0x00\n    /* \"Contracts/SashoToken.sol\":3592:3621  uint96 public totalSupply = 0 */\n  dup1\n  exp(0x0100, 0x14)\n  dup2\n  sload\n  dup2\n  0xffffffffffffffffffffffff\n  mul\n  not\n  and\n  swap1\n  dup4\n  0xffffffffffffffffffffffff\n  and\n  mul\n  or\n  swap1\n  sstore\n  pop\n    /* \"Contracts/SashoToken.sol\":5614:5642  constructor() public {... */\n  callvalue\n  dup1\n  iszero\n  tag_1\n  jumpi\n  0x00\n  dup1\n  revert\ntag_1:\n  pop\n    /* \"Contracts/SashoToken.sol\":1810:1833  _setOwner(_msgSender()) */\n  tag_5\n    /* \"Contracts/SashoToken.sol\":1820:1832  _msgSender() */\n  tag_6\n    /* \"Contracts/SashoToken.sol\":1820:1830  _msgSender */\n  shl(0x20, tag_7)\n    /* \"Contracts/SashoToken.sol\":1820:1832  _msgSender() */\n  0x20\n  shr\n  jump\t// in\ntag_6:\n    /* \"Contracts/SashoToken.sol\":1810:1819  _setOwner */\n  shl(0x20, tag_8)\n    /* \"Contracts/SashoToken.sol\":1810:1833  _setOwner(_msgSender()) */\n  0x20\n  shr\n  jump\t// in\ntag_5:\n    /* \"Contracts/SashoToken.sol\":3217:15932  contract SashoToken is Ownable {... */\n  jump(tag_10)\n    /* \"Contracts/SashoToken.sol\":742:838  function _msgSender() internal view virtual returns (address) {... */\ntag_7:\n    /* \"Contracts/SashoToken.sol\":795:802  address */\n  0x00\n    /* \"Contracts/SashoToken.sol\":821:831  msg.sender */\n  caller\n    /* \"Contracts/SashoToken.sol\":814:831  return msg.sender */\n  swap1\n  pop\n    /* \"Contracts/SashoToken.sol\":742:838  function _msgSender() internal view virtual returns (address) {... */\n  swap1\n  jump\t// out\n    /* \"Contracts/SashoToken.sol\":2984:3153  function _setOwner(address newOwner) private {... */\ntag_8:\n    /* \"Contracts/SashoToken.sol\":3039:3055  address oldOwner */\n  0x00\n    /* \"Contracts/SashoToken.sol\":3058:3064  _owner */\n  dup1\n  0x00\n  swap1\n  sload\n  swap1\n  0x0100\n  exp\n  swap1\n  div\n  0xffffffffffffffffffffffffffffffffffffffff\n  and\n    /* \"Contracts/SashoToken.sol\":3039:3064  address oldOwner = _owner */\n  swap1\n  pop\n    /* \"Contracts/SashoToken.sol\":3083:3091  newOwner */\n  dup2\n    /* \"Contracts/SashoToken.sol\":3074:3080  _owner */\n  0x00\n  dup1\n    /* \"Contracts/SashoToken.sol\":3074:3091  _owner = newOwner */\n  0x0100\n  exp\n  dup2\n  sload\n  dup2\n  0xffffffffffffffffffffffffffffffffffffffff\n  mul\n  not\n  and\n  swap1\n  dup4\n  0xffffffffffffffffffffffffffffffffffffffff\n  and\n  mul\n  or\n  swap1\n  sstore\n  pop\n    /* \"Contracts/SashoToken.sol\":3137:3145  newOwner */\n  dup2\n    /* \"Contracts/SashoToken.sol\":3106:3146  OwnershipTransferred(oldOwner, newOwner) */\n  0xffffffffffffffffffffffffffffffffffffffff\n  and\n    /* \"Contracts/SashoToken.sol\":3127:3135  oldOwner */\n  dup2\n    /* \"Contracts/SashoToken.sol\":3106:3146  OwnershipTransferred(oldOwner, newOwner) */\n  0xffffffffffffffffffffffffffffffffffffffff\n  and\n  0x8be0079c531659141344cd1fd0a4f28419497f9722a3daafe3b4186f6b6457e0\n  mload(0x40)\n  mload(0x40)\n  dup1\n  swap2\n  sub\n  swap1\n  log3\n    /* \"Contracts/SashoToken.sol\":3029:3153  {... */\n  pop\n    /* \"Contracts/SashoToken.sol\":2984:3153  function _setOwner(address newOwner) private {... */\n  pop\n  jump\t// out\n    /* \"Contracts/SashoToken.sol\":3217:15932  contract SashoToken is Ownable {... */\ntag_10:\n  dataSize(sub_0)\n  dup1\n  dataOffset(sub_0)\n  0x00\n  codecopy\n  0x00\n  return\nstop\n\nsub_0: assembly {\n        /* \"Contracts/SashoToken.sol\":3217:15932  contract SashoToken is Ownable {... */\n      mstore(0x40, 0x80)\n      callvalue\n      dup1\n      iszero\n      tag_1\n      jumpi\n      0x00\n      dup1\n      revert\n    tag_1:\n      pop\n      jumpi(tag_2, lt(calldatasize, 0x04))\n      shr(0xe0, calldataload(0x00))\n      dup1\n      0x715018a6\n      gt\n      tag_26\n      jumpi\n      dup1\n      0xb4b5ea57\n      gt\n      tag_27\n      jumpi\n      dup1\n      0xb4b5ea57\n      eq\n      tag_20\n      jumpi\n      dup1\n      0xc3cda520\n      eq\n      tag_21\n      jumpi\n      dup1\n      0xdd62ed3e\n      eq\n      tag_22\n      jumpi\n      dup1\n      0xe7a324dc\n      eq\n      tag_23\n      jumpi\n      dup1\n      0xf1127ed8\n      eq\n      tag_24\n      jumpi\n      dup1\n      0xf2fde38b\n      eq\n      tag_25\n      jumpi\n      jump(tag_2)\n    tag_27:\n      dup1\n      0x715018a6\n      eq\n      tag_14\n      jumpi\n      dup1\n      0x782d6fe1\n      eq\n      tag_15\n      jumpi\n      dup1\n      0x7ecebe00\n      eq\n      tag_16\n      jumpi\n      dup1\n      0x8da5cb5b\n      eq\n      tag_17\n      jumpi\n      dup1\n      0x95d89b41\n      eq\n      tag_18\n      jumpi\n      dup1\n      0xa9059cbb\n      eq\n      tag_19\n      jumpi\n      jump(tag_2)\n    tag_26:\n      dup1\n      0x313ce567\n      gt\n      tag_28\n      jumpi\n      dup1\n      0x313ce567\n      eq\n      tag_8\n      jumpi\n      dup1\n      0x40c10f19\n      eq\n      tag_9\n      jumpi\n      dup1\n      0x587cde1e\n      eq\n      tag_10\n      jumpi\n      dup1\n      0x5c19a95c\n      eq\n      tag_11\n      jumpi\n      dup1\n      0x6fcfff45\n      eq\n      tag_12\n      jumpi\n      dup1\n      0x70a08231\n      eq\n      tag_13\n      jumpi\n      jump(tag_2)\n    tag_28:\n      dup1\n      0x06fdde03\n      eq\n      tag_3\n      jumpi\n      dup1\n      0x095ea7b3\n      eq\n      tag_4\n      jumpi\n      dup1\n      0x18160ddd\n      eq\n      tag_5\n      jumpi\n      dup1\n      0x20606b70\n      eq\n      tag_6\n      jumpi\n      dup1\n      0x23b872dd\n      eq\n      tag_7\n      jumpi\n    tag_2:\n      0x00\n      dup1\n      revert\n        /* \"Contracts/SashoToken.sol\":3302:3339  string public constant name = \"Sasho\" */\n    tag_3:\n      tag_29\n      tag_30\n      jump\t// in\n    tag_29:\n      mload(0x40)\n      tag_31\n      swap2\n      swap1\n      tag_32\n      jump\t// in\n    tag_31:\n      mload(0x40)\n      dup1\n      swap2\n      sub\n      swap1\n      return\n        /* \"Contracts/SashoToken.sol\":6906:7364  function approve(address spender, uint rawAmount) external returns (bool) {... */\n    tag_4:\n      tag_33\n      0x04\n      dup1\n      calldatasize\n      sub\n      dup2\n      add\n      swap1\n      tag_34\n      swap2\n      swap1\n      tag_35\n      jump\t// in\n    tag_34:\n      tag_36\n      jump\t// in\n    tag_33:\n      mload(0x40)\n      tag_37\n      swap2\n      swap1\n      tag_38\n      jump\t// in\n    tag_37:\n      mload(0x40)\n      dup1\n      swap2\n      sub\n      swap1\n      return\n        /* \"Contracts/SashoToken.sol\":3592:3621  uint96 public totalSupply = 0 */\n    tag_5:\n      tag_39\n      tag_40\n      jump\t// in\n    tag_39:\n      mload(0x40)\n      tag_41\n      swap2\n      swap1\n      tag_42\n      jump\t// in\n    tag_41:\n      mload(0x40)\n      dup1\n      swap2\n      sub\n      swap1\n      return\n        /* \"Contracts/SashoToken.sol\":4462:4584  bytes32 public constant DOMAIN_TYPEHASH = keccak256(\"EIP712Domain(string name,uint256 chainId,address verifyingContract)\") */\n    tag_6:\n      tag_43\n      tag_44\n      jump\t// in\n    tag_43:\n      mload(0x40)\n      tag_45\n      swap2\n      swap1\n      tag_46\n      jump\t// in\n    tag_45:\n      mload(0x40)\n      dup1\n      swap2\n      sub\n      swap1\n      return\n        /* \"Contracts/SashoToken.sol\":8458:9124  function transferFrom(address src, address dst, uint rawAmount) external returns (bool) {... */\n    tag_7:\n      tag_47\n      0x04\n      dup1\n      calldatasize\n      sub\n      dup2\n      add\n      swap1\n      tag_48\n      swap2\n      swap1\n      tag_49\n      jump\t// in\n    tag_48:\n      tag_50\n      jump\t// in\n    tag_47:\n      mload(0x40)\n      tag_51\n      swap2\n      swap1\n      tag_38\n      jump\t// in\n    tag_51:\n      mload(0x40)\n      dup1\n      swap2\n      sub\n      swap1\n      return\n        /* \"Contracts/SashoToken.sol\":3496:3531  uint8 public constant decimals = 18 */\n    tag_8:\n      tag_52\n      tag_53\n      jump\t// in\n    tag_52:\n      mload(0x40)\n      tag_54\n      swap2\n      swap1\n      tag_55\n      jump\t// in\n    tag_54:\n      mload(0x40)\n      dup1\n      swap2\n      sub\n      swap1\n      return\n        /* \"Contracts/SashoToken.sol\":5648:6008  function mint(address account, uint256 rawAmount) public onlyOwner {... */\n    tag_9:\n      tag_56\n      0x04\n      dup1\n      calldatasize\n      sub\n      dup2\n      add\n      swap1\n      tag_57\n      swap2\n      swap1\n      tag_35\n      jump\t// in\n    tag_57:\n      tag_58\n      jump\t// in\n    tag_56:\n      stop\n        /* \"Contracts/SashoToken.sol\":3927:3972  mapping (address => address) public delegates */\n    tag_10:\n      tag_59\n      0x04\n      dup1\n      calldatasize\n      sub\n      dup2\n      add\n      swap1\n      tag_60\n      swap2\n      swap1\n      tag_61\n      jump\t// in\n    tag_60:\n      tag_62\n      jump\t// in\n    tag_59:\n      mload(0x40)\n      tag_63\n      swap2\n      swap1\n      tag_64\n      jump\t// in\n    tag_63:\n      mload(0x40)\n      dup1\n      swap2\n      sub\n      swap1\n      return\n        /* \"Contracts/SashoToken.sol\":9266:9366  function delegate(address delegatee) public {... */\n    tag_11:\n      tag_65\n      0x04\n      dup1\n      calldatasize\n      sub\n      dup2\n      add\n      swap1\n      tag_66\n      swap2\n      swap1\n      tag_61\n      jump\t// in\n    tag_66:\n      tag_67\n      jump\t// in\n    tag_65:\n      stop\n        /* \"Contracts/SashoToken.sol\":4343:4392  mapping (address => uint32) public numCheckpoints */\n    tag_12:\n      tag_68\n      0x04\n      dup1\n      calldatasize\n      sub\n      dup2\n      add\n      swap1\n      tag_69\n      swap2\n      swap1\n      tag_61\n      jump\t// in\n    tag_69:\n      tag_70\n      jump\t// in\n    tag_68:\n      mload(0x40)\n      tag_71\n      swap2\n      swap1\n      tag_72\n      jump\t// in\n    tag_71:\n      mload(0x40)\n      dup1\n      swap2\n      sub\n      swap1\n      return\n        /* \"Contracts/SashoToken.sol\":7560:7666  function balanceOf(address account) external view returns (uint) {... */\n    tag_13:\n      tag_73\n      0x04\n      dup1\n      calldatasize\n      sub\n      dup2\n      add\n      swap1\n      tag_74\n      swap2\n      swap1\n      tag_61\n      jump\t// in\n    tag_74:\n      tag_75\n      jump\t// in\n    tag_73:\n      mload(0x40)\n      tag_76\n      swap2\n      swap1\n      tag_77\n      jump\t// in\n    tag_76:\n      mload(0x40)\n      dup1\n      swap2\n      sub\n      swap1\n      return\n        /* \"Contracts/SashoToken.sol\":2548:2640  function renounceOwnership() public virtual onlyOwner {... */\n    tag_14:\n      tag_78\n      tag_79\n      jump\t// in\n    tag_78:\n      stop\n        /* \"Contracts/SashoToken.sol\":11419:12606  function getPriorVotes(address account, uint blockNumber) public view returns (uint96) {... */\n    tag_15:\n      tag_80\n      0x04\n      dup1\n      calldatasize\n      sub\n      dup2\n      add\n      swap1\n      tag_81\n      swap2\n      swap1\n      tag_35\n      jump\t// in\n    tag_81:\n      tag_82\n      jump\t// in\n    tag_80:\n      mload(0x40)\n      tag_83\n      swap2\n      swap1\n      tag_42\n      jump\t// in\n    tag_83:\n      mload(0x40)\n      dup1\n      swap2\n      sub\n      swap1\n      return\n        /* \"Contracts/SashoToken.sol\":4870:4909  mapping (address => uint) public nonces */\n    tag_16:\n      tag_84\n      0x04\n      dup1\n      calldatasize\n      sub\n      dup2\n      add\n      swap1\n      tag_85\n      swap2\n      swap1\n      tag_61\n      jump\t// in\n    tag_85:\n      tag_86\n      jump\t// in\n    tag_84:\n      mload(0x40)\n      tag_87\n      swap2\n      swap1\n      tag_77\n      jump\t// in\n    tag_87:\n      mload(0x40)\n      dup1\n      swap2\n      sub\n      swap1\n      return\n        /* \"Contracts/SashoToken.sol\":1916:2001  function owner() public view virtual returns (address) {... */\n    tag_17:\n      tag_88\n      tag_89\n      jump\t// in\n    tag_88:\n      mload(0x40)\n      tag_90\n      swap2\n      swap1\n      tag_64\n      jump\t// in\n    tag_90:\n      mload(0x40)\n      dup1\n      swap2\n      sub\n      swap1\n      return\n        /* \"Contracts/SashoToken.sol\":3397:3436  string public constant symbol = \"SASHO\" */\n    tag_18:\n      tag_91\n      tag_92\n      jump\t// in\n    tag_91:\n      mload(0x40)\n      tag_93\n      swap2\n      swap1\n      tag_32\n      jump\t// in\n    tag_93:\n      mload(0x40)\n      dup1\n      swap2\n      sub\n      swap1\n      return\n        /* \"Contracts/SashoToken.sol\":7922:8157  function transfer(address dst, uint rawAmount) external returns (bool) {... */\n    tag_19:\n      tag_94\n      0x04\n      dup1\n      calldatasize\n      sub\n      dup2\n      add\n      swap1\n      tag_95\n      swap2\n      swap1\n      tag_35\n      jump\t// in\n    tag_95:\n      tag_96\n      jump\t// in\n    tag_94:\n      mload(0x40)\n      tag_97\n      swap2\n      swap1\n      tag_38\n      jump\t// in\n    tag_97:\n      mload(0x40)\n      dup1\n      swap2\n      sub\n      swap1\n      return\n        /* \"Contracts/SashoToken.sol\":10778:10997  function getCurrentVotes(address account) external view returns (uint96) {... */\n    tag_20:\n      tag_98\n      0x04\n      dup1\n      calldatasize\n      sub\n      dup2\n      add\n      swap1\n      tag_99\n      swap2\n      swap1\n      tag_61\n      jump\t// in\n    tag_99:\n      tag_100\n      jump\t// in\n    tag_98:\n      mload(0x40)\n      tag_101\n      swap2\n      swap1\n      tag_42\n      jump\t// in\n    tag_101:\n      mload(0x40)\n      dup1\n      swap2\n      sub\n      swap1\n      return\n        /* \"Contracts/SashoToken.sol\":9789:10584  function delegateBySig(address delegatee, uint nonce, uint expiry, uint8 v, bytes32 r, bytes32 s) public {... */\n    tag_21:\n      tag_102\n      0x04\n      dup1\n      calldatasize\n      sub\n      dup2\n      add\n      swap1\n      tag_103\n      swap2\n      swap1\n      tag_104\n      jump\t// in\n    tag_103:\n      tag_105\n      jump\t// in\n    tag_102:\n      stop\n        /* \"Contracts/SashoToken.sol\":6304:6438  function allowance(address account, address spender) external view returns (uint) {... */\n    tag_22:\n      tag_106\n      0x04\n      dup1\n      calldatasize\n      sub\n      dup2\n      add\n      swap1\n      tag_107\n      swap2\n      swap1\n      tag_108\n      jump\t// in\n    tag_107:\n      tag_109\n      jump\t// in\n    tag_106:\n      mload(0x40)\n      tag_110\n      swap2\n      swap1\n      tag_77\n      jump\t// in\n    tag_110:\n      mload(0x40)\n      dup1\n      swap2\n      sub\n      swap1\n      return\n        /* \"Contracts/SashoToken.sol\":4675:4792  bytes32 public constant DELEGATION_TYPEHASH = keccak256(\"Delegation(address delegatee,uint256 nonce,uint256 expiry)\") */\n    tag_23:\n      tag_111\n      tag_112\n      jump\t// in\n    tag_111:\n      mload(0x40)\n      tag_113\n      swap2\n      swap1\n      tag_46\n      jump\t// in\n    tag_113:\n      mload(0x40)\n      dup1\n      swap2\n      sub\n      swap1\n      return\n        /* \"Contracts/SashoToken.sol\":4207:4277  mapping (address => mapping (uint32 => Checkpoint)) public checkpoints */\n    tag_24:\n      tag_114\n      0x04\n      dup1\n      calldatasize\n      sub\n      dup2\n      add\n      swap1\n      tag_115\n      swap2\n      swap1\n      tag_116\n      jump\t// in\n    tag_115:\n      tag_117\n      jump\t// in\n    tag_114:\n      mload(0x40)\n      tag_118\n      swap3\n      swap2\n      swap1\n      tag_119\n      jump\t// in\n    tag_118:\n      mload(0x40)\n      dup1\n      swap2\n      sub\n      swap1\n      return\n        /* \"Contracts/SashoToken.sol\":2789:2978  function transferOwnership(address newOwner) public virtual onlyOwner {... */\n    tag_25:\n      tag_120\n      0x04\n      dup1\n      calldatasize\n      sub\n      dup2\n      add\n      swap1\n      tag_121\n      swap2\n      swap1\n      tag_61\n      jump\t// in\n    tag_121:\n      tag_122\n      jump\t// in\n    tag_120:\n      stop\n        /* \"Contracts/SashoToken.sol\":3302:3339  string public constant name = \"Sasho\" */\n    tag_30:\n      mload(0x40)\n      dup1\n      0x40\n      add\n      0x40\n      mstore\n      dup1\n      0x05\n      dup2\n      mstore\n      0x20\n      add\n      0x536173686f000000000000000000000000000000000000000000000000000000\n      dup2\n      mstore\n      pop\n      dup2\n      jump\t// out\n        /* \"Contracts/SashoToken.sol\":6906:7364  function approve(address spender, uint rawAmount) external returns (bool) {... */\n    tag_36:\n        /* \"Contracts/SashoToken.sol\":6974:6978  bool */\n      0x00\n        /* \"Contracts/SashoToken.sol\":6990:7003  uint96 amount */\n      dup1\n        /* \"Contracts/SashoToken.sol\":7013:7028  uint256 neg_one */\n      0x00\n        /* \"Contracts/SashoToken.sol\":7031:7047  type(uint96).max */\n      0xffffffffffffffffffffffff\n        /* \"Contracts/SashoToken.sol\":7013:7047  uint256 neg_one = type(uint96).max */\n      dup1\n      and\n      swap1\n      pop\n        /* \"Contracts/SashoToken.sol\":7075:7082  neg_one */\n      dup1\n        /* \"Contracts/SashoToken.sol\":7062:7071  rawAmount */\n      dup5\n        /* \"Contracts/SashoToken.sol\":7062:7082  rawAmount == neg_one */\n      sub\n        /* \"Contracts/SashoToken.sol\":7058:7233  if (rawAmount == neg_one) {... */\n      tag_124\n      jumpi\n        /* \"Contracts/SashoToken.sol\":7107:7123  type(uint96).max */\n      0xffffffffffffffffffffffff\n        /* \"Contracts/SashoToken.sol\":7098:7123  amount = type(uint96).max */\n      swap2\n      pop\n        /* \"Contracts/SashoToken.sol\":7058:7233  if (rawAmount == neg_one) {... */\n      jump(tag_125)\n    tag_124:\n        /* \"Contracts/SashoToken.sol\":7163:7222  safe96(rawAmount, \"Sasho::approve: amount exceeds 96 bits\") */\n      tag_126\n        /* \"Contracts/SashoToken.sol\":7170:7179  rawAmount */\n      dup5\n        /* \"Contracts/SashoToken.sol\":7163:7222  safe96(rawAmount, \"Sasho::approve: amount exceeds 96 bits\") */\n      mload(0x40)\n      dup1\n      0x60\n      add\n      0x40\n      mstore\n      dup1\n      0x26\n      dup2\n      mstore\n      0x20\n      add\n      data_d1a0885ce6c9c8be36312eb84fd2a05e74ef6102a068235599b76a7f262e32f8\n      0x26\n      swap2\n      codecopy\n        /* \"Contracts/SashoToken.sol\":7163:7169  safe96 */\n      tag_127\n        /* \"Contracts/SashoToken.sol\":7163:7222  safe96(rawAmount, \"Sasho::approve: amount exceeds 96 bits\") */\n      jump\t// in\n    tag_126:\n        /* \"Contracts/SashoToken.sol\":7154:7222  amount = safe96(rawAmount, \"Sasho::approve: amount exceeds 96 bits\") */\n      swap2\n      pop\n        /* \"Contracts/SashoToken.sol\":7058:7233  if (rawAmount == neg_one) {... */\n    tag_125:\n        /* \"Contracts/SashoToken.sol\":7277:7283  amount */\n      dup2\n        /* \"Contracts/SashoToken.sol\":7243:7253  allowances */\n      0x01\n        /* \"Contracts/SashoToken.sol\":7243:7265  allowances[msg.sender] */\n      0x00\n        /* \"Contracts/SashoToken.sol\":7254:7264  msg.sender */\n      caller\n        /* \"Contracts/SashoToken.sol\":7243:7265  allowances[msg.sender] */\n      0xffffffffffffffffffffffffffffffffffffffff\n      and\n      0xffffffffffffffffffffffffffffffffffffffff\n      and\n      dup2\n      mstore\n      0x20\n      add\n      swap1\n      dup2\n      mstore\n      0x20\n      add\n      0x00\n      keccak256\n        /* \"Contracts/SashoToken.sol\":7243:7274  allowances[msg.sender][spender] */\n      0x00\n        /* \"Contracts/SashoToken.sol\":7266:7273  spender */\n      dup8\n        /* \"Contracts/SashoToken.sol\":7243:7274  allowances[msg.sender][spender] */\n      0xffffffffffffffffffffffffffffffffffffffff\n      and\n      0xffffffffffffffffffffffffffffffffffffffff\n      and\n      dup2\n      mstore\n      0x20\n      add\n      swap1\n      dup2\n      mstore\n      0x20\n      add\n      0x00\n      keccak256\n      0x00\n        /* \"Contracts/SashoToken.sol\":7243:7283  allowances[msg.sender][spender] = amount */\n      0x0100\n      exp\n      dup2\n      sload\n      dup2\n      0xffffffffffffffffffffffff\n      mul\n      not\n      and\n      swap1\n      dup4\n      0xffffffffffffffffffffffff\n      and\n      mul\n      or\n      swap1\n      sstore\n      pop\n        /* \"Contracts/SashoToken.sol\":7320:7327  spender */\n      dup5\n        /* \"Contracts/SashoToken.sol\":7299:7336  Approval(msg.sender, spender, amount) */\n      0xffffffffffffffffffffffffffffffffffffffff\n      and\n        /* \"Contracts/SashoToken.sol\":7308:7318  msg.sender */\n      caller\n        /* \"Contracts/SashoToken.sol\":7299:7336  Approval(msg.sender, spender, amount) */\n      0xffffffffffffffffffffffffffffffffffffffff\n      and\n      0x8c5be1e5ebec7d5bd14f71427d1e84f3dd0314c0f7b2291e5b200ac8c7c3b925\n        /* \"Contracts/SashoToken.sol\":7329:7335  amount */\n      dup5\n        /* \"Contracts/SashoToken.sol\":7299:7336  Approval(msg.sender, spender, amount) */\n      mload(0x40)\n      tag_128\n      swap2\n      swap1\n      tag_129\n      jump\t// in\n    tag_128:\n      mload(0x40)\n      dup1\n      swap2\n      sub\n      swap1\n      log3\n        /* \"Contracts/SashoToken.sol\":7353:7357  true */\n      0x01\n        /* \"Contracts/SashoToken.sol\":7346:7357  return true */\n      swap3\n      pop\n      pop\n      pop\n        /* \"Contracts/SashoToken.sol\":6906:7364  function approve(address spender, uint rawAmount) external returns (bool) {... */\n      swap3\n      swap2\n      pop\n      pop\n      jump\t// out\n        /* \"Contracts/SashoToken.sol\":3592:3621  uint96 public totalSupply = 0 */\n    tag_40:\n      0x00\n      0x14\n      swap1\n      sload\n      swap1\n      0x0100\n      exp\n      swap1\n      div\n      0xffffffffffffffffffffffff\n      and\n      dup2\n      jump\t// out\n        /* \"Contracts/SashoToken.sol\":4462:4584  bytes32 public constant DOMAIN_TYPEHASH = keccak256(\"EIP712Domain(string name,uint256 chainId,address verifyingContract)\") */\n    tag_44:\n        /* \"Contracts/SashoToken.sol\":4504:4584  keccak256(\"EIP712Domain(string name,uint256 chainId,address verifyingContract)\") */\n      0x8cad95687ba82c2ce50e74f7b754645e5117c3a5bec8151c0726d5857980a866\n        /* \"Contracts/SashoToken.sol\":4462:4584  bytes32 public constant DOMAIN_TYPEHASH = keccak256(\"EIP712Domain(string name,uint256 chainId,address verifyingContract)\") */\n      dup2\n      jump\t// out\n        /* \"Contracts/SashoToken.sol\":8458:9124  function transferFrom(address src, address dst, uint rawAmount) external returns (bool) {... */\n    tag_50:\n        /* \"Contracts/SashoToken.sol\":8540:8544  bool */\n      0x00\n        /* \"Contracts/SashoToken.sol\":8556:8571  address spender */\n      dup1\n        /* \"Contracts/SashoToken.sol\":8574:8584  msg.sender */\n      caller\n        /* \"Contracts/SashoToken.sol\":8556:8584  address spender = msg.sender */\n      swap1\n      pop\n        /* \"Contracts/SashoToken.sol\":8594:8617  uint96 spenderAllowance */\n      0x00\n        /* \"Contracts/SashoToken.sol\":8620:8630  allowances */\n      0x01\n        /* \"Contracts/SashoToken.sol\":8620:8635  allowances[src] */\n      0x00\n        /* \"Contracts/SashoToken.sol\":8631:8634  src */\n      dup8\n        /* \"Contracts/SashoToken.sol\":8620:8635  allowances[src] */\n      0xffffffffffffffffffffffffffffffffffffffff\n      and\n      0xffffffffffffffffffffffffffffffffffffffff\n      and\n      dup2\n      mstore\n      0x20\n      add\n      swap1\n      dup2\n      mstore\n      0x20\n      add\n      0x00\n      keccak256\n        /* \"Contracts/SashoToken.sol\":8620:8644  allowances[src][spender] */\n      0x00\n        /* \"Contracts/SashoToken.sol\":8636:8643  spender */\n      dup4\n        /* \"Contracts/SashoToken.sol\":8620:8644  allowances[src][spender] */\n      0xffffffffffffffffffffffffffffffffffffffff\n      and\n      0xffffffffffffffffffffffffffffffffffffffff\n      and\n      dup2\n      mstore\n      0x20\n      add\n      swap1\n      dup2\n      mstore\n      0x20\n      add\n      0x00\n      keccak256\n      0x00\n      swap1\n      sload\n      swap1\n      0x0100\n      exp\n      swap1\n      div\n      0xffffffffffffffffffffffff\n      and\n        /* \"Contracts/SashoToken.sol\":8594:8644  uint96 spenderAllowance = allowances[src][spender] */\n      swap1\n      pop\n        /* \"Contracts/SashoToken.sol\":8654:8667  uint96 amount */\n      0x00\n        /* \"Contracts/SashoToken.sol\":8670:8729  safe96(rawAmount, \"Sasho::approve: amount exceeds 96 bits\") */\n      tag_131\n        /* \"Contracts/SashoToken.sol\":8677:8686  rawAmount */\n      dup6\n        /* \"Contracts/SashoToken.sol\":8670:8729  safe96(rawAmount, \"Sasho::approve: amount exceeds 96 bits\") */\n      mload(0x40)\n      dup1\n      0x60\n      add\n      0x40\n      mstore\n      dup1\n      0x26\n      dup2\n      mstore\n      0x20\n      add\n      data_d1a0885ce6c9c8be36312eb84fd2a05e74ef6102a068235599b76a7f262e32f8\n      0x26\n      swap2\n      codecopy\n        /* \"Contracts/SashoToken.sol\":8670:8676  safe96 */\n      tag_127\n        /* \"Contracts/SashoToken.sol\":8670:8729  safe96(rawAmount, \"Sasho::approve: amount exceeds 96 bits\") */\n      jump\t// in\n    tag_131:\n        /* \"Contracts/SashoToken.sol\":8654:8729  uint96 amount = safe96(rawAmount, \"Sasho::approve: amount exceeds 96 bits\") */\n      swap1\n      pop\n        /* \"Contracts/SashoToken.sol\":8755:8758  src */\n      dup7\n        /* \"Contracts/SashoToken.sol\":8744:8758  spender != src */\n      0xffffffffffffffffffffffffffffffffffffffff\n      and\n        /* \"Contracts/SashoToken.sol\":8744:8751  spender */\n      dup4\n        /* \"Contracts/SashoToken.sol\":8744:8758  spender != src */\n      0xffffffffffffffffffffffffffffffffffffffff\n      and\n      eq\n      iszero\n        /* \"Contracts/SashoToken.sol\":8744:8798  spender != src && spenderAllowance != type(uint96).max */\n      dup1\n      iszero\n      tag_132\n      jumpi\n      pop\n        /* \"Contracts/SashoToken.sol\":8782:8798  type(uint96).max */\n      0xffffffffffffffffffffffff\n        /* \"Contracts/SashoToken.sol\":8762:8798  spenderAllowance != type(uint96).max */\n      dup1\n      and\n        /* \"Contracts/SashoToken.sol\":8762:8778  spenderAllowance */\n      dup3\n        /* \"Contracts/SashoToken.sol\":8762:8798  spenderAllowance != type(uint96).max */\n      0xffffffffffffffffffffffff\n      and\n      eq\n      iszero\n        /* \"Contracts/SashoToken.sol\":8744:8798  spender != src && spenderAllowance != type(uint96).max */\n    tag_132:\n        /* \"Contracts/SashoToken.sol\":8740:9053  if (spender != src && spenderAllowance != type(uint96).max) {... */\n      iszero\n      tag_133\n      jumpi\n        /* \"Contracts/SashoToken.sol\":8814:8833  uint96 newAllowance */\n      0x00\n        /* \"Contracts/SashoToken.sol\":8836:8933  sub96(spenderAllowance, amount, \"Sasho::transferFrom: transfer amount exceeds spender allowance\") */\n      tag_134\n        /* \"Contracts/SashoToken.sol\":8842:8858  spenderAllowance */\n      dup4\n        /* \"Contracts/SashoToken.sol\":8860:8866  amount */\n      dup4\n        /* \"Contracts/SashoToken.sol\":8836:8933  sub96(spenderAllowance, amount, \"Sasho::transferFrom: transfer amount exceeds spender allowance\") */\n      mload(0x40)\n      dup1\n      0x60\n      add\n      0x40\n      mstore\n      dup1\n      0x3e\n      dup2\n      mstore\n      0x20\n      add\n      data_17ec6caa048a0972bb57d37acee4a641d6566e7f2d125cce0303e5ff783b2036\n      0x3e\n      swap2\n      codecopy\n        /* \"Contracts/SashoToken.sol\":8836:8841  sub96 */\n      tag_135\n        /* \"Contracts/SashoToken.sol\":8836:8933  sub96(spenderAllowance, amount, \"Sasho::transferFrom: transfer amount exceeds spender allowance\") */\n      jump\t// in\n    tag_134:\n        /* \"Contracts/SashoToken.sol\":8814:8933  uint96 newAllowance = sub96(spenderAllowance, amount, \"Sasho::transferFrom: transfer amount exceeds spender allowance\") */\n      swap1\n      pop\n        /* \"Contracts/SashoToken.sol\":8974:8986  newAllowance */\n      dup1\n        /* \"Contracts/SashoToken.sol\":8947:8957  allowances */\n      0x01\n        /* \"Contracts/SashoToken.sol\":8947:8962  allowances[src] */\n      0x00\n        /* \"Contracts/SashoToken.sol\":8958:8961  src */\n      dup11\n        /* \"Contracts/SashoToken.sol\":8947:8962  allowances[src] */\n      0xffffffffffffffffffffffffffffffffffffffff\n      and\n      0xffffffffffffffffffffffffffffffffffffffff\n      and\n      dup2\n      mstore\n      0x20\n      add\n      swap1\n      dup2\n      mstore\n      0x20\n      add\n      0x00\n      keccak256\n        /* \"Contracts/SashoToken.sol\":8947:8971  allowances[src][spender] */\n      0x00\n        /* \"Contracts/SashoToken.sol\":8963:8970  spender */\n      dup7\n        /* \"Contracts/SashoToken.sol\":8947:8971  allowances[src][spender] */\n      0xffffffffffffffffffffffffffffffffffffffff\n      and\n      0xffffffffffffffffffffffffffffffffffffffff\n      and\n      dup2\n      mstore\n      0x20\n      add\n      swap1\n      dup2\n      mstore\n      0x20\n      add\n      0x00\n      keccak256\n      0x00\n        /* \"Contracts/SashoToken.sol\":8947:8986  allowances[src][spender] = newAllowance */\n      0x0100\n      exp\n      dup2\n      sload\n      dup2\n      0xffffffffffffffffffffffff\n      mul\n      not\n      and\n      swap1\n      dup4\n      0xffffffffffffffffffffffff\n      and\n      mul\n      or\n      swap1\n      sstore\n      pop\n        /* \"Contracts/SashoToken.sol\":9020:9027  spender */\n      dup4\n        /* \"Contracts/SashoToken.sol\":9006:9042  Approval(src, spender, newAllowance) */\n      0xffffffffffffffffffffffffffffffffffffffff\n      and\n        /* \"Contracts/SashoToken.sol\":9015:9018  src */\n      dup9\n        /* \"Contracts/SashoToken.sol\":9006:9042  Approval(src, spender, newAllowance) */\n      0xffffffffffffffffffffffffffffffffffffffff\n      and\n      0x8c5be1e5ebec7d5bd14f71427d1e84f3dd0314c0f7b2291e5b200ac8c7c3b925\n        /* \"Contracts/SashoToken.sol\":9029:9041  newAllowance */\n      dup4\n        /* \"Contracts/SashoToken.sol\":9006:9042  Approval(src, spender, newAllowance) */\n      mload(0x40)\n      tag_136\n      swap2\n      swap1\n      tag_129\n      jump\t// in\n    tag_136:\n      mload(0x40)\n      dup1\n      swap2\n      sub\n      swap1\n      log3\n        /* \"Contracts/SashoToken.sol\":8800:9053  {... */\n      pop\n        /* \"Contracts/SashoToken.sol\":8740:9053  if (spender != src && spenderAllowance != type(uint96).max) {... */\n    tag_133:\n        /* \"Contracts/SashoToken.sol\":9063:9096  _transferTokens(src, dst, amount) */\n      tag_137\n        /* \"Contracts/SashoToken.sol\":9079:9082  src */\n      dup8\n        /* \"Contracts/SashoToken.sol\":9084:9087  dst */\n      dup8\n        /* \"Contracts/SashoToken.sol\":9089:9095  amount */\n      dup4\n        /* \"Contracts/SashoToken.sol\":9063:9078  _transferTokens */\n      tag_138\n        /* \"Contracts/SashoToken.sol\":9063:9096  _transferTokens(src, dst, amount) */\n      jump\t// in\n    tag_137:\n        /* \"Contracts/SashoToken.sol\":9113:9117  true */\n      0x01\n        /* \"Contracts/SashoToken.sol\":9106:9117  return true */\n      swap4\n      pop\n      pop\n      pop\n      pop\n        /* \"Contracts/SashoToken.sol\":8458:9124  function transferFrom(address src, address dst, uint rawAmount) external returns (bool) {... */\n      swap4\n      swap3\n      pop\n      pop\n      pop\n      jump\t// out\n        /* \"Contracts/SashoToken.sol\":3496:3531  uint8 public constant decimals = 18 */\n    tag_53:\n        /* \"Contracts/SashoToken.sol\":3529:3531  18 */\n      0x12\n        /* \"Contracts/SashoToken.sol\":3496:3531  uint8 public constant decimals = 18 */\n      dup2\n      jump\t// out\n        /* \"Contracts/SashoToken.sol\":5648:6008  function mint(address account, uint256 rawAmount) public onlyOwner {... */\n    tag_58:\n        /* \"Contracts/SashoToken.sol\":2139:2151  _msgSender() */\n      tag_140\n        /* \"Contracts/SashoToken.sol\":2139:2149  _msgSender */\n      tag_141\n        /* \"Contracts/SashoToken.sol\":2139:2151  _msgSender() */\n      jump\t// in\n    tag_140:\n        /* \"Contracts/SashoToken.sol\":2128:2151  owner() == _msgSender() */\n      0xffffffffffffffffffffffffffffffffffffffff\n      and\n        /* \"Contracts/SashoToken.sol\":2128:2135  owner() */\n      tag_142\n        /* \"Contracts/SashoToken.sol\":2128:2133  owner */\n      tag_89\n        /* \"Contracts/SashoToken.sol\":2128:2135  owner() */\n      jump\t// in\n    tag_142:\n        /* \"Contracts/SashoToken.sol\":2128:2151  owner() == _msgSender() */\n      0xffffffffffffffffffffffffffffffffffffffff\n      and\n      eq\n        /* \"Contracts/SashoToken.sol\":2120:2188  require(owner() == _msgSender(), \"Ownable: caller is not the owner\") */\n      tag_143\n      jumpi\n      mload(0x40)\n      0x08c379a000000000000000000000000000000000000000000000000000000000\n      dup2\n      mstore\n      0x04\n      add\n      tag_144\n      swap1\n      tag_145\n      jump\t// in\n    tag_144:\n      mload(0x40)\n      dup1\n      swap2\n      sub\n      swap1\n      revert\n    tag_143:\n        /* \"Contracts/SashoToken.sol\":5752:5753  0 */\n      0x00\n        /* \"Contracts/SashoToken.sol\":5733:5754  account != address(0) */\n      0xffffffffffffffffffffffffffffffffffffffff\n      and\n        /* \"Contracts/SashoToken.sol\":5733:5740  account */\n      dup3\n        /* \"Contracts/SashoToken.sol\":5733:5754  account != address(0) */\n      0xffffffffffffffffffffffffffffffffffffffff\n      and\n      sub\n        /* \"Contracts/SashoToken.sol\":5725:5790  require(account != address(0), \"ERC20: mint to the zero address\") */\n      tag_147\n      jumpi\n      mload(0x40)\n      0x08c379a000000000000000000000000000000000000000000000000000000000\n      dup2\n      mstore\n      0x04\n      add\n      tag_148\n      swap1\n      tag_149\n      jump\t// in\n    tag_148:\n      mload(0x40)\n      dup1\n      swap2\n      sub\n      swap1\n      revert\n    tag_147:\n        /* \"Contracts/SashoToken.sol\":5800:5813  uint96 amount */\n      0x00\n        /* \"Contracts/SashoToken.sol\":5816:5876  safe96(rawAmount, \"Sasho::transfer: amount exceeds 96 bits\") */\n      tag_150\n        /* \"Contracts/SashoToken.sol\":5823:5832  rawAmount */\n      dup3\n        /* \"Contracts/SashoToken.sol\":5816:5876  safe96(rawAmount, \"Sasho::transfer: amount exceeds 96 bits\") */\n      mload(0x40)\n      dup1\n      0x60\n      add\n      0x40\n      mstore\n      dup1\n      0x27\n      dup2\n      mstore\n      0x20\n      add\n      data_43820eb1c94e3b5abdef1bf31b8cf1fb6cf8fcc5e388bb41129da4c72ff2cd64\n      0x27\n      swap2\n      codecopy\n        /* \"Contracts/SashoToken.sol\":5816:5822  safe96 */\n      tag_127\n        /* \"Contracts/SashoToken.sol\":5816:5876  safe96(rawAmount, \"Sasho::transfer: amount exceeds 96 bits\") */\n      jump\t// in\n    tag_150:\n        /* \"Contracts/SashoToken.sol\":5800:5876  uint96 amount = safe96(rawAmount, \"Sasho::transfer: amount exceeds 96 bits\") */\n      swap1\n      pop\n        /* \"Contracts/SashoToken.sol\":5901:5907  amount */\n      dup1\n        /* \"Contracts/SashoToken.sol\":5886:5897  totalSupply */\n      0x00\n      0x14\n        /* \"Contracts/SashoToken.sol\":5886:5907  totalSupply += amount */\n      dup3\n      dup3\n      dup3\n      swap1\n      sload\n      swap1\n      0x0100\n      exp\n      swap1\n      div\n      0xffffffffffffffffffffffff\n      and\n      tag_151\n      swap2\n      swap1\n      tag_152\n      jump\t// in\n    tag_151:\n      swap3\n      pop\n      0x0100\n      exp\n      dup2\n      sload\n      dup2\n      0xffffffffffffffffffffffff\n      mul\n      not\n      and\n      swap1\n      dup4\n      0xffffffffffffffffffffffff\n      and\n      mul\n      or\n      swap1\n      sstore\n      pop\n        /* \"Contracts/SashoToken.sol\":5938:5944  amount */\n      dup1\n        /* \"Contracts/SashoToken.sol\":5917:5925  balances */\n      0x02\n        /* \"Contracts/SashoToken.sol\":5917:5934  balances[account] */\n      0x00\n        /* \"Contracts/SashoToken.sol\":5926:5933  account */\n      dup6\n        /* \"Contracts/SashoToken.sol\":5917:5934  balances[account] */\n      0xffffffffffffffffffffffffffffffffffffffff\n      and\n      0xffffffffffffffffffffffffffffffffffffffff\n      and\n      dup2\n      mstore\n      0x20\n      add\n      swap1\n      dup2\n      mstore\n      0x20\n      add\n      0x00\n      keccak256\n      0x00\n        /* \"Contracts/SashoToken.sol\":5917:5944  balances[account] += amount */\n      dup3\n      dup3\n      dup3\n      swap1\n      sload\n      swap1\n      0x0100\n      exp\n      swap1\n      div\n      0xffffffffffffffffffffffff\n      and\n      tag_153\n      swap2\n      swap1\n      tag_152\n      jump\t// in\n    tag_153:\n      swap3\n      pop\n      0x0100\n      exp\n      dup2\n      sload\n      dup2\n      0xffffffffffffffffffffffff\n      mul\n      not\n      and\n      swap1\n      dup4\n      0xffffffffffffffffffffffff\n      and\n      mul\n      or\n      swap1\n      sstore\n      pop\n        /* \"Contracts/SashoToken.sol\":5980:5987  account */\n      dup3\n        /* \"Contracts/SashoToken.sol\":5959:6001  Transfer(address(0), account, totalSupply) */\n      0xffffffffffffffffffffffffffffffffffffffff\n      and\n        /* \"Contracts/SashoToken.sol\":5976:5977  0 */\n      0x00\n        /* \"Contracts/SashoToken.sol\":5959:6001  Transfer(address(0), account, totalSupply) */\n      0xffffffffffffffffffffffffffffffffffffffff\n      and\n      0xddf252ad1be2c89b69c2b068fc378daa952ba7f163c4a11628f55a4df523b3ef\n        /* \"Contracts/SashoToken.sol\":5989:6000  totalSupply */\n      0x00\n      0x14\n      swap1\n      sload\n      swap1\n      0x0100\n      exp\n      swap1\n      div\n      0xffffffffffffffffffffffff\n      and\n        /* \"Contracts/SashoToken.sol\":5959:6001  Transfer(address(0), account, totalSupply) */\n      mload(0x40)\n      tag_154\n      swap2\n      swap1\n      tag_129\n      jump\t// in\n    tag_154:\n      mload(0x40)\n      dup1\n      swap2\n      sub\n      swap1\n      log3\n        /* \"Contracts/SashoToken.sol\":5715:6008  {... */\n      pop\n        /* \"Contracts/SashoToken.sol\":5648:6008  function mint(address account, uint256 rawAmount) public onlyOwner {... */\n      pop\n      pop\n      jump\t// out\n        /* \"Contracts/SashoToken.sol\":3927:3972  mapping (address => address) public delegates */\n    tag_62:\n      mstore(0x20, 0x03)\n      dup1\n      0x00\n      mstore\n      keccak256(0x00, 0x40)\n      0x00\n      swap2\n      pop\n      sload\n      swap1\n      0x0100\n      exp\n      swap1\n      div\n      0xffffffffffffffffffffffffffffffffffffffff\n      and\n      dup2\n      jump\t// out\n        /* \"Contracts/SashoToken.sol\":9266:9366  function delegate(address delegatee) public {... */\n    tag_67:\n        /* \"Contracts/SashoToken.sol\":9327:9359  _delegate(msg.sender, delegatee) */\n      tag_156\n        /* \"Contracts/SashoToken.sol\":9337:9347  msg.sender */\n      caller\n        /* \"Contracts/SashoToken.sol\":9349:9358  delegatee */\n      dup3\n        /* \"Contracts/SashoToken.sol\":9327:9336  _delegate */\n      tag_157\n        /* \"Contracts/SashoToken.sol\":9327:9359  _delegate(msg.sender, delegatee) */\n      jump\t// in\n    tag_156:\n        /* \"Contracts/SashoToken.sol\":9266:9366  function delegate(address delegatee) public {... */\n      pop\n      jump\t// out\n        /* \"Contracts/SashoToken.sol\":4343:4392  mapping (address => uint32) public numCheckpoints */\n    tag_70:\n      mstore(0x20, 0x05)\n      dup1\n      0x00\n      mstore\n      keccak256(0x00, 0x40)\n      0x00\n      swap2\n      pop\n      sload\n      swap1\n      0x0100\n      exp\n      swap1\n      div\n      0xffffffff\n      and\n      dup2\n      jump\t// out\n        /* \"Contracts/SashoToken.sol\":7560:7666  function balanceOf(address account) external view returns (uint) {... */\n    tag_75:\n        /* \"Contracts/SashoToken.sol\":7619:7623  uint */\n      0x00\n        /* \"Contracts/SashoToken.sol\":7642:7650  balances */\n      0x02\n        /* \"Contracts/SashoToken.sol\":7642:7659  balances[account] */\n      0x00\n        /* \"Contracts/SashoToken.sol\":7651:7658  account */\n      dup4\n        /* \"Contracts/SashoToken.sol\":7642:7659  balances[account] */\n      0xffffffffffffffffffffffffffffffffffffffff\n      and\n      0xffffffffffffffffffffffffffffffffffffffff\n      and\n      dup2\n      mstore\n      0x20\n      add\n      swap1\n      dup2\n      mstore\n      0x20\n      add\n      0x00\n      keccak256\n      0x00\n      swap1\n      sload\n      swap1\n      0x0100\n      exp\n      swap1\n      div\n      0xffffffffffffffffffffffff\n      and\n        /* \"Contracts/SashoToken.sol\":7635:7659  return balances[account] */\n      0xffffffffffffffffffffffff\n      and\n      swap1\n      pop\n        /* \"Contracts/SashoToken.sol\":7560:7666  function balanceOf(address account) external view returns (uint) {... */\n      swap2\n      swap1\n      pop\n      jump\t// out\n        /* \"Contracts/SashoToken.sol\":2548:2640  function renounceOwnership() public virtual onlyOwner {... */\n    tag_79:\n        /* \"Contracts/SashoToken.sol\":2139:2151  _msgSender() */\n      tag_160\n        /* \"Contracts/SashoToken.sol\":2139:2149  _msgSender */\n      tag_141\n        /* \"Contracts/SashoToken.sol\":2139:2151  _msgSender() */\n      jump\t// in\n    tag_160:\n        /* \"Contracts/SashoToken.sol\":2128:2151  owner() == _msgSender() */\n      0xffffffffffffffffffffffffffffffffffffffff\n      and\n        /* \"Contracts/SashoToken.sol\":2128:2135  owner() */\n      tag_161\n        /* \"Contracts/SashoToken.sol\":2128:2133  owner */\n      tag_89\n        /* \"Contracts/SashoToken.sol\":2128:2135  owner() */\n      jump\t// in\n    tag_161:\n        /* \"Contracts/SashoToken.sol\":2128:2151  owner() == _msgSender() */\n      0xffffffffffffffffffffffffffffffffffffffff\n      and\n      eq\n        /* \"Contracts/SashoToken.sol\":2120:2188  require(owner() == _msgSender(), \"Ownable: caller is not the owner\") */\n      tag_162\n      jumpi\n      mload(0x40)\n      0x08c379a000000000000000000000000000000000000000000000000000000000\n      dup2\n      mstore\n      0x04\n      add\n      tag_163\n      swap1\n      tag_145\n      jump\t// in\n    tag_163:\n      mload(0x40)\n      dup1\n      swap2\n      sub\n      swap1\n      revert\n    tag_162:\n        /* \"Contracts/SashoToken.sol\":2612:2633  _setOwner(address(0)) */\n      tag_165\n        /* \"Contracts/SashoToken.sol\":2630:2631  0 */\n      0x00\n        /* \"Contracts/SashoToken.sol\":2612:2621  _setOwner */\n      tag_166\n        /* \"Contracts/SashoToken.sol\":2612:2633  _setOwner(address(0)) */\n      jump\t// in\n    tag_165:\n        /* \"Contracts/SashoToken.sol\":2548:2640  function renounceOwnership() public virtual onlyOwner {... */\n      jump\t// out\n        /* \"Contracts/SashoToken.sol\":11419:12606  function getPriorVotes(address account, uint blockNumber) public view returns (uint96) {... */\n    tag_82:\n        /* \"Contracts/SashoToken.sol\":11498:11504  uint96 */\n      0x00\n        /* \"Contracts/SashoToken.sol\":11538:11550  block.number */\n      number\n        /* \"Contracts/SashoToken.sol\":11524:11535  blockNumber */\n      dup3\n        /* \"Contracts/SashoToken.sol\":11524:11550  blockNumber < block.number */\n      lt\n        /* \"Contracts/SashoToken.sol\":11516:11595  require(blockNumber < block.number, \"Sasho::getPriorVotes: not yet determined\") */\n      tag_168\n      jumpi\n      mload(0x40)\n      0x08c379a000000000000000000000000000000000000000000000000000000000\n      dup2\n      mstore\n      0x04\n      add\n      tag_169\n      swap1\n      tag_170\n      jump\t// in\n    tag_169:\n      mload(0x40)\n      dup1\n      swap2\n      sub\n      swap1\n      revert\n    tag_168:\n        /* \"Contracts/SashoToken.sol\":11606:11625  uint32 nCheckpoints */\n      0x00\n        /* \"Contracts/SashoToken.sol\":11628:11642  numCheckpoints */\n      0x05\n        /* \"Contracts/SashoToken.sol\":11628:11651  numCheckpoints[account] */\n      0x00\n        /* \"Contracts/SashoToken.sol\":11643:11650  account */\n      dup6\n        /* \"Contracts/SashoToken.sol\":11628:11651  numCheckpoints[account] */\n      0xffffffffffffffffffffffffffffffffffffffff\n      and\n      0xffffffffffffffffffffffffffffffffffffffff\n      and\n      dup2\n      mstore\n      0x20\n      add\n      swap1\n      dup2\n      mstore\n      0x20\n      add\n      0x00\n      keccak256\n      0x00\n      swap1\n      sload\n      swap1\n      0x0100\n      exp\n      swap1\n      div\n      0xffffffff\n      and\n        /* \"Contracts/SashoToken.sol\":11606:11651  uint32 nCheckpoints = numCheckpoints[account] */\n      swap1\n      pop\n        /* \"Contracts/SashoToken.sol\":11681:11682  0 */\n      0x00\n        /* \"Contracts/SashoToken.sol\":11665:11677  nCheckpoints */\n      dup2\n        /* \"Contracts/SashoToken.sol\":11665:11682  nCheckpoints == 0 */\n      0xffffffff\n      and\n      sub\n        /* \"Contracts/SashoToken.sol\":11661:11717  if (nCheckpoints == 0) {... */\n      tag_171\n      jumpi\n        /* \"Contracts/SashoToken.sol\":11705:11706  0 */\n      0x00\n        /* \"Contracts/SashoToken.sol\":11698:11706  return 0 */\n      swap2\n      pop\n      pop\n      jump(tag_167)\n        /* \"Contracts/SashoToken.sol\":11661:11717  if (nCheckpoints == 0) {... */\n    tag_171:\n        /* \"Contracts/SashoToken.sol\":11826:11837  blockNumber */\n      dup3\n        /* \"Contracts/SashoToken.sol\":11774:11785  checkpoints */\n      0x04\n        /* \"Contracts/SashoToken.sol\":11774:11794  checkpoints[account] */\n      0x00\n        /* \"Contracts/SashoToken.sol\":11786:11793  account */\n      dup7\n        /* \"Contracts/SashoToken.sol\":11774:11794  checkpoints[account] */\n      0xffffffffffffffffffffffffffffffffffffffff\n      and\n      0xffffffffffffffffffffffffffffffffffffffff\n      and\n      dup2\n      mstore\n      0x20\n      add\n      swap1\n      dup2\n      mstore\n      0x20\n      add\n      0x00\n      keccak256\n        /* \"Contracts/SashoToken.sol\":11774:11812  checkpoints[account][nCheckpoints - 1] */\n      0x00\n        /* \"Contracts/SashoToken.sol\":11810:11811  1 */\n      0x01\n        /* \"Contracts/SashoToken.sol\":11795:11807  nCheckpoints */\n      dup5\n        /* \"Contracts/SashoToken.sol\":11795:11811  nCheckpoints - 1 */\n      tag_172\n      swap2\n      swap1\n      tag_173\n      jump\t// in\n    tag_172:\n        /* \"Contracts/SashoToken.sol\":11774:11812  checkpoints[account][nCheckpoints - 1] */\n      0xffffffff\n      and\n      0xffffffff\n      and\n      dup2\n      mstore\n      0x20\n      add\n      swap1\n      dup2\n      mstore\n      0x20\n      add\n      0x00\n      keccak256\n        /* \"Contracts/SashoToken.sol\":11774:11822  checkpoints[account][nCheckpoints - 1].fromBlock */\n      0x00\n      add\n      0x00\n      swap1\n      sload\n      swap1\n      0x0100\n      exp\n      swap1\n      div\n      0xffffffff\n      and\n        /* \"Contracts/SashoToken.sol\":11774:11837  checkpoints[account][nCheckpoints - 1].fromBlock <= blockNumber */\n      0xffffffff\n      and\n      gt\n        /* \"Contracts/SashoToken.sol\":11770:11915  if (checkpoints[account][nCheckpoints - 1].fromBlock <= blockNumber) {... */\n      tag_174\n      jumpi\n        /* \"Contracts/SashoToken.sol\":11860:11871  checkpoints */\n      0x04\n        /* \"Contracts/SashoToken.sol\":11860:11880  checkpoints[account] */\n      0x00\n        /* \"Contracts/SashoToken.sol\":11872:11879  account */\n      dup6\n        /* \"Contracts/SashoToken.sol\":11860:11880  checkpoints[account] */\n      0xffffffffffffffffffffffffffffffffffffffff\n      and\n      0xffffffffffffffffffffffffffffffffffffffff\n      and\n      dup2\n      mstore\n      0x20\n      add\n      swap1\n      dup2\n      mstore\n      0x20\n      add\n      0x00\n      keccak256\n        /* \"Contracts/SashoToken.sol\":11860:11898  checkpoints[account][nCheckpoints - 1] */\n      0x00\n        /* \"Contracts/SashoToken.sol\":11896:11897  1 */\n      0x01\n        /* \"Contracts/SashoToken.sol\":11881:11893  nCheckpoints */\n      dup4\n        /* \"Contracts/SashoToken.sol\":11881:11897  nCheckpoints - 1 */\n      tag_175\n      swap2\n      swap1\n      tag_173\n      jump\t// in\n    tag_175:\n        /* \"Contracts/SashoToken.sol\":11860:11898  checkpoints[account][nCheckpoints - 1] */\n      0xffffffff\n      and\n      0xffffffff\n      and\n      dup2\n      mstore\n      0x20\n      add\n      swap1\n      dup2\n      mstore\n      0x20\n      add\n      0x00\n      keccak256\n        /* \"Contracts/SashoToken.sol\":11860:11904  checkpoints[account][nCheckpoints - 1].votes */\n      0x00\n      add\n      0x04\n      swap1\n      sload\n      swap1\n      0x0100\n      exp\n      swap1\n      div\n      0xffffffffffffffffffffffff\n      and\n        /* \"Contracts/SashoToken.sol\":11853:11904  return checkpoints[account][nCheckpoints - 1].votes */\n      swap2\n      pop\n      pop\n      jump(tag_167)\n        /* \"Contracts/SashoToken.sol\":11770:11915  if (checkpoints[account][nCheckpoints - 1].fromBlock <= blockNumber) {... */\n    tag_174:\n        /* \"Contracts/SashoToken.sol\":12009:12020  blockNumber */\n      dup3\n        /* \"Contracts/SashoToken.sol\":11973:11984  checkpoints */\n      0x04\n        /* \"Contracts/SashoToken.sol\":11973:11993  checkpoints[account] */\n      0x00\n        /* \"Contracts/SashoToken.sol\":11985:11992  account */\n      dup7\n        /* \"Contracts/SashoToken.sol\":11973:11993  checkpoints[account] */\n      0xffffffffffffffffffffffffffffffffffffffff\n      and\n      0xffffffffffffffffffffffffffffffffffffffff\n      and\n      dup2\n      mstore\n      0x20\n      add\n      swap1\n      dup2\n      mstore\n      0x20\n      add\n      0x00\n      keccak256\n        /* \"Contracts/SashoToken.sol\":11973:11996  checkpoints[account][0] */\n      0x00\n        /* \"Contracts/SashoToken.sol\":11994:11995  0 */\n      dup1\n        /* \"Contracts/SashoToken.sol\":11973:11996  checkpoints[account][0] */\n      0xffffffff\n      and\n      dup2\n      mstore\n      0x20\n      add\n      swap1\n      dup2\n      mstore\n      0x20\n      add\n      0x00\n      keccak256\n        /* \"Contracts/SashoToken.sol\":11973:12006  checkpoints[account][0].fromBlock */\n      0x00\n      add\n      0x00\n      swap1\n      sload\n      swap1\n      0x0100\n      exp\n      swap1\n      div\n      0xffffffff\n      and\n        /* \"Contracts/SashoToken.sol\":11973:12020  checkpoints[account][0].fromBlock > blockNumber */\n      0xffffffff\n      and\n      gt\n        /* \"Contracts/SashoToken.sol\":11969:12055  if (checkpoints[account][0].fromBlock > blockNumber) {... */\n      iszero\n      tag_176\n      jumpi\n        /* \"Contracts/SashoToken.sol\":12043:12044  0 */\n      0x00\n        /* \"Contracts/SashoToken.sol\":12036:12044  return 0 */\n      swap2\n      pop\n      pop\n      jump(tag_167)\n        /* \"Contracts/SashoToken.sol\":11969:12055  if (checkpoints[account][0].fromBlock > blockNumber) {... */\n    tag_176:\n        /* \"Contracts/SashoToken.sol\":12065:12077  uint32 lower */\n      0x00\n        /* \"Contracts/SashoToken.sol\":12091:12103  uint32 upper */\n      dup1\n        /* \"Contracts/SashoToken.sol\":12121:12122  1 */\n      0x01\n        /* \"Contracts/SashoToken.sol\":12106:12118  nCheckpoints */\n      dup4\n        /* \"Contracts/SashoToken.sol\":12106:12122  nCheckpoints - 1 */\n      tag_177\n      swap2\n      swap1\n      tag_173\n      jump\t// in\n    tag_177:\n        /* \"Contracts/SashoToken.sol\":12091:12122  uint32 upper = nCheckpoints - 1 */\n      swap1\n      pop\n        /* \"Contracts/SashoToken.sol\":12132:12550  while (upper > lower) {... */\n    tag_178:\n        /* \"Contracts/SashoToken.sol\":12147:12152  lower */\n      dup2\n        /* \"Contracts/SashoToken.sol\":12139:12152  upper > lower */\n      0xffffffff\n      and\n        /* \"Contracts/SashoToken.sol\":12139:12144  upper */\n      dup2\n        /* \"Contracts/SashoToken.sol\":12139:12152  upper > lower */\n      0xffffffff\n      and\n      gt\n        /* \"Contracts/SashoToken.sol\":12132:12550  while (upper > lower) {... */\n      iszero\n      tag_179\n      jumpi\n        /* \"Contracts/SashoToken.sol\":12168:12181  uint32 center */\n      0x00\n        /* \"Contracts/SashoToken.sol\":12210:12211  2 */\n      0x02\n        /* \"Contracts/SashoToken.sol\":12201:12206  lower */\n      dup4\n        /* \"Contracts/SashoToken.sol\":12193:12198  upper */\n      dup4\n        /* \"Contracts/SashoToken.sol\":12193:12206  upper - lower */\n      tag_180\n      swap2\n      swap1\n      tag_173\n      jump\t// in\n    tag_180:\n        /* \"Contracts/SashoToken.sol\":12192:12211  (upper - lower) / 2 */\n      tag_181\n      swap2\n      swap1\n      tag_182\n      jump\t// in\n    tag_181:\n        /* \"Contracts/SashoToken.sol\":12184:12189  upper */\n      dup3\n        /* \"Contracts/SashoToken.sol\":12184:12211  upper - (upper - lower) / 2 */\n      tag_183\n      swap2\n      swap1\n      tag_173\n      jump\t// in\n    tag_183:\n        /* \"Contracts/SashoToken.sol\":12168:12211  uint32 center = upper - (upper - lower) / 2 */\n      swap1\n      pop\n        /* \"Contracts/SashoToken.sol\":12252:12272  Checkpoint memory cp */\n      0x00\n        /* \"Contracts/SashoToken.sol\":12275:12286  checkpoints */\n      0x04\n        /* \"Contracts/SashoToken.sol\":12275:12295  checkpoints[account] */\n      0x00\n        /* \"Contracts/SashoToken.sol\":12287:12294  account */\n      dup10\n        /* \"Contracts/SashoToken.sol\":12275:12295  checkpoints[account] */\n      0xffffffffffffffffffffffffffffffffffffffff\n      and\n      0xffffffffffffffffffffffffffffffffffffffff\n      and\n      dup2\n      mstore\n      0x20\n      add\n      swap1\n      dup2\n      mstore\n      0x20\n      add\n      0x00\n      keccak256\n        /* \"Contracts/SashoToken.sol\":12275:12303  checkpoints[account][center] */\n      0x00\n        /* \"Contracts/SashoToken.sol\":12296:12302  center */\n      dup4\n        /* \"Contracts/SashoToken.sol\":12275:12303  checkpoints[account][center] */\n      0xffffffff\n      and\n      0xffffffff\n      and\n      dup2\n      mstore\n      0x20\n      add\n      swap1\n      dup2\n      mstore\n      0x20\n      add\n      0x00\n      keccak256\n        /* \"Contracts/SashoToken.sol\":12252:12303  Checkpoint memory cp = checkpoints[account][center] */\n      mload(0x40)\n      dup1\n      0x40\n      add\n      0x40\n      mstore\n      swap1\n      dup2\n      0x00\n      dup3\n      add\n      0x00\n      swap1\n      sload\n      swap1\n      0x0100\n      exp\n      swap1\n      div\n      0xffffffff\n      and\n      0xffffffff\n      and\n      0xffffffff\n      and\n      dup2\n      mstore\n      0x20\n      add\n      0x00\n      dup3\n      add\n      0x04\n      swap1\n      sload\n      swap1\n      0x0100\n      exp\n      swap1\n      div\n      0xffffffffffffffffffffffff\n      and\n      0xffffffffffffffffffffffff\n      and\n      0xffffffffffffffffffffffff\n      and\n      dup2\n      mstore\n      pop\n      pop\n      swap1\n      pop\n        /* \"Contracts/SashoToken.sol\":12337:12348  blockNumber */\n      dup7\n        /* \"Contracts/SashoToken.sol\":12321:12323  cp */\n      dup2\n        /* \"Contracts/SashoToken.sol\":12321:12333  cp.fromBlock */\n      0x00\n      add\n      mload\n        /* \"Contracts/SashoToken.sol\":12321:12348  cp.fromBlock == blockNumber */\n      0xffffffff\n      and\n      sub\n        /* \"Contracts/SashoToken.sol\":12317:12540  if (cp.fromBlock == blockNumber) {... */\n      tag_184\n      jumpi\n        /* \"Contracts/SashoToken.sol\":12375:12377  cp */\n      dup1\n        /* \"Contracts/SashoToken.sol\":12375:12383  cp.votes */\n      0x20\n      add\n      mload\n        /* \"Contracts/SashoToken.sol\":12368:12383  return cp.votes */\n      swap6\n      pop\n      pop\n      pop\n      pop\n      pop\n      pop\n      jump(tag_167)\n        /* \"Contracts/SashoToken.sol\":12317:12540  if (cp.fromBlock == blockNumber) {... */\n    tag_184:\n        /* \"Contracts/SashoToken.sol\":12423:12434  blockNumber */\n      dup7\n        /* \"Contracts/SashoToken.sol\":12408:12410  cp */\n      dup2\n        /* \"Contracts/SashoToken.sol\":12408:12420  cp.fromBlock */\n      0x00\n      add\n      mload\n        /* \"Contracts/SashoToken.sol\":12408:12434  cp.fromBlock < blockNumber */\n      0xffffffff\n      and\n      lt\n        /* \"Contracts/SashoToken.sol\":12404:12540  if (cp.fromBlock < blockNumber) {... */\n      iszero\n      tag_186\n      jumpi\n        /* \"Contracts/SashoToken.sol\":12462:12468  center */\n      dup2\n        /* \"Contracts/SashoToken.sol\":12454:12468  lower = center */\n      swap4\n      pop\n        /* \"Contracts/SashoToken.sol\":12404:12540  if (cp.fromBlock < blockNumber) {... */\n      jump(tag_187)\n    tag_186:\n        /* \"Contracts/SashoToken.sol\":12524:12525  1 */\n      0x01\n        /* \"Contracts/SashoToken.sol\":12515:12521  center */\n      dup3\n        /* \"Contracts/SashoToken.sol\":12515:12525  center - 1 */\n      tag_188\n      swap2\n      swap1\n      tag_173\n      jump\t// in\n    tag_188:\n        /* \"Contracts/SashoToken.sol\":12507:12525  upper = center - 1 */\n      swap3\n      pop\n        /* \"Contracts/SashoToken.sol\":12404:12540  if (cp.fromBlock < blockNumber) {... */\n    tag_187:\n        /* \"Contracts/SashoToken.sol\":12154:12550  {... */\n      pop\n      pop\n        /* \"Contracts/SashoToken.sol\":12132:12550  while (upper > lower) {... */\n      jump(tag_178)\n    tag_179:\n        /* \"Contracts/SashoToken.sol\":12566:12577  checkpoints */\n      0x04\n        /* \"Contracts/SashoToken.sol\":12566:12586  checkpoints[account] */\n      0x00\n        /* \"Contracts/SashoToken.sol\":12578:12585  account */\n      dup8\n        /* \"Contracts/SashoToken.sol\":12566:12586  checkpoints[account] */\n      0xffffffffffffffffffffffffffffffffffffffff\n      and\n      0xffffffffffffffffffffffffffffffffffffffff\n      and\n      dup2\n      mstore\n      0x20\n      add\n      swap1\n      dup2\n      mstore\n      0x20\n      add\n      0x00\n      keccak256\n        /* \"Contracts/SashoToken.sol\":12566:12593  checkpoints[account][lower] */\n      0x00\n        /* \"Contracts/SashoToken.sol\":12587:12592  lower */\n      dup4\n        /* \"Contracts/SashoToken.sol\":12566:12593  checkpoints[account][lower] */\n      0xffffffff\n      and\n      0xffffffff\n      and\n      dup2\n      mstore\n      0x20\n      add\n      swap1\n      dup2\n      mstore\n      0x20\n      add\n      0x00\n      keccak256\n        /* \"Contracts/SashoToken.sol\":12566:12599  checkpoints[account][lower].votes */\n      0x00\n      add\n      0x04\n      swap1\n      sload\n      swap1\n      0x0100\n      exp\n      swap1\n      div\n      0xffffffffffffffffffffffff\n      and\n        /* \"Contracts/SashoToken.sol\":12559:12599  return checkpoints[account][lower].votes */\n      swap4\n      pop\n      pop\n      pop\n      pop\n        /* \"Contracts/SashoToken.sol\":11419:12606  function getPriorVotes(address account, uint blockNumber) public view returns (uint96) {... */\n    tag_167:\n      swap3\n      swap2\n      pop\n      pop\n      jump\t// out\n        /* \"Contracts/SashoToken.sol\":4870:4909  mapping (address => uint) public nonces */\n    tag_86:\n      mstore(0x20, 0x06)\n      dup1\n      0x00\n      mstore\n      keccak256(0x00, 0x40)\n      0x00\n      swap2\n      pop\n      swap1\n      pop\n      sload\n      dup2\n      jump\t// out\n        /* \"Contracts/SashoToken.sol\":1916:2001  function owner() public view virtual returns (address) {... */\n    tag_89:\n        /* \"Contracts/SashoToken.sol\":1962:1969  address */\n      0x00\n        /* \"Contracts/SashoToken.sol\":1988:1994  _owner */\n      dup1\n      0x00\n      swap1\n      sload\n      swap1\n      0x0100\n      exp\n      swap1\n      div\n      0xffffffffffffffffffffffffffffffffffffffff\n      and\n        /* \"Contracts/SashoToken.sol\":1981:1994  return _owner */\n      swap1\n      pop\n        /* \"Contracts/SashoToken.sol\":1916:2001  function owner() public view virtual returns (address) {... */\n      swap1\n      jump\t// out\n        /* \"Contracts/SashoToken.sol\":3397:3436  string public constant symbol = \"SASHO\" */\n    tag_92:\n      mload(0x40)\n      dup1\n      0x40\n      add\n      0x40\n      mstore\n      dup1\n      0x05\n      dup2\n      mstore\n      0x20\n      add\n      0x534153484f000000000000000000000000000000000000000000000000000000\n      dup2\n      mstore\n      pop\n      dup2\n      jump\t// out\n        /* \"Contracts/SashoToken.sol\":7922:8157  function transfer(address dst, uint rawAmount) external returns (bool) {... */\n    tag_96:\n        /* \"Contracts/SashoToken.sol\":7987:7991  bool */\n      0x00\n        /* \"Contracts/SashoToken.sol\":8003:8016  uint96 amount */\n      dup1\n        /* \"Contracts/SashoToken.sol\":8019:8079  safe96(rawAmount, \"Sasho::transfer: amount exceeds 96 bits\") */\n      tag_191\n        /* \"Contracts/SashoToken.sol\":8026:8035  rawAmount */\n      dup4\n        /* \"Contracts/SashoToken.sol\":8019:8079  safe96(rawAmount, \"Sasho::transfer: amount exceeds 96 bits\") */\n      mload(0x40)\n      dup1\n      0x60\n      add\n      0x40\n      mstore\n      dup1\n      0x27\n      dup2\n      mstore\n      0x20\n      add\n      data_43820eb1c94e3b5abdef1bf31b8cf1fb6cf8fcc5e388bb41129da4c72ff2cd64\n      0x27\n      swap2\n      codecopy\n        /* \"Contracts/SashoToken.sol\":8019:8025  safe96 */\n      tag_127\n        /* \"Contracts/SashoToken.sol\":8019:8079  safe96(rawAmount, \"Sasho::transfer: amount exceeds 96 bits\") */\n      jump\t// in\n    tag_191:\n        /* \"Contracts/SashoToken.sol\":8003:8079  uint96 amount = safe96(rawAmount, \"Sasho::transfer: amount exceeds 96 bits\") */\n      swap1\n      pop\n        /* \"Contracts/SashoToken.sol\":8089:8129  _transferTokens(msg.sender, dst, amount) */\n      tag_192\n        /* \"Contracts/SashoToken.sol\":8105:8115  msg.sender */\n      caller\n        /* \"Contracts/SashoToken.sol\":8117:8120  dst */\n      dup6\n        /* \"Contracts/SashoToken.sol\":8122:8128  amount */\n      dup4\n        /* \"Contracts/SashoToken.sol\":8089:8104  _transferTokens */\n      tag_138\n        /* \"Contracts/SashoToken.sol\":8089:8129  _transferTokens(msg.sender, dst, amount) */\n      jump\t// in\n    tag_192:\n        /* \"Contracts/SashoToken.sol\":8146:8150  true */\n      0x01\n        /* \"Contracts/SashoToken.sol\":8139:8150  return true */\n      swap2\n      pop\n      pop\n        /* \"Contracts/SashoToken.sol\":7922:8157  function transfer(address dst, uint rawAmount) external returns (bool) {... */\n      swap3\n      swap2\n      pop\n      pop\n      jump\t// out\n        /* \"Contracts/SashoToken.sol\":10778:10997  function getCurrentVotes(address account) external view returns (uint96) {... */\n    tag_100:\n        /* \"Contracts/SashoToken.sol\":10843:10849  uint96 */\n      0x00\n        /* \"Contracts/SashoToken.sol\":10861:10880  uint32 nCheckpoints */\n      dup1\n        /* \"Contracts/SashoToken.sol\":10883:10897  numCheckpoints */\n      0x05\n        /* \"Contracts/SashoToken.sol\":10883:10906  numCheckpoints[account] */\n      0x00\n        /* \"Contracts/SashoToken.sol\":10898:10905  account */\n      dup5\n        /* \"Contracts/SashoToken.sol\":10883:10906  numCheckpoints[account] */\n      0xffffffffffffffffffffffffffffffffffffffff\n      and\n      0xffffffffffffffffffffffffffffffffffffffff\n      and\n      dup2\n      mstore\n      0x20\n      add\n      swap1\n      dup2\n      mstore\n      0x20\n      add\n      0x00\n      keccak256\n      0x00\n      swap1\n      sload\n      swap1\n      0x0100\n      exp\n      swap1\n      div\n      0xffffffff\n      and\n        /* \"Contracts/SashoToken.sol\":10861:10906  uint32 nCheckpoints = numCheckpoints[account] */\n      swap1\n      pop\n        /* \"Contracts/SashoToken.sol\":10938:10939  0 */\n      0x00\n        /* \"Contracts/SashoToken.sol\":10923:10935  nCheckpoints */\n      dup2\n        /* \"Contracts/SashoToken.sol\":10923:10939  nCheckpoints > 0 */\n      0xffffffff\n      and\n      gt\n        /* \"Contracts/SashoToken.sol\":10923:10990  nCheckpoints > 0 ? checkpoints[account][nCheckpoints - 1].votes : 0 */\n      tag_194\n      jumpi\n        /* \"Contracts/SashoToken.sol\":10989:10990  0 */\n      0x00\n        /* \"Contracts/SashoToken.sol\":10923:10990  nCheckpoints > 0 ? checkpoints[account][nCheckpoints - 1].votes : 0 */\n      jump(tag_195)\n    tag_194:\n        /* \"Contracts/SashoToken.sol\":10942:10953  checkpoints */\n      0x04\n        /* \"Contracts/SashoToken.sol\":10942:10962  checkpoints[account] */\n      0x00\n        /* \"Contracts/SashoToken.sol\":10954:10961  account */\n      dup5\n        /* \"Contracts/SashoToken.sol\":10942:10962  checkpoints[account] */\n      0xffffffffffffffffffffffffffffffffffffffff\n      and\n      0xffffffffffffffffffffffffffffffffffffffff\n      and\n      dup2\n      mstore\n      0x20\n      add\n      swap1\n      dup2\n      mstore\n      0x20\n      add\n      0x00\n      keccak256\n        /* \"Contracts/SashoToken.sol\":10942:10980  checkpoints[account][nCheckpoints - 1] */\n      0x00\n        /* \"Contracts/SashoToken.sol\":10978:10979  1 */\n      0x01\n        /* \"Contracts/SashoToken.sol\":10963:10975  nCheckpoints */\n      dup4\n        /* \"Contracts/SashoToken.sol\":10963:10979  nCheckpoints - 1 */\n      tag_196\n      swap2\n      swap1\n      tag_173\n      jump\t// in\n    tag_196:\n        /* \"Contracts/SashoToken.sol\":10942:10980  checkpoints[account][nCheckpoints - 1] */\n      0xffffffff\n      and\n      0xffffffff\n      and\n      dup2\n      mstore\n      0x20\n      add\n      swap1\n      dup2\n      mstore\n      0x20\n      add\n      0x00\n      keccak256\n        /* \"Contracts/SashoToken.sol\":10942:10986  checkpoints[account][nCheckpoints - 1].votes */\n      0x00\n      add\n      0x04\n      swap1\n      sload\n      swap1\n      0x0100\n      exp\n      swap1\n      div\n      0xffffffffffffffffffffffff\n      and\n        /* \"Contracts/SashoToken.sol\":10923:10990  nCheckpoints > 0 ? checkpoints[account][nCheckpoints - 1].votes : 0 */\n    tag_195:\n        /* \"Contracts/SashoToken.sol\":10916:10990  return nCheckpoints > 0 ? checkpoints[account][nCheckpoints - 1].votes : 0 */\n      swap2\n      pop\n      pop\n        /* \"Contracts/SashoToken.sol\":10778:10997  function getCurrentVotes(address account) external view returns (uint96) {... */\n      swap2\n      swap1\n      pop\n      jump\t// out\n        /* \"Contracts/SashoToken.sol\":9789:10584  function delegateBySig(address delegatee, uint nonce, uint expiry, uint8 v, bytes32 r, bytes32 s) public {... */\n    tag_105:\n        /* \"Contracts/SashoToken.sol\":9904:9927  bytes32 domainSeparator */\n      0x00\n        /* \"Contracts/SashoToken.sol\":4504:4584  keccak256(\"EIP712Domain(string name,uint256 chainId,address verifyingContract)\") */\n      0x8cad95687ba82c2ce50e74f7b754645e5117c3a5bec8151c0726d5857980a866\n        /* \"Contracts/SashoToken.sol\":9984:9988  name */\n      mload(0x40)\n      dup1\n      0x40\n      add\n      0x40\n      mstore\n      dup1\n      0x05\n      dup2\n      mstore\n      0x20\n      add\n      0x536173686f000000000000000000000000000000000000000000000000000000\n      dup2\n      mstore\n      pop\n        /* \"Contracts/SashoToken.sol\":9968:9990  keccak256(bytes(name)) */\n      dup1\n      mload\n      swap1\n      0x20\n      add\n      keccak256\n        /* \"Contracts/SashoToken.sol\":9992:10004  getChainId() */\n      tag_198\n        /* \"Contracts/SashoToken.sol\":9992:10002  getChainId */\n      tag_199\n        /* \"Contracts/SashoToken.sol\":9992:10004  getChainId() */\n      jump\t// in\n    tag_198:\n        /* \"Contracts/SashoToken.sol\":10014:10018  this */\n      address\n        /* \"Contracts/SashoToken.sol\":9940:10020  abi.encode(DOMAIN_TYPEHASH, keccak256(bytes(name)), getChainId(), address(this)) */\n      add(0x20, mload(0x40))\n      tag_200\n      swap5\n      swap4\n      swap3\n      swap2\n      swap1\n      tag_201\n      jump\t// in\n    tag_200:\n      mload(0x40)\n      0x20\n      dup2\n      dup4\n      sub\n      sub\n      dup2\n      mstore\n      swap1\n      0x40\n      mstore\n        /* \"Contracts/SashoToken.sol\":9930:10021  keccak256(abi.encode(DOMAIN_TYPEHASH, keccak256(bytes(name)), getChainId(), address(this))) */\n      dup1\n      mload\n      swap1\n      0x20\n      add\n      keccak256\n        /* \"Contracts/SashoToken.sol\":9904:10021  bytes32 domainSeparator = keccak256(abi.encode(DOMAIN_TYPEHASH, keccak256(bytes(name)), getChainId(), address(this))) */\n      swap1\n      pop\n        /* \"Contracts/SashoToken.sol\":10031:10049  bytes32 structHash */\n      0x00\n        /* \"Contracts/SashoToken.sol\":4721:4792  keccak256(\"Delegation(address delegatee,uint256 nonce,uint256 expiry)\") */\n      0xe48329057bfd03d55e49b547132e39cffd9c1820ad7b9d4c5307691425d15adf\n        /* \"Contracts/SashoToken.sol\":10094:10103  delegatee */\n      dup9\n        /* \"Contracts/SashoToken.sol\":10105:10110  nonce */\n      dup9\n        /* \"Contracts/SashoToken.sol\":10112:10118  expiry */\n      dup9\n        /* \"Contracts/SashoToken.sol\":10062:10119  abi.encode(DELEGATION_TYPEHASH, delegatee, nonce, expiry) */\n      add(0x20, mload(0x40))\n      tag_202\n      swap5\n      swap4\n      swap3\n      swap2\n      swap1\n      tag_203\n      jump\t// in\n    tag_202:\n      mload(0x40)\n      0x20\n      dup2\n      dup4\n      sub\n      sub\n      dup2\n      mstore\n      swap1\n      0x40\n      mstore\n        /* \"Contracts/SashoToken.sol\":10052:10120  keccak256(abi.encode(DELEGATION_TYPEHASH, delegatee, nonce, expiry)) */\n      dup1\n      mload\n      swap1\n      0x20\n      add\n      keccak256\n        /* \"Contracts/SashoToken.sol\":10031:10120  bytes32 structHash = keccak256(abi.encode(DELEGATION_TYPEHASH, delegatee, nonce, expiry)) */\n      swap1\n      pop\n        /* \"Contracts/SashoToken.sol\":10130:10144  bytes32 digest */\n      0x00\n        /* \"Contracts/SashoToken.sol\":10186:10201  domainSeparator */\n      dup3\n        /* \"Contracts/SashoToken.sol\":10203:10213  structHash */\n      dup3\n        /* \"Contracts/SashoToken.sol\":10157:10214  abi.encodePacked(\"\\x19\\x01\", domainSeparator, structHash) */\n      add(0x20, mload(0x40))\n      tag_204\n      swap3\n      swap2\n      swap1\n      tag_205\n      jump\t// in\n    tag_204:\n      mload(0x40)\n      0x20\n      dup2\n      dup4\n      sub\n      sub\n      dup2\n      mstore\n      swap1\n      0x40\n      mstore\n        /* \"Contracts/SashoToken.sol\":10147:10215  keccak256(abi.encodePacked(\"\\x19\\x01\", domainSeparator, structHash)) */\n      dup1\n      mload\n      swap1\n      0x20\n      add\n      keccak256\n        /* \"Contracts/SashoToken.sol\":10130:10215  bytes32 digest = keccak256(abi.encodePacked(\"\\x19\\x01\", domainSeparator, structHash)) */\n      swap1\n      pop\n        /* \"Contracts/SashoToken.sol\":10225:10242  address signatory */\n      0x00\n        /* \"Contracts/SashoToken.sol\":10245:10271  ecrecover(digest, v, r, s) */\n      0x01\n        /* \"Contracts/SashoToken.sol\":10255:10261  digest */\n      dup3\n        /* \"Contracts/SashoToken.sol\":10263:10264  v */\n      dup9\n        /* \"Contracts/SashoToken.sol\":10266:10267  r */\n      dup9\n        /* \"Contracts/SashoToken.sol\":10269:10270  s */\n      dup9\n        /* \"Contracts/SashoToken.sol\":10245:10271  ecrecover(digest, v, r, s) */\n      mload(0x40)\n      0x00\n      dup2\n      mstore\n      0x20\n      add\n      0x40\n      mstore\n      mload(0x40)\n      tag_206\n      swap5\n      swap4\n      swap3\n      swap2\n      swap1\n      tag_207\n      jump\t// in\n    tag_206:\n      0x20\n      mload(0x40)\n      0x20\n      dup2\n      sub\n      swap1\n      dup1\n      dup5\n      sub\n      swap1\n      dup6\n      gas\n      staticcall\n      iszero\n      dup1\n      iszero\n      tag_209\n      jumpi\n      returndatasize\n      0x00\n      dup1\n      returndatacopy\n      revert(0x00, returndatasize)\n    tag_209:\n      pop\n      pop\n      pop\n      mload(sub(mload(0x40), 0x20))\n        /* \"Contracts/SashoToken.sol\":10225:10271  address signatory = ecrecover(digest, v, r, s) */\n      swap1\n      pop\n        /* \"Contracts/SashoToken.sol\":10310:10311  0 */\n      0x00\n        /* \"Contracts/SashoToken.sol\":10289:10312  signatory != address(0) */\n      0xffffffffffffffffffffffffffffffffffffffff\n      and\n        /* \"Contracts/SashoToken.sol\":10289:10298  signatory */\n      dup2\n        /* \"Contracts/SashoToken.sol\":10289:10312  signatory != address(0) */\n      0xffffffffffffffffffffffffffffffffffffffff\n      and\n      sub\n        /* \"Contracts/SashoToken.sol\":10281:10356  require(signatory != address(0), \"Sasho::delegateBySig: invalid signature\") */\n      tag_210\n      jumpi\n      mload(0x40)\n      0x08c379a000000000000000000000000000000000000000000000000000000000\n      dup2\n      mstore\n      0x04\n      add\n      tag_211\n      swap1\n      tag_212\n      jump\t// in\n    tag_211:\n      mload(0x40)\n      dup1\n      swap2\n      sub\n      swap1\n      revert\n    tag_210:\n        /* \"Contracts/SashoToken.sol\":10383:10389  nonces */\n      0x06\n        /* \"Contracts/SashoToken.sol\":10383:10400  nonces[signatory] */\n      0x00\n        /* \"Contracts/SashoToken.sol\":10390:10399  signatory */\n      dup3\n        /* \"Contracts/SashoToken.sol\":10383:10400  nonces[signatory] */\n      0xffffffffffffffffffffffffffffffffffffffff\n      and\n      0xffffffffffffffffffffffffffffffffffffffff\n      and\n      dup2\n      mstore\n      0x20\n      add\n      swap1\n      dup2\n      mstore\n      0x20\n      add\n      0x00\n      keccak256\n      0x00\n        /* \"Contracts/SashoToken.sol\":10383:10402  nonces[signatory]++ */\n      dup2\n      sload\n      dup1\n      swap3\n      swap2\n      swap1\n      tag_213\n      swap1\n      tag_214\n      jump\t// in\n    tag_213:\n      swap2\n      swap1\n      pop\n      sstore\n        /* \"Contracts/SashoToken.sol\":10374:10379  nonce */\n      dup10\n        /* \"Contracts/SashoToken.sol\":10374:10402  nonce == nonces[signatory]++ */\n      eq\n        /* \"Contracts/SashoToken.sol\":10366:10442  require(nonce == nonces[signatory]++, \"Sasho::delegateBySig: invalid nonce\") */\n      tag_215\n      jumpi\n      mload(0x40)\n      0x08c379a000000000000000000000000000000000000000000000000000000000\n      dup2\n      mstore\n      0x04\n      add\n      tag_216\n      swap1\n      tag_217\n      jump\t// in\n    tag_216:\n      mload(0x40)\n      dup1\n      swap2\n      sub\n      swap1\n      revert\n    tag_215:\n        /* \"Contracts/SashoToken.sol\":10479:10485  expiry */\n      dup8\n        /* \"Contracts/SashoToken.sol\":10460:10475  block.timestamp */\n      timestamp\n        /* \"Contracts/SashoToken.sol\":10460:10485  block.timestamp <= expiry */\n      gt\n      iszero\n        /* \"Contracts/SashoToken.sol\":10452:10529  require(block.timestamp <= expiry, \"Sasho::delegateBySig: signature expired\") */\n      tag_218\n      jumpi\n      mload(0x40)\n      0x08c379a000000000000000000000000000000000000000000000000000000000\n      dup2\n      mstore\n      0x04\n      add\n      tag_219\n      swap1\n      tag_220\n      jump\t// in\n    tag_219:\n      mload(0x40)\n      dup1\n      swap2\n      sub\n      swap1\n      revert\n    tag_218:\n        /* \"Contracts/SashoToken.sol\":10546:10577  _delegate(signatory, delegatee) */\n      tag_221\n        /* \"Contracts/SashoToken.sol\":10556:10565  signatory */\n      dup2\n        /* \"Contracts/SashoToken.sol\":10567:10576  delegatee */\n      dup12\n        /* \"Contracts/SashoToken.sol\":10546:10555  _delegate */\n      tag_157\n        /* \"Contracts/SashoToken.sol\":10546:10577  _delegate(signatory, delegatee) */\n      jump\t// in\n    tag_221:\n        /* \"Contracts/SashoToken.sol\":10539:10577  return _delegate(signatory, delegatee) */\n      pop\n      pop\n      pop\n      pop\n        /* \"Contracts/SashoToken.sol\":9789:10584  function delegateBySig(address delegatee, uint nonce, uint expiry, uint8 v, bytes32 r, bytes32 s) public {... */\n      pop\n      pop\n      pop\n      pop\n      pop\n      pop\n      jump\t// out\n        /* \"Contracts/SashoToken.sol\":6304:6438  function allowance(address account, address spender) external view returns (uint) {... */\n    tag_109:\n        /* \"Contracts/SashoToken.sol\":6380:6384  uint */\n      0x00\n        /* \"Contracts/SashoToken.sol\":6403:6413  allowances */\n      0x01\n        /* \"Contracts/SashoToken.sol\":6403:6422  allowances[account] */\n      0x00\n        /* \"Contracts/SashoToken.sol\":6414:6421  account */\n      dup5\n        /* \"Contracts/SashoToken.sol\":6403:6422  allowances[account] */\n      0xffffffffffffffffffffffffffffffffffffffff\n      and\n      0xffffffffffffffffffffffffffffffffffffffff\n      and\n      dup2\n      mstore\n      0x20\n      add\n      swap1\n      dup2\n      mstore\n      0x20\n      add\n      0x00\n      keccak256\n        /* \"Contracts/SashoToken.sol\":6403:6431  allowances[account][spender] */\n      0x00\n        /* \"Contracts/SashoToken.sol\":6423:6430  spender */\n      dup4\n        /* \"Contracts/SashoToken.sol\":6403:6431  allowances[account][spender] */\n      0xffffffffffffffffffffffffffffffffffffffff\n      and\n      0xffffffffffffffffffffffffffffffffffffffff\n      and\n      dup2\n      mstore\n      0x20\n      add\n      swap1\n      dup2\n      mstore\n      0x20\n      add\n      0x00\n      keccak256\n      0x00\n      swap1\n      sload\n      swap1\n      0x0100\n      exp\n      swap1\n      div\n      0xffffffffffffffffffffffff\n      and\n        /* \"Contracts/SashoToken.sol\":6396:6431  return allowances[account][spender] */\n      0xffffffffffffffffffffffff\n      and\n      swap1\n      pop\n        /* \"Contracts/SashoToken.sol\":6304:6438  function allowance(address account, address spender) external view returns (uint) {... */\n      swap3\n      swap2\n      pop\n      pop\n      jump\t// out\n        /* \"Contracts/SashoToken.sol\":4675:4792  bytes32 public constant DELEGATION_TYPEHASH = keccak256(\"Delegation(address delegatee,uint256 nonce,uint256 expiry)\") */\n    tag_112:\n        /* \"Contracts/SashoToken.sol\":4721:4792  keccak256(\"Delegation(address delegatee,uint256 nonce,uint256 expiry)\") */\n      0xe48329057bfd03d55e49b547132e39cffd9c1820ad7b9d4c5307691425d15adf\n        /* \"Contracts/SashoToken.sol\":4675:4792  bytes32 public constant DELEGATION_TYPEHASH = keccak256(\"Delegation(address delegatee,uint256 nonce,uint256 expiry)\") */\n      dup2\n      jump\t// out\n        /* \"Contracts/SashoToken.sol\":4207:4277  mapping (address => mapping (uint32 => Checkpoint)) public checkpoints */\n    tag_117:\n      mstore(0x20, 0x04)\n      dup2\n      0x00\n      mstore\n      mstore(0x20, keccak256(0x00, 0x40))\n      dup1\n      0x00\n      mstore\n      keccak256(0x00, 0x40)\n      0x00\n      swap2\n      pop\n      swap2\n      pop\n      pop\n      dup1\n      0x00\n      add\n      0x00\n      swap1\n      sload\n      swap1\n      0x0100\n      exp\n      swap1\n      div\n      0xffffffff\n      and\n      swap1\n      dup1\n      0x00\n      add\n      0x04\n      swap1\n      sload\n      swap1\n      0x0100\n      exp\n      swap1\n      div\n      0xffffffffffffffffffffffff\n      and\n      swap1\n      pop\n      dup3\n      jump\t// out\n        /* \"Contracts/SashoToken.sol\":2789:2978  function transferOwnership(address newOwner) public virtual onlyOwner {... */\n    tag_122:\n        /* \"Contracts/SashoToken.sol\":2139:2151  _msgSender() */\n      tag_224\n        /* \"Contracts/SashoToken.sol\":2139:2149  _msgSender */\n      tag_141\n        /* \"Contracts/SashoToken.sol\":2139:2151  _msgSender() */\n      jump\t// in\n    tag_224:\n        /* \"Contracts/SashoToken.sol\":2128:2151  owner() == _msgSender() */\n      0xffffffffffffffffffffffffffffffffffffffff\n      and\n        /* \"Contracts/SashoToken.sol\":2128:2135  owner() */\n      tag_225\n        /* \"Contracts/SashoToken.sol\":2128:2133  owner */\n      tag_89\n        /* \"Contracts/SashoToken.sol\":2128:2135  owner() */\n      jump\t// in\n    tag_225:\n        /* \"Contracts/SashoToken.sol\":2128:2151  owner() == _msgSender() */\n      0xffffffffffffffffffffffffffffffffffffffff\n      and\n      eq\n        /* \"Contracts/SashoToken.sol\":2120:2188  require(owner() == _msgSender(), \"Ownable: caller is not the owner\") */\n      tag_226\n      jumpi\n      mload(0x40)\n      0x08c379a000000000000000000000000000000000000000000000000000000000\n      dup2\n      mstore\n      0x04\n      add\n      tag_227\n      swap1\n      tag_145\n      jump\t// in\n    tag_227:\n      mload(0x40)\n      dup1\n      swap2\n      sub\n      swap1\n      revert\n    tag_226:\n        /* \"Contracts/SashoToken.sol\":2897:2898  0 */\n      0x00\n        /* \"Contracts/SashoToken.sol\":2877:2899  newOwner != address(0) */\n      0xffffffffffffffffffffffffffffffffffffffff\n      and\n        /* \"Contracts/SashoToken.sol\":2877:2885  newOwner */\n      dup2\n        /* \"Contracts/SashoToken.sol\":2877:2899  newOwner != address(0) */\n      0xffffffffffffffffffffffffffffffffffffffff\n      and\n      sub\n        /* \"Contracts/SashoToken.sol\":2869:2942  require(newOwner != address(0), \"Ownable: new owner is the zero address\") */\n      tag_229\n      jumpi\n      mload(0x40)\n      0x08c379a000000000000000000000000000000000000000000000000000000000\n      dup2\n      mstore\n      0x04\n      add\n      tag_230\n      swap1\n      tag_231\n      jump\t// in\n    tag_230:\n      mload(0x40)\n      dup1\n      swap2\n      sub\n      swap1\n      revert\n    tag_229:\n        /* \"Contracts/SashoToken.sol\":2952:2971  _setOwner(newOwner) */\n      tag_232\n        /* \"Contracts/SashoToken.sol\":2962:2970  newOwner */\n      dup2\n        /* \"Contracts/SashoToken.sol\":2952:2961  _setOwner */\n      tag_166\n        /* \"Contracts/SashoToken.sol\":2952:2971  _setOwner(newOwner) */\n      jump\t// in\n    tag_232:\n        /* \"Contracts/SashoToken.sol\":2789:2978  function transferOwnership(address newOwner) public virtual onlyOwner {... */\n      pop\n      jump\t// out\n        /* \"Contracts/SashoToken.sol\":15320:15478  function safe96(uint n, string memory errorMessage) internal pure returns (uint96) {... */\n    tag_127:\n        /* \"Contracts/SashoToken.sol\":15395:15401  uint96 */\n      0x00\n        /* \"Contracts/SashoToken.sol\":15425:15430  2**96 */\n      0x01000000000000000000000000\n        /* \"Contracts/SashoToken.sol\":15421:15422  n */\n      dup4\n        /* \"Contracts/SashoToken.sol\":15421:15430  n < 2**96 */\n      lt\n        /* \"Contracts/SashoToken.sol\":15432:15444  errorMessage */\n      dup3\n        /* \"Contracts/SashoToken.sol\":15413:15445  require(n < 2**96, errorMessage) */\n      swap1\n      tag_234\n      jumpi\n      mload(0x40)\n      0x08c379a000000000000000000000000000000000000000000000000000000000\n      dup2\n      mstore\n      0x04\n      add\n      tag_235\n      swap2\n      swap1\n      tag_32\n      jump\t// in\n    tag_235:\n      mload(0x40)\n      dup1\n      swap2\n      sub\n      swap1\n      revert\n    tag_234:\n      pop\n        /* \"Contracts/SashoToken.sol\":15469:15470  n */\n      dup3\n        /* \"Contracts/SashoToken.sol\":15455:15471  return uint96(n) */\n      swap1\n      pop\n        /* \"Contracts/SashoToken.sol\":15320:15478  function safe96(uint n, string memory errorMessage) internal pure returns (uint96) {... */\n      swap3\n      swap2\n      pop\n      pop\n      jump\t// out\n        /* \"Contracts/SashoToken.sol\":15674:15836  function sub96(uint96 a, uint96 b, string memory errorMessage) internal pure returns (uint96) {... */\n    tag_135:\n        /* \"Contracts/SashoToken.sol\":15760:15766  uint96 */\n      0x00\n        /* \"Contracts/SashoToken.sol\":15791:15792  a */\n      dup4\n        /* \"Contracts/SashoToken.sol\":15786:15792  b <= a */\n      0xffffffffffffffffffffffff\n      and\n        /* \"Contracts/SashoToken.sol\":15786:15787  b */\n      dup4\n        /* \"Contracts/SashoToken.sol\":15786:15792  b <= a */\n      0xffffffffffffffffffffffff\n      and\n      gt\n      iszero\n        /* \"Contracts/SashoToken.sol\":15794:15806  errorMessage */\n      dup3\n        /* \"Contracts/SashoToken.sol\":15778:15807  require(b <= a, errorMessage) */\n      swap1\n      tag_237\n      jumpi\n      mload(0x40)\n      0x08c379a000000000000000000000000000000000000000000000000000000000\n      dup2\n      mstore\n      0x04\n      add\n      tag_238\n      swap2\n      swap1\n      tag_32\n      jump\t// in\n    tag_238:\n      mload(0x40)\n      dup1\n      swap2\n      sub\n      swap1\n      revert\n    tag_237:\n      pop\n        /* \"Contracts/SashoToken.sol\":15828:15829  b */\n      dup3\n        /* \"Contracts/SashoToken.sol\":15824:15825  a */\n      dup5\n        /* \"Contracts/SashoToken.sol\":15824:15829  a - b */\n      tag_239\n      swap2\n      swap1\n      tag_240\n      jump\t// in\n    tag_239:\n        /* \"Contracts/SashoToken.sol\":15817:15829  return a - b */\n      swap1\n      pop\n        /* \"Contracts/SashoToken.sol\":15674:15836  function sub96(uint96 a, uint96 b, string memory errorMessage) internal pure returns (uint96) {... */\n      swap4\n      swap3\n      pop\n      pop\n      pop\n      jump\t// out\n        /* \"Contracts/SashoToken.sol\":12985:13594  function _transferTokens(address src, address dst, uint96 amount) internal {... */\n    tag_138:\n        /* \"Contracts/SashoToken.sol\":13093:13094  0 */\n      0x00\n        /* \"Contracts/SashoToken.sol\":13078:13095  src != address(0) */\n      0xffffffffffffffffffffffffffffffffffffffff\n      and\n        /* \"Contracts/SashoToken.sol\":13078:13081  src */\n      dup4\n        /* \"Contracts/SashoToken.sol\":13078:13095  src != address(0) */\n      0xffffffffffffffffffffffffffffffffffffffff\n      and\n      sub\n        /* \"Contracts/SashoToken.sol\":13070:13161  require(src != address(0), \"Sasho::_transferTokens: cannot transfer from the zero address\") */\n      tag_242\n      jumpi\n      mload(0x40)\n      0x08c379a000000000000000000000000000000000000000000000000000000000\n      dup2\n      mstore\n      0x04\n      add\n      tag_243\n      swap1\n      tag_244\n      jump\t// in\n    tag_243:\n      mload(0x40)\n      dup1\n      swap2\n      sub\n      swap1\n      revert\n    tag_242:\n        /* \"Contracts/SashoToken.sol\":13194:13195  0 */\n      0x00\n        /* \"Contracts/SashoToken.sol\":13179:13196  dst != address(0) */\n      0xffffffffffffffffffffffffffffffffffffffff\n      and\n        /* \"Contracts/SashoToken.sol\":13179:13182  dst */\n      dup3\n        /* \"Contracts/SashoToken.sol\":13179:13196  dst != address(0) */\n      0xffffffffffffffffffffffffffffffffffffffff\n      and\n      sub\n        /* \"Contracts/SashoToken.sol\":13171:13260  require(dst != address(0), \"Sasho::_transferTokens: cannot transfer to the zero address\") */\n      tag_245\n      jumpi\n      mload(0x40)\n      0x08c379a000000000000000000000000000000000000000000000000000000000\n      dup2\n      mstore\n      0x04\n      add\n      tag_246\n      swap1\n      tag_247\n      jump\t// in\n    tag_246:\n      mload(0x40)\n      dup1\n      swap2\n      sub\n      swap1\n      revert\n    tag_245:\n        /* \"Contracts/SashoToken.sol\":13287:13374  sub96(balances[src], amount, \"Sasho::_transferTokens: transfer amount exceeds balance\") */\n      tag_248\n        /* \"Contracts/SashoToken.sol\":13293:13301  balances */\n      0x02\n        /* \"Contracts/SashoToken.sol\":13293:13306  balances[src] */\n      0x00\n        /* \"Contracts/SashoToken.sol\":13302:13305  src */\n      dup6\n        /* \"Contracts/SashoToken.sol\":13293:13306  balances[src] */\n      0xffffffffffffffffffffffffffffffffffffffff\n      and\n      0xffffffffffffffffffffffffffffffffffffffff\n      and\n      dup2\n      mstore\n      0x20\n      add\n      swap1\n      dup2\n      mstore\n      0x20\n      add\n      0x00\n      keccak256\n      0x00\n      swap1\n      sload\n      swap1\n      0x0100\n      exp\n      swap1\n      div\n      0xffffffffffffffffffffffff\n      and\n        /* \"Contracts/SashoToken.sol\":13308:13314  amount */\n      dup3\n        /* \"Contracts/SashoToken.sol\":13287:13374  sub96(balances[src], amount, \"Sasho::_transferTokens: transfer amount exceeds balance\") */\n      mload(0x40)\n      dup1\n      0x60\n      add\n      0x40\n      mstore\n      dup1\n      0x37\n      dup2\n      mstore\n      0x20\n      add\n      data_26ccc6d305fd370b0ed9081e17651f8dc110ea478e8585d62a5b884cbb402572\n      0x37\n      swap2\n      codecopy\n        /* \"Contracts/SashoToken.sol\":13287:13292  sub96 */\n      tag_135\n        /* \"Contracts/SashoToken.sol\":13287:13374  sub96(balances[src], amount, \"Sasho::_transferTokens: transfer amount exceeds balance\") */\n      jump\t// in\n    tag_248:\n        /* \"Contracts/SashoToken.sol\":13271:13279  balances */\n      0x02\n        /* \"Contracts/SashoToken.sol\":13271:13284  balances[src] */\n      0x00\n        /* \"Contracts/SashoToken.sol\":13280:13283  src */\n      dup6\n        /* \"Contracts/SashoToken.sol\":13271:13284  balances[src] */\n      0xffffffffffffffffffffffffffffffffffffffff\n      and\n      0xffffffffffffffffffffffffffffffffffffffff\n      and\n      dup2\n      mstore\n      0x20\n      add\n      swap1\n      dup2\n      mstore\n      0x20\n      add\n      0x00\n      keccak256\n      0x00\n        /* \"Contracts/SashoToken.sol\":13271:13374  balances[src] = sub96(balances[src], amount, \"Sasho::_transferTokens: transfer amount exceeds balance\") */\n      0x0100\n      exp\n      dup2\n      sload\n      dup2\n      0xffffffffffffffffffffffff\n      mul\n      not\n      and\n      swap1\n      dup4\n      0xffffffffffffffffffffffff\n      and\n      mul\n      or\n      swap1\n      sstore\n      pop\n        /* \"Contracts/SashoToken.sol\":13400:13481  add96(balances[dst], amount, \"Sasho::_transferTokens: transfer amount overflows\") */\n      tag_249\n        /* \"Contracts/SashoToken.sol\":13406:13414  balances */\n      0x02\n        /* \"Contracts/SashoToken.sol\":13406:13419  balances[dst] */\n      0x00\n        /* \"Contracts/SashoToken.sol\":13415:13418  dst */\n      dup5\n        /* \"Contracts/SashoToken.sol\":13406:13419  balances[dst] */\n      0xffffffffffffffffffffffffffffffffffffffff\n      and\n      0xffffffffffffffffffffffffffffffffffffffff\n      and\n      dup2\n      mstore\n      0x20\n      add\n      swap1\n      dup2\n      mstore\n      0x20\n      add\n      0x00\n      keccak256\n      0x00\n      swap1\n      sload\n      swap1\n      0x0100\n      exp\n      swap1\n      div\n      0xffffffffffffffffffffffff\n      and\n        /* \"Contracts/SashoToken.sol\":13421:13427  amount */\n      dup3\n        /* \"Contracts/SashoToken.sol\":13400:13481  add96(balances[dst], amount, \"Sasho::_transferTokens: transfer amount overflows\") */\n      mload(0x40)\n      dup1\n      0x60\n      add\n      0x40\n      mstore\n      dup1\n      0x31\n      dup2\n      mstore\n      0x20\n      add\n      data_7fe06e056357b0cd6149ccddb9a816df79ee1de64c4a189731e9507508753e3b\n      0x31\n      swap2\n      codecopy\n        /* \"Contracts/SashoToken.sol\":13400:13405  add96 */\n      tag_250\n        /* \"Contracts/SashoToken.sol\":13400:13481  add96(balances[dst], amount, \"Sasho::_transferTokens: transfer amount overflows\") */\n      jump\t// in\n    tag_249:\n        /* \"Contracts/SashoToken.sol\":13384:13392  balances */\n      0x02\n        /* \"Contracts/SashoToken.sol\":13384:13397  balances[dst] */\n      0x00\n        /* \"Contracts/SashoToken.sol\":13393:13396  dst */\n      dup5\n        /* \"Contracts/SashoToken.sol\":13384:13397  balances[dst] */\n      0xffffffffffffffffffffffffffffffffffffffff\n      and\n      0xffffffffffffffffffffffffffffffffffffffff\n      and\n      dup2\n      mstore\n      0x20\n      add\n      swap1\n      dup2\n      mstore\n      0x20\n      add\n      0x00\n      keccak256\n      0x00\n        /* \"Contracts/SashoToken.sol\":13384:13481  balances[dst] = add96(balances[dst], amount, \"Sasho::_transferTokens: transfer amount overflows\") */\n      0x0100\n      exp\n      dup2\n      sload\n      dup2\n      0xffffffffffffffffffffffff\n      mul\n      not\n      and\n      swap1\n      dup4\n      0xffffffffffffffffffffffff\n      and\n      mul\n      or\n      swap1\n      sstore\n      pop\n        /* \"Contracts/SashoToken.sol\":13510:13513  dst */\n      dup2\n        /* \"Contracts/SashoToken.sol\":13496:13522  Transfer(src, dst, amount) */\n      0xffffffffffffffffffffffffffffffffffffffff\n      and\n        /* \"Contracts/SashoToken.sol\":13505:13508  src */\n      dup4\n        /* \"Contracts/SashoToken.sol\":13496:13522  Transfer(src, dst, amount) */\n      0xffffffffffffffffffffffffffffffffffffffff\n      and\n      0xddf252ad1be2c89b69c2b068fc378daa952ba7f163c4a11628f55a4df523b3ef\n        /* \"Contracts/SashoToken.sol\":13515:13521  amount */\n      dup4\n        /* \"Contracts/SashoToken.sol\":13496:13522  Transfer(src, dst, amount) */\n      mload(0x40)\n      tag_251\n      swap2\n      swap1\n      tag_129\n      jump\t// in\n    tag_251:\n      mload(0x40)\n      dup1\n      swap2\n      sub\n      swap1\n      log3\n        /* \"Contracts/SashoToken.sol\":13533:13587  _moveDelegates(delegates[src], delegates[dst], amount) */\n      tag_252\n        /* \"Contracts/SashoToken.sol\":13548:13557  delegates */\n      0x03\n        /* \"Contracts/SashoToken.sol\":13548:13562  delegates[src] */\n      0x00\n        /* \"Contracts/SashoToken.sol\":13558:13561  src */\n      dup6\n        /* \"Contracts/SashoToken.sol\":13548:13562  delegates[src] */\n      0xffffffffffffffffffffffffffffffffffffffff\n      and\n      0xffffffffffffffffffffffffffffffffffffffff\n      and\n      dup2\n      mstore\n      0x20\n      add\n      swap1\n      dup2\n      mstore\n      0x20\n      add\n      0x00\n      keccak256\n      0x00\n      swap1\n      sload\n      swap1\n      0x0100\n      exp\n      swap1\n      div\n      0xffffffffffffffffffffffffffffffffffffffff\n      and\n        /* \"Contracts/SashoToken.sol\":13564:13573  delegates */\n      0x03\n        /* \"Contracts/SashoToken.sol\":13564:13578  delegates[dst] */\n      0x00\n        /* \"Contracts/SashoToken.sol\":13574:13577  dst */\n      dup6\n        /* \"Contracts/SashoToken.sol\":13564:13578  delegates[dst] */\n      0xffffffffffffffffffffffffffffffffffffffff\n      and\n      0xffffffffffffffffffffffffffffffffffffffff\n      and\n      dup2\n      mstore\n      0x20\n      add\n      swap1\n      dup2\n      mstore\n      0x20\n      add\n      0x00\n      keccak256\n      0x00\n      swap1\n      sload\n      swap1\n      0x0100\n      exp\n      swap1\n      div\n      0xffffffffffffffffffffffffffffffffffffffff\n      and\n        /* \"Contracts/SashoToken.sol\":13580:13586  amount */\n      dup4\n        /* \"Contracts/SashoToken.sol\":13533:13547  _moveDelegates */\n      tag_253\n        /* \"Contracts/SashoToken.sol\":13533:13587  _moveDelegates(delegates[src], delegates[dst], amount) */\n      jump\t// in\n    tag_252:\n        /* \"Contracts/SashoToken.sol\":12985:13594  function _transferTokens(address src, address dst, uint96 amount) internal {... */\n      pop\n      pop\n      pop\n      jump\t// out\n        /* \"Contracts/SashoToken.sol\":742:838  function _msgSender() internal view virtual returns (address) {... */\n    tag_141:\n        /* \"Contracts/SashoToken.sol\":795:802  address */\n      0x00\n        /* \"Contracts/SashoToken.sol\":821:831  msg.sender */\n      caller\n        /* \"Contracts/SashoToken.sol\":814:831  return msg.sender */\n      swap1\n      pop\n        /* \"Contracts/SashoToken.sol\":742:838  function _msgSender() internal view virtual returns (address) {... */\n      swap1\n      jump\t// out\n        /* \"Contracts/SashoToken.sol\":12612:12979  function _delegate(address delegator, address delegatee) internal {... */\n    tag_157:\n        /* \"Contracts/SashoToken.sol\":12688:12711  address currentDelegate */\n      0x00\n        /* \"Contracts/SashoToken.sol\":12714:12723  delegates */\n      0x03\n        /* \"Contracts/SashoToken.sol\":12714:12734  delegates[delegator] */\n      0x00\n        /* \"Contracts/SashoToken.sol\":12724:12733  delegator */\n      dup5\n        /* \"Contracts/SashoToken.sol\":12714:12734  delegates[delegator] */\n      0xffffffffffffffffffffffffffffffffffffffff\n      and\n      0xffffffffffffffffffffffffffffffffffffffff\n      and\n      dup2\n      mstore\n      0x20\n      add\n      swap1\n      dup2\n      mstore\n      0x20\n      add\n      0x00\n      keccak256\n      0x00\n      swap1\n      sload\n      swap1\n      0x0100\n      exp\n      swap1\n      div\n      0xffffffffffffffffffffffffffffffffffffffff\n      and\n        /* \"Contracts/SashoToken.sol\":12688:12734  address currentDelegate = delegates[delegator] */\n      swap1\n      pop\n        /* \"Contracts/SashoToken.sol\":12744:12767  uint96 delegatorBalance */\n      0x00\n        /* \"Contracts/SashoToken.sol\":12770:12778  balances */\n      0x02\n        /* \"Contracts/SashoToken.sol\":12770:12789  balances[delegator] */\n      0x00\n        /* \"Contracts/SashoToken.sol\":12779:12788  delegator */\n      dup6\n        /* \"Contracts/SashoToken.sol\":12770:12789  balances[delegator] */\n      0xffffffffffffffffffffffffffffffffffffffff\n      and\n      0xffffffffffffffffffffffffffffffffffffffff\n      and\n      dup2\n      mstore\n      0x20\n      add\n      swap1\n      dup2\n      mstore\n      0x20\n      add\n      0x00\n      keccak256\n      0x00\n      swap1\n      sload\n      swap1\n      0x0100\n      exp\n      swap1\n      div\n      0xffffffffffffffffffffffff\n      and\n        /* \"Contracts/SashoToken.sol\":12744:12789  uint96 delegatorBalance = balances[delegator] */\n      swap1\n      pop\n        /* \"Contracts/SashoToken.sol\":12822:12831  delegatee */\n      dup3\n        /* \"Contracts/SashoToken.sol\":12799:12808  delegates */\n      0x03\n        /* \"Contracts/SashoToken.sol\":12799:12819  delegates[delegator] */\n      0x00\n        /* \"Contracts/SashoToken.sol\":12809:12818  delegator */\n      dup7\n        /* \"Contracts/SashoToken.sol\":12799:12819  delegates[delegator] */\n      0xffffffffffffffffffffffffffffffffffffffff\n      and\n      0xffffffffffffffffffffffffffffffffffffffff\n      and\n      dup2\n      mstore\n      0x20\n      add\n      swap1\n      dup2\n      mstore\n      0x20\n      add\n      0x00\n      keccak256\n      0x00\n        /* \"Contracts/SashoToken.sol\":12799:12831  delegates[delegator] = delegatee */\n      0x0100\n      exp\n      dup2\n      sload\n      dup2\n      0xffffffffffffffffffffffffffffffffffffffff\n      mul\n      not\n      and\n      swap1\n      dup4\n      0xffffffffffffffffffffffffffffffffffffffff\n      and\n      mul\n      or\n      swap1\n      sstore\n      pop\n        /* \"Contracts/SashoToken.sol\":12891:12900  delegatee */\n      dup3\n        /* \"Contracts/SashoToken.sol\":12847:12901  DelegateChanged(delegator, currentDelegate, delegatee) */\n      0xffffffffffffffffffffffffffffffffffffffff\n      and\n        /* \"Contracts/SashoToken.sol\":12874:12889  currentDelegate */\n      dup3\n        /* \"Contracts/SashoToken.sol\":12847:12901  DelegateChanged(delegator, currentDelegate, delegatee) */\n      0xffffffffffffffffffffffffffffffffffffffff\n      and\n        /* \"Contracts/SashoToken.sol\":12863:12872  delegator */\n      dup6\n        /* \"Contracts/SashoToken.sol\":12847:12901  DelegateChanged(delegator, currentDelegate, delegatee) */\n      0xffffffffffffffffffffffffffffffffffffffff\n      and\n      0x3134e8a2e6d97e929a7e54011ea5485d7d196dd5f0ba4d4ef95803e8e3fc257f\n      mload(0x40)\n      mload(0x40)\n      dup1\n      swap2\n      sub\n      swap1\n      log4\n        /* \"Contracts/SashoToken.sol\":12912:12972  _moveDelegates(currentDelegate, delegatee, delegatorBalance) */\n      tag_256\n        /* \"Contracts/SashoToken.sol\":12927:12942  currentDelegate */\n      dup3\n        /* \"Contracts/SashoToken.sol\":12944:12953  delegatee */\n      dup5\n        /* \"Contracts/SashoToken.sol\":12955:12971  delegatorBalance */\n      dup4\n        /* \"Contracts/SashoToken.sol\":12912:12926  _moveDelegates */\n      tag_253\n        /* \"Contracts/SashoToken.sol\":12912:12972  _moveDelegates(currentDelegate, delegatee, delegatorBalance) */\n      jump\t// in\n    tag_256:\n        /* \"Contracts/SashoToken.sol\":12678:12979  {... */\n      pop\n      pop\n        /* \"Contracts/SashoToken.sol\":12612:12979  function _delegate(address delegator, address delegatee) internal {... */\n      pop\n      pop\n      jump\t// out\n        /* \"Contracts/SashoToken.sol\":2984:3153  function _setOwner(address newOwner) private {... */\n    tag_166:\n        /* \"Contracts/SashoToken.sol\":3039:3055  address oldOwner */\n      0x00\n        /* \"Contracts/SashoToken.sol\":3058:3064  _owner */\n      dup1\n      0x00\n      swap1\n      sload\n      swap1\n      0x0100\n      exp\n      swap1\n      div\n      0xffffffffffffffffffffffffffffffffffffffff\n      and\n        /* \"Contracts/SashoToken.sol\":3039:3064  address oldOwner = _owner */\n      swap1\n      pop\n        /* \"Contracts/SashoToken.sol\":3083:3091  newOwner */\n      dup2\n        /* \"Contracts/SashoToken.sol\":3074:3080  _owner */\n      0x00\n      dup1\n        /* \"Contracts/SashoToken.sol\":3074:3091  _owner = newOwner */\n      0x0100\n      exp\n      dup2\n      sload\n      dup2\n      0xffffffffffffffffffffffffffffffffffffffff\n      mul\n      not\n      and\n      swap1\n      dup4\n      0xffffffffffffffffffffffffffffffffffffffff\n      and\n      mul\n      or\n      swap1\n      sstore\n      pop\n        /* \"Contracts/SashoToken.sol\":3137:3145  newOwner */\n      dup2\n        /* \"Contracts/SashoToken.sol\":3106:3146  OwnershipTransferred(oldOwner, newOwner) */\n      0xffffffffffffffffffffffffffffffffffffffff\n      and\n        /* \"Contracts/SashoToken.sol\":3127:3135  oldOwner */\n      dup2\n        /* \"Contracts/SashoToken.sol\":3106:3146  OwnershipTransferred(oldOwner, newOwner) */\n      0xffffffffffffffffffffffffffffffffffffffff\n      and\n      0x8be0079c531659141344cd1fd0a4f28419497f9722a3daafe3b4186f6b6457e0\n      mload(0x40)\n      mload(0x40)\n      dup1\n      swap2\n      sub\n      swap1\n      log3\n        /* \"Contracts/SashoToken.sol\":3029:3153  {... */\n      pop\n        /* \"Contracts/SashoToken.sol\":2984:3153  function _setOwner(address newOwner) private {... */\n      pop\n      jump\t// out\n        /* \"Contracts/SashoToken.sol\":15842:15930  function getChainId() internal view returns (uint) {... */\n    tag_199:\n        /* \"Contracts/SashoToken.sol\":15887:15891  uint */\n      0x00\n        /* \"Contracts/SashoToken.sol\":15910:15923  block.chainid */\n      chainid\n        /* \"Contracts/SashoToken.sol\":15903:15923  return block.chainid */\n      swap1\n      pop\n        /* \"Contracts/SashoToken.sol\":15842:15930  function getChainId() internal view returns (uint) {... */\n      swap1\n      jump\t// out\n        /* \"Contracts/SashoToken.sol\":15484:15668  function add96(uint96 a, uint96 b, string memory errorMessage) internal pure returns (uint96) {... */\n    tag_250:\n        /* \"Contracts/SashoToken.sol\":15570:15576  uint96 */\n      0x00\n        /* \"Contracts/SashoToken.sol\":15588:15596  uint96 c */\n      dup1\n        /* \"Contracts/SashoToken.sol\":15603:15604  b */\n      dup4\n        /* \"Contracts/SashoToken.sol\":15599:15600  a */\n      dup6\n        /* \"Contracts/SashoToken.sol\":15599:15604  a + b */\n      tag_260\n      swap2\n      swap1\n      tag_152\n      jump\t// in\n    tag_260:\n        /* \"Contracts/SashoToken.sol\":15588:15604  uint96 c = a + b */\n      swap1\n      pop\n        /* \"Contracts/SashoToken.sol\":15627:15628  a */\n      dup5\n        /* \"Contracts/SashoToken.sol\":15622:15628  c >= a */\n      0xffffffffffffffffffffffff\n      and\n        /* \"Contracts/SashoToken.sol\":15622:15623  c */\n      dup2\n        /* \"Contracts/SashoToken.sol\":15622:15628  c >= a */\n      0xffffffffffffffffffffffff\n      and\n      lt\n      iszero\n        /* \"Contracts/SashoToken.sol\":15630:15642  errorMessage */\n      dup4\n        /* \"Contracts/SashoToken.sol\":15614:15643  require(c >= a, errorMessage) */\n      swap1\n      tag_261\n      jumpi\n      mload(0x40)\n      0x08c379a000000000000000000000000000000000000000000000000000000000\n      dup2\n      mstore\n      0x04\n      add\n      tag_262\n      swap2\n      swap1\n      tag_32\n      jump\t// in\n    tag_262:\n      mload(0x40)\n      dup1\n      swap2\n      sub\n      swap1\n      revert\n    tag_261:\n      pop\n        /* \"Contracts/SashoToken.sol\":15660:15661  c */\n      dup1\n        /* \"Contracts/SashoToken.sol\":15653:15661  return c */\n      swap2\n      pop\n      pop\n        /* \"Contracts/SashoToken.sol\":15484:15668  function add96(uint96 a, uint96 b, string memory errorMessage) internal pure returns (uint96) {... */\n      swap4\n      swap3\n      pop\n      pop\n      pop\n      jump\t// out\n        /* \"Contracts/SashoToken.sol\":13600:14525  function _moveDelegates(address srcRep, address dstRep, uint96 amount) internal {... */\n    tag_253:\n        /* \"Contracts/SashoToken.sol\":13704:13710  dstRep */\n      dup2\n        /* \"Contracts/SashoToken.sol\":13694:13710  srcRep != dstRep */\n      0xffffffffffffffffffffffffffffffffffffffff\n      and\n        /* \"Contracts/SashoToken.sol\":13694:13700  srcRep */\n      dup4\n        /* \"Contracts/SashoToken.sol\":13694:13710  srcRep != dstRep */\n      0xffffffffffffffffffffffffffffffffffffffff\n      and\n      eq\n      iszero\n        /* \"Contracts/SashoToken.sol\":13694:13724  srcRep != dstRep && amount > 0 */\n      dup1\n      iszero\n      tag_264\n      jumpi\n      pop\n        /* \"Contracts/SashoToken.sol\":13723:13724  0 */\n      0x00\n        /* \"Contracts/SashoToken.sol\":13714:13720  amount */\n      dup2\n        /* \"Contracts/SashoToken.sol\":13714:13724  amount > 0 */\n      0xffffffffffffffffffffffff\n      and\n      gt\n        /* \"Contracts/SashoToken.sol\":13694:13724  srcRep != dstRep && amount > 0 */\n    tag_264:\n        /* \"Contracts/SashoToken.sol\":13690:14519  if (srcRep != dstRep && amount > 0) {... */\n      iszero\n      tag_265\n      jumpi\n        /* \"Contracts/SashoToken.sol\":13762:13763  0 */\n      0x00\n        /* \"Contracts/SashoToken.sol\":13744:13764  srcRep != address(0) */\n      0xffffffffffffffffffffffffffffffffffffffff\n      and\n        /* \"Contracts/SashoToken.sol\":13744:13750  srcRep */\n      dup4\n        /* \"Contracts/SashoToken.sol\":13744:13764  srcRep != address(0) */\n      0xffffffffffffffffffffffffffffffffffffffff\n      and\n      eq\n        /* \"Contracts/SashoToken.sol\":13740:14118  if (srcRep != address(0)) {... */\n      tag_266\n      jumpi\n        /* \"Contracts/SashoToken.sol\":13784:13800  uint32 srcRepNum */\n      0x00\n        /* \"Contracts/SashoToken.sol\":13803:13817  numCheckpoints */\n      0x05\n        /* \"Contracts/SashoToken.sol\":13803:13825  numCheckpoints[srcRep] */\n      0x00\n        /* \"Contracts/SashoToken.sol\":13818:13824  srcRep */\n      dup6\n        /* \"Contracts/SashoToken.sol\":13803:13825  numCheckpoints[srcRep] */\n      0xffffffffffffffffffffffffffffffffffffffff\n      and\n      0xffffffffffffffffffffffffffffffffffffffff\n      and\n      dup2\n      mstore\n      0x20\n      add\n      swap1\n      dup2\n      mstore\n      0x20\n      add\n      0x00\n      keccak256\n      0x00\n      swap1\n      sload\n      swap1\n      0x0100\n      exp\n      swap1\n      div\n      0xffffffff\n      and\n        /* \"Contracts/SashoToken.sol\":13784:13825  uint32 srcRepNum = numCheckpoints[srcRep] */\n      swap1\n      pop\n        /* \"Contracts/SashoToken.sol\":13843:13859  uint96 srcRepOld */\n      0x00\n        /* \"Contracts/SashoToken.sol\":13874:13875  0 */\n      dup1\n        /* \"Contracts/SashoToken.sol\":13862:13871  srcRepNum */\n      dup3\n        /* \"Contracts/SashoToken.sol\":13862:13875  srcRepNum > 0 */\n      0xffffffff\n      and\n      gt\n        /* \"Contracts/SashoToken.sol\":13862:13922  srcRepNum > 0 ? checkpoints[srcRep][srcRepNum - 1].votes : 0 */\n      tag_267\n      jumpi\n        /* \"Contracts/SashoToken.sol\":13921:13922  0 */\n      0x00\n        /* \"Contracts/SashoToken.sol\":13862:13922  srcRepNum > 0 ? checkpoints[srcRep][srcRepNum - 1].votes : 0 */\n      jump(tag_268)\n    tag_267:\n        /* \"Contracts/SashoToken.sol\":13878:13889  checkpoints */\n      0x04\n        /* \"Contracts/SashoToken.sol\":13878:13897  checkpoints[srcRep] */\n      0x00\n        /* \"Contracts/SashoToken.sol\":13890:13896  srcRep */\n      dup7\n        /* \"Contracts/SashoToken.sol\":13878:13897  checkpoints[srcRep] */\n      0xffffffffffffffffffffffffffffffffffffffff\n      and\n      0xffffffffffffffffffffffffffffffffffffffff\n      and\n      dup2\n      mstore\n      0x20\n      add\n      swap1\n      dup2\n      mstore\n      0x20\n      add\n      0x00\n      keccak256\n        /* \"Contracts/SashoToken.sol\":13878:13912  checkpoints[srcRep][srcRepNum - 1] */\n      0x00\n        /* \"Contracts/SashoToken.sol\":13910:13911  1 */\n      0x01\n        /* \"Contracts/SashoToken.sol\":13898:13907  srcRepNum */\n      dup5\n        /* \"Contracts/SashoToken.sol\":13898:13911  srcRepNum - 1 */\n      tag_269\n      swap2\n      swap1\n      tag_173\n      jump\t// in\n    tag_269:\n        /* \"Contracts/SashoToken.sol\":13878:13912  checkpoints[srcRep][srcRepNum - 1] */\n      0xffffffff\n      and\n      0xffffffff\n      and\n      dup2\n      mstore\n      0x20\n      add\n      swap1\n      dup2\n      mstore\n      0x20\n      add\n      0x00\n      keccak256\n        /* \"Contracts/SashoToken.sol\":13878:13918  checkpoints[srcRep][srcRepNum - 1].votes */\n      0x00\n      add\n      0x04\n      swap1\n      sload\n      swap1\n      0x0100\n      exp\n      swap1\n      div\n      0xffffffffffffffffffffffff\n      and\n        /* \"Contracts/SashoToken.sol\":13862:13922  srcRepNum > 0 ? checkpoints[srcRep][srcRepNum - 1].votes : 0 */\n    tag_268:\n        /* \"Contracts/SashoToken.sol\":13843:13922  uint96 srcRepOld = srcRepNum > 0 ? checkpoints[srcRep][srcRepNum - 1].votes : 0 */\n      swap1\n      pop\n        /* \"Contracts/SashoToken.sol\":13940:13956  uint96 srcRepNew */\n      0x00\n        /* \"Contracts/SashoToken.sol\":13959:14028  sub96(srcRepOld, amount, \"Sasho::_moveVotes: vote amount underflows\") */\n      tag_270\n        /* \"Contracts/SashoToken.sol\":13965:13974  srcRepOld */\n      dup3\n        /* \"Contracts/SashoToken.sol\":13976:13982  amount */\n      dup6\n        /* \"Contracts/SashoToken.sol\":13959:14028  sub96(srcRepOld, amount, \"Sasho::_moveVotes: vote amount underflows\") */\n      mload(0x40)\n      dup1\n      0x60\n      add\n      0x40\n      mstore\n      dup1\n      0x29\n      dup2\n      mstore\n      0x20\n      add\n      data_3bea9324e441166b79eadf3d4f719c1e7d509f932bce59fcc6f3639446f0924d\n      0x29\n      swap2\n      codecopy\n        /* \"Contracts/SashoToken.sol\":13959:13964  sub96 */\n      tag_135\n        /* \"Contracts/SashoToken.sol\":13959:14028  sub96(srcRepOld, amount, \"Sasho::_moveVotes: vote amount underflows\") */\n      jump\t// in\n    tag_270:\n        /* \"Contracts/SashoToken.sol\":13940:14028  uint96 srcRepNew = sub96(srcRepOld, amount, \"Sasho::_moveVotes: vote amount underflows\") */\n      swap1\n      pop\n        /* \"Contracts/SashoToken.sol\":14046:14103  _writeCheckpoint(srcRep, srcRepNum, srcRepOld, srcRepNew) */\n      tag_271\n        /* \"Contracts/SashoToken.sol\":14063:14069  srcRep */\n      dup7\n        /* \"Contracts/SashoToken.sol\":14071:14080  srcRepNum */\n      dup5\n        /* \"Contracts/SashoToken.sol\":14082:14091  srcRepOld */\n      dup5\n        /* \"Contracts/SashoToken.sol\":14093:14102  srcRepNew */\n      dup5\n        /* \"Contracts/SashoToken.sol\":14046:14062  _writeCheckpoint */\n      tag_272\n        /* \"Contracts/SashoToken.sol\":14046:14103  _writeCheckpoint(srcRep, srcRepNum, srcRepOld, srcRepNew) */\n      jump\t// in\n    tag_271:\n        /* \"Contracts/SashoToken.sol\":13766:14118  {... */\n      pop\n      pop\n      pop\n        /* \"Contracts/SashoToken.sol\":13740:14118  if (srcRep != address(0)) {... */\n    tag_266:\n        /* \"Contracts/SashoToken.sol\":14154:14155  0 */\n      0x00\n        /* \"Contracts/SashoToken.sol\":14136:14156  dstRep != address(0) */\n      0xffffffffffffffffffffffffffffffffffffffff\n      and\n        /* \"Contracts/SashoToken.sol\":14136:14142  dstRep */\n      dup3\n        /* \"Contracts/SashoToken.sol\":14136:14156  dstRep != address(0) */\n      0xffffffffffffffffffffffffffffffffffffffff\n      and\n      eq\n        /* \"Contracts/SashoToken.sol\":14132:14509  if (dstRep != address(0)) {... */\n      tag_273\n      jumpi\n        /* \"Contracts/SashoToken.sol\":14176:14192  uint32 dstRepNum */\n      0x00\n        /* \"Contracts/SashoToken.sol\":14195:14209  numCheckpoints */\n      0x05\n        /* \"Contracts/SashoToken.sol\":14195:14217  numCheckpoints[dstRep] */\n      0x00\n        /* \"Contracts/SashoToken.sol\":14210:14216  dstRep */\n      dup5\n        /* \"Contracts/SashoToken.sol\":14195:14217  numCheckpoints[dstRep] */\n      0xffffffffffffffffffffffffffffffffffffffff\n      and\n      0xffffffffffffffffffffffffffffffffffffffff\n      and\n      dup2\n      mstore\n      0x20\n      add\n      swap1\n      dup2\n      mstore\n      0x20\n      add\n      0x00\n      keccak256\n      0x00\n      swap1\n      sload\n      swap1\n      0x0100\n      exp\n      swap1\n      div\n      0xffffffff\n      and\n        /* \"Contracts/SashoToken.sol\":14176:14217  uint32 dstRepNum = numCheckpoints[dstRep] */\n      swap1\n      pop\n        /* \"Contracts/SashoToken.sol\":14235:14251  uint96 dstRepOld */\n      0x00\n        /* \"Contracts/SashoToken.sol\":14266:14267  0 */\n      dup1\n        /* \"Contracts/SashoToken.sol\":14254:14263  dstRepNum */\n      dup3\n        /* \"Contracts/SashoToken.sol\":14254:14267  dstRepNum > 0 */\n      0xffffffff\n      and\n      gt\n        /* \"Contracts/SashoToken.sol\":14254:14314  dstRepNum > 0 ? checkpoints[dstRep][dstRepNum - 1].votes : 0 */\n      tag_274\n      jumpi\n        /* \"Contracts/SashoToken.sol\":14313:14314  0 */\n      0x00\n        /* \"Contracts/SashoToken.sol\":14254:14314  dstRepNum > 0 ? checkpoints[dstRep][dstRepNum - 1].votes : 0 */\n      jump(tag_275)\n    tag_274:\n        /* \"Contracts/SashoToken.sol\":14270:14281  checkpoints */\n      0x04\n        /* \"Contracts/SashoToken.sol\":14270:14289  checkpoints[dstRep] */\n      0x00\n        /* \"Contracts/SashoToken.sol\":14282:14288  dstRep */\n      dup6\n        /* \"Contracts/SashoToken.sol\":14270:14289  checkpoints[dstRep] */\n      0xffffffffffffffffffffffffffffffffffffffff\n      and\n      0xffffffffffffffffffffffffffffffffffffffff\n      and\n      dup2\n      mstore\n      0x20\n      add\n      swap1\n      dup2\n      mstore\n      0x20\n      add\n      0x00\n      keccak256\n        /* \"Contracts/SashoToken.sol\":14270:14304  checkpoints[dstRep][dstRepNum - 1] */\n      0x00\n        /* \"Contracts/SashoToken.sol\":14302:14303  1 */\n      0x01\n        /* \"Contracts/SashoToken.sol\":14290:14299  dstRepNum */\n      dup5\n        /* \"Contracts/SashoToken.sol\":14290:14303  dstRepNum - 1 */\n      tag_276\n      swap2\n      swap1\n      tag_173\n      jump\t// in\n    tag_276:\n        /* \"Contracts/SashoToken.sol\":14270:14304  checkpoints[dstRep][dstRepNum - 1] */\n      0xffffffff\n      and\n      0xffffffff\n      and\n      dup2\n      mstore\n      0x20\n      add\n      swap1\n      dup2\n      mstore\n      0x20\n      add\n      0x00\n      keccak256\n        /* \"Contracts/SashoToken.sol\":14270:14310  checkpoints[dstRep][dstRepNum - 1].votes */\n      0x00\n      add\n      0x04\n      swap1\n      sload\n      swap1\n      0x0100\n      exp\n      swap1\n      div\n      0xffffffffffffffffffffffff\n      and\n        /* \"Contracts/SashoToken.sol\":14254:14314  dstRepNum > 0 ? checkpoints[dstRep][dstRepNum - 1].votes : 0 */\n    tag_275:\n        /* \"Contracts/SashoToken.sol\":14235:14314  uint96 dstRepOld = dstRepNum > 0 ? checkpoints[dstRep][dstRepNum - 1].votes : 0 */\n      swap1\n      pop\n        /* \"Contracts/SashoToken.sol\":14332:14348  uint96 dstRepNew */\n      0x00\n        /* \"Contracts/SashoToken.sol\":14351:14419  add96(dstRepOld, amount, \"Sasho::_moveVotes: vote amount overflows\") */\n      tag_277\n        /* \"Contracts/SashoToken.sol\":14357:14366  dstRepOld */\n      dup3\n        /* \"Contracts/SashoToken.sol\":14368:14374  amount */\n      dup6\n        /* \"Contracts/SashoToken.sol\":14351:14419  add96(dstRepOld, amount, \"Sasho::_moveVotes: vote amount overflows\") */\n      mload(0x40)\n      dup1\n      0x60\n      add\n      0x40\n      mstore\n      dup1\n      0x28\n      dup2\n      mstore\n      0x20\n      add\n      data_eb8833dc9258883ad7a7c4b2a6d920120ad4ff6a7a2b089286450c1400a87215\n      0x28\n      swap2\n      codecopy\n        /* \"Contracts/SashoToken.sol\":14351:14356  add96 */\n      tag_250\n        /* \"Contracts/SashoToken.sol\":14351:14419  add96(dstRepOld, amount, \"Sasho::_moveVotes: vote amount overflows\") */\n      jump\t// in\n    tag_277:\n        /* \"Contracts/SashoToken.sol\":14332:14419  uint96 dstRepNew = add96(dstRepOld, amount, \"Sasho::_moveVotes: vote amount overflows\") */\n      swap1\n      pop\n        /* \"Contracts/SashoToken.sol\":14437:14494  _writeCheckpoint(dstRep, dstRepNum, dstRepOld, dstRepNew) */\n      tag_278\n        /* \"Contracts/SashoToken.sol\":14454:14460  dstRep */\n      dup6\n        /* \"Contracts/SashoToken.sol\":14462:14471  dstRepNum */\n      dup5\n        /* \"Contracts/SashoToken.sol\":14473:14482  dstRepOld */\n      dup5\n        /* \"Contracts/SashoToken.sol\":14484:14493  dstRepNew */\n      dup5\n        /* \"Contracts/SashoToken.sol\":14437:14453  _writeCheckpoint */\n      tag_272\n        /* \"Contracts/SashoToken.sol\":14437:14494  _writeCheckpoint(dstRep, dstRepNum, dstRepOld, dstRepNew) */\n      jump\t// in\n    tag_278:\n        /* \"Contracts/SashoToken.sol\":14158:14509  {... */\n      pop\n      pop\n      pop\n        /* \"Contracts/SashoToken.sol\":14132:14509  if (dstRep != address(0)) {... */\n    tag_273:\n        /* \"Contracts/SashoToken.sol\":13690:14519  if (srcRep != dstRep && amount > 0) {... */\n    tag_265:\n        /* \"Contracts/SashoToken.sol\":13600:14525  function _moveDelegates(address srcRep, address dstRep, uint96 amount) internal {... */\n      pop\n      pop\n      pop\n      jump\t// out\n        /* \"Contracts/SashoToken.sol\":14531:15150  function _writeCheckpoint(address delegatee, uint32 nCheckpoints, uint96 oldVotes, uint96 newVotes) internal {... */\n    tag_272:\n        /* \"Contracts/SashoToken.sol\":14648:14666  uint32 blockNumber */\n      0x00\n        /* \"Contracts/SashoToken.sol\":14669:14746  safe32(block.number, \"Sasho::_writeCheckpoint: block number exceeds 32 bits\") */\n      tag_280\n        /* \"Contracts/SashoToken.sol\":14676:14688  block.number */\n      number\n        /* \"Contracts/SashoToken.sol\":14669:14746  safe32(block.number, \"Sasho::_writeCheckpoint: block number exceeds 32 bits\") */\n      mload(0x40)\n      dup1\n      0x60\n      add\n      0x40\n      mstore\n      dup1\n      0x35\n      dup2\n      mstore\n      0x20\n      add\n      data_3ddac44bb2e63a574cdd122e16cf6345b9840502a6d4847c391adda50d442617\n      0x35\n      swap2\n      codecopy\n        /* \"Contracts/SashoToken.sol\":14669:14675  safe32 */\n      tag_281\n        /* \"Contracts/SashoToken.sol\":14669:14746  safe32(block.number, \"Sasho::_writeCheckpoint: block number exceeds 32 bits\") */\n      jump\t// in\n    tag_280:\n        /* \"Contracts/SashoToken.sol\":14648:14746  uint32 blockNumber = safe32(block.number, \"Sasho::_writeCheckpoint: block number exceeds 32 bits\") */\n      swap1\n      pop\n        /* \"Contracts/SashoToken.sol\":14774:14775  0 */\n      0x00\n        /* \"Contracts/SashoToken.sol\":14759:14771  nCheckpoints */\n      dup5\n        /* \"Contracts/SashoToken.sol\":14759:14775  nCheckpoints > 0 */\n      0xffffffff\n      and\n      gt\n        /* \"Contracts/SashoToken.sol\":14759:14844  nCheckpoints > 0 && checkpoints[delegatee][nCheckpoints - 1].fromBlock == blockNumber */\n      dup1\n      iszero\n      tag_282\n      jumpi\n      pop\n        /* \"Contracts/SashoToken.sol\":14833:14844  blockNumber */\n      dup1\n        /* \"Contracts/SashoToken.sol\":14779:14844  checkpoints[delegatee][nCheckpoints - 1].fromBlock == blockNumber */\n      0xffffffff\n      and\n        /* \"Contracts/SashoToken.sol\":14779:14790  checkpoints */\n      0x04\n        /* \"Contracts/SashoToken.sol\":14779:14801  checkpoints[delegatee] */\n      0x00\n        /* \"Contracts/SashoToken.sol\":14791:14800  delegatee */\n      dup8\n        /* \"Contracts/SashoToken.sol\":14779:14801  checkpoints[delegatee] */\n      0xffffffffffffffffffffffffffffffffffffffff\n      and\n      0xffffffffffffffffffffffffffffffffffffffff\n      and\n      dup2\n      mstore\n      0x20\n      add\n      swap1\n      dup2\n      mstore\n      0x20\n      add\n      0x00\n      keccak256\n        /* \"Contracts/SashoToken.sol\":14779:14819  checkpoints[delegatee][nCheckpoints - 1] */\n      0x00\n        /* \"Contracts/SashoToken.sol\":14817:14818  1 */\n      0x01\n        /* \"Contracts/SashoToken.sol\":14802:14814  nCheckpoints */\n      dup8\n        /* \"Contracts/SashoToken.sol\":14802:14818  nCheckpoints - 1 */\n      tag_283\n      swap2\n      swap1\n      tag_173\n      jump\t// in\n    tag_283:\n        /* \"Contracts/SashoToken.sol\":14779:14819  checkpoints[delegatee][nCheckpoints - 1] */\n      0xffffffff\n      and\n      0xffffffff\n      and\n      dup2\n      mstore\n      0x20\n      add\n      swap1\n      dup2\n      mstore\n      0x20\n      add\n      0x00\n      keccak256\n        /* \"Contracts/SashoToken.sol\":14779:14829  checkpoints[delegatee][nCheckpoints - 1].fromBlock */\n      0x00\n      add\n      0x00\n      swap1\n      sload\n      swap1\n      0x0100\n      exp\n      swap1\n      div\n      0xffffffff\n      and\n        /* \"Contracts/SashoToken.sol\":14779:14844  checkpoints[delegatee][nCheckpoints - 1].fromBlock == blockNumber */\n      0xffffffff\n      and\n      eq\n        /* \"Contracts/SashoToken.sol\":14759:14844  nCheckpoints > 0 && checkpoints[delegatee][nCheckpoints - 1].fromBlock == blockNumber */\n    tag_282:\n        /* \"Contracts/SashoToken.sol\":14755:15079  if (nCheckpoints > 0 && checkpoints[delegatee][nCheckpoints - 1].fromBlock == blockNumber) {... */\n      iszero\n      tag_284\n      jumpi\n        /* \"Contracts/SashoToken.sol\":14907:14915  newVotes */\n      dup2\n        /* \"Contracts/SashoToken.sol\":14858:14869  checkpoints */\n      0x04\n        /* \"Contracts/SashoToken.sol\":14858:14880  checkpoints[delegatee] */\n      0x00\n        /* \"Contracts/SashoToken.sol\":14870:14879  delegatee */\n      dup8\n        /* \"Contracts/SashoToken.sol\":14858:14880  checkpoints[delegatee] */\n      0xffffffffffffffffffffffffffffffffffffffff\n      and\n      0xffffffffffffffffffffffffffffffffffffffff\n      and\n      dup2\n      mstore\n      0x20\n      add\n      swap1\n      dup2\n      mstore\n      0x20\n      add\n      0x00\n      keccak256\n        /* \"Contracts/SashoToken.sol\":14858:14898  checkpoints[delegatee][nCheckpoints - 1] */\n      0x00\n        /* \"Contracts/SashoToken.sol\":14896:14897  1 */\n      0x01\n        /* \"Contracts/SashoToken.sol\":14881:14893  nCheckpoints */\n      dup8\n        /* \"Contracts/SashoToken.sol\":14881:14897  nCheckpoints - 1 */\n      tag_285\n      swap2\n      swap1\n      tag_173\n      jump\t// in\n    tag_285:\n        /* \"Contracts/SashoToken.sol\":14858:14898  checkpoints[delegatee][nCheckpoints - 1] */\n      0xffffffff\n      and\n      0xffffffff\n      and\n      dup2\n      mstore\n      0x20\n      add\n      swap1\n      dup2\n      mstore\n      0x20\n      add\n      0x00\n      keccak256\n        /* \"Contracts/SashoToken.sol\":14858:14904  checkpoints[delegatee][nCheckpoints - 1].votes */\n      0x00\n      add\n      0x04\n        /* \"Contracts/SashoToken.sol\":14858:14915  checkpoints[delegatee][nCheckpoints - 1].votes = newVotes */\n      0x0100\n      exp\n      dup2\n      sload\n      dup2\n      0xffffffffffffffffffffffff\n      mul\n      not\n      and\n      swap1\n      dup4\n      0xffffffffffffffffffffffff\n      and\n      mul\n      or\n      swap1\n      sstore\n      pop\n        /* \"Contracts/SashoToken.sol\":14755:15079  if (nCheckpoints > 0 && checkpoints[delegatee][nCheckpoints - 1].fromBlock == blockNumber) {... */\n      jump(tag_286)\n    tag_284:\n        /* \"Contracts/SashoToken.sol\":14981:15014  Checkpoint(blockNumber, newVotes) */\n      mload(0x40)\n      dup1\n      0x40\n      add\n      0x40\n      mstore\n      dup1\n        /* \"Contracts/SashoToken.sol\":14992:15003  blockNumber */\n      dup3\n        /* \"Contracts/SashoToken.sol\":14981:15014  Checkpoint(blockNumber, newVotes) */\n      0xffffffff\n      and\n      dup2\n      mstore\n      0x20\n      add\n        /* \"Contracts/SashoToken.sol\":15005:15013  newVotes */\n      dup4\n        /* \"Contracts/SashoToken.sol\":14981:15014  Checkpoint(blockNumber, newVotes) */\n      0xffffffffffffffffffffffff\n      and\n      dup2\n      mstore\n      pop\n        /* \"Contracts/SashoToken.sol\":14942:14953  checkpoints */\n      0x04\n        /* \"Contracts/SashoToken.sol\":14942:14964  checkpoints[delegatee] */\n      0x00\n        /* \"Contracts/SashoToken.sol\":14954:14963  delegatee */\n      dup8\n        /* \"Contracts/SashoToken.sol\":14942:14964  checkpoints[delegatee] */\n      0xffffffffffffffffffffffffffffffffffffffff\n      and\n      0xffffffffffffffffffffffffffffffffffffffff\n      and\n      dup2\n      mstore\n      0x20\n      add\n      swap1\n      dup2\n      mstore\n      0x20\n      add\n      0x00\n      keccak256\n        /* \"Contracts/SashoToken.sol\":14942:14978  checkpoints[delegatee][nCheckpoints] */\n      0x00\n        /* \"Contracts/SashoToken.sol\":14965:14977  nCheckpoints */\n      dup7\n        /* \"Contracts/SashoToken.sol\":14942:14978  checkpoints[delegatee][nCheckpoints] */\n      0xffffffff\n      and\n      0xffffffff\n      and\n      dup2\n      mstore\n      0x20\n      add\n      swap1\n      dup2\n      mstore\n      0x20\n      add\n      0x00\n      keccak256\n        /* \"Contracts/SashoToken.sol\":14942:15014  checkpoints[delegatee][nCheckpoints] = Checkpoint(blockNumber, newVotes) */\n      0x00\n      dup3\n      add\n      mload\n      dup2\n      0x00\n      add\n      exp(0x0100, 0x00)\n      dup2\n      sload\n      dup2\n      0xffffffff\n      mul\n      not\n      and\n      swap1\n      dup4\n      0xffffffff\n      and\n      mul\n      or\n      swap1\n      sstore\n      pop\n      0x20\n      dup3\n      add\n      mload\n      dup2\n      0x00\n      add\n      exp(0x0100, 0x04)\n      dup2\n      sload\n      dup2\n      0xffffffffffffffffffffffff\n      mul\n      not\n      and\n      swap1\n      dup4\n      0xffffffffffffffffffffffff\n      and\n      mul\n      or\n      swap1\n      sstore\n      pop\n      swap1\n      pop\n      pop\n        /* \"Contracts/SashoToken.sol\":15069:15070  1 */\n      0x01\n        /* \"Contracts/SashoToken.sol\":15054:15066  nCheckpoints */\n      dup5\n        /* \"Contracts/SashoToken.sol\":15054:15070  nCheckpoints + 1 */\n      tag_287\n      swap2\n      swap1\n      tag_288\n      jump\t// in\n    tag_287:\n        /* \"Contracts/SashoToken.sol\":15026:15040  numCheckpoints */\n      0x05\n        /* \"Contracts/SashoToken.sol\":15026:15051  numCheckpoints[delegatee] */\n      0x00\n        /* \"Contracts/SashoToken.sol\":15041:15050  delegatee */\n      dup8\n        /* \"Contracts/SashoToken.sol\":15026:15051  numCheckpoints[delegatee] */\n      0xffffffffffffffffffffffffffffffffffffffff\n      and\n      0xffffffffffffffffffffffffffffffffffffffff\n      and\n      dup2\n      mstore\n      0x20\n      add\n      swap1\n      dup2\n      mstore\n      0x20\n      add\n      0x00\n      keccak256\n      0x00\n        /* \"Contracts/SashoToken.sol\":15026:15070  numCheckpoints[delegatee] = nCheckpoints + 1 */\n      0x0100\n      exp\n      dup2\n      sload\n      dup2\n      0xffffffff\n      mul\n      not\n      and\n      swap1\n      dup4\n      0xffffffff\n      and\n      mul\n      or\n      swap1\n      sstore\n      pop\n        /* \"Contracts/SashoToken.sol\":14755:15079  if (nCheckpoints > 0 && checkpoints[delegatee][nCheckpoints - 1].fromBlock == blockNumber) {... */\n    tag_286:\n        /* \"Contracts/SashoToken.sol\":15113:15122  delegatee */\n      dup5\n        /* \"Contracts/SashoToken.sol\":15092:15143  DelegateVotesChanged(delegatee, oldVotes, newVotes) */\n      0xffffffffffffffffffffffffffffffffffffffff\n      and\n      0xdec2bacdd2f05b59de34da9b523dff8be42e5e38e818c82fdb0bae774387a724\n        /* \"Contracts/SashoToken.sol\":15124:15132  oldVotes */\n      dup5\n        /* \"Contracts/SashoToken.sol\":15134:15142  newVotes */\n      dup5\n        /* \"Contracts/SashoToken.sol\":15092:15143  DelegateVotesChanged(delegatee, oldVotes, newVotes) */\n      mload(0x40)\n      tag_289\n      swap3\n      swap2\n      swap1\n      tag_290\n      jump\t// in\n    tag_289:\n      mload(0x40)\n      dup1\n      swap2\n      sub\n      swap1\n      log2\n        /* \"Contracts/SashoToken.sol\":14640:15150  {... */\n      pop\n        /* \"Contracts/SashoToken.sol\":14531:15150  function _writeCheckpoint(address delegatee, uint32 nCheckpoints, uint96 oldVotes, uint96 newVotes) internal {... */\n      pop\n      pop\n      pop\n      pop\n      jump\t// out\n        /* \"Contracts/SashoToken.sol\":15156:15314  function safe32(uint n, string memory errorMessage) internal pure returns (uint32) {... */\n    tag_281:\n        /* \"Contracts/SashoToken.sol\":15231:15237  uint32 */\n      0x00\n        /* \"Contracts/SashoToken.sol\":15261:15266  2**32 */\n      0x0100000000\n        /* \"Contracts/SashoToken.sol\":15257:15258  n */\n      dup4\n        /* \"Contracts/SashoToken.sol\":15257:15266  n < 2**32 */\n      lt\n        /* \"Contracts/SashoToken.sol\":15268:15280  errorMessage */\n      dup3\n        /* \"Contracts/SashoToken.sol\":15249:15281  require(n < 2**32, errorMessage) */\n      swap1\n      tag_292\n      jumpi\n      mload(0x40)\n      0x08c379a000000000000000000000000000000000000000000000000000000000\n      dup2\n      mstore\n      0x04\n      add\n      tag_293\n      swap2\n      swap1\n      tag_32\n      jump\t// in\n    tag_293:\n      mload(0x40)\n      dup1\n      swap2\n      sub\n      swap1\n      revert\n    tag_292:\n      pop\n        /* \"Contracts/SashoToken.sol\":15305:15306  n */\n      dup3\n        /* \"Contracts/SashoToken.sol\":15291:15307  return uint32(n) */\n      swap1\n      pop\n        /* \"Contracts/SashoToken.sol\":15156:15314  function safe32(uint n, string memory errorMessage) internal pure returns (uint32) {... */\n      swap3\n      swap2\n      pop\n      pop\n      jump\t// out\n        /* \"#utility.yul\":7:106   */\n    tag_294:\n        /* \"#utility.yul\":59:65   */\n      0x00\n        /* \"#utility.yul\":93:98   */\n      dup2\n        /* \"#utility.yul\":87:99   */\n      mload\n        /* \"#utility.yul\":77:99   */\n      swap1\n      pop\n        /* \"#utility.yul\":7:106   */\n      swap2\n      swap1\n      pop\n      jump\t// out\n        /* \"#utility.yul\":112:281   */\n    tag_295:\n        /* \"#utility.yul\":196:207   */\n      0x00\n        /* \"#utility.yul\":230:236   */\n      dup3\n        /* \"#utility.yul\":225:228   */\n      dup3\n        /* \"#utility.yul\":218:237   */\n      mstore\n        /* \"#utility.yul\":270:274   */\n      0x20\n        /* \"#utility.yul\":265:268   */\n      dup3\n        /* \"#utility.yul\":261:275   */\n      add\n        /* \"#utility.yul\":246:275   */\n      swap1\n      pop\n        /* \"#utility.yul\":112:281   */\n      swap3\n      swap2\n      pop\n      pop\n      jump\t// out\n        /* \"#utility.yul\":287:533   */\n    tag_296:\n        /* \"#utility.yul\":368:369   */\n      0x00\n        /* \"#utility.yul\":378:491   */\n    tag_359:\n        /* \"#utility.yul\":392:398   */\n      dup4\n        /* \"#utility.yul\":389:390   */\n      dup2\n        /* \"#utility.yul\":386:399   */\n      lt\n        /* \"#utility.yul\":378:491   */\n      iszero\n      tag_361\n      jumpi\n        /* \"#utility.yul\":477:478   */\n      dup1\n        /* \"#utility.yul\":472:475   */\n      dup3\n        /* \"#utility.yul\":468:479   */\n      add\n        /* \"#utility.yul\":462:480   */\n      mload\n        /* \"#utility.yul\":458:459   */\n      dup2\n        /* \"#utility.yul\":453:456   */\n      dup5\n        /* \"#utility.yul\":449:460   */\n      add\n        /* \"#utility.yul\":442:481   */\n      mstore\n        /* \"#utility.yul\":414:416   */\n      0x20\n        /* \"#utility.yul\":411:412   */\n      dup2\n        /* \"#utility.yul\":407:417   */\n      add\n        /* \"#utility.yul\":402:417   */\n      swap1\n      pop\n        /* \"#utility.yul\":378:491   */\n      jump(tag_359)\n    tag_361:\n        /* \"#utility.yul\":525:526   */\n      0x00\n        /* \"#utility.yul\":516:522   */\n      dup5\n        /* \"#utility.yul\":511:514   */\n      dup5\n        /* \"#utility.yul\":507:523   */\n      add\n        /* \"#utility.yul\":500:527   */\n      mstore\n        /* \"#utility.yul\":349:533   */\n      pop\n        /* \"#utility.yul\":287:533   */\n      pop\n      pop\n      pop\n      jump\t// out\n        /* \"#utility.yul\":539:641   */\n    tag_297:\n        /* \"#utility.yul\":580:586   */\n      0x00\n        /* \"#utility.yul\":631:633   */\n      0x1f\n        /* \"#utility.yul\":627:634   */\n      not\n        /* \"#utility.yul\":622:624   */\n      0x1f\n        /* \"#utility.yul\":615:620   */\n      dup4\n        /* \"#utility.yul\":611:625   */\n      add\n        /* \"#utility.yul\":607:635   */\n      and\n        /* \"#utility.yul\":597:635   */\n      swap1\n      pop\n        /* \"#utility.yul\":539:641   */\n      swap2\n      swap1\n      pop\n      jump\t// out\n        /* \"#utility.yul\":647:1024   */\n    tag_298:\n        /* \"#utility.yul\":735:738   */\n      0x00\n        /* \"#utility.yul\":763:802   */\n      tag_364\n        /* \"#utility.yul\":796:801   */\n      dup3\n        /* \"#utility.yul\":763:802   */\n      tag_294\n      jump\t// in\n    tag_364:\n        /* \"#utility.yul\":818:889   */\n      tag_365\n        /* \"#utility.yul\":882:888   */\n      dup2\n        /* \"#utility.yul\":877:880   */\n      dup6\n        /* \"#utility.yul\":818:889   */\n      tag_295\n      jump\t// in\n    tag_365:\n        /* \"#utility.yul\":811:889   */\n      swap4\n      pop\n        /* \"#utility.yul\":898:963   */\n      tag_366\n        /* \"#utility.yul\":956:962   */\n      dup2\n        /* \"#utility.yul\":951:954   */\n      dup6\n        /* \"#utility.yul\":944:948   */\n      0x20\n        /* \"#utility.yul\":937:942   */\n      dup7\n        /* \"#utility.yul\":933:949   */\n      add\n        /* \"#utility.yul\":898:963   */\n      tag_296\n      jump\t// in\n    tag_366:\n        /* \"#utility.yul\":988:1017   */\n      tag_367\n        /* \"#utility.yul\":1010:1016   */\n      dup2\n        /* \"#utility.yul\":988:1017   */\n      tag_297\n      jump\t// in\n    tag_367:\n        /* \"#utility.yul\":983:986   */\n      dup5\n        /* \"#utility.yul\":979:1018   */\n      add\n        /* \"#utility.yul\":972:1018   */\n      swap2\n      pop\n        /* \"#utility.yul\":739:1024   */\n      pop\n        /* \"#utility.yul\":647:1024   */\n      swap3\n      swap2\n      pop\n      pop\n      jump\t// out\n        /* \"#utility.yul\":1030:1343   */\n    tag_32:\n        /* \"#utility.yul\":1143:1147   */\n      0x00\n        /* \"#utility.yul\":1181:1183   */\n      0x20\n        /* \"#utility.yul\":1170:1179   */\n      dup3\n        /* \"#utility.yul\":1166:1184   */\n      add\n        /* \"#utility.yul\":1158:1184   */\n      swap1\n      pop\n        /* \"#utility.yul\":1230:1239   */\n      dup2\n        /* \"#utility.yul\":1224:1228   */\n      dup2\n        /* \"#utility.yul\":1220:1240   */\n      sub\n        /* \"#utility.yul\":1216:1217   */\n      0x00\n        /* \"#utility.yul\":1205:1214   */\n      dup4\n        /* \"#utility.yul\":1201:1218   */\n      add\n        /* \"#utility.yul\":1194:1241   */\n      mstore\n        /* \"#utility.yul\":1258:1336   */\n      tag_369\n        /* \"#utility.yul\":1331:1335   */\n      dup2\n        /* \"#utility.yul\":1322:1328   */\n      dup5\n        /* \"#utility.yul\":1258:1336   */\n      tag_298\n      jump\t// in\n    tag_369:\n        /* \"#utility.yul\":1250:1336   */\n      swap1\n      pop\n        /* \"#utility.yul\":1030:1343   */\n      swap3\n      swap2\n      pop\n      pop\n      jump\t// out\n        /* \"#utility.yul\":1430:1547   */\n    tag_300:\n        /* \"#utility.yul\":1539:1540   */\n      0x00\n        /* \"#utility.yul\":1536:1537   */\n      dup1\n        /* \"#utility.yul\":1529:1541   */\n      revert\n        /* \"#utility.yul\":1676:1802   */\n    tag_302:\n        /* \"#utility.yul\":1713:1720   */\n      0x00\n        /* \"#utility.yul\":1753:1795   */\n      0xffffffffffffffffffffffffffffffffffffffff\n        /* \"#utility.yul\":1746:1751   */\n      dup3\n        /* \"#utility.yul\":1742:1796   */\n      and\n        /* \"#utility.yul\":1731:1796   */\n      swap1\n      pop\n        /* \"#utility.yul\":1676:1802   */\n      swap2\n      swap1\n      pop\n      jump\t// out\n        /* \"#utility.yul\":1808:1904   */\n    tag_303:\n        /* \"#utility.yul\":1845:1852   */\n      0x00\n        /* \"#utility.yul\":1874:1898   */\n      tag_375\n        /* \"#utility.yul\":1892:1897   */\n      dup3\n        /* \"#utility.yul\":1874:1898   */\n      tag_302\n      jump\t// in\n    tag_375:\n        /* \"#utility.yul\":1863:1898   */\n      swap1\n      pop\n        /* \"#utility.yul\":1808:1904   */\n      swap2\n      swap1\n      pop\n      jump\t// out\n        /* \"#utility.yul\":1910:2032   */\n    tag_304:\n        /* \"#utility.yul\":1983:2007   */\n      tag_377\n        /* \"#utility.yul\":2001:2006   */\n      dup2\n        /* \"#utility.yul\":1983:2007   */\n      tag_303\n      jump\t// in\n    tag_377:\n        /* \"#utility.yul\":1976:1981   */\n      dup2\n        /* \"#utility.yul\":1973:2008   */\n      eq\n        /* \"#utility.yul\":1963:2026   */\n      tag_378\n      jumpi\n        /* \"#utility.yul\":2022:2023   */\n      0x00\n        /* \"#utility.yul\":2019:2020   */\n      dup1\n        /* \"#utility.yul\":2012:2024   */\n      revert\n        /* \"#utility.yul\":1963:2026   */\n    tag_378:\n        /* \"#utility.yul\":1910:2032   */\n      pop\n      jump\t// out\n        /* \"#utility.yul\":2038:2177   */\n    tag_305:\n        /* \"#utility.yul\":2084:2089   */\n      0x00\n        /* \"#utility.yul\":2122:2128   */\n      dup2\n        /* \"#utility.yul\":2109:2129   */\n      calldataload\n        /* \"#utility.yul\":2100:2129   */\n      swap1\n      pop\n        /* \"#utility.yul\":2138:2171   */\n      tag_380\n        /* \"#utility.yul\":2165:2170   */\n      dup2\n        /* \"#utility.yul\":2138:2171   */\n      tag_304\n      jump\t// in\n    tag_380:\n        /* \"#utility.yul\":2038:2177   */\n      swap3\n      swap2\n      pop\n      pop\n      jump\t// out\n        /* \"#utility.yul\":2183:2260   */\n    tag_306:\n        /* \"#utility.yul\":2220:2227   */\n      0x00\n        /* \"#utility.yul\":2249:2254   */\n      dup2\n        /* \"#utility.yul\":2238:2254   */\n      swap1\n      pop\n        /* \"#utility.yul\":2183:2260   */\n      swap2\n      swap1\n      pop\n      jump\t// out\n        /* \"#utility.yul\":2266:2388   */\n    tag_307:\n        /* \"#utility.yul\":2339:2363   */\n      tag_383\n        /* \"#utility.yul\":2357:2362   */\n      dup2\n        /* \"#utility.yul\":2339:2363   */\n      tag_306\n      jump\t// in\n    tag_383:\n        /* \"#utility.yul\":2332:2337   */\n      dup2\n        /* \"#utility.yul\":2329:2364   */\n      eq\n        /* \"#utility.yul\":2319:2382   */\n      tag_384\n      jumpi\n        /* \"#utility.yul\":2378:2379   */\n      0x00\n        /* \"#utility.yul\":2375:2376   */\n      dup1\n        /* \"#utility.yul\":2368:2380   */\n      revert\n        /* \"#utility.yul\":2319:2382   */\n    tag_384:\n        /* \"#utility.yul\":2266:2388   */\n      pop\n      jump\t// out\n        /* \"#utility.yul\":2394:2533   */\n    tag_308:\n        /* \"#utility.yul\":2440:2445   */\n      0x00\n        /* \"#utility.yul\":2478:2484   */\n      dup2\n        /* \"#utility.yul\":2465:2485   */\n      calldataload\n        /* \"#utility.yul\":2456:2485   */\n      swap1\n      pop\n        /* \"#utility.yul\":2494:2527   */\n      tag_386\n        /* \"#utility.yul\":2521:2526   */\n      dup2\n        /* \"#utility.yul\":2494:2527   */\n      tag_307\n      jump\t// in\n    tag_386:\n        /* \"#utility.yul\":2394:2533   */\n      swap3\n      swap2\n      pop\n      pop\n      jump\t// out\n        /* \"#utility.yul\":2539:3013   */\n    tag_35:\n        /* \"#utility.yul\":2607:2613   */\n      0x00\n        /* \"#utility.yul\":2615:2621   */\n      dup1\n        /* \"#utility.yul\":2664:2666   */\n      0x40\n        /* \"#utility.yul\":2652:2661   */\n      dup4\n        /* \"#utility.yul\":2643:2650   */\n      dup6\n        /* \"#utility.yul\":2639:2662   */\n      sub\n        /* \"#utility.yul\":2635:2667   */\n      slt\n        /* \"#utility.yul\":2632:2751   */\n      iszero\n      tag_388\n      jumpi\n        /* \"#utility.yul\":2670:2749   */\n      tag_389\n      tag_300\n      jump\t// in\n    tag_389:\n        /* \"#utility.yul\":2632:2751   */\n    tag_388:\n        /* \"#utility.yul\":2790:2791   */\n      0x00\n        /* \"#utility.yul\":2815:2868   */\n      tag_390\n        /* \"#utility.yul\":2860:2867   */\n      dup6\n        /* \"#utility.yul\":2851:2857   */\n      dup3\n        /* \"#utility.yul\":2840:2849   */\n      dup7\n        /* \"#utility.yul\":2836:2858   */\n      add\n        /* \"#utility.yul\":2815:2868   */\n      tag_305\n      jump\t// in\n    tag_390:\n        /* \"#utility.yul\":2805:2868   */\n      swap3\n      pop\n        /* \"#utility.yul\":2761:2878   */\n      pop\n        /* \"#utility.yul\":2917:2919   */\n      0x20\n        /* \"#utility.yul\":2943:2996   */\n      tag_391\n        /* \"#utility.yul\":2988:2995   */\n      dup6\n        /* \"#utility.yul\":2979:2985   */\n      dup3\n        /* \"#utility.yul\":2968:2977   */\n      dup7\n        /* \"#utility.yul\":2964:2986   */\n      add\n        /* \"#utility.yul\":2943:2996   */\n      tag_308\n      jump\t// in\n    tag_391:\n        /* \"#utility.yul\":2933:2996   */\n      swap2\n      pop\n        /* \"#utility.yul\":2888:3006   */\n      pop\n        /* \"#utility.yul\":2539:3013   */\n      swap3\n      pop\n      swap3\n      swap1\n      pop\n      jump\t// out\n        /* \"#utility.yul\":3019:3109   */\n    tag_309:\n        /* \"#utility.yul\":3053:3060   */\n      0x00\n        /* \"#utility.yul\":3096:3101   */\n      dup2\n        /* \"#utility.yul\":3089:3102   */\n      iszero\n        /* \"#utility.yul\":3082:3103   */\n      iszero\n        /* \"#utility.yul\":3071:3103   */\n      swap1\n      pop\n        /* \"#utility.yul\":3019:3109   */\n      swap2\n      swap1\n      pop\n      jump\t// out\n        /* \"#utility.yul\":3115:3224   */\n    tag_310:\n        /* \"#utility.yul\":3196:3217   */\n      tag_394\n        /* \"#utility.yul\":3211:3216   */\n      dup2\n        /* \"#utility.yul\":3196:3217   */\n      tag_309\n      jump\t// in\n    tag_394:\n        /* \"#utility.yul\":3191:3194   */\n      dup3\n        /* \"#utility.yul\":3184:3218   */\n      mstore\n        /* \"#utility.yul\":3115:3224   */\n      pop\n      pop\n      jump\t// out\n        /* \"#utility.yul\":3230:3440   */\n    tag_38:\n        /* \"#utility.yul\":3317:3321   */\n      0x00\n        /* \"#utility.yul\":3355:3357   */\n      0x20\n        /* \"#utility.yul\":3344:3353   */\n      dup3\n        /* \"#utility.yul\":3340:3358   */\n      add\n        /* \"#utility.yul\":3332:3358   */\n      swap1\n      pop\n        /* \"#utility.yul\":3368:3433   */\n      tag_396\n        /* \"#utility.yul\":3430:3431   */\n      0x00\n        /* \"#utility.yul\":3419:3428   */\n      dup4\n        /* \"#utility.yul\":3415:3432   */\n      add\n        /* \"#utility.yul\":3406:3412   */\n      dup5\n        /* \"#utility.yul\":3368:3433   */\n      tag_310\n      jump\t// in\n    tag_396:\n        /* \"#utility.yul\":3230:3440   */\n      swap3\n      swap2\n      pop\n      pop\n      jump\t// out\n        /* \"#utility.yul\":3446:3555   */\n    tag_311:\n        /* \"#utility.yul\":3482:3489   */\n      0x00\n        /* \"#utility.yul\":3522:3548   */\n      0xffffffffffffffffffffffff\n        /* \"#utility.yul\":3515:3520   */\n      dup3\n        /* \"#utility.yul\":3511:3549   */\n      and\n        /* \"#utility.yul\":3500:3549   */\n      swap1\n      pop\n        /* \"#utility.yul\":3446:3555   */\n      swap2\n      swap1\n      pop\n      jump\t// out\n        /* \"#utility.yul\":3561:3676   */\n    tag_312:\n        /* \"#utility.yul\":3646:3669   */\n      tag_399\n        /* \"#utility.yul\":3663:3668   */\n      dup2\n        /* \"#utility.yul\":3646:3669   */\n      tag_311\n      jump\t// in\n    tag_399:\n        /* \"#utility.yul\":3641:3644   */\n      dup3\n        /* \"#utility.yul\":3634:3670   */\n      mstore\n        /* \"#utility.yul\":3561:3676   */\n      pop\n      pop\n      jump\t// out\n        /* \"#utility.yul\":3682:3900   */\n    tag_42:\n        /* \"#utility.yul\":3773:3777   */\n      0x00\n        /* \"#utility.yul\":3811:3813   */\n      0x20\n        /* \"#utility.yul\":3800:3809   */\n      dup3\n        /* \"#utility.yul\":3796:3814   */\n      add\n        /* \"#utility.yul\":3788:3814   */\n      swap1\n      pop\n        /* \"#utility.yul\":3824:3893   */\n      tag_401\n        /* \"#utility.yul\":3890:3891   */\n      0x00\n        /* \"#utility.yul\":3879:3888   */\n      dup4\n        /* \"#utility.yul\":3875:3892   */\n      add\n        /* \"#utility.yul\":3866:3872   */\n      dup5\n        /* \"#utility.yul\":3824:3893   */\n      tag_312\n      jump\t// in\n    tag_401:\n        /* \"#utility.yul\":3682:3900   */\n      swap3\n      swap2\n      pop\n      pop\n      jump\t// out\n        /* \"#utility.yul\":3906:3983   */\n    tag_313:\n        /* \"#utility.yul\":3943:3950   */\n      0x00\n        /* \"#utility.yul\":3972:3977   */\n      dup2\n        /* \"#utility.yul\":3961:3977   */\n      swap1\n      pop\n        /* \"#utility.yul\":3906:3983   */\n      swap2\n      swap1\n      pop\n      jump\t// out\n        /* \"#utility.yul\":3989:4107   */\n    tag_314:\n        /* \"#utility.yul\":4076:4100   */\n      tag_404\n        /* \"#utility.yul\":4094:4099   */\n      dup2\n        /* \"#utility.yul\":4076:4100   */\n      tag_313\n      jump\t// in\n    tag_404:\n        /* \"#utility.yul\":4071:4074   */\n      dup3\n        /* \"#utility.yul\":4064:4101   */\n      mstore\n        /* \"#utility.yul\":3989:4107   */\n      pop\n      pop\n      jump\t// out\n        /* \"#utility.yul\":4113:4335   */\n    tag_46:\n        /* \"#utility.yul\":4206:4210   */\n      0x00\n        /* \"#utility.yul\":4244:4246   */\n      0x20\n        /* \"#utility.yul\":4233:4242   */\n      dup3\n        /* \"#utility.yul\":4229:4247   */\n      add\n        /* \"#utility.yul\":4221:4247   */\n      swap1\n      pop\n        /* \"#utility.yul\":4257:4328   */\n      tag_406\n        /* \"#utility.yul\":4325:4326   */\n      0x00\n        /* \"#utility.yul\":4314:4323   */\n      dup4\n        /* \"#utility.yul\":4310:4327   */\n      add\n        /* \"#utility.yul\":4301:4307   */\n      dup5\n        /* \"#utility.yul\":4257:4328   */\n      tag_314\n      jump\t// in\n    tag_406:\n        /* \"#utility.yul\":4113:4335   */\n      swap3\n      swap2\n      pop\n      pop\n      jump\t// out\n        /* \"#utility.yul\":4341:4960   */\n    tag_49:\n        /* \"#utility.yul\":4418:4424   */\n      0x00\n        /* \"#utility.yul\":4426:4432   */\n      dup1\n        /* \"#utility.yul\":4434:4440   */\n      0x00\n        /* \"#utility.yul\":4483:4485   */\n      0x60\n        /* \"#utility.yul\":4471:4480   */\n      dup5\n        /* \"#utility.yul\":4462:4469   */\n      dup7\n        /* \"#utility.yul\":4458:4481   */\n      sub\n        /* \"#utility.yul\":4454:4486   */\n      slt\n        /* \"#utility.yul\":4451:4570   */\n      iszero\n      tag_408\n      jumpi\n        /* \"#utility.yul\":4489:4568   */\n      tag_409\n      tag_300\n      jump\t// in\n    tag_409:\n        /* \"#utility.yul\":4451:4570   */\n    tag_408:\n        /* \"#utility.yul\":4609:4610   */\n      0x00\n        /* \"#utility.yul\":4634:4687   */\n      tag_410\n        /* \"#utility.yul\":4679:4686   */\n      dup7\n        /* \"#utility.yul\":4670:4676   */\n      dup3\n        /* \"#utility.yul\":4659:4668   */\n      dup8\n        /* \"#utility.yul\":4655:4677   */\n      add\n        /* \"#utility.yul\":4634:4687   */\n      tag_305\n      jump\t// in\n    tag_410:\n        /* \"#utility.yul\":4624:4687   */\n      swap4\n      pop\n        /* \"#utility.yul\":4580:4697   */\n      pop\n        /* \"#utility.yul\":4736:4738   */\n      0x20\n        /* \"#utility.yul\":4762:4815   */\n      tag_411\n        /* \"#utility.yul\":4807:4814   */\n      dup7\n        /* \"#utility.yul\":4798:4804   */\n      dup3\n        /* \"#utility.yul\":4787:4796   */\n      dup8\n        /* \"#utility.yul\":4783:4805   */\n      add\n        /* \"#utility.yul\":4762:4815   */\n      tag_305\n      jump\t// in\n    tag_411:\n        /* \"#utility.yul\":4752:4815   */\n      swap3\n      pop\n        /* \"#utility.yul\":4707:4825   */\n      pop\n        /* \"#utility.yul\":4864:4866   */\n      0x40\n        /* \"#utility.yul\":4890:4943   */\n      tag_412\n        /* \"#utility.yul\":4935:4942   */\n      dup7\n        /* \"#utility.yul\":4926:4932   */\n      dup3\n        /* \"#utility.yul\":4915:4924   */\n      dup8\n        /* \"#utility.yul\":4911:4933   */\n      add\n        /* \"#utility.yul\":4890:4943   */\n      tag_308\n      jump\t// in\n    tag_412:\n        /* \"#utility.yul\":4880:4943   */\n      swap2\n      pop\n        /* \"#utility.yul\":4835:4953   */\n      pop\n        /* \"#utility.yul\":4341:4960   */\n      swap3\n      pop\n      swap3\n      pop\n      swap3\n      jump\t// out\n        /* \"#utility.yul\":4966:5052   */\n    tag_315:\n        /* \"#utility.yul\":5001:5008   */\n      0x00\n        /* \"#utility.yul\":5041:5045   */\n      0xff\n        /* \"#utility.yul\":5034:5039   */\n      dup3\n        /* \"#utility.yul\":5030:5046   */\n      and\n        /* \"#utility.yul\":5019:5046   */\n      swap1\n      pop\n        /* \"#utility.yul\":4966:5052   */\n      swap2\n      swap1\n      pop\n      jump\t// out\n        /* \"#utility.yul\":5058:5170   */\n    tag_316:\n        /* \"#utility.yul\":5141:5163   */\n      tag_415\n        /* \"#utility.yul\":5157:5162   */\n      dup2\n        /* \"#utility.yul\":5141:5163   */\n      tag_315\n      jump\t// in\n    tag_415:\n        /* \"#utility.yul\":5136:5139   */\n      dup3\n        /* \"#utility.yul\":5129:5164   */\n      mstore\n        /* \"#utility.yul\":5058:5170   */\n      pop\n      pop\n      jump\t// out\n        /* \"#utility.yul\":5176:5390   */\n    tag_55:\n        /* \"#utility.yul\":5265:5269   */\n      0x00\n        /* \"#utility.yul\":5303:5305   */\n      0x20\n        /* \"#utility.yul\":5292:5301   */\n      dup3\n        /* \"#utility.yul\":5288:5306   */\n      add\n        /* \"#utility.yul\":5280:5306   */\n      swap1\n      pop\n        /* \"#utility.yul\":5316:5383   */\n      tag_417\n        /* \"#utility.yul\":5380:5381   */\n      0x00\n        /* \"#utility.yul\":5369:5378   */\n      dup4\n        /* \"#utility.yul\":5365:5382   */\n      add\n        /* \"#utility.yul\":5356:5362   */\n      dup5\n        /* \"#utility.yul\":5316:5383   */\n      tag_316\n      jump\t// in\n    tag_417:\n        /* \"#utility.yul\":5176:5390   */\n      swap3\n      swap2\n      pop\n      pop\n      jump\t// out\n        /* \"#utility.yul\":5396:5725   */\n    tag_61:\n        /* \"#utility.yul\":5455:5461   */\n      0x00\n        /* \"#utility.yul\":5504:5506   */\n      0x20\n        /* \"#utility.yul\":5492:5501   */\n      dup3\n        /* \"#utility.yul\":5483:5490   */\n      dup5\n        /* \"#utility.yul\":5479:5502   */\n      sub\n        /* \"#utility.yul\":5475:5507   */\n      slt\n        /* \"#utility.yul\":5472:5591   */\n      iszero\n      tag_419\n      jumpi\n        /* \"#utility.yul\":5510:5589   */\n      tag_420\n      tag_300\n      jump\t// in\n    tag_420:\n        /* \"#utility.yul\":5472:5591   */\n    tag_419:\n        /* \"#utility.yul\":5630:5631   */\n      0x00\n        /* \"#utility.yul\":5655:5708   */\n      tag_421\n        /* \"#utility.yul\":5700:5707   */\n      dup5\n        /* \"#utility.yul\":5691:5697   */\n      dup3\n        /* \"#utility.yul\":5680:5689   */\n      dup6\n        /* \"#utility.yul\":5676:5698   */\n      add\n        /* \"#utility.yul\":5655:5708   */\n      tag_305\n      jump\t// in\n    tag_421:\n        /* \"#utility.yul\":5645:5708   */\n      swap2\n      pop\n        /* \"#utility.yul\":5601:5718   */\n      pop\n        /* \"#utility.yul\":5396:5725   */\n      swap3\n      swap2\n      pop\n      pop\n      jump\t// out\n        /* \"#utility.yul\":5731:5849   */\n    tag_317:\n        /* \"#utility.yul\":5818:5842   */\n      tag_423\n        /* \"#utility.yul\":5836:5841   */\n      dup2\n        /* \"#utility.yul\":5818:5842   */\n      tag_303\n      jump\t// in\n    tag_423:\n        /* \"#utility.yul\":5813:5816   */\n      dup3\n        /* \"#utility.yul\":5806:5843   */\n      mstore\n        /* \"#utility.yul\":5731:5849   */\n      pop\n      pop\n      jump\t// out\n        /* \"#utility.yul\":5855:6077   */\n    tag_64:\n        /* \"#utility.yul\":5948:5952   */\n      0x00\n        /* \"#utility.yul\":5986:5988   */\n      0x20\n        /* \"#utility.yul\":5975:5984   */\n      dup3\n        /* \"#utility.yul\":5971:5989   */\n      add\n        /* \"#utility.yul\":5963:5989   */\n      swap1\n      pop\n        /* \"#utility.yul\":5999:6070   */\n      tag_425\n        /* \"#utility.yul\":6067:6068   */\n      0x00\n        /* \"#utility.yul\":6056:6065   */\n      dup4\n        /* \"#utility.yul\":6052:6069   */\n      add\n        /* \"#utility.yul\":6043:6049   */\n      dup5\n        /* \"#utility.yul\":5999:6070   */\n      tag_317\n      jump\t// in\n    tag_425:\n        /* \"#utility.yul\":5855:6077   */\n      swap3\n      swap2\n      pop\n      pop\n      jump\t// out\n        /* \"#utility.yul\":6083:6176   */\n    tag_318:\n        /* \"#utility.yul\":6119:6126   */\n      0x00\n        /* \"#utility.yul\":6159:6169   */\n      0xffffffff\n        /* \"#utility.yul\":6152:6157   */\n      dup3\n        /* \"#utility.yul\":6148:6170   */\n      and\n        /* \"#utility.yul\":6137:6170   */\n      swap1\n      pop\n        /* \"#utility.yul\":6083:6176   */\n      swap2\n      swap1\n      pop\n      jump\t// out\n        /* \"#utility.yul\":6182:6297   */\n    tag_319:\n        /* \"#utility.yul\":6267:6290   */\n      tag_428\n        /* \"#utility.yul\":6284:6289   */\n      dup2\n        /* \"#utility.yul\":6267:6290   */\n      tag_318\n      jump\t// in\n    tag_428:\n        /* \"#utility.yul\":6262:6265   */\n      dup3\n        /* \"#utility.yul\":6255:6291   */\n      mstore\n        /* \"#utility.yul\":6182:6297   */\n      pop\n      pop\n      jump\t// out\n        /* \"#utility.yul\":6303:6521   */\n    tag_72:\n        /* \"#utility.yul\":6394:6398   */\n      0x00\n        /* \"#utility.yul\":6432:6434   */\n      0x20\n        /* \"#utility.yul\":6421:6430   */\n      dup3\n        /* \"#utility.yul\":6417:6435   */\n      add\n        /* \"#utility.yul\":6409:6435   */\n      swap1\n      pop\n        /* \"#utility.yul\":6445:6514   */\n      tag_430\n        /* \"#utility.yul\":6511:6512   */\n      0x00\n        /* \"#utility.yul\":6500:6509   */\n      dup4\n        /* \"#utility.yul\":6496:6513   */\n      add\n        /* \"#utility.yul\":6487:6493   */\n      dup5\n        /* \"#utility.yul\":6445:6514   */\n      tag_319\n      jump\t// in\n    tag_430:\n        /* \"#utility.yul\":6303:6521   */\n      swap3\n      swap2\n      pop\n      pop\n      jump\t// out\n        /* \"#utility.yul\":6527:6645   */\n    tag_320:\n        /* \"#utility.yul\":6614:6638   */\n      tag_432\n        /* \"#utility.yul\":6632:6637   */\n      dup2\n        /* \"#utility.yul\":6614:6638   */\n      tag_306\n      jump\t// in\n    tag_432:\n        /* \"#utility.yul\":6609:6612   */\n      dup3\n        /* \"#utility.yul\":6602:6639   */\n      mstore\n        /* \"#utility.yul\":6527:6645   */\n      pop\n      pop\n      jump\t// out\n        /* \"#utility.yul\":6651:6873   */\n    tag_77:\n        /* \"#utility.yul\":6744:6748   */\n      0x00\n        /* \"#utility.yul\":6782:6784   */\n      0x20\n        /* \"#utility.yul\":6771:6780   */\n      dup3\n        /* \"#utility.yul\":6767:6785   */\n      add\n        /* \"#utility.yul\":6759:6785   */\n      swap1\n      pop\n        /* \"#utility.yul\":6795:6866   */\n      tag_434\n        /* \"#utility.yul\":6863:6864   */\n      0x00\n        /* \"#utility.yul\":6852:6861   */\n      dup4\n        /* \"#utility.yul\":6848:6865   */\n      add\n        /* \"#utility.yul\":6839:6845   */\n      dup5\n        /* \"#utility.yul\":6795:6866   */\n      tag_320\n      jump\t// in\n    tag_434:\n        /* \"#utility.yul\":6651:6873   */\n      swap3\n      swap2\n      pop\n      pop\n      jump\t// out\n        /* \"#utility.yul\":6879:6997   */\n    tag_321:\n        /* \"#utility.yul\":6950:6972   */\n      tag_436\n        /* \"#utility.yul\":6966:6971   */\n      dup2\n        /* \"#utility.yul\":6950:6972   */\n      tag_315\n      jump\t// in\n    tag_436:\n        /* \"#utility.yul\":6943:6948   */\n      dup2\n        /* \"#utility.yul\":6940:6973   */\n      eq\n        /* \"#utility.yul\":6930:6991   */\n      tag_437\n      jumpi\n        /* \"#utility.yul\":6987:6988   */\n      0x00\n        /* \"#utility.yul\":6984:6985   */\n      dup1\n        /* \"#utility.yul\":6977:6989   */\n      revert\n        /* \"#utility.yul\":6930:6991   */\n    tag_437:\n        /* \"#utility.yul\":6879:6997   */\n      pop\n      jump\t// out\n        /* \"#utility.yul\":7003:7138   */\n    tag_322:\n        /* \"#utility.yul\":7047:7052   */\n      0x00\n        /* \"#utility.yul\":7085:7091   */\n      dup2\n        /* \"#utility.yul\":7072:7092   */\n      calldataload\n        /* \"#utility.yul\":7063:7092   */\n      swap1\n      pop\n        /* \"#utility.yul\":7101:7132   */\n      tag_439\n        /* \"#utility.yul\":7126:7131   */\n      dup2\n        /* \"#utility.yul\":7101:7132   */\n      tag_321\n      jump\t// in\n    tag_439:\n        /* \"#utility.yul\":7003:7138   */\n      swap3\n      swap2\n      pop\n      pop\n      jump\t// out\n        /* \"#utility.yul\":7144:7266   */\n    tag_323:\n        /* \"#utility.yul\":7217:7241   */\n      tag_441\n        /* \"#utility.yul\":7235:7240   */\n      dup2\n        /* \"#utility.yul\":7217:7241   */\n      tag_313\n      jump\t// in\n    tag_441:\n        /* \"#utility.yul\":7210:7215   */\n      dup2\n        /* \"#utility.yul\":7207:7242   */\n      eq\n        /* \"#utility.yul\":7197:7260   */\n      tag_442\n      jumpi\n        /* \"#utility.yul\":7256:7257   */\n      0x00\n        /* \"#utility.yul\":7253:7254   */\n      dup1\n        /* \"#utility.yul\":7246:7258   */\n      revert\n        /* \"#utility.yul\":7197:7260   */\n    tag_442:\n        /* \"#utility.yul\":7144:7266   */\n      pop\n      jump\t// out\n        /* \"#utility.yul\":7272:7411   */\n    tag_324:\n        /* \"#utility.yul\":7318:7323   */\n      0x00\n        /* \"#utility.yul\":7356:7362   */\n      dup2\n        /* \"#utility.yul\":7343:7363   */\n      calldataload\n        /* \"#utility.yul\":7334:7363   */\n      swap1\n      pop\n        /* \"#utility.yul\":7372:7405   */\n      tag_444\n        /* \"#utility.yul\":7399:7404   */\n      dup2\n        /* \"#utility.yul\":7372:7405   */\n      tag_323\n      jump\t// in\n    tag_444:\n        /* \"#utility.yul\":7272:7411   */\n      swap3\n      swap2\n      pop\n      pop\n      jump\t// out\n        /* \"#utility.yul\":7417:8470   */\n    tag_104:\n        /* \"#utility.yul\":7519:7525   */\n      0x00\n        /* \"#utility.yul\":7527:7533   */\n      dup1\n        /* \"#utility.yul\":7535:7541   */\n      0x00\n        /* \"#utility.yul\":7543:7549   */\n      dup1\n        /* \"#utility.yul\":7551:7557   */\n      0x00\n        /* \"#utility.yul\":7559:7565   */\n      dup1\n        /* \"#utility.yul\":7608:7611   */\n      0xc0\n        /* \"#utility.yul\":7596:7605   */\n      dup8\n        /* \"#utility.yul\":7587:7594   */\n      dup10\n        /* \"#utility.yul\":7583:7606   */\n      sub\n        /* \"#utility.yul\":7579:7612   */\n      slt\n        /* \"#utility.yul\":7576:7696   */\n      iszero\n      tag_446\n      jumpi\n        /* \"#utility.yul\":7615:7694   */\n      tag_447\n      tag_300\n      jump\t// in\n    tag_447:\n        /* \"#utility.yul\":7576:7696   */\n    tag_446:\n        /* \"#utility.yul\":7735:7736   */\n      0x00\n        /* \"#utility.yul\":7760:7813   */\n      tag_448\n        /* \"#utility.yul\":7805:7812   */\n      dup10\n        /* \"#utility.yul\":7796:7802   */\n      dup3\n        /* \"#utility.yul\":7785:7794   */\n      dup11\n        /* \"#utility.yul\":7781:7803   */\n      add\n        /* \"#utility.yul\":7760:7813   */\n      tag_305\n      jump\t// in\n    tag_448:\n        /* \"#utility.yul\":7750:7813   */\n      swap7\n      pop\n        /* \"#utility.yul\":7706:7823   */\n      pop\n        /* \"#utility.yul\":7862:7864   */\n      0x20\n        /* \"#utility.yul\":7888:7941   */\n      tag_449\n        /* \"#utility.yul\":7933:7940   */\n      dup10\n        /* \"#utility.yul\":7924:7930   */\n      dup3\n        /* \"#utility.yul\":7913:7922   */\n      dup11\n        /* \"#utility.yul\":7909:7931   */\n      add\n        /* \"#utility.yul\":7888:7941   */\n      tag_308\n      jump\t// in\n    tag_449:\n        /* \"#utility.yul\":7878:7941   */\n      swap6\n      pop\n        /* \"#utility.yul\":7833:7951   */\n      pop\n        /* \"#utility.yul\":7990:7992   */\n      0x40\n        /* \"#utility.yul\":8016:8069   */\n      tag_450\n        /* \"#utility.yul\":8061:8068   */\n      dup10\n        /* \"#utility.yul\":8052:8058   */\n      dup3\n        /* \"#utility.yul\":8041:8050   */\n      dup11\n        /* \"#utility.yul\":8037:8059   */\n      add\n        /* \"#utility.yul\":8016:8069   */\n      tag_308\n      jump\t// in\n    tag_450:\n        /* \"#utility.yul\":8006:8069   */\n      swap5\n      pop\n        /* \"#utility.yul\":7961:8079   */\n      pop\n        /* \"#utility.yul\":8118:8120   */\n      0x60\n        /* \"#utility.yul\":8144:8195   */\n      tag_451\n        /* \"#utility.yul\":8187:8194   */\n      dup10\n        /* \"#utility.yul\":8178:8184   */\n      dup3\n        /* \"#utility.yul\":8167:8176   */\n      dup11\n        /* \"#utility.yul\":8163:8185   */\n      add\n        /* \"#utility.yul\":8144:8195   */\n      tag_322\n      jump\t// in\n    tag_451:\n        /* \"#utility.yul\":8134:8195   */\n      swap4\n      pop\n        /* \"#utility.yul\":8089:8205   */\n      pop\n        /* \"#utility.yul\":8244:8247   */\n      0x80\n        /* \"#utility.yul\":8271:8324   */\n      tag_452\n        /* \"#utility.yul\":8316:8323   */\n      dup10\n        /* \"#utility.yul\":8307:8313   */\n      dup3\n        /* \"#utility.yul\":8296:8305   */\n      dup11\n        /* \"#utility.yul\":8292:8314   */\n      add\n        /* \"#utility.yul\":8271:8324   */\n      tag_324\n      jump\t// in\n    tag_452:\n        /* \"#utility.yul\":8261:8324   */\n      swap3\n      pop\n        /* \"#utility.yul\":8215:8334   */\n      pop\n        /* \"#utility.yul\":8373:8376   */\n      0xa0\n        /* \"#utility.yul\":8400:8453   */\n      tag_453\n        /* \"#utility.yul\":8445:8452   */\n      dup10\n        /* \"#utility.yul\":8436:8442   */\n      dup3\n        /* \"#utility.yul\":8425:8434   */\n      dup11\n        /* \"#utility.yul\":8421:8443   */\n      add\n        /* \"#utility.yul\":8400:8453   */\n      tag_324\n      jump\t// in\n    tag_453:\n        /* \"#utility.yul\":8390:8453   */\n      swap2\n      pop\n        /* \"#utility.yul\":8344:8463   */\n      pop\n        /* \"#utility.yul\":7417:8470   */\n      swap3\n      swap6\n      pop\n      swap3\n      swap6\n      pop\n      swap3\n      swap6\n      jump\t// out\n        /* \"#utility.yul\":8476:8950   */\n    tag_108:\n        /* \"#utility.yul\":8544:8550   */\n      0x00\n        /* \"#utility.yul\":8552:8558   */\n      dup1\n        /* \"#utility.yul\":8601:8603   */\n      0x40\n        /* \"#utility.yul\":8589:8598   */\n      dup4\n        /* \"#utility.yul\":8580:8587   */\n      dup6\n        /* \"#utility.yul\":8576:8599   */\n      sub\n        /* \"#utility.yul\":8572:8604   */\n      slt\n        /* \"#utility.yul\":8569:8688   */\n      iszero\n      tag_455\n      jumpi\n        /* \"#utility.yul\":8607:8686   */\n      tag_456\n      tag_300\n      jump\t// in\n    tag_456:\n        /* \"#utility.yul\":8569:8688   */\n    tag_455:\n        /* \"#utility.yul\":8727:8728   */\n      0x00\n        /* \"#utility.yul\":8752:8805   */\n      tag_457\n        /* \"#utility.yul\":8797:8804   */\n      dup6\n        /* \"#utility.yul\":8788:8794   */\n      dup3\n        /* \"#utility.yul\":8777:8786   */\n      dup7\n        /* \"#utility.yul\":8773:8795   */\n      add\n        /* \"#utility.yul\":8752:8805   */\n      tag_305\n      jump\t// in\n    tag_457:\n        /* \"#utility.yul\":8742:8805   */\n      swap3\n      pop\n        /* \"#utility.yul\":8698:8815   */\n      pop\n        /* \"#utility.yul\":8854:8856   */\n      0x20\n        /* \"#utility.yul\":8880:8933   */\n      tag_458\n        /* \"#utility.yul\":8925:8932   */\n      dup6\n        /* \"#utility.yul\":8916:8922   */\n      dup3\n        /* \"#utility.yul\":8905:8914   */\n      dup7\n        /* \"#utility.yul\":8901:8923   */\n      add\n        /* \"#utility.yul\":8880:8933   */\n      tag_305\n      jump\t// in\n    tag_458:\n        /* \"#utility.yul\":8870:8933   */\n      swap2\n      pop\n        /* \"#utility.yul\":8825:8943   */\n      pop\n        /* \"#utility.yul\":8476:8950   */\n      swap3\n      pop\n      swap3\n      swap1\n      pop\n      jump\t// out\n        /* \"#utility.yul\":8956:9076   */\n    tag_325:\n        /* \"#utility.yul\":9028:9051   */\n      tag_460\n        /* \"#utility.yul\":9045:9050   */\n      dup2\n        /* \"#utility.yul\":9028:9051   */\n      tag_318\n      jump\t// in\n    tag_460:\n        /* \"#utility.yul\":9021:9026   */\n      dup2\n        /* \"#utility.yul\":9018:9052   */\n      eq\n        /* \"#utility.yul\":9008:9070   */\n      tag_461\n      jumpi\n        /* \"#utility.yul\":9066:9067   */\n      0x00\n        /* \"#utility.yul\":9063:9064   */\n      dup1\n        /* \"#utility.yul\":9056:9068   */\n      revert\n        /* \"#utility.yul\":9008:9070   */\n    tag_461:\n        /* \"#utility.yul\":8956:9076   */\n      pop\n      jump\t// out\n        /* \"#utility.yul\":9082:9219   */\n    tag_326:\n        /* \"#utility.yul\":9127:9132   */\n      0x00\n        /* \"#utility.yul\":9165:9171   */\n      dup2\n        /* \"#utility.yul\":9152:9172   */\n      calldataload\n        /* \"#utility.yul\":9143:9172   */\n      swap1\n      pop\n        /* \"#utility.yul\":9181:9213   */\n      tag_463\n        /* \"#utility.yul\":9207:9212   */\n      dup2\n        /* \"#utility.yul\":9181:9213   */\n      tag_325\n      jump\t// in\n    tag_463:\n        /* \"#utility.yul\":9082:9219   */\n      swap3\n      swap2\n      pop\n      pop\n      jump\t// out\n        /* \"#utility.yul\":9225:9697   */\n    tag_116:\n        /* \"#utility.yul\":9292:9298   */\n      0x00\n        /* \"#utility.yul\":9300:9306   */\n      dup1\n        /* \"#utility.yul\":9349:9351   */\n      0x40\n        /* \"#utility.yul\":9337:9346   */\n      dup4\n        /* \"#utility.yul\":9328:9335   */\n      dup6\n        /* \"#utility.yul\":9324:9347   */\n      sub\n        /* \"#utility.yul\":9320:9352   */\n      slt\n        /* \"#utility.yul\":9317:9436   */\n      iszero\n      tag_465\n      jumpi\n        /* \"#utility.yul\":9355:9434   */\n      tag_466\n      tag_300\n      jump\t// in\n    tag_466:\n        /* \"#utility.yul\":9317:9436   */\n    tag_465:\n        /* \"#utility.yul\":9475:9476   */\n      0x00\n        /* \"#utility.yul\":9500:9553   */\n      tag_467\n        /* \"#utility.yul\":9545:9552   */\n      dup6\n        /* \"#utility.yul\":9536:9542   */\n      dup3\n        /* \"#utility.yul\":9525:9534   */\n      dup7\n        /* \"#utility.yul\":9521:9543   */\n      add\n        /* \"#utility.yul\":9500:9553   */\n      tag_305\n      jump\t// in\n    tag_467:\n        /* \"#utility.yul\":9490:9553   */\n      swap3\n      pop\n        /* \"#utility.yul\":9446:9563   */\n      pop\n        /* \"#utility.yul\":9602:9604   */\n      0x20\n        /* \"#utility.yul\":9628:9680   */\n      tag_468\n        /* \"#utility.yul\":9672:9679   */\n      dup6\n        /* \"#utility.yul\":9663:9669   */\n      dup3\n        /* \"#utility.yul\":9652:9661   */\n      dup7\n        /* \"#utility.yul\":9648:9670   */\n      add\n        /* \"#utility.yul\":9628:9680   */\n      tag_326\n      jump\t// in\n    tag_468:\n        /* \"#utility.yul\":9618:9680   */\n      swap2\n      pop\n        /* \"#utility.yul\":9573:9690   */\n      pop\n        /* \"#utility.yul\":9225:9697   */\n      swap3\n      pop\n      swap3\n      swap1\n      pop\n      jump\t// out\n        /* \"#utility.yul\":9703:10027   */\n    tag_119:\n        /* \"#utility.yul\":9820:9824   */\n      0x00\n        /* \"#utility.yul\":9858:9860   */\n      0x40\n        /* \"#utility.yul\":9847:9856   */\n      dup3\n        /* \"#utility.yul\":9843:9861   */\n      add\n        /* \"#utility.yul\":9835:9861   */\n      swap1\n      pop\n        /* \"#utility.yul\":9871:9940   */\n      tag_470\n        /* \"#utility.yul\":9937:9938   */\n      0x00\n        /* \"#utility.yul\":9926:9935   */\n      dup4\n        /* \"#utility.yul\":9922:9939   */\n      add\n        /* \"#utility.yul\":9913:9919   */\n      dup6\n        /* \"#utility.yul\":9871:9940   */\n      tag_319\n      jump\t// in\n    tag_470:\n        /* \"#utility.yul\":9950:10020   */\n      tag_471\n        /* \"#utility.yul\":10016:10018   */\n      0x20\n        /* \"#utility.yul\":10005:10014   */\n      dup4\n        /* \"#utility.yul\":10001:10019   */\n      add\n        /* \"#utility.yul\":9992:9998   */\n      dup5\n        /* \"#utility.yul\":9950:10020   */\n      tag_312\n      jump\t// in\n    tag_471:\n        /* \"#utility.yul\":9703:10027   */\n      swap4\n      swap3\n      pop\n      pop\n      pop\n      jump\t// out\n        /* \"#utility.yul\":10033:10093   */\n    tag_327:\n        /* \"#utility.yul\":10061:10064   */\n      0x00\n        /* \"#utility.yul\":10082:10087   */\n      dup2\n        /* \"#utility.yul\":10075:10087   */\n      swap1\n      pop\n        /* \"#utility.yul\":10033:10093   */\n      swap2\n      swap1\n      pop\n      jump\t// out\n        /* \"#utility.yul\":10099:10239   */\n    tag_328:\n        /* \"#utility.yul\":10148:10157   */\n      0x00\n        /* \"#utility.yul\":10181:10233   */\n      tag_474\n        /* \"#utility.yul\":10199:10232   */\n      tag_475\n        /* \"#utility.yul\":10208:10231   */\n      tag_476\n        /* \"#utility.yul\":10225:10230   */\n      dup5\n        /* \"#utility.yul\":10208:10231   */\n      tag_311\n      jump\t// in\n    tag_476:\n        /* \"#utility.yul\":10199:10232   */\n      tag_327\n      jump\t// in\n    tag_475:\n        /* \"#utility.yul\":10181:10233   */\n      tag_306\n      jump\t// in\n    tag_474:\n        /* \"#utility.yul\":10168:10233   */\n      swap1\n      pop\n        /* \"#utility.yul\":10099:10239   */\n      swap2\n      swap1\n      pop\n      jump\t// out\n        /* \"#utility.yul\":10245:10374   */\n    tag_329:\n        /* \"#utility.yul\":10331:10367   */\n      tag_478\n        /* \"#utility.yul\":10361:10366   */\n      dup2\n        /* \"#utility.yul\":10331:10367   */\n      tag_328\n      jump\t// in\n    tag_478:\n        /* \"#utility.yul\":10326:10329   */\n      dup3\n        /* \"#utility.yul\":10319:10368   */\n      mstore\n        /* \"#utility.yul\":10245:10374   */\n      pop\n      pop\n      jump\t// out\n        /* \"#utility.yul\":10380:10600   */\n    tag_129:\n        /* \"#utility.yul\":10472:10476   */\n      0x00\n        /* \"#utility.yul\":10510:10512   */\n      0x20\n        /* \"#utility.yul\":10499:10508   */\n      dup3\n        /* \"#utility.yul\":10495:10513   */\n      add\n        /* \"#utility.yul\":10487:10513   */\n      swap1\n      pop\n        /* \"#utility.yul\":10523:10593   */\n      tag_480\n        /* \"#utility.yul\":10590:10591   */\n      0x00\n        /* \"#utility.yul\":10579:10588   */\n      dup4\n        /* \"#utility.yul\":10575:10592   */\n      add\n        /* \"#utility.yul\":10566:10572   */\n      dup5\n        /* \"#utility.yul\":10523:10593   */\n      tag_329\n      jump\t// in\n    tag_480:\n        /* \"#utility.yul\":10380:10600   */\n      swap3\n      swap2\n      pop\n      pop\n      jump\t// out\n        /* \"#utility.yul\":10606:10788   */\n    tag_330:\n        /* \"#utility.yul\":10746:10780   */\n      0x4f776e61626c653a2063616c6c6572206973206e6f7420746865206f776e6572\n        /* \"#utility.yul\":10742:10743   */\n      0x00\n        /* \"#utility.yul\":10734:10740   */\n      dup3\n        /* \"#utility.yul\":10730:10744   */\n      add\n        /* \"#utility.yul\":10723:10781   */\n      mstore\n        /* \"#utility.yul\":10606:10788   */\n      pop\n      jump\t// out\n        /* \"#utility.yul\":10794:11160   */\n    tag_331:\n        /* \"#utility.yul\":10936:10939   */\n      0x00\n        /* \"#utility.yul\":10957:11024   */\n      tag_483\n        /* \"#utility.yul\":11021:11023   */\n      0x20\n        /* \"#utility.yul\":11016:11019   */\n      dup4\n        /* \"#utility.yul\":10957:11024   */\n      tag_295\n      jump\t// in\n    tag_483:\n        /* \"#utility.yul\":10950:11024   */\n      swap2\n      pop\n        /* \"#utility.yul\":11033:11126   */\n      tag_484\n        /* \"#utility.yul\":11122:11125   */\n      dup3\n        /* \"#utility.yul\":11033:11126   */\n      tag_330\n      jump\t// in\n    tag_484:\n        /* \"#utility.yul\":11151:11153   */\n      0x20\n        /* \"#utility.yul\":11146:11149   */\n      dup3\n        /* \"#utility.yul\":11142:11154   */\n      add\n        /* \"#utility.yul\":11135:11154   */\n      swap1\n      pop\n        /* \"#utility.yul\":10794:11160   */\n      swap2\n      swap1\n      pop\n      jump\t// out\n        /* \"#utility.yul\":11166:11585   */\n    tag_145:\n        /* \"#utility.yul\":11332:11336   */\n      0x00\n        /* \"#utility.yul\":11370:11372   */\n      0x20\n        /* \"#utility.yul\":11359:11368   */\n      dup3\n        /* \"#utility.yul\":11355:11373   */\n      add\n        /* \"#utility.yul\":11347:11373   */\n      swap1\n      pop\n        /* \"#utility.yul\":11419:11428   */\n      dup2\n        /* \"#utility.yul\":11413:11417   */\n      dup2\n        /* \"#utility.yul\":11409:11429   */\n      sub\n        /* \"#utility.yul\":11405:11406   */\n      0x00\n        /* \"#utility.yul\":11394:11403   */\n      dup4\n        /* \"#utility.yul\":11390:11407   */\n      add\n        /* \"#utility.yul\":11383:11430   */\n      mstore\n        /* \"#utility.yul\":11447:11578   */\n      tag_486\n        /* \"#utility.yul\":11573:11577   */\n      dup2\n        /* \"#utility.yul\":11447:11578   */\n      tag_331\n      jump\t// in\n    tag_486:\n        /* \"#utility.yul\":11439:11578   */\n      swap1\n      pop\n        /* \"#utility.yul\":11166:11585   */\n      swap2\n      swap1\n      pop\n      jump\t// out\n        /* \"#utility.yul\":11591:11772   */\n    tag_332:\n        /* \"#utility.yul\":11731:11764   */\n      0x45524332303a206d696e7420746f20746865207a65726f206164647265737300\n        /* \"#utility.yul\":11727:11728   */\n      0x00\n        /* \"#utility.yul\":11719:11725   */\n      dup3\n        /* \"#utility.yul\":11715:11729   */\n      add\n        /* \"#utility.yul\":11708:11765   */\n      mstore\n        /* \"#utility.yul\":11591:11772   */\n      pop\n      jump\t// out\n        /* \"#utility.yul\":11778:12144   */\n    tag_333:\n        /* \"#utility.yul\":11920:11923   */\n      0x00\n        /* \"#utility.yul\":11941:12008   */\n      tag_489\n        /* \"#utility.yul\":12005:12007   */\n      0x1f\n        /* \"#utility.yul\":12000:12003   */\n      dup4\n        /* \"#utility.yul\":11941:12008   */\n      tag_295\n      jump\t// in\n    tag_489:\n        /* \"#utility.yul\":11934:12008   */\n      swap2\n      pop\n        /* \"#utility.yul\":12017:12110   */\n      tag_490\n        /* \"#utility.yul\":12106:12109   */\n      dup3\n        /* \"#utility.yul\":12017:12110   */\n      tag_332\n      jump\t// in\n    tag_490:\n        /* \"#utility.yul\":12135:12137   */\n      0x20\n        /* \"#utility.yul\":12130:12133   */\n      dup3\n        /* \"#utility.yul\":12126:12138   */\n      add\n        /* \"#utility.yul\":12119:12138   */\n      swap1\n      pop\n        /* \"#utility.yul\":11778:12144   */\n      swap2\n      swap1\n      pop\n      jump\t// out\n        /* \"#utility.yul\":12150:12569   */\n    tag_149:\n        /* \"#utility.yul\":12316:12320   */\n      0x00\n        /* \"#utility.yul\":12354:12356   */\n      0x20\n        /* \"#utility.yul\":12343:12352   */\n      dup3\n        /* \"#utility.yul\":12339:12357   */\n      add\n        /* \"#utility.yul\":12331:12357   */\n      swap1\n      pop\n        /* \"#utility.yul\":12403:12412   */\n      dup2\n        /* \"#utility.yul\":12397:12401   */\n      dup2\n        /* \"#utility.yul\":12393:12413   */\n      sub\n        /* \"#utility.yul\":12389:12390   */\n      0x00\n        /* \"#utility.yul\":12378:12387   */\n      dup4\n        /* \"#utility.yul\":12374:12391   */\n      add\n        /* \"#utility.yul\":12367:12414   */\n      mstore\n        /* \"#utility.yul\":12431:12562   */\n      tag_492\n        /* \"#utility.yul\":12557:12561   */\n      dup2\n        /* \"#utility.yul\":12431:12562   */\n      tag_333\n      jump\t// in\n    tag_492:\n        /* \"#utility.yul\":12423:12562   */\n      swap1\n      pop\n        /* \"#utility.yul\":12150:12569   */\n      swap2\n      swap1\n      pop\n      jump\t// out\n        /* \"#utility.yul\":12575:12755   */\n    tag_334:\n        /* \"#utility.yul\":12623:12700   */\n      0x4e487b7100000000000000000000000000000000000000000000000000000000\n        /* \"#utility.yul\":12620:12621   */\n      0x00\n        /* \"#utility.yul\":12613:12701   */\n      mstore\n        /* \"#utility.yul\":12720:12724   */\n      0x11\n        /* \"#utility.yul\":12717:12718   */\n      0x04\n        /* \"#utility.yul\":12710:12725   */\n      mstore\n        /* \"#utility.yul\":12744:12748   */\n      0x24\n        /* \"#utility.yul\":12741:12742   */\n      0x00\n        /* \"#utility.yul\":12734:12749   */\n      revert\n        /* \"#utility.yul\":12761:12974   */\n    tag_152:\n        /* \"#utility.yul\":12800:12803   */\n      0x00\n        /* \"#utility.yul\":12819:12838   */\n      tag_495\n        /* \"#utility.yul\":12836:12837   */\n      dup3\n        /* \"#utility.yul\":12819:12838   */\n      tag_311\n      jump\t// in\n    tag_495:\n        /* \"#utility.yul\":12814:12838   */\n      swap2\n      pop\n        /* \"#utility.yul\":12852:12871   */\n      tag_496\n        /* \"#utility.yul\":12869:12870   */\n      dup4\n        /* \"#utility.yul\":12852:12871   */\n      tag_311\n      jump\t// in\n    tag_496:\n        /* \"#utility.yul\":12847:12871   */\n      swap3\n      pop\n        /* \"#utility.yul\":12894:12895   */\n      dup3\n        /* \"#utility.yul\":12891:12892   */\n      dup3\n        /* \"#utility.yul\":12887:12896   */\n      add\n        /* \"#utility.yul\":12880:12896   */\n      swap1\n      pop\n        /* \"#utility.yul\":12917:12943   */\n      0xffffffffffffffffffffffff\n        /* \"#utility.yul\":12912:12915   */\n      dup2\n        /* \"#utility.yul\":12909:12944   */\n      gt\n        /* \"#utility.yul\":12906:12967   */\n      iszero\n      tag_497\n      jumpi\n        /* \"#utility.yul\":12947:12965   */\n      tag_498\n      tag_334\n      jump\t// in\n    tag_498:\n        /* \"#utility.yul\":12906:12967   */\n    tag_497:\n        /* \"#utility.yul\":12761:12974   */\n      swap3\n      swap2\n      pop\n      pop\n      jump\t// out\n        /* \"#utility.yul\":12980:13207   */\n    tag_335:\n        /* \"#utility.yul\":13120:13154   */\n      0x536173686f3a3a6765745072696f72566f7465733a206e6f7420796574206465\n        /* \"#utility.yul\":13116:13117   */\n      0x00\n        /* \"#utility.yul\":13108:13114   */\n      dup3\n        /* \"#utility.yul\":13104:13118   */\n      add\n        /* \"#utility.yul\":13097:13155   */\n      mstore\n        /* \"#utility.yul\":13189:13199   */\n      0x7465726d696e6564000000000000000000000000000000000000000000000000\n        /* \"#utility.yul\":13184:13186   */\n      0x20\n        /* \"#utility.yul\":13176:13182   */\n      dup3\n        /* \"#utility.yul\":13172:13187   */\n      add\n        /* \"#utility.yul\":13165:13200   */\n      mstore\n        /* \"#utility.yul\":12980:13207   */\n      pop\n      jump\t// out\n        /* \"#utility.yul\":13213:13579   */\n    tag_336:\n        /* \"#utility.yul\":13355:13358   */\n      0x00\n        /* \"#utility.yul\":13376:13443   */\n      tag_501\n        /* \"#utility.yul\":13440:13442   */\n      0x28\n        /* \"#utility.yul\":13435:13438   */\n      dup4\n        /* \"#utility.yul\":13376:13443   */\n      tag_295\n      jump\t// in\n    tag_501:\n        /* \"#utility.yul\":13369:13443   */\n      swap2\n      pop\n        /* \"#utility.yul\":13452:13545   */\n      tag_502\n        /* \"#utility.yul\":13541:13544   */\n      dup3\n        /* \"#utility.yul\":13452:13545   */\n      tag_335\n      jump\t// in\n    tag_502:\n        /* \"#utility.yul\":13570:13572   */\n      0x40\n        /* \"#utility.yul\":13565:13568   */\n      dup3\n        /* \"#utility.yul\":13561:13573   */\n      add\n        /* \"#utility.yul\":13554:13573   */\n      swap1\n      pop\n        /* \"#utility.yul\":13213:13579   */\n      swap2\n      swap1\n      pop\n      jump\t// out\n        /* \"#utility.yul\":13585:14004   */\n    tag_170:\n        /* \"#utility.yul\":13751:13755   */\n      0x00\n        /* \"#utility.yul\":13789:13791   */\n      0x20\n        /* \"#utility.yul\":13778:13787   */\n      dup3\n        /* \"#utility.yul\":13774:13792   */\n      add\n        /* \"#utility.yul\":13766:13792   */\n      swap1\n      pop\n        /* \"#utility.yul\":13838:13847   */\n      dup2\n        /* \"#utility.yul\":13832:13836   */\n      dup2\n        /* \"#utility.yul\":13828:13848   */\n      sub\n        /* \"#utility.yul\":13824:13825   */\n      0x00\n        /* \"#utility.yul\":13813:13822   */\n      dup4\n        /* \"#utility.yul\":13809:13826   */\n      add\n        /* \"#utility.yul\":13802:13849   */\n      mstore\n        /* \"#utility.yul\":13866:13997   */\n      tag_504\n        /* \"#utility.yul\":13992:13996   */\n      dup2\n        /* \"#utility.yul\":13866:13997   */\n      tag_336\n      jump\t// in\n    tag_504:\n        /* \"#utility.yul\":13858:13997   */\n      swap1\n      pop\n        /* \"#utility.yul\":13585:14004   */\n      swap2\n      swap1\n      pop\n      jump\t// out\n        /* \"#utility.yul\":14010:14210   */\n    tag_173:\n        /* \"#utility.yul\":14049:14053   */\n      0x00\n        /* \"#utility.yul\":14069:14088   */\n      tag_506\n        /* \"#utility.yul\":14086:14087   */\n      dup3\n        /* \"#utility.yul\":14069:14088   */\n      tag_318\n      jump\t// in\n    tag_506:\n        /* \"#utility.yul\":14064:14088   */\n      swap2\n      pop\n        /* \"#utility.yul\":14102:14121   */\n      tag_507\n        /* \"#utility.yul\":14119:14120   */\n      dup4\n        /* \"#utility.yul\":14102:14121   */\n      tag_318\n      jump\t// in\n    tag_507:\n        /* \"#utility.yul\":14097:14121   */\n      swap3\n      pop\n        /* \"#utility.yul\":14145:14146   */\n      dup3\n        /* \"#utility.yul\":14142:14143   */\n      dup3\n        /* \"#utility.yul\":14138:14147   */\n      sub\n        /* \"#utility.yul\":14130:14147   */\n      swap1\n      pop\n        /* \"#utility.yul\":14169:14179   */\n      0xffffffff\n        /* \"#utility.yul\":14163:14167   */\n      dup2\n        /* \"#utility.yul\":14160:14180   */\n      gt\n        /* \"#utility.yul\":14157:14203   */\n      iszero\n      tag_508\n      jumpi\n        /* \"#utility.yul\":14183:14201   */\n      tag_509\n      tag_334\n      jump\t// in\n    tag_509:\n        /* \"#utility.yul\":14157:14203   */\n    tag_508:\n        /* \"#utility.yul\":14010:14210   */\n      swap3\n      swap2\n      pop\n      pop\n      jump\t// out\n        /* \"#utility.yul\":14216:14396   */\n    tag_337:\n        /* \"#utility.yul\":14264:14341   */\n      0x4e487b7100000000000000000000000000000000000000000000000000000000\n        /* \"#utility.yul\":14261:14262   */\n      0x00\n        /* \"#utility.yul\":14254:14342   */\n      mstore\n        /* \"#utility.yul\":14361:14365   */\n      0x12\n        /* \"#utility.yul\":14358:14359   */\n      0x04\n        /* \"#utility.yul\":14351:14366   */\n      mstore\n        /* \"#utility.yul\":14385:14389   */\n      0x24\n        /* \"#utility.yul\":14382:14383   */\n      0x00\n        /* \"#utility.yul\":14375:14390   */\n      revert\n        /* \"#utility.yul\":14402:14584   */\n    tag_182:\n        /* \"#utility.yul\":14441:14442   */\n      0x00\n        /* \"#utility.yul\":14458:14477   */\n      tag_512\n        /* \"#utility.yul\":14475:14476   */\n      dup3\n        /* \"#utility.yul\":14458:14477   */\n      tag_318\n      jump\t// in\n    tag_512:\n        /* \"#utility.yul\":14453:14477   */\n      swap2\n      pop\n        /* \"#utility.yul\":14491:14510   */\n      tag_513\n        /* \"#utility.yul\":14508:14509   */\n      dup4\n        /* \"#utility.yul\":14491:14510   */\n      tag_318\n      jump\t// in\n    tag_513:\n        /* \"#utility.yul\":14486:14510   */\n      swap3\n      pop\n        /* \"#utility.yul\":14529:14530   */\n      dup3\n        /* \"#utility.yul\":14519:14554   */\n      tag_514\n      jumpi\n        /* \"#utility.yul\":14534:14552   */\n      tag_515\n      tag_337\n      jump\t// in\n    tag_515:\n        /* \"#utility.yul\":14519:14554   */\n    tag_514:\n        /* \"#utility.yul\":14576:14577   */\n      dup3\n        /* \"#utility.yul\":14573:14574   */\n      dup3\n        /* \"#utility.yul\":14569:14578   */\n      div\n        /* \"#utility.yul\":14564:14578   */\n      swap1\n      pop\n        /* \"#utility.yul\":14402:14584   */\n      swap3\n      swap2\n      pop\n      pop\n      jump\t// out\n        /* \"#utility.yul\":14590:15143   */\n    tag_201:\n        /* \"#utility.yul\":14767:14771   */\n      0x00\n        /* \"#utility.yul\":14805:14808   */\n      0x80\n        /* \"#utility.yul\":14794:14803   */\n      dup3\n        /* \"#utility.yul\":14790:14809   */\n      add\n        /* \"#utility.yul\":14782:14809   */\n      swap1\n      pop\n        /* \"#utility.yul\":14819:14890   */\n      tag_517\n        /* \"#utility.yul\":14887:14888   */\n      0x00\n        /* \"#utility.yul\":14876:14885   */\n      dup4\n        /* \"#utility.yul\":14872:14889   */\n      add\n        /* \"#utility.yul\":14863:14869   */\n      dup8\n        /* \"#utility.yul\":14819:14890   */\n      tag_314\n      jump\t// in\n    tag_517:\n        /* \"#utility.yul\":14900:14972   */\n      tag_518\n        /* \"#utility.yul\":14968:14970   */\n      0x20\n        /* \"#utility.yul\":14957:14966   */\n      dup4\n        /* \"#utility.yul\":14953:14971   */\n      add\n        /* \"#utility.yul\":14944:14950   */\n      dup7\n        /* \"#utility.yul\":14900:14972   */\n      tag_314\n      jump\t// in\n    tag_518:\n        /* \"#utility.yul\":14982:15054   */\n      tag_519\n        /* \"#utility.yul\":15050:15052   */\n      0x40\n        /* \"#utility.yul\":15039:15048   */\n      dup4\n        /* \"#utility.yul\":15035:15053   */\n      add\n        /* \"#utility.yul\":15026:15032   */\n      dup6\n        /* \"#utility.yul\":14982:15054   */\n      tag_320\n      jump\t// in\n    tag_519:\n        /* \"#utility.yul\":15064:15136   */\n      tag_520\n        /* \"#utility.yul\":15132:15134   */\n      0x60\n        /* \"#utility.yul\":15121:15130   */\n      dup4\n        /* \"#utility.yul\":15117:15135   */\n      add\n        /* \"#utility.yul\":15108:15114   */\n      dup5\n        /* \"#utility.yul\":15064:15136   */\n      tag_317\n      jump\t// in\n    tag_520:\n        /* \"#utility.yul\":14590:15143   */\n      swap6\n      swap5\n      pop\n      pop\n      pop\n      pop\n      pop\n      jump\t// out\n        /* \"#utility.yul\":15149:15702   */\n    tag_203:\n        /* \"#utility.yul\":15326:15330   */\n      0x00\n        /* \"#utility.yul\":15364:15367   */\n      0x80\n        /* \"#utility.yul\":15353:15362   */\n      dup3\n        /* \"#utility.yul\":15349:15368   */\n      add\n        /* \"#utility.yul\":15341:15368   */\n      swap1\n      pop\n        /* \"#utility.yul\":15378:15449   */\n      tag_522\n        /* \"#utility.yul\":15446:15447   */\n      0x00\n        /* \"#utility.yul\":15435:15444   */\n      dup4\n        /* \"#utility.yul\":15431:15448   */\n      add\n        /* \"#utility.yul\":15422:15428   */\n      dup8\n        /* \"#utility.yul\":15378:15449   */\n      tag_314\n      jump\t// in\n    tag_522:\n        /* \"#utility.yul\":15459:15531   */\n      tag_523\n        /* \"#utility.yul\":15527:15529   */\n      0x20\n        /* \"#utility.yul\":15516:15525   */\n      dup4\n        /* \"#utility.yul\":15512:15530   */\n      add\n        /* \"#utility.yul\":15503:15509   */\n      dup7\n        /* \"#utility.yul\":15459:15531   */\n      tag_317\n      jump\t// in\n    tag_523:\n        /* \"#utility.yul\":15541:15613   */\n      tag_524\n        /* \"#utility.yul\":15609:15611   */\n      0x40\n        /* \"#utility.yul\":15598:15607   */\n      dup4\n        /* \"#utility.yul\":15594:15612   */\n      add\n        /* \"#utility.yul\":15585:15591   */\n      dup6\n        /* \"#utility.yul\":15541:15613   */\n      tag_320\n      jump\t// in\n    tag_524:\n        /* \"#utility.yul\":15623:15695   */\n      tag_525\n        /* \"#utility.yul\":15691:15693   */\n      0x60\n        /* \"#utility.yul\":15680:15689   */\n      dup4\n        /* \"#utility.yul\":15676:15694   */\n      add\n        /* \"#utility.yul\":15667:15673   */\n      dup5\n        /* \"#utility.yul\":15623:15695   */\n      tag_320\n      jump\t// in\n    tag_525:\n        /* \"#utility.yul\":15149:15702   */\n      swap6\n      swap5\n      pop\n      pop\n      pop\n      pop\n      pop\n      jump\t// out\n        /* \"#utility.yul\":15708:15856   */\n    tag_338:\n        /* \"#utility.yul\":15810:15821   */\n      0x00\n        /* \"#utility.yul\":15847:15850   */\n      dup2\n        /* \"#utility.yul\":15832:15850   */\n      swap1\n      pop\n        /* \"#utility.yul\":15708:15856   */\n      swap3\n      swap2\n      pop\n      pop\n      jump\t// out\n        /* \"#utility.yul\":15862:16076   */\n    tag_339:\n        /* \"#utility.yul\":16002:16068   */\n      0x1901000000000000000000000000000000000000000000000000000000000000\n        /* \"#utility.yul\":15998:15999   */\n      0x00\n        /* \"#utility.yul\":15990:15996   */\n      dup3\n        /* \"#utility.yul\":15986:16000   */\n      add\n        /* \"#utility.yul\":15979:16069   */\n      mstore\n        /* \"#utility.yul\":15862:16076   */\n      pop\n      jump\t// out\n        /* \"#utility.yul\":16082:16482   */\n    tag_340:\n        /* \"#utility.yul\":16242:16245   */\n      0x00\n        /* \"#utility.yul\":16263:16347   */\n      tag_529\n        /* \"#utility.yul\":16345:16346   */\n      0x02\n        /* \"#utility.yul\":16340:16343   */\n      dup4\n        /* \"#utility.yul\":16263:16347   */\n      tag_338\n      jump\t// in\n    tag_529:\n        /* \"#utility.yul\":16256:16347   */\n      swap2\n      pop\n        /* \"#utility.yul\":16356:16449   */\n      tag_530\n        /* \"#utility.yul\":16445:16448   */\n      dup3\n        /* \"#utility.yul\":16356:16449   */\n      tag_339\n      jump\t// in\n    tag_530:\n        /* \"#utility.yul\":16474:16475   */\n      0x02\n        /* \"#utility.yul\":16469:16472   */\n      dup3\n        /* \"#utility.yul\":16465:16476   */\n      add\n        /* \"#utility.yul\":16458:16476   */\n      swap1\n      pop\n        /* \"#utility.yul\":16082:16482   */\n      swap2\n      swap1\n      pop\n      jump\t// out\n        /* \"#utility.yul\":16488:16567   */\n    tag_341:\n        /* \"#utility.yul\":16527:16534   */\n      0x00\n        /* \"#utility.yul\":16556:16561   */\n      dup2\n        /* \"#utility.yul\":16545:16561   */\n      swap1\n      pop\n        /* \"#utility.yul\":16488:16567   */\n      swap2\n      swap1\n      pop\n      jump\t// out\n        /* \"#utility.yul\":16573:16730   */\n    tag_342:\n        /* \"#utility.yul\":16678:16723   */\n      tag_533\n        /* \"#utility.yul\":16698:16722   */\n      tag_534\n        /* \"#utility.yul\":16716:16721   */\n      dup3\n        /* \"#utility.yul\":16698:16722   */\n      tag_313\n      jump\t// in\n    tag_534:\n        /* \"#utility.yul\":16678:16723   */\n      tag_341\n      jump\t// in\n    tag_533:\n        /* \"#utility.yul\":16673:16676   */\n      dup3\n        /* \"#utility.yul\":16666:16724   */\n      mstore\n        /* \"#utility.yul\":16573:16730   */\n      pop\n      pop\n      jump\t// out\n        /* \"#utility.yul\":16736:17399   */\n    tag_205:\n        /* \"#utility.yul\":16977:16980   */\n      0x00\n        /* \"#utility.yul\":16999:17147   */\n      tag_536\n        /* \"#utility.yul\":17143:17146   */\n      dup3\n        /* \"#utility.yul\":16999:17147   */\n      tag_340\n      jump\t// in\n    tag_536:\n        /* \"#utility.yul\":16992:17147   */\n      swap2\n      pop\n        /* \"#utility.yul\":17157:17232   */\n      tag_537\n        /* \"#utility.yul\":17228:17231   */\n      dup3\n        /* \"#utility.yul\":17219:17225   */\n      dup6\n        /* \"#utility.yul\":17157:17232   */\n      tag_342\n      jump\t// in\n    tag_537:\n        /* \"#utility.yul\":17257:17259   */\n      0x20\n        /* \"#utility.yul\":17252:17255   */\n      dup3\n        /* \"#utility.yul\":17248:17260   */\n      add\n        /* \"#utility.yul\":17241:17260   */\n      swap2\n      pop\n        /* \"#utility.yul\":17270:17345   */\n      tag_538\n        /* \"#utility.yul\":17341:17344   */\n      dup3\n        /* \"#utility.yul\":17332:17338   */\n      dup5\n        /* \"#utility.yul\":17270:17345   */\n      tag_342\n      jump\t// in\n    tag_538:\n        /* \"#utility.yul\":17370:17372   */\n      0x20\n        /* \"#utility.yul\":17365:17368   */\n      dup3\n        /* \"#utility.yul\":17361:17373   */\n      add\n        /* \"#utility.yul\":17354:17373   */\n      swap2\n      pop\n        /* \"#utility.yul\":17390:17393   */\n      dup2\n        /* \"#utility.yul\":17383:17393   */\n      swap1\n      pop\n        /* \"#utility.yul\":16736:17399   */\n      swap4\n      swap3\n      pop\n      pop\n      pop\n      jump\t// out\n        /* \"#utility.yul\":17405:17950   */\n    tag_207:\n        /* \"#utility.yul\":17578:17582   */\n      0x00\n        /* \"#utility.yul\":17616:17619   */\n      0x80\n        /* \"#utility.yul\":17605:17614   */\n      dup3\n        /* \"#utility.yul\":17601:17620   */\n      add\n        /* \"#utility.yul\":17593:17620   */\n      swap1\n      pop\n        /* \"#utility.yul\":17630:17701   */\n      tag_540\n        /* \"#utility.yul\":17698:17699   */\n      0x00\n        /* \"#utility.yul\":17687:17696   */\n      dup4\n        /* \"#utility.yul\":17683:17700   */\n      add\n        /* \"#utility.yul\":17674:17680   */\n      dup8\n        /* \"#utility.yul\":17630:17701   */\n      tag_314\n      jump\t// in\n    tag_540:\n        /* \"#utility.yul\":17711:17779   */\n      tag_541\n        /* \"#utility.yul\":17775:17777   */\n      0x20\n        /* \"#utility.yul\":17764:17773   */\n      dup4\n        /* \"#utility.yul\":17760:17778   */\n      add\n        /* \"#utility.yul\":17751:17757   */\n      dup7\n        /* \"#utility.yul\":17711:17779   */\n      tag_316\n      jump\t// in\n    tag_541:\n        /* \"#utility.yul\":17789:17861   */\n      tag_542\n        /* \"#utility.yul\":17857:17859   */\n      0x40\n        /* \"#utility.yul\":17846:17855   */\n      dup4\n        /* \"#utility.yul\":17842:17860   */\n      add\n        /* \"#utility.yul\":17833:17839   */\n      dup6\n        /* \"#utility.yul\":17789:17861   */\n      tag_314\n      jump\t// in\n    tag_542:\n        /* \"#utility.yul\":17871:17943   */\n      tag_543\n        /* \"#utility.yul\":17939:17941   */\n      0x60\n        /* \"#utility.yul\":17928:17937   */\n      dup4\n        /* \"#utility.yul\":17924:17942   */\n      add\n        /* \"#utility.yul\":17915:17921   */\n      dup5\n        /* \"#utility.yul\":17871:17943   */\n      tag_314\n      jump\t// in\n    tag_543:\n        /* \"#utility.yul\":17405:17950   */\n      swap6\n      swap5\n      pop\n      pop\n      pop\n      pop\n      pop\n      jump\t// out\n        /* \"#utility.yul\":17956:18182   */\n    tag_343:\n        /* \"#utility.yul\":18096:18130   */\n      0x536173686f3a3a64656c656761746542795369673a20696e76616c6964207369\n        /* \"#utility.yul\":18092:18093   */\n      0x00\n        /* \"#utility.yul\":18084:18090   */\n      dup3\n        /* \"#utility.yul\":18080:18094   */\n      add\n        /* \"#utility.yul\":18073:18131   */\n      mstore\n        /* \"#utility.yul\":18165:18174   */\n      0x676e617475726500000000000000000000000000000000000000000000000000\n        /* \"#utility.yul\":18160:18162   */\n      0x20\n        /* \"#utility.yul\":18152:18158   */\n      dup3\n        /* \"#utility.yul\":18148:18163   */\n      add\n        /* \"#utility.yul\":18141:18175   */\n      mstore\n        /* \"#utility.yul\":17956:18182   */\n      pop\n      jump\t// out\n        /* \"#utility.yul\":18188:18554   */\n    tag_344:\n        /* \"#utility.yul\":18330:18333   */\n      0x00\n        /* \"#utility.yul\":18351:18418   */\n      tag_546\n        /* \"#utility.yul\":18415:18417   */\n      0x27\n        /* \"#utility.yul\":18410:18413   */\n      dup4\n        /* \"#utility.yul\":18351:18418   */\n      tag_295\n      jump\t// in\n    tag_546:\n        /* \"#utility.yul\":18344:18418   */\n      swap2\n      pop\n        /* \"#utility.yul\":18427:18520   */\n      tag_547\n        /* \"#utility.yul\":18516:18519   */\n      dup3\n        /* \"#utility.yul\":18427:18520   */\n      tag_343\n      jump\t// in\n    tag_547:\n        /* \"#utility.yul\":18545:18547   */\n      0x40\n        /* \"#utility.yul\":18540:18543   */\n      dup3\n        /* \"#utility.yul\":18536:18548   */\n      add\n        /* \"#utility.yul\":18529:18548   */\n      swap1\n      pop\n        /* \"#utility.yul\":18188:18554   */\n      swap2\n      swap1\n      pop\n      jump\t// out\n        /* \"#utility.yul\":18560:18979   */\n    tag_212:\n        /* \"#utility.yul\":18726:18730   */\n      0x00\n        /* \"#utility.yul\":18764:18766   */\n      0x20\n        /* \"#utility.yul\":18753:18762   */\n      dup3\n        /* \"#utility.yul\":18749:18767   */\n      add\n        /* \"#utility.yul\":18741:18767   */\n      swap1\n      pop\n        /* \"#utility.yul\":18813:18822   */\n      dup2\n        /* \"#utility.yul\":18807:18811   */\n      dup2\n        /* \"#utility.yul\":18803:18823   */\n      sub\n        /* \"#utility.yul\":18799:18800   */\n      0x00\n        /* \"#utility.yul\":18788:18797   */\n      dup4\n        /* \"#utility.yul\":18784:18801   */\n      add\n        /* \"#utility.yul\":18777:18824   */\n      mstore\n        /* \"#utility.yul\":18841:18972   */\n      tag_549\n        /* \"#utility.yul\":18967:18971   */\n      dup2\n        /* \"#utility.yul\":18841:18972   */\n      tag_344\n      jump\t// in\n    tag_549:\n        /* \"#utility.yul\":18833:18972   */\n      swap1\n      pop\n        /* \"#utility.yul\":18560:18979   */\n      swap2\n      swap1\n      pop\n      jump\t// out\n        /* \"#utility.yul\":18985:19218   */\n    tag_214:\n        /* \"#utility.yul\":19024:19027   */\n      0x00\n        /* \"#utility.yul\":19047:19071   */\n      tag_551\n        /* \"#utility.yul\":19065:19070   */\n      dup3\n        /* \"#utility.yul\":19047:19071   */\n      tag_306\n      jump\t// in\n    tag_551:\n        /* \"#utility.yul\":19038:19071   */\n      swap2\n      pop\n        /* \"#utility.yul\":19093:19159   */\n      0xffffffffffffffffffffffffffffffffffffffffffffffffffffffffffffffff\n        /* \"#utility.yul\":19086:19091   */\n      dup3\n        /* \"#utility.yul\":19083:19160   */\n      sub\n        /* \"#utility.yul\":19080:19183   */\n      tag_552\n      jumpi\n        /* \"#utility.yul\":19163:19181   */\n      tag_553\n      tag_334\n      jump\t// in\n    tag_553:\n        /* \"#utility.yul\":19080:19183   */\n    tag_552:\n        /* \"#utility.yul\":19210:19211   */\n      0x01\n        /* \"#utility.yul\":19203:19208   */\n      dup3\n        /* \"#utility.yul\":19199:19212   */\n      add\n        /* \"#utility.yul\":19192:19212   */\n      swap1\n      pop\n        /* \"#utility.yul\":18985:19218   */\n      swap2\n      swap1\n      pop\n      jump\t// out\n        /* \"#utility.yul\":19224:19446   */\n    tag_345:\n        /* \"#utility.yul\":19364:19398   */\n      0x536173686f3a3a64656c656761746542795369673a20696e76616c6964206e6f\n        /* \"#utility.yul\":19360:19361   */\n      0x00\n        /* \"#utility.yul\":19352:19358   */\n      dup3\n        /* \"#utility.yul\":19348:19362   */\n      add\n        /* \"#utility.yul\":19341:19399   */\n      mstore\n        /* \"#utility.yul\":19433:19438   */\n      0x6e63650000000000000000000000000000000000000000000000000000000000\n        /* \"#utility.yul\":19428:19430   */\n      0x20\n        /* \"#utility.yul\":19420:19426   */\n      dup3\n        /* \"#utility.yul\":19416:19431   */\n      add\n        /* \"#utility.yul\":19409:19439   */\n      mstore\n        /* \"#utility.yul\":19224:19446   */\n      pop\n      jump\t// out\n        /* \"#utility.yul\":19452:19818   */\n    tag_346:\n        /* \"#utility.yul\":19594:19597   */\n      0x00\n        /* \"#utility.yul\":19615:19682   */\n      tag_556\n        /* \"#utility.yul\":19679:19681   */\n      0x23\n        /* \"#utility.yul\":19674:19677   */\n      dup4\n        /* \"#utility.yul\":19615:19682   */\n      tag_295\n      jump\t// in\n    tag_556:\n        /* \"#utility.yul\":19608:19682   */\n      swap2\n      pop\n        /* \"#utility.yul\":19691:19784   */\n      tag_557\n        /* \"#utility.yul\":19780:19783   */\n      dup3\n        /* \"#utility.yul\":19691:19784   */\n      tag_345\n      jump\t// in\n    tag_557:\n        /* \"#utility.yul\":19809:19811   */\n      0x40\n        /* \"#utility.yul\":19804:19807   */\n      dup3\n        /* \"#utility.yul\":19800:19812   */\n      add\n        /* \"#utility.yul\":19793:19812   */\n      swap1\n      pop\n        /* \"#utility.yul\":19452:19818   */\n      swap2\n      swap1\n      pop\n      jump\t// out\n        /* \"#utility.yul\":19824:20243   */\n    tag_217:\n        /* \"#utility.yul\":19990:19994   */\n      0x00\n        /* \"#utility.yul\":20028:20030   */\n      0x20\n        /* \"#utility.yul\":20017:20026   */\n      dup3\n        /* \"#utility.yul\":20013:20031   */\n      add\n        /* \"#utility.yul\":20005:20031   */\n      swap1\n      pop\n        /* \"#utility.yul\":20077:20086   */\n      dup2\n        /* \"#utility.yul\":20071:20075   */\n      dup2\n        /* \"#utility.yul\":20067:20087   */\n      sub\n        /* \"#utility.yul\":20063:20064   */\n      0x00\n        /* \"#utility.yul\":20052:20061   */\n      dup4\n        /* \"#utility.yul\":20048:20065   */\n      add\n        /* \"#utility.yul\":20041:20088   */\n      mstore\n        /* \"#utility.yul\":20105:20236   */\n      tag_559\n        /* \"#utility.yul\":20231:20235   */\n      dup2\n        /* \"#utility.yul\":20105:20236   */\n      tag_346\n      jump\t// in\n    tag_559:\n        /* \"#utility.yul\":20097:20236   */\n      swap1\n      pop\n        /* \"#utility.yul\":19824:20243   */\n      swap2\n      swap1\n      pop\n      jump\t// out\n        /* \"#utility.yul\":20249:20475   */\n    tag_347:\n        /* \"#utility.yul\":20389:20423   */\n      0x536173686f3a3a64656c656761746542795369673a207369676e617475726520\n        /* \"#utility.yul\":20385:20386   */\n      0x00\n        /* \"#utility.yul\":20377:20383   */\n      dup3\n        /* \"#utility.yul\":20373:20387   */\n      add\n        /* \"#utility.yul\":20366:20424   */\n      mstore\n        /* \"#utility.yul\":20458:20467   */\n      0x6578706972656400000000000000000000000000000000000000000000000000\n        /* \"#utility.yul\":20453:20455   */\n      0x20\n        /* \"#utility.yul\":20445:20451   */\n      dup3\n        /* \"#utility.yul\":20441:20456   */\n      add\n        /* \"#utility.yul\":20434:20468   */\n      mstore\n        /* \"#utility.yul\":20249:20475   */\n      pop\n      jump\t// out\n        /* \"#utility.yul\":20481:20847   */\n    tag_348:\n        /* \"#utility.yul\":20623:20626   */\n      0x00\n        /* \"#utility.yul\":20644:20711   */\n      tag_562\n        /* \"#utility.yul\":20708:20710   */\n      0x27\n        /* \"#utility.yul\":20703:20706   */\n      dup4\n        /* \"#utility.yul\":20644:20711   */\n      tag_295\n      jump\t// in\n    tag_562:\n        /* \"#utility.yul\":20637:20711   */\n      swap2\n      pop\n        /* \"#utility.yul\":20720:20813   */\n      tag_563\n        /* \"#utility.yul\":20809:20812   */\n      dup3\n        /* \"#utility.yul\":20720:20813   */\n      tag_347\n      jump\t// in\n    tag_563:\n        /* \"#utility.yul\":20838:20840   */\n      0x40\n        /* \"#utility.yul\":20833:20836   */\n      dup3\n        /* \"#utility.yul\":20829:20841   */\n      add\n        /* \"#utility.yul\":20822:20841   */\n      swap1\n      pop\n        /* \"#utility.yul\":20481:20847   */\n      swap2\n      swap1\n      pop\n      jump\t// out\n        /* \"#utility.yul\":20853:21272   */\n    tag_220:\n        /* \"#utility.yul\":21019:21023   */\n      0x00\n        /* \"#utility.yul\":21057:21059   */\n      0x20\n        /* \"#utility.yul\":21046:21055   */\n      dup3\n        /* \"#utility.yul\":21042:21060   */\n      add\n        /* \"#utility.yul\":21034:21060   */\n      swap1\n      pop\n        /* \"#utility.yul\":21106:21115   */\n      dup2\n        /* \"#utility.yul\":21100:21104   */\n      dup2\n        /* \"#utility.yul\":21096:21116   */\n      sub\n        /* \"#utility.yul\":21092:21093   */\n      0x00\n        /* \"#utility.yul\":21081:21090   */\n      dup4\n        /* \"#utility.yul\":21077:21094   */\n      add\n        /* \"#utility.yul\":21070:21117   */\n      mstore\n        /* \"#utility.yul\":21134:21265   */\n      tag_565\n        /* \"#utility.yul\":21260:21264   */\n      dup2\n        /* \"#utility.yul\":21134:21265   */\n      tag_348\n      jump\t// in\n    tag_565:\n        /* \"#utility.yul\":21126:21265   */\n      swap1\n      pop\n        /* \"#utility.yul\":20853:21272   */\n      swap2\n      swap1\n      pop\n      jump\t// out\n        /* \"#utility.yul\":21278:21503   */\n    tag_349:\n        /* \"#utility.yul\":21418:21452   */\n      0x4f776e61626c653a206e6577206f776e657220697320746865207a65726f2061\n        /* \"#utility.yul\":21414:21415   */\n      0x00\n        /* \"#utility.yul\":21406:21412   */\n      dup3\n        /* \"#utility.yul\":21402:21416   */\n      add\n        /* \"#utility.yul\":21395:21453   */\n      mstore\n        /* \"#utility.yul\":21487:21495   */\n      0x6464726573730000000000000000000000000000000000000000000000000000\n        /* \"#utility.yul\":21482:21484   */\n      0x20\n        /* \"#utility.yul\":21474:21480   */\n      dup3\n        /* \"#utility.yul\":21470:21485   */\n      add\n        /* \"#utility.yul\":21463:21496   */\n      mstore\n        /* \"#utility.yul\":21278:21503   */\n      pop\n      jump\t// out\n        /* \"#utility.yul\":21509:21875   */\n    tag_350:\n        /* \"#utility.yul\":21651:21654   */\n      0x00\n        /* \"#utility.yul\":21672:21739   */\n      tag_568\n        /* \"#utility.yul\":21736:21738   */\n      0x26\n        /* \"#utility.yul\":21731:21734   */\n      dup4\n        /* \"#utility.yul\":21672:21739   */\n      tag_295\n      jump\t// in\n    tag_568:\n        /* \"#utility.yul\":21665:21739   */\n      swap2\n      pop\n        /* \"#utility.yul\":21748:21841   */\n      tag_569\n        /* \"#utility.yul\":21837:21840   */\n      dup3\n        /* \"#utility.yul\":21748:21841   */\n      tag_349\n      jump\t// in\n    tag_569:\n        /* \"#utility.yul\":21866:21868   */\n      0x40\n        /* \"#utility.yul\":21861:21864   */\n      dup3\n        /* \"#utility.yul\":21857:21869   */\n      add\n        /* \"#utility.yul\":21850:21869   */\n      swap1\n      pop\n        /* \"#utility.yul\":21509:21875   */\n      swap2\n      swap1\n      pop\n      jump\t// out\n        /* \"#utility.yul\":21881:22300   */\n    tag_231:\n        /* \"#utility.yul\":22047:22051   */\n      0x00\n        /* \"#utility.yul\":22085:22087   */\n      0x20\n        /* \"#utility.yul\":22074:22083   */\n      dup3\n        /* \"#utility.yul\":22070:22088   */\n      add\n        /* \"#utility.yul\":22062:22088   */\n      swap1\n      pop\n        /* \"#utility.yul\":22134:22143   */\n      dup2\n        /* \"#utility.yul\":22128:22132   */\n      dup2\n        /* \"#utility.yul\":22124:22144   */\n      sub\n        /* \"#utility.yul\":22120:22121   */\n      0x00\n        /* \"#utility.yul\":22109:22118   */\n      dup4\n        /* \"#utility.yul\":22105:22122   */\n      add\n        /* \"#utility.yul\":22098:22145   */\n      mstore\n        /* \"#utility.yul\":22162:22293   */\n      tag_571\n        /* \"#utility.yul\":22288:22292   */\n      dup2\n        /* \"#utility.yul\":22162:22293   */\n      tag_350\n      jump\t// in\n    tag_571:\n        /* \"#utility.yul\":22154:22293   */\n      swap1\n      pop\n        /* \"#utility.yul\":21881:22300   */\n      swap2\n      swap1\n      pop\n      jump\t// out\n        /* \"#utility.yul\":22306:22522   */\n    tag_240:\n        /* \"#utility.yul\":22345:22349   */\n      0x00\n        /* \"#utility.yul\":22365:22384   */\n      tag_573\n        /* \"#utility.yul\":22382:22383   */\n      dup3\n        /* \"#utility.yul\":22365:22384   */\n      tag_311\n      jump\t// in\n    tag_573:\n        /* \"#utility.yul\":22360:22384   */\n      swap2\n      pop\n        /* \"#utility.yul\":22398:22417   */\n      tag_574\n        /* \"#utility.yul\":22415:22416   */\n      dup4\n        /* \"#utility.yul\":22398:22417   */\n      tag_311\n      jump\t// in\n    tag_574:\n        /* \"#utility.yul\":22393:22417   */\n      swap3\n      pop\n        /* \"#utility.yul\":22441:22442   */\n      dup3\n        /* \"#utility.yul\":22438:22439   */\n      dup3\n        /* \"#utility.yul\":22434:22443   */\n      sub\n        /* \"#utility.yul\":22426:22443   */\n      swap1\n      pop\n        /* \"#utility.yul\":22465:22491   */\n      0xffffffffffffffffffffffff\n        /* \"#utility.yul\":22459:22463   */\n      dup2\n        /* \"#utility.yul\":22456:22492   */\n      gt\n        /* \"#utility.yul\":22453:22515   */\n      iszero\n      tag_575\n      jumpi\n        /* \"#utility.yul\":22495:22513   */\n      tag_576\n      tag_334\n      jump\t// in\n    tag_576:\n        /* \"#utility.yul\":22453:22515   */\n    tag_575:\n        /* \"#utility.yul\":22306:22522   */\n      swap3\n      swap2\n      pop\n      pop\n      jump\t// out\n        /* \"#utility.yul\":22528:22776   */\n    tag_351:\n        /* \"#utility.yul\":22668:22702   */\n      0x536173686f3a3a5f7472616e73666572546f6b656e733a2063616e6e6f742074\n        /* \"#utility.yul\":22664:22665   */\n      0x00\n        /* \"#utility.yul\":22656:22662   */\n      dup3\n        /* \"#utility.yul\":22652:22666   */\n      add\n        /* \"#utility.yul\":22645:22703   */\n      mstore\n        /* \"#utility.yul\":22737:22768   */\n      0x72616e736665722066726f6d20746865207a65726f2061646472657373000000\n        /* \"#utility.yul\":22732:22734   */\n      0x20\n        /* \"#utility.yul\":22724:22730   */\n      dup3\n        /* \"#utility.yul\":22720:22735   */\n      add\n        /* \"#utility.yul\":22713:22769   */\n      mstore\n        /* \"#utility.yul\":22528:22776   */\n      pop\n      jump\t// out\n        /* \"#utility.yul\":22782:23148   */\n    tag_352:\n        /* \"#utility.yul\":22924:22927   */\n      0x00\n        /* \"#utility.yul\":22945:23012   */\n      tag_579\n        /* \"#utility.yul\":23009:23011   */\n      0x3d\n        /* \"#utility.yul\":23004:23007   */\n      dup4\n        /* \"#utility.yul\":22945:23012   */\n      tag_295\n      jump\t// in\n    tag_579:\n        /* \"#utility.yul\":22938:23012   */\n      swap2\n      pop\n        /* \"#utility.yul\":23021:23114   */\n      tag_580\n        /* \"#utility.yul\":23110:23113   */\n      dup3\n        /* \"#utility.yul\":23021:23114   */\n      tag_351\n      jump\t// in\n    tag_580:\n        /* \"#utility.yul\":23139:23141   */\n      0x40\n        /* \"#utility.yul\":23134:23137   */\n      dup3\n        /* \"#utility.yul\":23130:23142   */\n      add\n        /* \"#utility.yul\":23123:23142   */\n      swap1\n      pop\n        /* \"#utility.yul\":22782:23148   */\n      swap2\n      swap1\n      pop\n      jump\t// out\n        /* \"#utility.yul\":23154:23573   */\n    tag_244:\n        /* \"#utility.yul\":23320:23324   */\n      0x00\n        /* \"#utility.yul\":23358:23360   */\n      0x20\n        /* \"#utility.yul\":23347:23356   */\n      dup3\n        /* \"#utility.yul\":23343:23361   */\n      add\n        /* \"#utility.yul\":23335:23361   */\n      swap1\n      pop\n        /* \"#utility.yul\":23407:23416   */\n      dup2\n        /* \"#utility.yul\":23401:23405   */\n      dup2\n        /* \"#utility.yul\":23397:23417   */\n      sub\n        /* \"#utility.yul\":23393:23394   */\n      0x00\n        /* \"#utility.yul\":23382:23391   */\n      dup4\n        /* \"#utility.yul\":23378:23395   */\n      add\n        /* \"#utility.yul\":23371:23418   */\n      mstore\n        /* \"#utility.yul\":23435:23566   */\n      tag_582\n        /* \"#utility.yul\":23561:23565   */\n      dup2\n        /* \"#utility.yul\":23435:23566   */\n      tag_352\n      jump\t// in\n    tag_582:\n        /* \"#utility.yul\":23427:23566   */\n      swap1\n      pop\n        /* \"#utility.yul\":23154:23573   */\n      swap2\n      swap1\n      pop\n      jump\t// out\n        /* \"#utility.yul\":23579:23825   */\n    tag_353:\n        /* \"#utility.yul\":23719:23753   */\n      0x536173686f3a3a5f7472616e73666572546f6b656e733a2063616e6e6f742074\n        /* \"#utility.yul\":23715:23716   */\n      0x00\n        /* \"#utility.yul\":23707:23713   */\n      dup3\n        /* \"#utility.yul\":23703:23717   */\n      add\n        /* \"#utility.yul\":23696:23754   */\n      mstore\n        /* \"#utility.yul\":23788:23817   */\n      0x72616e7366657220746f20746865207a65726f20616464726573730000000000\n        /* \"#utility.yul\":23783:23785   */\n      0x20\n        /* \"#utility.yul\":23775:23781   */\n      dup3\n        /* \"#utility.yul\":23771:23786   */\n      add\n        /* \"#utility.yul\":23764:23818   */\n      mstore\n        /* \"#utility.yul\":23579:23825   */\n      pop\n      jump\t// out\n        /* \"#utility.yul\":23831:24197   */\n    tag_354:\n        /* \"#utility.yul\":23973:23976   */\n      0x00\n        /* \"#utility.yul\":23994:24061   */\n      tag_585\n        /* \"#utility.yul\":24058:24060   */\n      0x3b\n        /* \"#utility.yul\":24053:24056   */\n      dup4\n        /* \"#utility.yul\":23994:24061   */\n      tag_295\n      jump\t// in\n    tag_585:\n        /* \"#utility.yul\":23987:24061   */\n      swap2\n      pop\n        /* \"#utility.yul\":24070:24163   */\n      tag_586\n        /* \"#utility.yul\":24159:24162   */\n      dup3\n        /* \"#utility.yul\":24070:24163   */\n      tag_353\n      jump\t// in\n    tag_586:\n        /* \"#utility.yul\":24188:24190   */\n      0x40\n        /* \"#utility.yul\":24183:24186   */\n      dup3\n        /* \"#utility.yul\":24179:24191   */\n      add\n        /* \"#utility.yul\":24172:24191   */\n      swap1\n      pop\n        /* \"#utility.yul\":23831:24197   */\n      swap2\n      swap1\n      pop\n      jump\t// out\n        /* \"#utility.yul\":24203:24622   */\n    tag_247:\n        /* \"#utility.yul\":24369:24373   */\n      0x00\n        /* \"#utility.yul\":24407:24409   */\n      0x20\n        /* \"#utility.yul\":24396:24405   */\n      dup3\n        /* \"#utility.yul\":24392:24410   */\n      add\n        /* \"#utility.yul\":24384:24410   */\n      swap1\n      pop\n        /* \"#utility.yul\":24456:24465   */\n      dup2\n        /* \"#utility.yul\":24450:24454   */\n      dup2\n        /* \"#utility.yul\":24446:24466   */\n      sub\n        /* \"#utility.yul\":24442:24443   */\n      0x00\n        /* \"#utility.yul\":24431:24440   */\n      dup4\n        /* \"#utility.yul\":24427:24444   */\n      add\n        /* \"#utility.yul\":24420:24467   */\n      mstore\n        /* \"#utility.yul\":24484:24615   */\n      tag_588\n        /* \"#utility.yul\":24610:24614   */\n      dup2\n        /* \"#utility.yul\":24484:24615   */\n      tag_354\n      jump\t// in\n    tag_588:\n        /* \"#utility.yul\":24476:24615   */\n      swap1\n      pop\n        /* \"#utility.yul\":24203:24622   */\n      swap2\n      swap1\n      pop\n      jump\t// out\n        /* \"#utility.yul\":24628:24825   */\n    tag_288:\n        /* \"#utility.yul\":24667:24670   */\n      0x00\n        /* \"#utility.yul\":24686:24705   */\n      tag_590\n        /* \"#utility.yul\":24703:24704   */\n      dup3\n        /* \"#utility.yul\":24686:24705   */\n      tag_318\n      jump\t// in\n    tag_590:\n        /* \"#utility.yul\":24681:24705   */\n      swap2\n      pop\n        /* \"#utility.yul\":24719:24738   */\n      tag_591\n        /* \"#utility.yul\":24736:24737   */\n      dup4\n        /* \"#utility.yul\":24719:24738   */\n      tag_318\n      jump\t// in\n    tag_591:\n        /* \"#utility.yul\":24714:24738   */\n      swap3\n      pop\n        /* \"#utility.yul\":24761:24762   */\n      dup3\n        /* \"#utility.yul\":24758:24759   */\n      dup3\n        /* \"#utility.yul\":24754:24763   */\n      add\n        /* \"#utility.yul\":24747:24763   */\n      swap1\n      pop\n        /* \"#utility.yul\":24784:24794   */\n      0xffffffff\n        /* \"#utility.yul\":24779:24782   */\n      dup2\n        /* \"#utility.yul\":24776:24795   */\n      gt\n        /* \"#utility.yul\":24773:24818   */\n      iszero\n      tag_592\n      jumpi\n        /* \"#utility.yul\":24798:24816   */\n      tag_593\n      tag_334\n      jump\t// in\n    tag_593:\n        /* \"#utility.yul\":24773:24818   */\n    tag_592:\n        /* \"#utility.yul\":24628:24825   */\n      swap3\n      swap2\n      pop\n      pop\n      jump\t// out\n        /* \"#utility.yul\":24831:25159   */\n    tag_290:\n        /* \"#utility.yul\":24950:24954   */\n      0x00\n        /* \"#utility.yul\":24988:24990   */\n      0x40\n        /* \"#utility.yul\":24977:24986   */\n      dup3\n        /* \"#utility.yul\":24973:24991   */\n      add\n        /* \"#utility.yul\":24965:24991   */\n      swap1\n      pop\n        /* \"#utility.yul\":25001:25071   */\n      tag_595\n        /* \"#utility.yul\":25068:25069   */\n      0x00\n        /* \"#utility.yul\":25057:25066   */\n      dup4\n        /* \"#utility.yul\":25053:25070   */\n      add\n        /* \"#utility.yul\":25044:25050   */\n      dup6\n        /* \"#utility.yul\":25001:25071   */\n      tag_329\n      jump\t// in\n    tag_595:\n        /* \"#utility.yul\":25081:25152   */\n      tag_596\n        /* \"#utility.yul\":25148:25150   */\n      0x20\n        /* \"#utility.yul\":25137:25146   */\n      dup4\n        /* \"#utility.yul\":25133:25151   */\n      add\n        /* \"#utility.yul\":25124:25130   */\n      dup5\n        /* \"#utility.yul\":25081:25152   */\n      tag_329\n      jump\t// in\n    tag_596:\n        /* \"#utility.yul\":24831:25159   */\n      swap4\n      swap3\n      pop\n      pop\n      pop\n      jump\t// out\n    stop\n    data_17ec6caa048a0972bb57d37acee4a641d6566e7f2d125cce0303e5ff783b2036 536173686f3a3a7472616e7366657246726f6d3a207472616e7366657220616d6f756e742065786365656473207370656e64657220616c6c6f77616e6365\n    data_26ccc6d305fd370b0ed9081e17651f8dc110ea478e8585d62a5b884cbb402572 536173686f3a3a5f7472616e73666572546f6b656e733a207472616e7366657220616d6f756e7420657863656564732062616c616e6365\n    data_3bea9324e441166b79eadf3d4f719c1e7d509f932bce59fcc6f3639446f0924d 536173686f3a3a5f6d6f7665566f7465733a20766f746520616d6f756e7420756e646572666c6f7773\n    data_3ddac44bb2e63a574cdd122e16cf6345b9840502a6d4847c391adda50d442617 536173686f3a3a5f7772697465436865636b706f696e743a20626c6f636b206e756d62657220657863656564732033322062697473\n    data_43820eb1c94e3b5abdef1bf31b8cf1fb6cf8fcc5e388bb41129da4c72ff2cd64 536173686f3a3a7472616e736665723a20616d6f756e7420657863656564732039362062697473\n    data_7fe06e056357b0cd6149ccddb9a816df79ee1de64c4a189731e9507508753e3b 536173686f3a3a5f7472616e73666572546f6b656e733a207472616e7366657220616d6f756e74206f766572666c6f7773\n    data_d1a0885ce6c9c8be36312eb84fd2a05e74ef6102a068235599b76a7f262e32f8 536173686f3a3a617070726f76653a20616d6f756e7420657863656564732039362062697473\n    data_eb8833dc9258883ad7a7c4b2a6d920120ad4ff6a7a2b089286450c1400a87215 536173686f3a3a5f6d6f7665566f7465733a20766f746520616d6f756e74206f766572666c6f7773\n\n    auxdata: 0xa2646970667358221220a21aa70cfa3db695b30ea61ff4135d750dd5a8c94f9b4b2da82c838701f7150964736f6c63430008120033\n}\n",
				"bytecode": {
					"linkReferences": {},
					"object": "608060405260008060146101000a8154816bffffffffffffffffffffffff02191690836bffffffffffffffffffffffff1602179055503480156200004257600080fd5b5062000063620000576200006960201b60201c565b6200007160201b60201c565b62000135565b600033905090565b60008060009054906101000a900473ffffffffffffffffffffffffffffffffffffffff169050816000806101000a81548173ffffffffffffffffffffffffffffffffffffffff021916908373ffffffffffffffffffffffffffffffffffffffff1602179055508173ffffffffffffffffffffffffffffffffffffffff168173ffffffffffffffffffffffffffffffffffffffff167f8be0079c531659141344cd1fd0a4f28419497f9722a3daafe3b4186f6b6457e060405160405180910390a35050565b61357480620001456000396000f3fe608060405234801561001057600080fd5b506004361061014d5760003560e01c8063715018a6116100c3578063b4b5ea571161007c578063b4b5ea57146103c8578063c3cda520146103f8578063dd62ed3e14610414578063e7a324dc14610444578063f1127ed814610462578063f2fde38b146104935761014d565b8063715018a6146102f2578063782d6fe1146102fc5780637ecebe001461032c5780638da5cb5b1461035c57806395d89b411461037a578063a9059cbb146103985761014d565b8063313ce56711610115578063313ce5671461020c57806340c10f191461022a578063587cde1e146102465780635c19a95c146102765780636fcfff451461029257806370a08231146102c25761014d565b806306fdde0314610152578063095ea7b31461017057806318160ddd146101a057806320606b70146101be57806323b872dd146101dc575b600080fd5b61015a6104af565b6040516101679190612685565b60405180910390f35b61018a60048036038101906101859190612740565b6104e8565b604051610197919061279b565b60405180910390f35b6101a861065a565b6040516101b591906127dd565b60405180910390f35b6101c6610678565b6040516101d39190612811565b60405180910390f35b6101f660048036038101906101f1919061282c565b61069c565b604051610203919061279b565b60405180910390f35b610214610910565b604051610221919061289b565b60405180910390f35b610244600480360381019061023f9190612740565b610915565b005b610260600480360381019061025b91906128b6565b610b96565b60405161026d91906128f2565b60405180910390f35b610290600480360381019061028b91906128b6565b610bc9565b005b6102ac60048036038101906102a791906128b6565b610bd6565b6040516102b9919061292c565b60405180910390f35b6102dc60048036038101906102d791906128b6565b610bf9565b6040516102e99190612956565b60405180910390f35b6102fa610c68565b005b61031660048036038101906103119190612740565b610cf0565b60405161032391906127dd565b60405180910390f35b610346600480360381019061034191906128b6565b611129565b6040516103539190612956565b60405180910390f35b610364611141565b60405161037191906128f2565b60405180910390f35b61038261116a565b60405161038f9190612685565b60405180910390f35b6103b260048036038101906103ad9190612740565b6111a3565b6040516103bf919061279b565b60405180910390f35b6103e260048036038101906103dd91906128b6565b6111e0565b6040516103ef91906127dd565b60405180910390f35b610412600480360381019061040d91906129c9565b6112d7565b005b61042e60048036038101906104299190612a56565b611599565b60405161043b9190612956565b60405180910390f35b61044c611646565b6040516104599190612811565b60405180910390f35b61047c60048036038101906104779190612ac2565b61166a565b60405161048a929190612b02565b60405180910390f35b6104ad60048036038101906104a891906128b6565b6116c3565b005b6040518060400160405280600581526020017f536173686f00000000000000000000000000000000000000000000000000000081525081565b60008060006bffffffffffffffffffffffff80169050808403610519576bffffffffffffffffffffffff915061053e565b61053b846040518060600160405280602681526020016134f1602691396117ba565b91505b81600160003373ffffffffffffffffffffffffffffffffffffffff1673ffffffffffffffffffffffffffffffffffffffff16815260200190815260200160002060008773ffffffffffffffffffffffffffffffffffffffff1673ffffffffffffffffffffffffffffffffffffffff16815260200190815260200160002060006101000a8154816bffffffffffffffffffffffff02191690836bffffffffffffffffffffffff1602179055508473ffffffffffffffffffffffffffffffffffffffff163373ffffffffffffffffffffffffffffffffffffffff167f8c5be1e5ebec7d5bd14f71427d1e84f3dd0314c0f7b2291e5b200ac8c7c3b925846040516106469190612b66565b60405180910390a360019250505092915050565b600060149054906101000a90046bffffffffffffffffffffffff1681565b7f8cad95687ba82c2ce50e74f7b754645e5117c3a5bec8151c0726d5857980a86681565b6000803390506000600160008773ffffffffffffffffffffffffffffffffffffffff1673ffffffffffffffffffffffffffffffffffffffff16815260200190815260200160002060008373ffffffffffffffffffffffffffffffffffffffff1673ffffffffffffffffffffffffffffffffffffffff16815260200190815260200160002060009054906101000a90046bffffffffffffffffffffffff169050600061075f856040518060600160405280602681526020016134f1602691396117ba565b90508673ffffffffffffffffffffffffffffffffffffffff168373ffffffffffffffffffffffffffffffffffffffff16141580156107b957506bffffffffffffffffffffffff8016826bffffffffffffffffffffffff1614155b156108f75760006107e383836040518060600160405280603e81526020016133c6603e9139611818565b905080600160008a73ffffffffffffffffffffffffffffffffffffffff1673ffffffffffffffffffffffffffffffffffffffff16815260200190815260200160002060008673ffffffffffffffffffffffffffffffffffffffff1673ffffffffffffffffffffffffffffffffffffffff16815260200190815260200160002060006101000a8154816bffffffffffffffffffffffff02191690836bffffffffffffffffffffffff1602179055508373ffffffffffffffffffffffffffffffffffffffff168873ffffffffffffffffffffffffffffffffffffffff167f8c5be1e5ebec7d5bd14f71427d1e84f3dd0314c0f7b2291e5b200ac8c7c3b925836040516108ed9190612b66565b60405180910390a3505b610902878783611892565b600193505050509392505050565b601281565b61091d611c71565b73ffffffffffffffffffffffffffffffffffffffff1661093b611141565b73ffffffffffffffffffffffffffffffffffffffff1614610991576040517f08c379a000000000000000000000000000000000000000000000000000000000815260040161098890612bcd565b60405180910390fd5b600073ffffffffffffffffffffffffffffffffffffffff168273ffffffffffffffffffffffffffffffffffffffff1603610a00576040517f08c379a00000000000000000000000000000000000000000000000000000000081526004016109f790612c39565b60405180910390fd5b6000610a2482604051806060016040528060278152602001613499602791396117ba565b905080600060148282829054906101000a90046bffffffffffffffffffffffff16610a4f9190612c88565b92506101000a8154816bffffffffffffffffffffffff02191690836bffffffffffffffffffffffff16021790555080600260008573ffffffffffffffffffffffffffffffffffffffff1673ffffffffffffffffffffffffffffffffffffffff16815260200190815260200160002060008282829054906101000a90046bffffffffffffffffffffffff16610ae39190612c88565b92506101000a8154816bffffffffffffffffffffffff02191690836bffffffffffffffffffffffff1602179055508273ffffffffffffffffffffffffffffffffffffffff16600073ffffffffffffffffffffffffffffffffffffffff167fddf252ad1be2c89b69c2b068fc378daa952ba7f163c4a11628f55a4df523b3ef600060149054906101000a90046bffffffffffffffffffffffff16604051610b899190612b66565b60405180910390a3505050565b60036020528060005260406000206000915054906101000a900473ffffffffffffffffffffffffffffffffffffffff1681565b610bd33382611c79565b50565b60056020528060005260406000206000915054906101000a900463ffffffff1681565b6000600260008373ffffffffffffffffffffffffffffffffffffffff1673ffffffffffffffffffffffffffffffffffffffff16815260200190815260200160002060009054906101000a90046bffffffffffffffffffffffff166bffffffffffffffffffffffff169050919050565b610c70611c71565b73ffffffffffffffffffffffffffffffffffffffff16610c8e611141565b73ffffffffffffffffffffffffffffffffffffffff1614610ce4576040517f08c379a0000000000000000000000000000000000000000000000000000000008152600401610cdb90612bcd565b60405180910390fd5b610cee6000611e39565b565b6000438210610d34576040517f08c379a0000000000000000000000000000000000000000000000000000000008152600401610d2b90612d3a565b60405180910390fd5b6000600560008573ffffffffffffffffffffffffffffffffffffffff1673ffffffffffffffffffffffffffffffffffffffff16815260200190815260200160002060009054906101000a900463ffffffff16905060008163ffffffff1603610da0576000915050611123565b82600460008673ffffffffffffffffffffffffffffffffffffffff1673ffffffffffffffffffffffffffffffffffffffff1681526020019081526020016000206000600184610def9190612d5a565b63ffffffff1663ffffffff16815260200190815260200160002060000160009054906101000a900463ffffffff1663ffffffff1611610eb457600460008573ffffffffffffffffffffffffffffffffffffffff1673ffffffffffffffffffffffffffffffffffffffff1681526020019081526020016000206000600183610e769190612d5a565b63ffffffff1663ffffffff16815260200190815260200160002060000160049054906101000a90046bffffffffffffffffffffffff16915050611123565b82600460008673ffffffffffffffffffffffffffffffffffffffff1673ffffffffffffffffffffffffffffffffffffffff16815260200190815260200160002060008063ffffffff16815260200190815260200160002060000160009054906101000a900463ffffffff1663ffffffff161115610f35576000915050611123565b600080600183610f459190612d5a565b90505b8163ffffffff168163ffffffff1611156110a557600060028383610f6c9190612d5a565b610f769190612dc1565b82610f819190612d5a565b90506000600460008973ffffffffffffffffffffffffffffffffffffffff1673ffffffffffffffffffffffffffffffffffffffff16815260200190815260200160002060008363ffffffff1663ffffffff1681526020019081526020016000206040518060400160405290816000820160009054906101000a900463ffffffff1663ffffffff1663ffffffff1681526020016000820160049054906101000a90046bffffffffffffffffffffffff166bffffffffffffffffffffffff166bffffffffffffffffffffffff1681525050905086816000015163ffffffff160361107457806020015195505050505050611123565b86816000015163ffffffff16101561108e5781935061109e565b60018261109b9190612d5a565b92505b5050610f48565b600460008773ffffffffffffffffffffffffffffffffffffffff1673ffffffffffffffffffffffffffffffffffffffff16815260200190815260200160002060008363ffffffff1663ffffffff16815260200190815260200160002060000160049054906101000a90046bffffffffffffffffffffffff1693505050505b92915050565b60066020528060005260406000206000915090505481565b60008060009054906101000a900473ffffffffffffffffffffffffffffffffffffffff16905090565b6040518060400160405280600581526020017f534153484f00000000000000000000000000000000000000000000000000000081525081565b6000806111c883604051806060016040528060278152602001613499602791396117ba565b90506111d5338583611892565b600191505092915050565b600080600560008473ffffffffffffffffffffffffffffffffffffffff1673ffffffffffffffffffffffffffffffffffffffff16815260200190815260200160002060009054906101000a900463ffffffff16905060008163ffffffff161161124a5760006112cf565b600460008473ffffffffffffffffffffffffffffffffffffffff1673ffffffffffffffffffffffffffffffffffffffff16815260200190815260200160002060006001836112989190612d5a565b63ffffffff1663ffffffff16815260200190815260200160002060000160049054906101000a90046bffffffffffffffffffffffff165b915050919050565b60007f8cad95687ba82c2ce50e74f7b754645e5117c3a5bec8151c0726d5857980a8666040518060400160405280600581526020017f536173686f0000000000000000000000000000000000000000000000000000008152508051906020012061133f611efd565b306040516020016113539493929190612df2565b60405160208183030381529060405280519060200120905060007fe48329057bfd03d55e49b547132e39cffd9c1820ad7b9d4c5307691425d15adf8888886040516020016113a49493929190612e37565b604051602081830303815290604052805190602001209050600082826040516020016113d1929190612ef4565b60405160208183030381529060405280519060200120905060006001828888886040516000815260200160405260405161140e9493929190612f2b565b6020604051602081039080840390855afa158015611430573d6000803e3d6000fd5b505050602060405103519050600073ffffffffffffffffffffffffffffffffffffffff168173ffffffffffffffffffffffffffffffffffffffff16036114ab576040517f08c379a00000000000000000000000000000000000000000000000000000000081526004016114a290612fe2565b60405180910390fd5b600660008273ffffffffffffffffffffffffffffffffffffffff1673ffffffffffffffffffffffffffffffffffffffff16815260200190815260200160002060008154809291906114fb90613002565b919050558914611540576040517f08c379a0000000000000000000000000000000000000000000000000000000008152600401611537906130bc565b60405180910390fd5b87421115611583576040517f08c379a000000000000000000000000000000000000000000000000000000000815260040161157a9061314e565b60405180910390fd5b61158d818b611c79565b50505050505050505050565b6000600160008473ffffffffffffffffffffffffffffffffffffffff1673ffffffffffffffffffffffffffffffffffffffff16815260200190815260200160002060008373ffffffffffffffffffffffffffffffffffffffff1673ffffffffffffffffffffffffffffffffffffffff16815260200190815260200160002060009054906101000a90046bffffffffffffffffffffffff166bffffffffffffffffffffffff16905092915050565b7fe48329057bfd03d55e49b547132e39cffd9c1820ad7b9d4c5307691425d15adf81565b6004602052816000526040600020602052806000526040600020600091509150508060000160009054906101000a900463ffffffff16908060000160049054906101000a90046bffffffffffffffffffffffff16905082565b6116cb611c71565b73ffffffffffffffffffffffffffffffffffffffff166116e9611141565b73ffffffffffffffffffffffffffffffffffffffff161461173f576040517f08c379a000000000000000000000000000000000000000000000000000000000815260040161173690612bcd565b60405180910390fd5b600073ffffffffffffffffffffffffffffffffffffffff168173ffffffffffffffffffffffffffffffffffffffff16036117ae576040517f08c379a00000000000000000000000000000000000000000000000000000000081526004016117a5906131e0565b60405180910390fd5b6117b781611e39565b50565b60006c010000000000000000000000008310829061180e576040517f08c379a00000000000000000000000000000000000000000000000000000000081526004016118059190612685565b60405180910390fd5b5082905092915050565b6000836bffffffffffffffffffffffff16836bffffffffffffffffffffffff161115829061187c576040517f08c379a00000000000000000000000000000000000000000000000000000000081526004016118739190612685565b60405180910390fd5b5082846118899190613200565b90509392505050565b600073ffffffffffffffffffffffffffffffffffffffff168373ffffffffffffffffffffffffffffffffffffffff1603611901576040517f08c379a00000000000000000000000000000000000000000000000000000000081526004016118f8906132b2565b60405180910390fd5b600073ffffffffffffffffffffffffffffffffffffffff168273ffffffffffffffffffffffffffffffffffffffff1603611970576040517f08c379a000000000000000000000000000000000000000000000000000000000815260040161196790613344565b60405180910390fd5b6119ea600260008573ffffffffffffffffffffffffffffffffffffffff1673ffffffffffffffffffffffffffffffffffffffff16815260200190815260200160002060009054906101000a90046bffffffffffffffffffffffff168260405180606001604052806037815260200161340460379139611818565b600260008573ffffffffffffffffffffffffffffffffffffffff1673ffffffffffffffffffffffffffffffffffffffff16815260200190815260200160002060006101000a8154816bffffffffffffffffffffffff02191690836bffffffffffffffffffffffff160217905550611ad1600260008473ffffffffffffffffffffffffffffffffffffffff1673ffffffffffffffffffffffffffffffffffffffff16815260200190815260200160002060009054906101000a90046bffffffffffffffffffffffff16826040518060600160405280603181526020016134c060319139611f05565b600260008473ffffffffffffffffffffffffffffffffffffffff1673ffffffffffffffffffffffffffffffffffffffff16815260200190815260200160002060006101000a8154816bffffffffffffffffffffffff02191690836bffffffffffffffffffffffff1602179055508173ffffffffffffffffffffffffffffffffffffffff168373ffffffffffffffffffffffffffffffffffffffff167fddf252ad1be2c89b69c2b068fc378daa952ba7f163c4a11628f55a4df523b3ef83604051611b9b9190612b66565b60405180910390a3611c6c600360008573ffffffffffffffffffffffffffffffffffffffff1673ffffffffffffffffffffffffffffffffffffffff16815260200190815260200160002060009054906101000a900473ffffffffffffffffffffffffffffffffffffffff16600360008573ffffffffffffffffffffffffffffffffffffffff1673ffffffffffffffffffffffffffffffffffffffff16815260200190815260200160002060009054906101000a900473ffffffffffffffffffffffffffffffffffffffff1683611f84565b505050565b600033905090565b6000600360008473ffffffffffffffffffffffffffffffffffffffff1673ffffffffffffffffffffffffffffffffffffffff16815260200190815260200160002060009054906101000a900473ffffffffffffffffffffffffffffffffffffffff1690506000600260008573ffffffffffffffffffffffffffffffffffffffff1673ffffffffffffffffffffffffffffffffffffffff16815260200190815260200160002060009054906101000a90046bffffffffffffffffffffffff16905082600360008673ffffffffffffffffffffffffffffffffffffffff1673ffffffffffffffffffffffffffffffffffffffff16815260200190815260200160002060006101000a81548173ffffffffffffffffffffffffffffffffffffffff021916908373ffffffffffffffffffffffffffffffffffffffff1602179055508273ffffffffffffffffffffffffffffffffffffffff168273ffffffffffffffffffffffffffffffffffffffff168573ffffffffffffffffffffffffffffffffffffffff167f3134e8a2e6d97e929a7e54011ea5485d7d196dd5f0ba4d4ef95803e8e3fc257f60405160405180910390a4611e33828483611f84565b50505050565b60008060009054906101000a900473ffffffffffffffffffffffffffffffffffffffff169050816000806101000a81548173ffffffffffffffffffffffffffffffffffffffff021916908373ffffffffffffffffffffffffffffffffffffffff1602179055508173ffffffffffffffffffffffffffffffffffffffff168173ffffffffffffffffffffffffffffffffffffffff167f8be0079c531659141344cd1fd0a4f28419497f9722a3daafe3b4186f6b6457e060405160405180910390a35050565b600046905090565b6000808385611f149190612c88565b9050846bffffffffffffffffffffffff16816bffffffffffffffffffffffff1610158390611f78576040517f08c379a0000000000000000000000000000000000000000000000000000000008152600401611f6f9190612685565b60405180910390fd5b50809150509392505050565b8173ffffffffffffffffffffffffffffffffffffffff168373ffffffffffffffffffffffffffffffffffffffff1614158015611fce57506000816bffffffffffffffffffffffff16115b1561228c57600073ffffffffffffffffffffffffffffffffffffffff168373ffffffffffffffffffffffffffffffffffffffff161461212f576000600560008573ffffffffffffffffffffffffffffffffffffffff1673ffffffffffffffffffffffffffffffffffffffff16815260200190815260200160002060009054906101000a900463ffffffff1690506000808263ffffffff16116120715760006120f6565b600460008673ffffffffffffffffffffffffffffffffffffffff1673ffffffffffffffffffffffffffffffffffffffff16815260200190815260200160002060006001846120bf9190612d5a565b63ffffffff1663ffffffff16815260200190815260200160002060000160049054906101000a90046bffffffffffffffffffffffff165b9050600061211d828560405180606001604052806029815260200161343b60299139611818565b905061212b86848484612291565b5050505b600073ffffffffffffffffffffffffffffffffffffffff168273ffffffffffffffffffffffffffffffffffffffff161461228b576000600560008473ffffffffffffffffffffffffffffffffffffffff1673ffffffffffffffffffffffffffffffffffffffff16815260200190815260200160002060009054906101000a900463ffffffff1690506000808263ffffffff16116121cd576000612252565b600460008573ffffffffffffffffffffffffffffffffffffffff1673ffffffffffffffffffffffffffffffffffffffff168152602001908152602001600020600060018461221b9190612d5a565b63ffffffff1663ffffffff16815260200190815260200160002060000160049054906101000a90046bffffffffffffffffffffffff165b90506000612279828560405180606001604052806028815260200161351760289139611f05565b905061228785848484612291565b5050505b5b505050565b60006122b5436040518060600160405280603581526020016134646035913961259f565b905060008463ffffffff1611801561235357508063ffffffff16600460008773ffffffffffffffffffffffffffffffffffffffff1673ffffffffffffffffffffffffffffffffffffffff168152602001908152602001600020600060018761231d9190612d5a565b63ffffffff1663ffffffff16815260200190815260200160002060000160009054906101000a900463ffffffff1663ffffffff16145b156123f75781600460008773ffffffffffffffffffffffffffffffffffffffff1673ffffffffffffffffffffffffffffffffffffffff16815260200190815260200160002060006001876123a79190612d5a565b63ffffffff1663ffffffff16815260200190815260200160002060000160046101000a8154816bffffffffffffffffffffffff02191690836bffffffffffffffffffffffff160217905550612548565b60405180604001604052808263ffffffff168152602001836bffffffffffffffffffffffff16815250600460008773ffffffffffffffffffffffffffffffffffffffff1673ffffffffffffffffffffffffffffffffffffffff16815260200190815260200160002060008663ffffffff1663ffffffff16815260200190815260200160002060008201518160000160006101000a81548163ffffffff021916908363ffffffff16021790555060208201518160000160046101000a8154816bffffffffffffffffffffffff02191690836bffffffffffffffffffffffff1602179055509050506001846124ea9190613364565b600560008773ffffffffffffffffffffffffffffffffffffffff1673ffffffffffffffffffffffffffffffffffffffff16815260200190815260200160002060006101000a81548163ffffffff021916908363ffffffff1602179055505b8473ffffffffffffffffffffffffffffffffffffffff167fdec2bacdd2f05b59de34da9b523dff8be42e5e38e818c82fdb0bae774387a724848460405161259092919061339c565b60405180910390a25050505050565b6000640100000000831082906125eb576040517f08c379a00000000000000000000000000000000000000000000000000000000081526004016125e29190612685565b60405180910390fd5b5082905092915050565b600081519050919050565b600082825260208201905092915050565b60005b8381101561262f578082015181840152602081019050612614565b60008484015250505050565b6000601f19601f8301169050919050565b6000612657826125f5565b6126618185612600565b9350612671818560208601612611565b61267a8161263b565b840191505092915050565b6000602082019050818103600083015261269f818461264c565b905092915050565b600080fd5b600073ffffffffffffffffffffffffffffffffffffffff82169050919050565b60006126d7826126ac565b9050919050565b6126e7816126cc565b81146126f257600080fd5b50565b600081359050612704816126de565b92915050565b6000819050919050565b61271d8161270a565b811461272857600080fd5b50565b60008135905061273a81612714565b92915050565b60008060408385031215612757576127566126a7565b5b6000612765858286016126f5565b92505060206127768582860161272b565b9150509250929050565b60008115159050919050565b61279581612780565b82525050565b60006020820190506127b0600083018461278c565b92915050565b60006bffffffffffffffffffffffff82169050919050565b6127d7816127b6565b82525050565b60006020820190506127f260008301846127ce565b92915050565b6000819050919050565b61280b816127f8565b82525050565b60006020820190506128266000830184612802565b92915050565b600080600060608486031215612845576128446126a7565b5b6000612853868287016126f5565b9350506020612864868287016126f5565b92505060406128758682870161272b565b9150509250925092565b600060ff82169050919050565b6128958161287f565b82525050565b60006020820190506128b0600083018461288c565b92915050565b6000602082840312156128cc576128cb6126a7565b5b60006128da848285016126f5565b91505092915050565b6128ec816126cc565b82525050565b600060208201905061290760008301846128e3565b92915050565b600063ffffffff82169050919050565b6129268161290d565b82525050565b6000602082019050612941600083018461291d565b92915050565b6129508161270a565b82525050565b600060208201905061296b6000830184612947565b92915050565b61297a8161287f565b811461298557600080fd5b50565b60008135905061299781612971565b92915050565b6129a6816127f8565b81146129b157600080fd5b50565b6000813590506129c38161299d565b92915050565b60008060008060008060c087890312156129e6576129e56126a7565b5b60006129f489828a016126f5565b9650506020612a0589828a0161272b565b9550506040612a1689828a0161272b565b9450506060612a2789828a01612988565b9350506080612a3889828a016129b4565b92505060a0612a4989828a016129b4565b9150509295509295509295565b60008060408385031215612a6d57612a6c6126a7565b5b6000612a7b858286016126f5565b9250506020612a8c858286016126f5565b9150509250929050565b612a9f8161290d565b8114612aaa57600080fd5b50565b600081359050612abc81612a96565b92915050565b60008060408385031215612ad957612ad86126a7565b5b6000612ae7858286016126f5565b9250506020612af885828601612aad565b9150509250929050565b6000604082019050612b17600083018561291d565b612b2460208301846127ce565b9392505050565b6000819050919050565b6000612b50612b4b612b46846127b6565b612b2b565b61270a565b9050919050565b612b6081612b35565b82525050565b6000602082019050612b7b6000830184612b57565b92915050565b7f4f776e61626c653a2063616c6c6572206973206e6f7420746865206f776e6572600082015250565b6000612bb7602083612600565b9150612bc282612b81565b602082019050919050565b60006020820190508181036000830152612be681612baa565b9050919050565b7f45524332303a206d696e7420746f20746865207a65726f206164647265737300600082015250565b6000612c23601f83612600565b9150612c2e82612bed565b602082019050919050565b60006020820190508181036000830152612c5281612c16565b9050919050565b7f4e487b7100000000000000000000000000000000000000000000000000000000600052601160045260246000fd5b6000612c93826127b6565b9150612c9e836127b6565b925082820190506bffffffffffffffffffffffff811115612cc257612cc1612c59565b5b92915050565b7f536173686f3a3a6765745072696f72566f7465733a206e6f742079657420646560008201527f7465726d696e6564000000000000000000000000000000000000000000000000602082015250565b6000612d24602883612600565b9150612d2f82612cc8565b604082019050919050565b60006020820190508181036000830152612d5381612d17565b9050919050565b6000612d658261290d565b9150612d708361290d565b9250828203905063ffffffff811115612d8c57612d8b612c59565b5b92915050565b7f4e487b7100000000000000000000000000000000000000000000000000000000600052601260045260246000fd5b6000612dcc8261290d565b9150612dd78361290d565b925082612de757612de6612d92565b5b828204905092915050565b6000608082019050612e076000830187612802565b612e146020830186612802565b612e216040830185612947565b612e2e60608301846128e3565b95945050505050565b6000608082019050612e4c6000830187612802565b612e5960208301866128e3565b612e666040830185612947565b612e736060830184612947565b95945050505050565b600081905092915050565b7f1901000000000000000000000000000000000000000000000000000000000000600082015250565b6000612ebd600283612e7c565b9150612ec882612e87565b600282019050919050565b6000819050919050565b612eee612ee9826127f8565b612ed3565b82525050565b6000612eff82612eb0565b9150612f0b8285612edd565b602082019150612f1b8284612edd565b6020820191508190509392505050565b6000608082019050612f406000830187612802565b612f4d602083018661288c565b612f5a6040830185612802565b612f676060830184612802565b95945050505050565b7f536173686f3a3a64656c656761746542795369673a20696e76616c696420736960008201527f676e617475726500000000000000000000000000000000000000000000000000602082015250565b6000612fcc602783612600565b9150612fd782612f70565b604082019050919050565b60006020820190508181036000830152612ffb81612fbf565b9050919050565b600061300d8261270a565b91507fffffffffffffffffffffffffffffffffffffffffffffffffffffffffffffffff820361303f5761303e612c59565b5b600182019050919050565b7f536173686f3a3a64656c656761746542795369673a20696e76616c6964206e6f60008201527f6e63650000000000000000000000000000000000000000000000000000000000602082015250565b60006130a6602383612600565b91506130b18261304a565b604082019050919050565b600060208201905081810360008301526130d581613099565b9050919050565b7f536173686f3a3a64656c656761746542795369673a207369676e61747572652060008201527f6578706972656400000000000000000000000000000000000000000000000000602082015250565b6000613138602783612600565b9150613143826130dc565b604082019050919050565b600060208201905081810360008301526131678161312b565b9050919050565b7f4f776e61626c653a206e6577206f776e657220697320746865207a65726f206160008201527f6464726573730000000000000000000000000000000000000000000000000000602082015250565b60006131ca602683612600565b91506131d58261316e565b604082019050919050565b600060208201905081810360008301526131f9816131bd565b9050919050565b600061320b826127b6565b9150613216836127b6565b925082820390506bffffffffffffffffffffffff81111561323a57613239612c59565b5b92915050565b7f536173686f3a3a5f7472616e73666572546f6b656e733a2063616e6e6f74207460008201527f72616e736665722066726f6d20746865207a65726f2061646472657373000000602082015250565b600061329c603d83612600565b91506132a782613240565b604082019050919050565b600060208201905081810360008301526132cb8161328f565b9050919050565b7f536173686f3a3a5f7472616e73666572546f6b656e733a2063616e6e6f74207460008201527f72616e7366657220746f20746865207a65726f20616464726573730000000000602082015250565b600061332e603b83612600565b9150613339826132d2565b604082019050919050565b6000602082019050818103600083015261335d81613321565b9050919050565b600061336f8261290d565b915061337a8361290d565b9250828201905063ffffffff81111561339657613395612c59565b5b92915050565b60006040820190506133b16000830185612b57565b6133be6020830184612b57565b939250505056fe536173686f3a3a7472616e7366657246726f6d3a207472616e7366657220616d6f756e742065786365656473207370656e64657220616c6c6f77616e6365536173686f3a3a5f7472616e73666572546f6b656e733a207472616e7366657220616d6f756e7420657863656564732062616c616e6365536173686f3a3a5f6d6f7665566f7465733a20766f746520616d6f756e7420756e646572666c6f7773536173686f3a3a5f7772697465436865636b706f696e743a20626c6f636b206e756d62657220657863656564732033322062697473536173686f3a3a7472616e736665723a20616d6f756e7420657863656564732039362062697473536173686f3a3a5f7472616e73666572546f6b656e733a207472616e7366657220616d6f756e74206f766572666c6f7773536173686f3a3a617070726f76653a20616d6f756e7420657863656564732039362062697473536173686f3a3a5f6d6f7665566f7465733a20766f746520616d6f756e74206f766572666c6f7773a2646970667358221220a21aa70cfa3db695b30ea61ff4135d750dd5a8c94f9b4b2da82c838701f7150964736f6c63430008120033",
					"opcodes": "PUSH1 0x80 PUSH1 0x40 MSTORE PUSH1 0x0 DUP1 PUSH1 0x14 PUSH2 0x100 EXP DUP2 SLOAD DUP2 PUSH12 0xFFFFFFFFFFFFFFFFFFFFFFFF MUL NOT AND SWAP1 DUP4 PUSH12 0xFFFFFFFFFFFFFFFFFFFFFFFF AND MUL OR SWAP1 SSTORE POP CALLVALUE DUP1 ISZERO PUSH3 0x42 JUMPI PUSH1 0x0 DUP1 REVERT JUMPDEST POP PUSH3 0x63 PUSH3 0x57 PUSH3 0x69 PUSH1 0x20 SHL PUSH1 0x20 SHR JUMP JUMPDEST PUSH3 0x71 PUSH1 0x20 SHL PUSH1 0x20 SHR JUMP JUMPDEST PUSH3 0x135 JUMP JUMPDEST PUSH1 0x0 CALLER SWAP1 POP SWAP1 JUMP JUMPDEST PUSH1 0x0 DUP1 PUSH1 0x0 SWAP1 SLOAD SWAP1 PUSH2 0x100 EXP SWAP1 DIV PUSH20 0xFFFFFFFFFFFFFFFFFFFFFFFFFFFFFFFFFFFFFFFF AND SWAP1 POP DUP2 PUSH1 0x0 DUP1 PUSH2 0x100 EXP DUP2 SLOAD DUP2 PUSH20 0xFFFFFFFFFFFFFFFFFFFFFFFFFFFFFFFFFFFFFFFF MUL NOT AND SWAP1 DUP4 PUSH20 0xFFFFFFFFFFFFFFFFFFFFFFFFFFFFFFFFFFFFFFFF AND MUL OR SWAP1 SSTORE POP DUP2 PUSH20 0xFFFFFFFFFFFFFFFFFFFFFFFFFFFFFFFFFFFFFFFF AND DUP2 PUSH20 0xFFFFFFFFFFFFFFFFFFFFFFFFFFFFFFFFFFFFFFFF AND PUSH32 0x8BE0079C531659141344CD1FD0A4F28419497F9722A3DAAFE3B4186F6B6457E0 PUSH1 0x40 MLOAD PUSH1 0x40 MLOAD DUP1 SWAP2 SUB SWAP1 LOG3 POP POP JUMP JUMPDEST PUSH2 0x3574 DUP1 PUSH3 0x145 PUSH1 0x0 CODECOPY PUSH1 0x0 RETURN INVALID PUSH1 0x80 PUSH1 0x40 MSTORE CALLVALUE DUP1 ISZERO PUSH2 0x10 JUMPI PUSH1 0x0 DUP1 REVERT JUMPDEST POP PUSH1 0x4 CALLDATASIZE LT PUSH2 0x14D JUMPI PUSH1 0x0 CALLDATALOAD PUSH1 0xE0 SHR DUP1 PUSH4 0x715018A6 GT PUSH2 0xC3 JUMPI DUP1 PUSH4 0xB4B5EA57 GT PUSH2 0x7C JUMPI DUP1 PUSH4 0xB4B5EA57 EQ PUSH2 0x3C8 JUMPI DUP1 PUSH4 0xC3CDA520 EQ PUSH2 0x3F8 JUMPI DUP1 PUSH4 0xDD62ED3E EQ PUSH2 0x414 JUMPI DUP1 PUSH4 0xE7A324DC EQ PUSH2 0x444 JUMPI DUP1 PUSH4 0xF1127ED8 EQ PUSH2 0x462 JUMPI DUP1 PUSH4 0xF2FDE38B EQ PUSH2 0x493 JUMPI PUSH2 0x14D JUMP JUMPDEST DUP1 PUSH4 0x715018A6 EQ PUSH2 0x2F2 JUMPI DUP1 PUSH4 0x782D6FE1 EQ PUSH2 0x2FC JUMPI DUP1 PUSH4 0x7ECEBE00 EQ PUSH2 0x32C JUMPI DUP1 PUSH4 0x8DA5CB5B EQ PUSH2 0x35C JUMPI DUP1 PUSH4 0x95D89B41 EQ PUSH2 0x37A JUMPI DUP1 PUSH4 0xA9059CBB EQ PUSH2 0x398 JUMPI PUSH2 0x14D JUMP JUMPDEST DUP1 PUSH4 0x313CE567 GT PUSH2 0x115 JUMPI DUP1 PUSH4 0x313CE567 EQ PUSH2 0x20C JUMPI DUP1 PUSH4 0x40C10F19 EQ PUSH2 0x22A JUMPI DUP1 PUSH4 0x587CDE1E EQ PUSH2 0x246 JUMPI DUP1 PUSH4 0x5C19A95C EQ PUSH2 0x276 JUMPI DUP1 PUSH4 0x6FCFFF45 EQ PUSH2 0x292 JUMPI DUP1 PUSH4 0x70A08231 EQ PUSH2 0x2C2 JUMPI PUSH2 0x14D JUMP JUMPDEST DUP1 PUSH4 0x6FDDE03 EQ PUSH2 0x152 JUMPI DUP1 PUSH4 0x95EA7B3 EQ PUSH2 0x170 JUMPI DUP1 PUSH4 0x18160DDD EQ PUSH2 0x1A0 JUMPI DUP1 PUSH4 0x20606B70 EQ PUSH2 0x1BE JUMPI DUP1 PUSH4 0x23B872DD EQ PUSH2 0x1DC JUMPI JUMPDEST PUSH1 0x0 DUP1 REVERT JUMPDEST PUSH2 0x15A PUSH2 0x4AF JUMP JUMPDEST PUSH1 0x40 MLOAD PUSH2 0x167 SWAP2 SWAP1 PUSH2 0x2685 JUMP JUMPDEST PUSH1 0x40 MLOAD DUP1 SWAP2 SUB SWAP1 RETURN JUMPDEST PUSH2 0x18A PUSH1 0x4 DUP1 CALLDATASIZE SUB DUP2 ADD SWAP1 PUSH2 0x185 SWAP2 SWAP1 PUSH2 0x2740 JUMP JUMPDEST PUSH2 0x4E8 JUMP JUMPDEST PUSH1 0x40 MLOAD PUSH2 0x197 SWAP2 SWAP1 PUSH2 0x279B JUMP JUMPDEST PUSH1 0x40 MLOAD DUP1 SWAP2 SUB SWAP1 RETURN JUMPDEST PUSH2 0x1A8 PUSH2 0x65A JUMP JUMPDEST PUSH1 0x40 MLOAD PUSH2 0x1B5 SWAP2 SWAP1 PUSH2 0x27DD JUMP JUMPDEST PUSH1 0x40 MLOAD DUP1 SWAP2 SUB SWAP1 RETURN JUMPDEST PUSH2 0x1C6 PUSH2 0x678 JUMP JUMPDEST PUSH1 0x40 MLOAD PUSH2 0x1D3 SWAP2 SWAP1 PUSH2 0x2811 JUMP JUMPDEST PUSH1 0x40 MLOAD DUP1 SWAP2 SUB SWAP1 RETURN JUMPDEST PUSH2 0x1F6 PUSH1 0x4 DUP1 CALLDATASIZE SUB DUP2 ADD SWAP1 PUSH2 0x1F1 SWAP2 SWAP1 PUSH2 0x282C JUMP JUMPDEST PUSH2 0x69C JUMP JUMPDEST PUSH1 0x40 MLOAD PUSH2 0x203 SWAP2 SWAP1 PUSH2 0x279B JUMP JUMPDEST PUSH1 0x40 MLOAD DUP1 SWAP2 SUB SWAP1 RETURN JUMPDEST PUSH2 0x214 PUSH2 0x910 JUMP JUMPDEST PUSH1 0x40 MLOAD PUSH2 0x221 SWAP2 SWAP1 PUSH2 0x289B JUMP JUMPDEST PUSH1 0x40 MLOAD DUP1 SWAP2 SUB SWAP1 RETURN JUMPDEST PUSH2 0x244 PUSH1 0x4 DUP1 CALLDATASIZE SUB DUP2 ADD SWAP1 PUSH2 0x23F SWAP2 SWAP1 PUSH2 0x2740 JUMP JUMPDEST PUSH2 0x915 JUMP JUMPDEST STOP JUMPDEST PUSH2 0x260 PUSH1 0x4 DUP1 CALLDATASIZE SUB DUP2 ADD SWAP1 PUSH2 0x25B SWAP2 SWAP1 PUSH2 0x28B6 JUMP JUMPDEST PUSH2 0xB96 JUMP JUMPDEST PUSH1 0x40 MLOAD PUSH2 0x26D SWAP2 SWAP1 PUSH2 0x28F2 JUMP JUMPDEST PUSH1 0x40 MLOAD DUP1 SWAP2 SUB SWAP1 RETURN JUMPDEST PUSH2 0x290 PUSH1 0x4 DUP1 CALLDATASIZE SUB DUP2 ADD SWAP1 PUSH2 0x28B SWAP2 SWAP1 PUSH2 0x28B6 JUMP JUMPDEST PUSH2 0xBC9 JUMP JUMPDEST STOP JUMPDEST PUSH2 0x2AC PUSH1 0x4 DUP1 CALLDATASIZE SUB DUP2 ADD SWAP1 PUSH2 0x2A7 SWAP2 SWAP1 PUSH2 0x28B6 JUMP JUMPDEST PUSH2 0xBD6 JUMP JUMPDEST PUSH1 0x40 MLOAD PUSH2 0x2B9 SWAP2 SWAP1 PUSH2 0x292C JUMP JUMPDEST PUSH1 0x40 MLOAD DUP1 SWAP2 SUB SWAP1 RETURN JUMPDEST PUSH2 0x2DC PUSH1 0x4 DUP1 CALLDATASIZE SUB DUP2 ADD SWAP1 PUSH2 0x2D7 SWAP2 SWAP1 PUSH2 0x28B6 JUMP JUMPDEST PUSH2 0xBF9 JUMP JUMPDEST PUSH1 0x40 MLOAD PUSH2 0x2E9 SWAP2 SWAP1 PUSH2 0x2956 JUMP JUMPDEST PUSH1 0x40 MLOAD DUP1 SWAP2 SUB SWAP1 RETURN JUMPDEST PUSH2 0x2FA PUSH2 0xC68 JUMP JUMPDEST STOP JUMPDEST PUSH2 0x316 PUSH1 0x4 DUP1 CALLDATASIZE SUB DUP2 ADD SWAP1 PUSH2 0x311 SWAP2 SWAP1 PUSH2 0x2740 JUMP JUMPDEST PUSH2 0xCF0 JUMP JUMPDEST PUSH1 0x40 MLOAD PUSH2 0x323 SWAP2 SWAP1 PUSH2 0x27DD JUMP JUMPDEST PUSH1 0x40 MLOAD DUP1 SWAP2 SUB SWAP1 RETURN JUMPDEST PUSH2 0x346 PUSH1 0x4 DUP1 CALLDATASIZE SUB DUP2 ADD SWAP1 PUSH2 0x341 SWAP2 SWAP1 PUSH2 0x28B6 JUMP JUMPDEST PUSH2 0x1129 JUMP JUMPDEST PUSH1 0x40 MLOAD PUSH2 0x353 SWAP2 SWAP1 PUSH2 0x2956 JUMP JUMPDEST PUSH1 0x40 MLOAD DUP1 SWAP2 SUB SWAP1 RETURN JUMPDEST PUSH2 0x364 PUSH2 0x1141 JUMP JUMPDEST PUSH1 0x40 MLOAD PUSH2 0x371 SWAP2 SWAP1 PUSH2 0x28F2 JUMP JUMPDEST PUSH1 0x40 MLOAD DUP1 SWAP2 SUB SWAP1 RETURN JUMPDEST PUSH2 0x382 PUSH2 0x116A JUMP JUMPDEST PUSH1 0x40 MLOAD PUSH2 0x38F SWAP2 SWAP1 PUSH2 0x2685 JUMP JUMPDEST PUSH1 0x40 MLOAD DUP1 SWAP2 SUB SWAP1 RETURN JUMPDEST PUSH2 0x3B2 PUSH1 0x4 DUP1 CALLDATASIZE SUB DUP2 ADD SWAP1 PUSH2 0x3AD SWAP2 SWAP1 PUSH2 0x2740 JUMP JUMPDEST PUSH2 0x11A3 JUMP JUMPDEST PUSH1 0x40 MLOAD PUSH2 0x3BF SWAP2 SWAP1 PUSH2 0x279B JUMP JUMPDEST PUSH1 0x40 MLOAD DUP1 SWAP2 SUB SWAP1 RETURN JUMPDEST PUSH2 0x3E2 PUSH1 0x4 DUP1 CALLDATASIZE SUB DUP2 ADD SWAP1 PUSH2 0x3DD SWAP2 SWAP1 PUSH2 0x28B6 JUMP JUMPDEST PUSH2 0x11E0 JUMP JUMPDEST PUSH1 0x40 MLOAD PUSH2 0x3EF SWAP2 SWAP1 PUSH2 0x27DD JUMP JUMPDEST PUSH1 0x40 MLOAD DUP1 SWAP2 SUB SWAP1 RETURN JUMPDEST PUSH2 0x412 PUSH1 0x4 DUP1 CALLDATASIZE SUB DUP2 ADD SWAP1 PUSH2 0x40D SWAP2 SWAP1 PUSH2 0x29C9 JUMP JUMPDEST PUSH2 0x12D7 JUMP JUMPDEST STOP JUMPDEST PUSH2 0x42E PUSH1 0x4 DUP1 CALLDATASIZE SUB DUP2 ADD SWAP1 PUSH2 0x429 SWAP2 SWAP1 PUSH2 0x2A56 JUMP JUMPDEST PUSH2 0x1599 JUMP JUMPDEST PUSH1 0x40 MLOAD PUSH2 0x43B SWAP2 SWAP1 PUSH2 0x2956 JUMP JUMPDEST PUSH1 0x40 MLOAD DUP1 SWAP2 SUB SWAP1 RETURN JUMPDEST PUSH2 0x44C PUSH2 0x1646 JUMP JUMPDEST PUSH1 0x40 MLOAD PUSH2 0x459 SWAP2 SWAP1 PUSH2 0x2811 JUMP JUMPDEST PUSH1 0x40 MLOAD DUP1 SWAP2 SUB SWAP1 RETURN JUMPDEST PUSH2 0x47C PUSH1 0x4 DUP1 CALLDATASIZE SUB DUP2 ADD SWAP1 PUSH2 0x477 SWAP2 SWAP1 PUSH2 0x2AC2 JUMP JUMPDEST PUSH2 0x166A JUMP JUMPDEST PUSH1 0x40 MLOAD PUSH2 0x48A SWAP3 SWAP2 SWAP1 PUSH2 0x2B02 JUMP JUMPDEST PUSH1 0x40 MLOAD DUP1 SWAP2 SUB SWAP1 RETURN JUMPDEST PUSH2 0x4AD PUSH1 0x4 DUP1 CALLDATASIZE SUB DUP2 ADD SWAP1 PUSH2 0x4A8 SWAP2 SWAP1 PUSH2 0x28B6 JUMP JUMPDEST PUSH2 0x16C3 JUMP JUMPDEST STOP JUMPDEST PUSH1 0x40 MLOAD DUP1 PUSH1 0x40 ADD PUSH1 0x40 MSTORE DUP1 PUSH1 0x5 DUP2 MSTORE PUSH1 0x20 ADD PUSH32 0x536173686F000000000000000000000000000000000000000000000000000000 DUP2 MSTORE POP DUP2 JUMP JUMPDEST PUSH1 0x0 DUP1 PUSH1 0x0 PUSH12 0xFFFFFFFFFFFFFFFFFFFFFFFF DUP1 AND SWAP1 POP DUP1 DUP5 SUB PUSH2 0x519 JUMPI PUSH12 0xFFFFFFFFFFFFFFFFFFFFFFFF SWAP2 POP PUSH2 0x53E JUMP JUMPDEST PUSH2 0x53B DUP5 PUSH1 0x40 MLOAD DUP1 PUSH1 0x60 ADD PUSH1 0x40 MSTORE DUP1 PUSH1 0x26 DUP2 MSTORE PUSH1 0x20 ADD PUSH2 0x34F1 PUSH1 0x26 SWAP2 CODECOPY PUSH2 0x17BA JUMP JUMPDEST SWAP2 POP JUMPDEST DUP2 PUSH1 0x1 PUSH1 0x0 CALLER PUSH20 0xFFFFFFFFFFFFFFFFFFFFFFFFFFFFFFFFFFFFFFFF AND PUSH20 0xFFFFFFFFFFFFFFFFFFFFFFFFFFFFFFFFFFFFFFFF AND DUP2 MSTORE PUSH1 0x20 ADD SWAP1 DUP2 MSTORE PUSH1 0x20 ADD PUSH1 0x0 KECCAK256 PUSH1 0x0 DUP8 PUSH20 0xFFFFFFFFFFFFFFFFFFFFFFFFFFFFFFFFFFFFFFFF AND PUSH20 0xFFFFFFFFFFFFFFFFFFFFFFFFFFFFFFFFFFFFFFFF AND DUP2 MSTORE PUSH1 0x20 ADD SWAP1 DUP2 MSTORE PUSH1 0x20 ADD PUSH1 0x0 KECCAK256 PUSH1 0x0 PUSH2 0x100 EXP DUP2 SLOAD DUP2 PUSH12 0xFFFFFFFFFFFFFFFFFFFFFFFF MUL NOT AND SWAP1 DUP4 PUSH12 0xFFFFFFFFFFFFFFFFFFFFFFFF AND MUL OR SWAP1 SSTORE POP DUP5 PUSH20 0xFFFFFFFFFFFFFFFFFFFFFFFFFFFFFFFFFFFFFFFF AND CALLER PUSH20 0xFFFFFFFFFFFFFFFFFFFFFFFFFFFFFFFFFFFFFFFF AND PUSH32 0x8C5BE1E5EBEC7D5BD14F71427D1E84F3DD0314C0F7B2291E5B200AC8C7C3B925 DUP5 PUSH1 0x40 MLOAD PUSH2 0x646 SWAP2 SWAP1 PUSH2 0x2B66 JUMP JUMPDEST PUSH1 0x40 MLOAD DUP1 SWAP2 SUB SWAP1 LOG3 PUSH1 0x1 SWAP3 POP POP POP SWAP3 SWAP2 POP POP JUMP JUMPDEST PUSH1 0x0 PUSH1 0x14 SWAP1 SLOAD SWAP1 PUSH2 0x100 EXP SWAP1 DIV PUSH12 0xFFFFFFFFFFFFFFFFFFFFFFFF AND DUP2 JUMP JUMPDEST PUSH32 0x8CAD95687BA82C2CE50E74F7B754645E5117C3A5BEC8151C0726D5857980A866 DUP2 JUMP JUMPDEST PUSH1 0x0 DUP1 CALLER SWAP1 POP PUSH1 0x0 PUSH1 0x1 PUSH1 0x0 DUP8 PUSH20 0xFFFFFFFFFFFFFFFFFFFFFFFFFFFFFFFFFFFFFFFF AND PUSH20 0xFFFFFFFFFFFFFFFFFFFFFFFFFFFFFFFFFFFFFFFF AND DUP2 MSTORE PUSH1 0x20 ADD SWAP1 DUP2 MSTORE PUSH1 0x20 ADD PUSH1 0x0 KECCAK256 PUSH1 0x0 DUP4 PUSH20 0xFFFFFFFFFFFFFFFFFFFFFFFFFFFFFFFFFFFFFFFF AND PUSH20 0xFFFFFFFFFFFFFFFFFFFFFFFFFFFFFFFFFFFFFFFF AND DUP2 MSTORE PUSH1 0x20 ADD SWAP1 DUP2 MSTORE PUSH1 0x20 ADD PUSH1 0x0 KECCAK256 PUSH1 0x0 SWAP1 SLOAD SWAP1 PUSH2 0x100 EXP SWAP1 DIV PUSH12 0xFFFFFFFFFFFFFFFFFFFFFFFF AND SWAP1 POP PUSH1 0x0 PUSH2 0x75F DUP6 PUSH1 0x40 MLOAD DUP1 PUSH1 0x60 ADD PUSH1 0x40 MSTORE DUP1 PUSH1 0x26 DUP2 MSTORE PUSH1 0x20 ADD PUSH2 0x34F1 PUSH1 0x26 SWAP2 CODECOPY PUSH2 0x17BA JUMP JUMPDEST SWAP1 POP DUP7 PUSH20 0xFFFFFFFFFFFFFFFFFFFFFFFFFFFFFFFFFFFFFFFF AND DUP4 PUSH20 0xFFFFFFFFFFFFFFFFFFFFFFFFFFFFFFFFFFFFFFFF AND EQ ISZERO DUP1 ISZERO PUSH2 0x7B9 JUMPI POP PUSH12 0xFFFFFFFFFFFFFFFFFFFFFFFF DUP1 AND DUP3 PUSH12 0xFFFFFFFFFFFFFFFFFFFFFFFF AND EQ ISZERO JUMPDEST ISZERO PUSH2 0x8F7 JUMPI PUSH1 0x0 PUSH2 0x7E3 DUP4 DUP4 PUSH1 0x40 MLOAD DUP1 PUSH1 0x60 ADD PUSH1 0x40 MSTORE DUP1 PUSH1 0x3E DUP2 MSTORE PUSH1 0x20 ADD PUSH2 0x33C6 PUSH1 0x3E SWAP2 CODECOPY PUSH2 0x1818 JUMP JUMPDEST SWAP1 POP DUP1 PUSH1 0x1 PUSH1 0x0 DUP11 PUSH20 0xFFFFFFFFFFFFFFFFFFFFFFFFFFFFFFFFFFFFFFFF AND PUSH20 0xFFFFFFFFFFFFFFFFFFFFFFFFFFFFFFFFFFFFFFFF AND DUP2 MSTORE PUSH1 0x20 ADD SWAP1 DUP2 MSTORE PUSH1 0x20 ADD PUSH1 0x0 KECCAK256 PUSH1 0x0 DUP7 PUSH20 0xFFFFFFFFFFFFFFFFFFFFFFFFFFFFFFFFFFFFFFFF AND PUSH20 0xFFFFFFFFFFFFFFFFFFFFFFFFFFFFFFFFFFFFFFFF AND DUP2 MSTORE PUSH1 0x20 ADD SWAP1 DUP2 MSTORE PUSH1 0x20 ADD PUSH1 0x0 KECCAK256 PUSH1 0x0 PUSH2 0x100 EXP DUP2 SLOAD DUP2 PUSH12 0xFFFFFFFFFFFFFFFFFFFFFFFF MUL NOT AND SWAP1 DUP4 PUSH12 0xFFFFFFFFFFFFFFFFFFFFFFFF AND MUL OR SWAP1 SSTORE POP DUP4 PUSH20 0xFFFFFFFFFFFFFFFFFFFFFFFFFFFFFFFFFFFFFFFF AND DUP9 PUSH20 0xFFFFFFFFFFFFFFFFFFFFFFFFFFFFFFFFFFFFFFFF AND PUSH32 0x8C5BE1E5EBEC7D5BD14F71427D1E84F3DD0314C0F7B2291E5B200AC8C7C3B925 DUP4 PUSH1 0x40 MLOAD PUSH2 0x8ED SWAP2 SWAP1 PUSH2 0x2B66 JUMP JUMPDEST PUSH1 0x40 MLOAD DUP1 SWAP2 SUB SWAP1 LOG3 POP JUMPDEST PUSH2 0x902 DUP8 DUP8 DUP4 PUSH2 0x1892 JUMP JUMPDEST PUSH1 0x1 SWAP4 POP POP POP POP SWAP4 SWAP3 POP POP POP JUMP JUMPDEST PUSH1 0x12 DUP2 JUMP JUMPDEST PUSH2 0x91D PUSH2 0x1C71 JUMP JUMPDEST PUSH20 0xFFFFFFFFFFFFFFFFFFFFFFFFFFFFFFFFFFFFFFFF AND PUSH2 0x93B PUSH2 0x1141 JUMP JUMPDEST PUSH20 0xFFFFFFFFFFFFFFFFFFFFFFFFFFFFFFFFFFFFFFFF AND EQ PUSH2 0x991 JUMPI PUSH1 0x40 MLOAD PUSH32 0x8C379A000000000000000000000000000000000000000000000000000000000 DUP2 MSTORE PUSH1 0x4 ADD PUSH2 0x988 SWAP1 PUSH2 0x2BCD JUMP JUMPDEST PUSH1 0x40 MLOAD DUP1 SWAP2 SUB SWAP1 REVERT JUMPDEST PUSH1 0x0 PUSH20 0xFFFFFFFFFFFFFFFFFFFFFFFFFFFFFFFFFFFFFFFF AND DUP3 PUSH20 0xFFFFFFFFFFFFFFFFFFFFFFFFFFFFFFFFFFFFFFFF AND SUB PUSH2 0xA00 JUMPI PUSH1 0x40 MLOAD PUSH32 0x8C379A000000000000000000000000000000000000000000000000000000000 DUP2 MSTORE PUSH1 0x4 ADD PUSH2 0x9F7 SWAP1 PUSH2 0x2C39 JUMP JUMPDEST PUSH1 0x40 MLOAD DUP1 SWAP2 SUB SWAP1 REVERT JUMPDEST PUSH1 0x0 PUSH2 0xA24 DUP3 PUSH1 0x40 MLOAD DUP1 PUSH1 0x60 ADD PUSH1 0x40 MSTORE DUP1 PUSH1 0x27 DUP2 MSTORE PUSH1 0x20 ADD PUSH2 0x3499 PUSH1 0x27 SWAP2 CODECOPY PUSH2 0x17BA JUMP JUMPDEST SWAP1 POP DUP1 PUSH1 0x0 PUSH1 0x14 DUP3 DUP3 DUP3 SWAP1 SLOAD SWAP1 PUSH2 0x100 EXP SWAP1 DIV PUSH12 0xFFFFFFFFFFFFFFFFFFFFFFFF AND PUSH2 0xA4F SWAP2 SWAP1 PUSH2 0x2C88 JUMP JUMPDEST SWAP3 POP PUSH2 0x100 EXP DUP2 SLOAD DUP2 PUSH12 0xFFFFFFFFFFFFFFFFFFFFFFFF MUL NOT AND SWAP1 DUP4 PUSH12 0xFFFFFFFFFFFFFFFFFFFFFFFF AND MUL OR SWAP1 SSTORE POP DUP1 PUSH1 0x2 PUSH1 0x0 DUP6 PUSH20 0xFFFFFFFFFFFFFFFFFFFFFFFFFFFFFFFFFFFFFFFF AND PUSH20 0xFFFFFFFFFFFFFFFFFFFFFFFFFFFFFFFFFFFFFFFF AND DUP2 MSTORE PUSH1 0x20 ADD SWAP1 DUP2 MSTORE PUSH1 0x20 ADD PUSH1 0x0 KECCAK256 PUSH1 0x0 DUP3 DUP3 DUP3 SWAP1 SLOAD SWAP1 PUSH2 0x100 EXP SWAP1 DIV PUSH12 0xFFFFFFFFFFFFFFFFFFFFFFFF AND PUSH2 0xAE3 SWAP2 SWAP1 PUSH2 0x2C88 JUMP JUMPDEST SWAP3 POP PUSH2 0x100 EXP DUP2 SLOAD DUP2 PUSH12 0xFFFFFFFFFFFFFFFFFFFFFFFF MUL NOT AND SWAP1 DUP4 PUSH12 0xFFFFFFFFFFFFFFFFFFFFFFFF AND MUL OR SWAP1 SSTORE POP DUP3 PUSH20 0xFFFFFFFFFFFFFFFFFFFFFFFFFFFFFFFFFFFFFFFF AND PUSH1 0x0 PUSH20 0xFFFFFFFFFFFFFFFFFFFFFFFFFFFFFFFFFFFFFFFF AND PUSH32 0xDDF252AD1BE2C89B69C2B068FC378DAA952BA7F163C4A11628F55A4DF523B3EF PUSH1 0x0 PUSH1 0x14 SWAP1 SLOAD SWAP1 PUSH2 0x100 EXP SWAP1 DIV PUSH12 0xFFFFFFFFFFFFFFFFFFFFFFFF AND PUSH1 0x40 MLOAD PUSH2 0xB89 SWAP2 SWAP1 PUSH2 0x2B66 JUMP JUMPDEST PUSH1 0x40 MLOAD DUP1 SWAP2 SUB SWAP1 LOG3 POP POP POP JUMP JUMPDEST PUSH1 0x3 PUSH1 0x20 MSTORE DUP1 PUSH1 0x0 MSTORE PUSH1 0x40 PUSH1 0x0 KECCAK256 PUSH1 0x0 SWAP2 POP SLOAD SWAP1 PUSH2 0x100 EXP SWAP1 DIV PUSH20 0xFFFFFFFFFFFFFFFFFFFFFFFFFFFFFFFFFFFFFFFF AND DUP2 JUMP JUMPDEST PUSH2 0xBD3 CALLER DUP3 PUSH2 0x1C79 JUMP JUMPDEST POP JUMP JUMPDEST PUSH1 0x5 PUSH1 0x20 MSTORE DUP1 PUSH1 0x0 MSTORE PUSH1 0x40 PUSH1 0x0 KECCAK256 PUSH1 0x0 SWAP2 POP SLOAD SWAP1 PUSH2 0x100 EXP SWAP1 DIV PUSH4 0xFFFFFFFF AND DUP2 JUMP JUMPDEST PUSH1 0x0 PUSH1 0x2 PUSH1 0x0 DUP4 PUSH20 0xFFFFFFFFFFFFFFFFFFFFFFFFFFFFFFFFFFFFFFFF AND PUSH20 0xFFFFFFFFFFFFFFFFFFFFFFFFFFFFFFFFFFFFFFFF AND DUP2 MSTORE PUSH1 0x20 ADD SWAP1 DUP2 MSTORE PUSH1 0x20 ADD PUSH1 0x0 KECCAK256 PUSH1 0x0 SWAP1 SLOAD SWAP1 PUSH2 0x100 EXP SWAP1 DIV PUSH12 0xFFFFFFFFFFFFFFFFFFFFFFFF AND PUSH12 0xFFFFFFFFFFFFFFFFFFFFFFFF AND SWAP1 POP SWAP2 SWAP1 POP JUMP JUMPDEST PUSH2 0xC70 PUSH2 0x1C71 JUMP JUMPDEST PUSH20 0xFFFFFFFFFFFFFFFFFFFFFFFFFFFFFFFFFFFFFFFF AND PUSH2 0xC8E PUSH2 0x1141 JUMP JUMPDEST PUSH20 0xFFFFFFFFFFFFFFFFFFFFFFFFFFFFFFFFFFFFFFFF AND EQ PUSH2 0xCE4 JUMPI PUSH1 0x40 MLOAD PUSH32 0x8C379A000000000000000000000000000000000000000000000000000000000 DUP2 MSTORE PUSH1 0x4 ADD PUSH2 0xCDB SWAP1 PUSH2 0x2BCD JUMP JUMPDEST PUSH1 0x40 MLOAD DUP1 SWAP2 SUB SWAP1 REVERT JUMPDEST PUSH2 0xCEE PUSH1 0x0 PUSH2 0x1E39 JUMP JUMPDEST JUMP JUMPDEST PUSH1 0x0 NUMBER DUP3 LT PUSH2 0xD34 JUMPI PUSH1 0x40 MLOAD PUSH32 0x8C379A000000000000000000000000000000000000000000000000000000000 DUP2 MSTORE PUSH1 0x4 ADD PUSH2 0xD2B SWAP1 PUSH2 0x2D3A JUMP JUMPDEST PUSH1 0x40 MLOAD DUP1 SWAP2 SUB SWAP1 REVERT JUMPDEST PUSH1 0x0 PUSH1 0x5 PUSH1 0x0 DUP6 PUSH20 0xFFFFFFFFFFFFFFFFFFFFFFFFFFFFFFFFFFFFFFFF AND PUSH20 0xFFFFFFFFFFFFFFFFFFFFFFFFFFFFFFFFFFFFFFFF AND DUP2 MSTORE PUSH1 0x20 ADD SWAP1 DUP2 MSTORE PUSH1 0x20 ADD PUSH1 0x0 KECCAK256 PUSH1 0x0 SWAP1 SLOAD SWAP1 PUSH2 0x100 EXP SWAP1 DIV PUSH4 0xFFFFFFFF AND SWAP1 POP PUSH1 0x0 DUP2 PUSH4 0xFFFFFFFF AND SUB PUSH2 0xDA0 JUMPI PUSH1 0x0 SWAP2 POP POP PUSH2 0x1123 JUMP JUMPDEST DUP3 PUSH1 0x4 PUSH1 0x0 DUP7 PUSH20 0xFFFFFFFFFFFFFFFFFFFFFFFFFFFFFFFFFFFFFFFF AND PUSH20 0xFFFFFFFFFFFFFFFFFFFFFFFFFFFFFFFFFFFFFFFF AND DUP2 MSTORE PUSH1 0x20 ADD SWAP1 DUP2 MSTORE PUSH1 0x20 ADD PUSH1 0x0 KECCAK256 PUSH1 0x0 PUSH1 0x1 DUP5 PUSH2 0xDEF SWAP2 SWAP1 PUSH2 0x2D5A JUMP JUMPDEST PUSH4 0xFFFFFFFF AND PUSH4 0xFFFFFFFF AND DUP2 MSTORE PUSH1 0x20 ADD SWAP1 DUP2 MSTORE PUSH1 0x20 ADD PUSH1 0x0 KECCAK256 PUSH1 0x0 ADD PUSH1 0x0 SWAP1 SLOAD SWAP1 PUSH2 0x100 EXP SWAP1 DIV PUSH4 0xFFFFFFFF AND PUSH4 0xFFFFFFFF AND GT PUSH2 0xEB4 JUMPI PUSH1 0x4 PUSH1 0x0 DUP6 PUSH20 0xFFFFFFFFFFFFFFFFFFFFFFFFFFFFFFFFFFFFFFFF AND PUSH20 0xFFFFFFFFFFFFFFFFFFFFFFFFFFFFFFFFFFFFFFFF AND DUP2 MSTORE PUSH1 0x20 ADD SWAP1 DUP2 MSTORE PUSH1 0x20 ADD PUSH1 0x0 KECCAK256 PUSH1 0x0 PUSH1 0x1 DUP4 PUSH2 0xE76 SWAP2 SWAP1 PUSH2 0x2D5A JUMP JUMPDEST PUSH4 0xFFFFFFFF AND PUSH4 0xFFFFFFFF AND DUP2 MSTORE PUSH1 0x20 ADD SWAP1 DUP2 MSTORE PUSH1 0x20 ADD PUSH1 0x0 KECCAK256 PUSH1 0x0 ADD PUSH1 0x4 SWAP1 SLOAD SWAP1 PUSH2 0x100 EXP SWAP1 DIV PUSH12 0xFFFFFFFFFFFFFFFFFFFFFFFF AND SWAP2 POP POP PUSH2 0x1123 JUMP JUMPDEST DUP3 PUSH1 0x4 PUSH1 0x0 DUP7 PUSH20 0xFFFFFFFFFFFFFFFFFFFFFFFFFFFFFFFFFFFFFFFF AND PUSH20 0xFFFFFFFFFFFFFFFFFFFFFFFFFFFFFFFFFFFFFFFF AND DUP2 MSTORE PUSH1 0x20 ADD SWAP1 DUP2 MSTORE PUSH1 0x20 ADD PUSH1 0x0 KECCAK256 PUSH1 0x0 DUP1 PUSH4 0xFFFFFFFF AND DUP2 MSTORE PUSH1 0x20 ADD SWAP1 DUP2 MSTORE PUSH1 0x20 ADD PUSH1 0x0 KECCAK256 PUSH1 0x0 ADD PUSH1 0x0 SWAP1 SLOAD SWAP1 PUSH2 0x100 EXP SWAP1 DIV PUSH4 0xFFFFFFFF AND PUSH4 0xFFFFFFFF AND GT ISZERO PUSH2 0xF35 JUMPI PUSH1 0x0 SWAP2 POP POP PUSH2 0x1123 JUMP JUMPDEST PUSH1 0x0 DUP1 PUSH1 0x1 DUP4 PUSH2 0xF45 SWAP2 SWAP1 PUSH2 0x2D5A JUMP JUMPDEST SWAP1 POP JUMPDEST DUP2 PUSH4 0xFFFFFFFF AND DUP2 PUSH4 0xFFFFFFFF AND GT ISZERO PUSH2 0x10A5 JUMPI PUSH1 0x0 PUSH1 0x2 DUP4 DUP4 PUSH2 0xF6C SWAP2 SWAP1 PUSH2 0x2D5A JUMP JUMPDEST PUSH2 0xF76 SWAP2 SWAP1 PUSH2 0x2DC1 JUMP JUMPDEST DUP3 PUSH2 0xF81 SWAP2 SWAP1 PUSH2 0x2D5A JUMP JUMPDEST SWAP1 POP PUSH1 0x0 PUSH1 0x4 PUSH1 0x0 DUP10 PUSH20 0xFFFFFFFFFFFFFFFFFFFFFFFFFFFFFFFFFFFFFFFF AND PUSH20 0xFFFFFFFFFFFFFFFFFFFFFFFFFFFFFFFFFFFFFFFF AND DUP2 MSTORE PUSH1 0x20 ADD SWAP1 DUP2 MSTORE PUSH1 0x20 ADD PUSH1 0x0 KECCAK256 PUSH1 0x0 DUP4 PUSH4 0xFFFFFFFF AND PUSH4 0xFFFFFFFF AND DUP2 MSTORE PUSH1 0x20 ADD SWAP1 DUP2 MSTORE PUSH1 0x20 ADD PUSH1 0x0 KECCAK256 PUSH1 0x40 MLOAD DUP1 PUSH1 0x40 ADD PUSH1 0x40 MSTORE SWAP1 DUP2 PUSH1 0x0 DUP3 ADD PUSH1 0x0 SWAP1 SLOAD SWAP1 PUSH2 0x100 EXP SWAP1 DIV PUSH4 0xFFFFFFFF AND PUSH4 0xFFFFFFFF AND PUSH4 0xFFFFFFFF AND DUP2 MSTORE PUSH1 0x20 ADD PUSH1 0x0 DUP3 ADD PUSH1 0x4 SWAP1 SLOAD SWAP1 PUSH2 0x100 EXP SWAP1 DIV PUSH12 0xFFFFFFFFFFFFFFFFFFFFFFFF AND PUSH12 0xFFFFFFFFFFFFFFFFFFFFFFFF AND PUSH12 0xFFFFFFFFFFFFFFFFFFFFFFFF AND DUP2 MSTORE POP POP SWAP1 POP DUP7 DUP2 PUSH1 0x0 ADD MLOAD PUSH4 0xFFFFFFFF AND SUB PUSH2 0x1074 JUMPI DUP1 PUSH1 0x20 ADD MLOAD SWAP6 POP POP POP POP POP POP PUSH2 0x1123 JUMP JUMPDEST DUP7 DUP2 PUSH1 0x0 ADD MLOAD PUSH4 0xFFFFFFFF AND LT ISZERO PUSH2 0x108E JUMPI DUP2 SWAP4 POP PUSH2 0x109E JUMP JUMPDEST PUSH1 0x1 DUP3 PUSH2 0x109B SWAP2 SWAP1 PUSH2 0x2D5A JUMP JUMPDEST SWAP3 POP JUMPDEST POP POP PUSH2 0xF48 JUMP JUMPDEST PUSH1 0x4 PUSH1 0x0 DUP8 PUSH20 0xFFFFFFFFFFFFFFFFFFFFFFFFFFFFFFFFFFFFFFFF AND PUSH20 0xFFFFFFFFFFFFFFFFFFFFFFFFFFFFFFFFFFFFFFFF AND DUP2 MSTORE PUSH1 0x20 ADD SWAP1 DUP2 MSTORE PUSH1 0x20 ADD PUSH1 0x0 KECCAK256 PUSH1 0x0 DUP4 PUSH4 0xFFFFFFFF AND PUSH4 0xFFFFFFFF AND DUP2 MSTORE PUSH1 0x20 ADD SWAP1 DUP2 MSTORE PUSH1 0x20 ADD PUSH1 0x0 KECCAK256 PUSH1 0x0 ADD PUSH1 0x4 SWAP1 SLOAD SWAP1 PUSH2 0x100 EXP SWAP1 DIV PUSH12 0xFFFFFFFFFFFFFFFFFFFFFFFF AND SWAP4 POP POP POP POP JUMPDEST SWAP3 SWAP2 POP POP JUMP JUMPDEST PUSH1 0x6 PUSH1 0x20 MSTORE DUP1 PUSH1 0x0 MSTORE PUSH1 0x40 PUSH1 0x0 KECCAK256 PUSH1 0x0 SWAP2 POP SWAP1 POP SLOAD DUP2 JUMP JUMPDEST PUSH1 0x0 DUP1 PUSH1 0x0 SWAP1 SLOAD SWAP1 PUSH2 0x100 EXP SWAP1 DIV PUSH20 0xFFFFFFFFFFFFFFFFFFFFFFFFFFFFFFFFFFFFFFFF AND SWAP1 POP SWAP1 JUMP JUMPDEST PUSH1 0x40 MLOAD DUP1 PUSH1 0x40 ADD PUSH1 0x40 MSTORE DUP1 PUSH1 0x5 DUP2 MSTORE PUSH1 0x20 ADD PUSH32 0x534153484F000000000000000000000000000000000000000000000000000000 DUP2 MSTORE POP DUP2 JUMP JUMPDEST PUSH1 0x0 DUP1 PUSH2 0x11C8 DUP4 PUSH1 0x40 MLOAD DUP1 PUSH1 0x60 ADD PUSH1 0x40 MSTORE DUP1 PUSH1 0x27 DUP2 MSTORE PUSH1 0x20 ADD PUSH2 0x3499 PUSH1 0x27 SWAP2 CODECOPY PUSH2 0x17BA JUMP JUMPDEST SWAP1 POP PUSH2 0x11D5 CALLER DUP6 DUP4 PUSH2 0x1892 JUMP JUMPDEST PUSH1 0x1 SWAP2 POP POP SWAP3 SWAP2 POP POP JUMP JUMPDEST PUSH1 0x0 DUP1 PUSH1 0x5 PUSH1 0x0 DUP5 PUSH20 0xFFFFFFFFFFFFFFFFFFFFFFFFFFFFFFFFFFFFFFFF AND PUSH20 0xFFFFFFFFFFFFFFFFFFFFFFFFFFFFFFFFFFFFFFFF AND DUP2 MSTORE PUSH1 0x20 ADD SWAP1 DUP2 MSTORE PUSH1 0x20 ADD PUSH1 0x0 KECCAK256 PUSH1 0x0 SWAP1 SLOAD SWAP1 PUSH2 0x100 EXP SWAP1 DIV PUSH4 0xFFFFFFFF AND SWAP1 POP PUSH1 0x0 DUP2 PUSH4 0xFFFFFFFF AND GT PUSH2 0x124A JUMPI PUSH1 0x0 PUSH2 0x12CF JUMP JUMPDEST PUSH1 0x4 PUSH1 0x0 DUP5 PUSH20 0xFFFFFFFFFFFFFFFFFFFFFFFFFFFFFFFFFFFFFFFF AND PUSH20 0xFFFFFFFFFFFFFFFFFFFFFFFFFFFFFFFFFFFFFFFF AND DUP2 MSTORE PUSH1 0x20 ADD SWAP1 DUP2 MSTORE PUSH1 0x20 ADD PUSH1 0x0 KECCAK256 PUSH1 0x0 PUSH1 0x1 DUP4 PUSH2 0x1298 SWAP2 SWAP1 PUSH2 0x2D5A JUMP JUMPDEST PUSH4 0xFFFFFFFF AND PUSH4 0xFFFFFFFF AND DUP2 MSTORE PUSH1 0x20 ADD SWAP1 DUP2 MSTORE PUSH1 0x20 ADD PUSH1 0x0 KECCAK256 PUSH1 0x0 ADD PUSH1 0x4 SWAP1 SLOAD SWAP1 PUSH2 0x100 EXP SWAP1 DIV PUSH12 0xFFFFFFFFFFFFFFFFFFFFFFFF AND JUMPDEST SWAP2 POP POP SWAP2 SWAP1 POP JUMP JUMPDEST PUSH1 0x0 PUSH32 0x8CAD95687BA82C2CE50E74F7B754645E5117C3A5BEC8151C0726D5857980A866 PUSH1 0x40 MLOAD DUP1 PUSH1 0x40 ADD PUSH1 0x40 MSTORE DUP1 PUSH1 0x5 DUP2 MSTORE PUSH1 0x20 ADD PUSH32 0x536173686F000000000000000000000000000000000000000000000000000000 DUP2 MSTORE POP DUP1 MLOAD SWAP1 PUSH1 0x20 ADD KECCAK256 PUSH2 0x133F PUSH2 0x1EFD JUMP JUMPDEST ADDRESS PUSH1 0x40 MLOAD PUSH1 0x20 ADD PUSH2 0x1353 SWAP5 SWAP4 SWAP3 SWAP2 SWAP1 PUSH2 0x2DF2 JUMP JUMPDEST PUSH1 0x40 MLOAD PUSH1 0x20 DUP2 DUP4 SUB SUB DUP2 MSTORE SWAP1 PUSH1 0x40 MSTORE DUP1 MLOAD SWAP1 PUSH1 0x20 ADD KECCAK256 SWAP1 POP PUSH1 0x0 PUSH32 0xE48329057BFD03D55E49B547132E39CFFD9C1820AD7B9D4C5307691425D15ADF DUP9 DUP9 DUP9 PUSH1 0x40 MLOAD PUSH1 0x20 ADD PUSH2 0x13A4 SWAP5 SWAP4 SWAP3 SWAP2 SWAP1 PUSH2 0x2E37 JUMP JUMPDEST PUSH1 0x40 MLOAD PUSH1 0x20 DUP2 DUP4 SUB SUB DUP2 MSTORE SWAP1 PUSH1 0x40 MSTORE DUP1 MLOAD SWAP1 PUSH1 0x20 ADD KECCAK256 SWAP1 POP PUSH1 0x0 DUP3 DUP3 PUSH1 0x40 MLOAD PUSH1 0x20 ADD PUSH2 0x13D1 SWAP3 SWAP2 SWAP1 PUSH2 0x2EF4 JUMP JUMPDEST PUSH1 0x40 MLOAD PUSH1 0x20 DUP2 DUP4 SUB SUB DUP2 MSTORE SWAP1 PUSH1 0x40 MSTORE DUP1 MLOAD SWAP1 PUSH1 0x20 ADD KECCAK256 SWAP1 POP PUSH1 0x0 PUSH1 0x1 DUP3 DUP9 DUP9 DUP9 PUSH1 0x40 MLOAD PUSH1 0x0 DUP2 MSTORE PUSH1 0x20 ADD PUSH1 0x40 MSTORE PUSH1 0x40 MLOAD PUSH2 0x140E SWAP5 SWAP4 SWAP3 SWAP2 SWAP1 PUSH2 0x2F2B JUMP JUMPDEST PUSH1 0x20 PUSH1 0x40 MLOAD PUSH1 0x20 DUP2 SUB SWAP1 DUP1 DUP5 SUB SWAP1 DUP6 GAS STATICCALL ISZERO DUP1 ISZERO PUSH2 0x1430 JUMPI RETURNDATASIZE PUSH1 0x0 DUP1 RETURNDATACOPY RETURNDATASIZE PUSH1 0x0 REVERT JUMPDEST POP POP POP PUSH1 0x20 PUSH1 0x40 MLOAD SUB MLOAD SWAP1 POP PUSH1 0x0 PUSH20 0xFFFFFFFFFFFFFFFFFFFFFFFFFFFFFFFFFFFFFFFF AND DUP2 PUSH20 0xFFFFFFFFFFFFFFFFFFFFFFFFFFFFFFFFFFFFFFFF AND SUB PUSH2 0x14AB JUMPI PUSH1 0x40 MLOAD PUSH32 0x8C379A000000000000000000000000000000000000000000000000000000000 DUP2 MSTORE PUSH1 0x4 ADD PUSH2 0x14A2 SWAP1 PUSH2 0x2FE2 JUMP JUMPDEST PUSH1 0x40 MLOAD DUP1 SWAP2 SUB SWAP1 REVERT JUMPDEST PUSH1 0x6 PUSH1 0x0 DUP3 PUSH20 0xFFFFFFFFFFFFFFFFFFFFFFFFFFFFFFFFFFFFFFFF AND PUSH20 0xFFFFFFFFFFFFFFFFFFFFFFFFFFFFFFFFFFFFFFFF AND DUP2 MSTORE PUSH1 0x20 ADD SWAP1 DUP2 MSTORE PUSH1 0x20 ADD PUSH1 0x0 KECCAK256 PUSH1 0x0 DUP2 SLOAD DUP1 SWAP3 SWAP2 SWAP1 PUSH2 0x14FB SWAP1 PUSH2 0x3002 JUMP JUMPDEST SWAP2 SWAP1 POP SSTORE DUP10 EQ PUSH2 0x1540 JUMPI PUSH1 0x40 MLOAD PUSH32 0x8C379A000000000000000000000000000000000000000000000000000000000 DUP2 MSTORE PUSH1 0x4 ADD PUSH2 0x1537 SWAP1 PUSH2 0x30BC JUMP JUMPDEST PUSH1 0x40 MLOAD DUP1 SWAP2 SUB SWAP1 REVERT JUMPDEST DUP8 TIMESTAMP GT ISZERO PUSH2 0x1583 JUMPI PUSH1 0x40 MLOAD PUSH32 0x8C379A000000000000000000000000000000000000000000000000000000000 DUP2 MSTORE PUSH1 0x4 ADD PUSH2 0x157A SWAP1 PUSH2 0x314E JUMP JUMPDEST PUSH1 0x40 MLOAD DUP1 SWAP2 SUB SWAP1 REVERT JUMPDEST PUSH2 0x158D DUP2 DUP12 PUSH2 0x1C79 JUMP JUMPDEST POP POP POP POP POP POP POP POP POP POP JUMP JUMPDEST PUSH1 0x0 PUSH1 0x1 PUSH1 0x0 DUP5 PUSH20 0xFFFFFFFFFFFFFFFFFFFFFFFFFFFFFFFFFFFFFFFF AND PUSH20 0xFFFFFFFFFFFFFFFFFFFFFFFFFFFFFFFFFFFFFFFF AND DUP2 MSTORE PUSH1 0x20 ADD SWAP1 DUP2 MSTORE PUSH1 0x20 ADD PUSH1 0x0 KECCAK256 PUSH1 0x0 DUP4 PUSH20 0xFFFFFFFFFFFFFFFFFFFFFFFFFFFFFFFFFFFFFFFF AND PUSH20 0xFFFFFFFFFFFFFFFFFFFFFFFFFFFFFFFFFFFFFFFF AND DUP2 MSTORE PUSH1 0x20 ADD SWAP1 DUP2 MSTORE PUSH1 0x20 ADD PUSH1 0x0 KECCAK256 PUSH1 0x0 SWAP1 SLOAD SWAP1 PUSH2 0x100 EXP SWAP1 DIV PUSH12 0xFFFFFFFFFFFFFFFFFFFFFFFF AND PUSH12 0xFFFFFFFFFFFFFFFFFFFFFFFF AND SWAP1 POP SWAP3 SWAP2 POP POP JUMP JUMPDEST PUSH32 0xE48329057BFD03D55E49B547132E39CFFD9C1820AD7B9D4C5307691425D15ADF DUP2 JUMP JUMPDEST PUSH1 0x4 PUSH1 0x20 MSTORE DUP2 PUSH1 0x0 MSTORE PUSH1 0x40 PUSH1 0x0 KECCAK256 PUSH1 0x20 MSTORE DUP1 PUSH1 0x0 MSTORE PUSH1 0x40 PUSH1 0x0 KECCAK256 PUSH1 0x0 SWAP2 POP SWAP2 POP POP DUP1 PUSH1 0x0 ADD PUSH1 0x0 SWAP1 SLOAD SWAP1 PUSH2 0x100 EXP SWAP1 DIV PUSH4 0xFFFFFFFF AND SWAP1 DUP1 PUSH1 0x0 ADD PUSH1 0x4 SWAP1 SLOAD SWAP1 PUSH2 0x100 EXP SWAP1 DIV PUSH12 0xFFFFFFFFFFFFFFFFFFFFFFFF AND SWAP1 POP DUP3 JUMP JUMPDEST PUSH2 0x16CB PUSH2 0x1C71 JUMP JUMPDEST PUSH20 0xFFFFFFFFFFFFFFFFFFFFFFFFFFFFFFFFFFFFFFFF AND PUSH2 0x16E9 PUSH2 0x1141 JUMP JUMPDEST PUSH20 0xFFFFFFFFFFFFFFFFFFFFFFFFFFFFFFFFFFFFFFFF AND EQ PUSH2 0x173F JUMPI PUSH1 0x40 MLOAD PUSH32 0x8C379A000000000000000000000000000000000000000000000000000000000 DUP2 MSTORE PUSH1 0x4 ADD PUSH2 0x1736 SWAP1 PUSH2 0x2BCD JUMP JUMPDEST PUSH1 0x40 MLOAD DUP1 SWAP2 SUB SWAP1 REVERT JUMPDEST PUSH1 0x0 PUSH20 0xFFFFFFFFFFFFFFFFFFFFFFFFFFFFFFFFFFFFFFFF AND DUP2 PUSH20 0xFFFFFFFFFFFFFFFFFFFFFFFFFFFFFFFFFFFFFFFF AND SUB PUSH2 0x17AE JUMPI PUSH1 0x40 MLOAD PUSH32 0x8C379A000000000000000000000000000000000000000000000000000000000 DUP2 MSTORE PUSH1 0x4 ADD PUSH2 0x17A5 SWAP1 PUSH2 0x31E0 JUMP JUMPDEST PUSH1 0x40 MLOAD DUP1 SWAP2 SUB SWAP1 REVERT JUMPDEST PUSH2 0x17B7 DUP2 PUSH2 0x1E39 JUMP JUMPDEST POP JUMP JUMPDEST PUSH1 0x0 PUSH13 0x1000000000000000000000000 DUP4 LT DUP3 SWAP1 PUSH2 0x180E JUMPI PUSH1 0x40 MLOAD PUSH32 0x8C379A000000000000000000000000000000000000000000000000000000000 DUP2 MSTORE PUSH1 0x4 ADD PUSH2 0x1805 SWAP2 SWAP1 PUSH2 0x2685 JUMP JUMPDEST PUSH1 0x40 MLOAD DUP1 SWAP2 SUB SWAP1 REVERT JUMPDEST POP DUP3 SWAP1 POP SWAP3 SWAP2 POP POP JUMP JUMPDEST PUSH1 0x0 DUP4 PUSH12 0xFFFFFFFFFFFFFFFFFFFFFFFF AND DUP4 PUSH12 0xFFFFFFFFFFFFFFFFFFFFFFFF AND GT ISZERO DUP3 SWAP1 PUSH2 0x187C JUMPI PUSH1 0x40 MLOAD PUSH32 0x8C379A000000000000000000000000000000000000000000000000000000000 DUP2 MSTORE PUSH1 0x4 ADD PUSH2 0x1873 SWAP2 SWAP1 PUSH2 0x2685 JUMP JUMPDEST PUSH1 0x40 MLOAD DUP1 SWAP2 SUB SWAP1 REVERT JUMPDEST POP DUP3 DUP5 PUSH2 0x1889 SWAP2 SWAP1 PUSH2 0x3200 JUMP JUMPDEST SWAP1 POP SWAP4 SWAP3 POP POP POP JUMP JUMPDEST PUSH1 0x0 PUSH20 0xFFFFFFFFFFFFFFFFFFFFFFFFFFFFFFFFFFFFFFFF AND DUP4 PUSH20 0xFFFFFFFFFFFFFFFFFFFFFFFFFFFFFFFFFFFFFFFF AND SUB PUSH2 0x1901 JUMPI PUSH1 0x40 MLOAD PUSH32 0x8C379A000000000000000000000000000000000000000000000000000000000 DUP2 MSTORE PUSH1 0x4 ADD PUSH2 0x18F8 SWAP1 PUSH2 0x32B2 JUMP JUMPDEST PUSH1 0x40 MLOAD DUP1 SWAP2 SUB SWAP1 REVERT JUMPDEST PUSH1 0x0 PUSH20 0xFFFFFFFFFFFFFFFFFFFFFFFFFFFFFFFFFFFFFFFF AND DUP3 PUSH20 0xFFFFFFFFFFFFFFFFFFFFFFFFFFFFFFFFFFFFFFFF AND SUB PUSH2 0x1970 JUMPI PUSH1 0x40 MLOAD PUSH32 0x8C379A000000000000000000000000000000000000000000000000000000000 DUP2 MSTORE PUSH1 0x4 ADD PUSH2 0x1967 SWAP1 PUSH2 0x3344 JUMP JUMPDEST PUSH1 0x40 MLOAD DUP1 SWAP2 SUB SWAP1 REVERT JUMPDEST PUSH2 0x19EA PUSH1 0x2 PUSH1 0x0 DUP6 PUSH20 0xFFFFFFFFFFFFFFFFFFFFFFFFFFFFFFFFFFFFFFFF AND PUSH20 0xFFFFFFFFFFFFFFFFFFFFFFFFFFFFFFFFFFFFFFFF AND DUP2 MSTORE PUSH1 0x20 ADD SWAP1 DUP2 MSTORE PUSH1 0x20 ADD PUSH1 0x0 KECCAK256 PUSH1 0x0 SWAP1 SLOAD SWAP1 PUSH2 0x100 EXP SWAP1 DIV PUSH12 0xFFFFFFFFFFFFFFFFFFFFFFFF AND DUP3 PUSH1 0x40 MLOAD DUP1 PUSH1 0x60 ADD PUSH1 0x40 MSTORE DUP1 PUSH1 0x37 DUP2 MSTORE PUSH1 0x20 ADD PUSH2 0x3404 PUSH1 0x37 SWAP2 CODECOPY PUSH2 0x1818 JUMP JUMPDEST PUSH1 0x2 PUSH1 0x0 DUP6 PUSH20 0xFFFFFFFFFFFFFFFFFFFFFFFFFFFFFFFFFFFFFFFF AND PUSH20 0xFFFFFFFFFFFFFFFFFFFFFFFFFFFFFFFFFFFFFFFF AND DUP2 MSTORE PUSH1 0x20 ADD SWAP1 DUP2 MSTORE PUSH1 0x20 ADD PUSH1 0x0 KECCAK256 PUSH1 0x0 PUSH2 0x100 EXP DUP2 SLOAD DUP2 PUSH12 0xFFFFFFFFFFFFFFFFFFFFFFFF MUL NOT AND SWAP1 DUP4 PUSH12 0xFFFFFFFFFFFFFFFFFFFFFFFF AND MUL OR SWAP1 SSTORE POP PUSH2 0x1AD1 PUSH1 0x2 PUSH1 0x0 DUP5 PUSH20 0xFFFFFFFFFFFFFFFFFFFFFFFFFFFFFFFFFFFFFFFF AND PUSH20 0xFFFFFFFFFFFFFFFFFFFFFFFFFFFFFFFFFFFFFFFF AND DUP2 MSTORE PUSH1 0x20 ADD SWAP1 DUP2 MSTORE PUSH1 0x20 ADD PUSH1 0x0 KECCAK256 PUSH1 0x0 SWAP1 SLOAD SWAP1 PUSH2 0x100 EXP SWAP1 DIV PUSH12 0xFFFFFFFFFFFFFFFFFFFFFFFF AND DUP3 PUSH1 0x40 MLOAD DUP1 PUSH1 0x60 ADD PUSH1 0x40 MSTORE DUP1 PUSH1 0x31 DUP2 MSTORE PUSH1 0x20 ADD PUSH2 0x34C0 PUSH1 0x31 SWAP2 CODECOPY PUSH2 0x1F05 JUMP JUMPDEST PUSH1 0x2 PUSH1 0x0 DUP5 PUSH20 0xFFFFFFFFFFFFFFFFFFFFFFFFFFFFFFFFFFFFFFFF AND PUSH20 0xFFFFFFFFFFFFFFFFFFFFFFFFFFFFFFFFFFFFFFFF AND DUP2 MSTORE PUSH1 0x20 ADD SWAP1 DUP2 MSTORE PUSH1 0x20 ADD PUSH1 0x0 KECCAK256 PUSH1 0x0 PUSH2 0x100 EXP DUP2 SLOAD DUP2 PUSH12 0xFFFFFFFFFFFFFFFFFFFFFFFF MUL NOT AND SWAP1 DUP4 PUSH12 0xFFFFFFFFFFFFFFFFFFFFFFFF AND MUL OR SWAP1 SSTORE POP DUP2 PUSH20 0xFFFFFFFFFFFFFFFFFFFFFFFFFFFFFFFFFFFFFFFF AND DUP4 PUSH20 0xFFFFFFFFFFFFFFFFFFFFFFFFFFFFFFFFFFFFFFFF AND PUSH32 0xDDF252AD1BE2C89B69C2B068FC378DAA952BA7F163C4A11628F55A4DF523B3EF DUP4 PUSH1 0x40 MLOAD PUSH2 0x1B9B SWAP2 SWAP1 PUSH2 0x2B66 JUMP JUMPDEST PUSH1 0x40 MLOAD DUP1 SWAP2 SUB SWAP1 LOG3 PUSH2 0x1C6C PUSH1 0x3 PUSH1 0x0 DUP6 PUSH20 0xFFFFFFFFFFFFFFFFFFFFFFFFFFFFFFFFFFFFFFFF AND PUSH20 0xFFFFFFFFFFFFFFFFFFFFFFFFFFFFFFFFFFFFFFFF AND DUP2 MSTORE PUSH1 0x20 ADD SWAP1 DUP2 MSTORE PUSH1 0x20 ADD PUSH1 0x0 KECCAK256 PUSH1 0x0 SWAP1 SLOAD SWAP1 PUSH2 0x100 EXP SWAP1 DIV PUSH20 0xFFFFFFFFFFFFFFFFFFFFFFFFFFFFFFFFFFFFFFFF AND PUSH1 0x3 PUSH1 0x0 DUP6 PUSH20 0xFFFFFFFFFFFFFFFFFFFFFFFFFFFFFFFFFFFFFFFF AND PUSH20 0xFFFFFFFFFFFFFFFFFFFFFFFFFFFFFFFFFFFFFFFF AND DUP2 MSTORE PUSH1 0x20 ADD SWAP1 DUP2 MSTORE PUSH1 0x20 ADD PUSH1 0x0 KECCAK256 PUSH1 0x0 SWAP1 SLOAD SWAP1 PUSH2 0x100 EXP SWAP1 DIV PUSH20 0xFFFFFFFFFFFFFFFFFFFFFFFFFFFFFFFFFFFFFFFF AND DUP4 PUSH2 0x1F84 JUMP JUMPDEST POP POP POP JUMP JUMPDEST PUSH1 0x0 CALLER SWAP1 POP SWAP1 JUMP JUMPDEST PUSH1 0x0 PUSH1 0x3 PUSH1 0x0 DUP5 PUSH20 0xFFFFFFFFFFFFFFFFFFFFFFFFFFFFFFFFFFFFFFFF AND PUSH20 0xFFFFFFFFFFFFFFFFFFFFFFFFFFFFFFFFFFFFFFFF AND DUP2 MSTORE PUSH1 0x20 ADD SWAP1 DUP2 MSTORE PUSH1 0x20 ADD PUSH1 0x0 KECCAK256 PUSH1 0x0 SWAP1 SLOAD SWAP1 PUSH2 0x100 EXP SWAP1 DIV PUSH20 0xFFFFFFFFFFFFFFFFFFFFFFFFFFFFFFFFFFFFFFFF AND SWAP1 POP PUSH1 0x0 PUSH1 0x2 PUSH1 0x0 DUP6 PUSH20 0xFFFFFFFFFFFFFFFFFFFFFFFFFFFFFFFFFFFFFFFF AND PUSH20 0xFFFFFFFFFFFFFFFFFFFFFFFFFFFFFFFFFFFFFFFF AND DUP2 MSTORE PUSH1 0x20 ADD SWAP1 DUP2 MSTORE PUSH1 0x20 ADD PUSH1 0x0 KECCAK256 PUSH1 0x0 SWAP1 SLOAD SWAP1 PUSH2 0x100 EXP SWAP1 DIV PUSH12 0xFFFFFFFFFFFFFFFFFFFFFFFF AND SWAP1 POP DUP3 PUSH1 0x3 PUSH1 0x0 DUP7 PUSH20 0xFFFFFFFFFFFFFFFFFFFFFFFFFFFFFFFFFFFFFFFF AND PUSH20 0xFFFFFFFFFFFFFFFFFFFFFFFFFFFFFFFFFFFFFFFF AND DUP2 MSTORE PUSH1 0x20 ADD SWAP1 DUP2 MSTORE PUSH1 0x20 ADD PUSH1 0x0 KECCAK256 PUSH1 0x0 PUSH2 0x100 EXP DUP2 SLOAD DUP2 PUSH20 0xFFFFFFFFFFFFFFFFFFFFFFFFFFFFFFFFFFFFFFFF MUL NOT AND SWAP1 DUP4 PUSH20 0xFFFFFFFFFFFFFFFFFFFFFFFFFFFFFFFFFFFFFFFF AND MUL OR SWAP1 SSTORE POP DUP3 PUSH20 0xFFFFFFFFFFFFFFFFFFFFFFFFFFFFFFFFFFFFFFFF AND DUP3 PUSH20 0xFFFFFFFFFFFFFFFFFFFFFFFFFFFFFFFFFFFFFFFF AND DUP6 PUSH20 0xFFFFFFFFFFFFFFFFFFFFFFFFFFFFFFFFFFFFFFFF AND PUSH32 0x3134E8A2E6D97E929A7E54011EA5485D7D196DD5F0BA4D4EF95803E8E3FC257F PUSH1 0x40 MLOAD PUSH1 0x40 MLOAD DUP1 SWAP2 SUB SWAP1 LOG4 PUSH2 0x1E33 DUP3 DUP5 DUP4 PUSH2 0x1F84 JUMP JUMPDEST POP POP POP POP JUMP JUMPDEST PUSH1 0x0 DUP1 PUSH1 0x0 SWAP1 SLOAD SWAP1 PUSH2 0x100 EXP SWAP1 DIV PUSH20 0xFFFFFFFFFFFFFFFFFFFFFFFFFFFFFFFFFFFFFFFF AND SWAP1 POP DUP2 PUSH1 0x0 DUP1 PUSH2 0x100 EXP DUP2 SLOAD DUP2 PUSH20 0xFFFFFFFFFFFFFFFFFFFFFFFFFFFFFFFFFFFFFFFF MUL NOT AND SWAP1 DUP4 PUSH20 0xFFFFFFFFFFFFFFFFFFFFFFFFFFFFFFFFFFFFFFFF AND MUL OR SWAP1 SSTORE POP DUP2 PUSH20 0xFFFFFFFFFFFFFFFFFFFFFFFFFFFFFFFFFFFFFFFF AND DUP2 PUSH20 0xFFFFFFFFFFFFFFFFFFFFFFFFFFFFFFFFFFFFFFFF AND PUSH32 0x8BE0079C531659141344CD1FD0A4F28419497F9722A3DAAFE3B4186F6B6457E0 PUSH1 0x40 MLOAD PUSH1 0x40 MLOAD DUP1 SWAP2 SUB SWAP1 LOG3 POP POP JUMP JUMPDEST PUSH1 0x0 CHAINID SWAP1 POP SWAP1 JUMP JUMPDEST PUSH1 0x0 DUP1 DUP4 DUP6 PUSH2 0x1F14 SWAP2 SWAP1 PUSH2 0x2C88 JUMP JUMPDEST SWAP1 POP DUP5 PUSH12 0xFFFFFFFFFFFFFFFFFFFFFFFF AND DUP2 PUSH12 0xFFFFFFFFFFFFFFFFFFFFFFFF AND LT ISZERO DUP4 SWAP1 PUSH2 0x1F78 JUMPI PUSH1 0x40 MLOAD PUSH32 0x8C379A000000000000000000000000000000000000000000000000000000000 DUP2 MSTORE PUSH1 0x4 ADD PUSH2 0x1F6F SWAP2 SWAP1 PUSH2 0x2685 JUMP JUMPDEST PUSH1 0x40 MLOAD DUP1 SWAP2 SUB SWAP1 REVERT JUMPDEST POP DUP1 SWAP2 POP POP SWAP4 SWAP3 POP POP POP JUMP JUMPDEST DUP2 PUSH20 0xFFFFFFFFFFFFFFFFFFFFFFFFFFFFFFFFFFFFFFFF AND DUP4 PUSH20 0xFFFFFFFFFFFFFFFFFFFFFFFFFFFFFFFFFFFFFFFF AND EQ ISZERO DUP1 ISZERO PUSH2 0x1FCE JUMPI POP PUSH1 0x0 DUP2 PUSH12 0xFFFFFFFFFFFFFFFFFFFFFFFF AND GT JUMPDEST ISZERO PUSH2 0x228C JUMPI PUSH1 0x0 PUSH20 0xFFFFFFFFFFFFFFFFFFFFFFFFFFFFFFFFFFFFFFFF AND DUP4 PUSH20 0xFFFFFFFFFFFFFFFFFFFFFFFFFFFFFFFFFFFFFFFF AND EQ PUSH2 0x212F JUMPI PUSH1 0x0 PUSH1 0x5 PUSH1 0x0 DUP6 PUSH20 0xFFFFFFFFFFFFFFFFFFFFFFFFFFFFFFFFFFFFFFFF AND PUSH20 0xFFFFFFFFFFFFFFFFFFFFFFFFFFFFFFFFFFFFFFFF AND DUP2 MSTORE PUSH1 0x20 ADD SWAP1 DUP2 MSTORE PUSH1 0x20 ADD PUSH1 0x0 KECCAK256 PUSH1 0x0 SWAP1 SLOAD SWAP1 PUSH2 0x100 EXP SWAP1 DIV PUSH4 0xFFFFFFFF AND SWAP1 POP PUSH1 0x0 DUP1 DUP3 PUSH4 0xFFFFFFFF AND GT PUSH2 0x2071 JUMPI PUSH1 0x0 PUSH2 0x20F6 JUMP JUMPDEST PUSH1 0x4 PUSH1 0x0 DUP7 PUSH20 0xFFFFFFFFFFFFFFFFFFFFFFFFFFFFFFFFFFFFFFFF AND PUSH20 0xFFFFFFFFFFFFFFFFFFFFFFFFFFFFFFFFFFFFFFFF AND DUP2 MSTORE PUSH1 0x20 ADD SWAP1 DUP2 MSTORE PUSH1 0x20 ADD PUSH1 0x0 KECCAK256 PUSH1 0x0 PUSH1 0x1 DUP5 PUSH2 0x20BF SWAP2 SWAP1 PUSH2 0x2D5A JUMP JUMPDEST PUSH4 0xFFFFFFFF AND PUSH4 0xFFFFFFFF AND DUP2 MSTORE PUSH1 0x20 ADD SWAP1 DUP2 MSTORE PUSH1 0x20 ADD PUSH1 0x0 KECCAK256 PUSH1 0x0 ADD PUSH1 0x4 SWAP1 SLOAD SWAP1 PUSH2 0x100 EXP SWAP1 DIV PUSH12 0xFFFFFFFFFFFFFFFFFFFFFFFF AND JUMPDEST SWAP1 POP PUSH1 0x0 PUSH2 0x211D DUP3 DUP6 PUSH1 0x40 MLOAD DUP1 PUSH1 0x60 ADD PUSH1 0x40 MSTORE DUP1 PUSH1 0x29 DUP2 MSTORE PUSH1 0x20 ADD PUSH2 0x343B PUSH1 0x29 SWAP2 CODECOPY PUSH2 0x1818 JUMP JUMPDEST SWAP1 POP PUSH2 0x212B DUP7 DUP5 DUP5 DUP5 PUSH2 0x2291 JUMP JUMPDEST POP POP POP JUMPDEST PUSH1 0x0 PUSH20 0xFFFFFFFFFFFFFFFFFFFFFFFFFFFFFFFFFFFFFFFF AND DUP3 PUSH20 0xFFFFFFFFFFFFFFFFFFFFFFFFFFFFFFFFFFFFFFFF AND EQ PUSH2 0x228B JUMPI PUSH1 0x0 PUSH1 0x5 PUSH1 0x0 DUP5 PUSH20 0xFFFFFFFFFFFFFFFFFFFFFFFFFFFFFFFFFFFFFFFF AND PUSH20 0xFFFFFFFFFFFFFFFFFFFFFFFFFFFFFFFFFFFFFFFF AND DUP2 MSTORE PUSH1 0x20 ADD SWAP1 DUP2 MSTORE PUSH1 0x20 ADD PUSH1 0x0 KECCAK256 PUSH1 0x0 SWAP1 SLOAD SWAP1 PUSH2 0x100 EXP SWAP1 DIV PUSH4 0xFFFFFFFF AND SWAP1 POP PUSH1 0x0 DUP1 DUP3 PUSH4 0xFFFFFFFF AND GT PUSH2 0x21CD JUMPI PUSH1 0x0 PUSH2 0x2252 JUMP JUMPDEST PUSH1 0x4 PUSH1 0x0 DUP6 PUSH20 0xFFFFFFFFFFFFFFFFFFFFFFFFFFFFFFFFFFFFFFFF AND PUSH20 0xFFFFFFFFFFFFFFFFFFFFFFFFFFFFFFFFFFFFFFFF AND DUP2 MSTORE PUSH1 0x20 ADD SWAP1 DUP2 MSTORE PUSH1 0x20 ADD PUSH1 0x0 KECCAK256 PUSH1 0x0 PUSH1 0x1 DUP5 PUSH2 0x221B SWAP2 SWAP1 PUSH2 0x2D5A JUMP JUMPDEST PUSH4 0xFFFFFFFF AND PUSH4 0xFFFFFFFF AND DUP2 MSTORE PUSH1 0x20 ADD SWAP1 DUP2 MSTORE PUSH1 0x20 ADD PUSH1 0x0 KECCAK256 PUSH1 0x0 ADD PUSH1 0x4 SWAP1 SLOAD SWAP1 PUSH2 0x100 EXP SWAP1 DIV PUSH12 0xFFFFFFFFFFFFFFFFFFFFFFFF AND JUMPDEST SWAP1 POP PUSH1 0x0 PUSH2 0x2279 DUP3 DUP6 PUSH1 0x40 MLOAD DUP1 PUSH1 0x60 ADD PUSH1 0x40 MSTORE DUP1 PUSH1 0x28 DUP2 MSTORE PUSH1 0x20 ADD PUSH2 0x3517 PUSH1 0x28 SWAP2 CODECOPY PUSH2 0x1F05 JUMP JUMPDEST SWAP1 POP PUSH2 0x2287 DUP6 DUP5 DUP5 DUP5 PUSH2 0x2291 JUMP JUMPDEST POP POP POP JUMPDEST JUMPDEST POP POP POP JUMP JUMPDEST PUSH1 0x0 PUSH2 0x22B5 NUMBER PUSH1 0x40 MLOAD DUP1 PUSH1 0x60 ADD PUSH1 0x40 MSTORE DUP1 PUSH1 0x35 DUP2 MSTORE PUSH1 0x20 ADD PUSH2 0x3464 PUSH1 0x35 SWAP2 CODECOPY PUSH2 0x259F JUMP JUMPDEST SWAP1 POP PUSH1 0x0 DUP5 PUSH4 0xFFFFFFFF AND GT DUP1 ISZERO PUSH2 0x2353 JUMPI POP DUP1 PUSH4 0xFFFFFFFF AND PUSH1 0x4 PUSH1 0x0 DUP8 PUSH20 0xFFFFFFFFFFFFFFFFFFFFFFFFFFFFFFFFFFFFFFFF AND PUSH20 0xFFFFFFFFFFFFFFFFFFFFFFFFFFFFFFFFFFFFFFFF AND DUP2 MSTORE PUSH1 0x20 ADD SWAP1 DUP2 MSTORE PUSH1 0x20 ADD PUSH1 0x0 KECCAK256 PUSH1 0x0 PUSH1 0x1 DUP8 PUSH2 0x231D SWAP2 SWAP1 PUSH2 0x2D5A JUMP JUMPDEST PUSH4 0xFFFFFFFF AND PUSH4 0xFFFFFFFF AND DUP2 MSTORE PUSH1 0x20 ADD SWAP1 DUP2 MSTORE PUSH1 0x20 ADD PUSH1 0x0 KECCAK256 PUSH1 0x0 ADD PUSH1 0x0 SWAP1 SLOAD SWAP1 PUSH2 0x100 EXP SWAP1 DIV PUSH4 0xFFFFFFFF AND PUSH4 0xFFFFFFFF AND EQ JUMPDEST ISZERO PUSH2 0x23F7 JUMPI DUP2 PUSH1 0x4 PUSH1 0x0 DUP8 PUSH20 0xFFFFFFFFFFFFFFFFFFFFFFFFFFFFFFFFFFFFFFFF AND PUSH20 0xFFFFFFFFFFFFFFFFFFFFFFFFFFFFFFFFFFFFFFFF AND DUP2 MSTORE PUSH1 0x20 ADD SWAP1 DUP2 MSTORE PUSH1 0x20 ADD PUSH1 0x0 KECCAK256 PUSH1 0x0 PUSH1 0x1 DUP8 PUSH2 0x23A7 SWAP2 SWAP1 PUSH2 0x2D5A JUMP JUMPDEST PUSH4 0xFFFFFFFF AND PUSH4 0xFFFFFFFF AND DUP2 MSTORE PUSH1 0x20 ADD SWAP1 DUP2 MSTORE PUSH1 0x20 ADD PUSH1 0x0 KECCAK256 PUSH1 0x0 ADD PUSH1 0x4 PUSH2 0x100 EXP DUP2 SLOAD DUP2 PUSH12 0xFFFFFFFFFFFFFFFFFFFFFFFF MUL NOT AND SWAP1 DUP4 PUSH12 0xFFFFFFFFFFFFFFFFFFFFFFFF AND MUL OR SWAP1 SSTORE POP PUSH2 0x2548 JUMP JUMPDEST PUSH1 0x40 MLOAD DUP1 PUSH1 0x40 ADD PUSH1 0x40 MSTORE DUP1 DUP3 PUSH4 0xFFFFFFFF AND DUP2 MSTORE PUSH1 0x20 ADD DUP4 PUSH12 0xFFFFFFFFFFFFFFFFFFFFFFFF AND DUP2 MSTORE POP PUSH1 0x4 PUSH1 0x0 DUP8 PUSH20 0xFFFFFFFFFFFFFFFFFFFFFFFFFFFFFFFFFFFFFFFF AND PUSH20 0xFFFFFFFFFFFFFFFFFFFFFFFFFFFFFFFFFFFFFFFF AND DUP2 MSTORE PUSH1 0x20 ADD SWAP1 DUP2 MSTORE PUSH1 0x20 ADD PUSH1 0x0 KECCAK256 PUSH1 0x0 DUP7 PUSH4 0xFFFFFFFF AND PUSH4 0xFFFFFFFF AND DUP2 MSTORE PUSH1 0x20 ADD SWAP1 DUP2 MSTORE PUSH1 0x20 ADD PUSH1 0x0 KECCAK256 PUSH1 0x0 DUP3 ADD MLOAD DUP2 PUSH1 0x0 ADD PUSH1 0x0 PUSH2 0x100 EXP DUP2 SLOAD DUP2 PUSH4 0xFFFFFFFF MUL NOT AND SWAP1 DUP4 PUSH4 0xFFFFFFFF AND MUL OR SWAP1 SSTORE POP PUSH1 0x20 DUP3 ADD MLOAD DUP2 PUSH1 0x0 ADD PUSH1 0x4 PUSH2 0x100 EXP DUP2 SLOAD DUP2 PUSH12 0xFFFFFFFFFFFFFFFFFFFFFFFF MUL NOT AND SWAP1 DUP4 PUSH12 0xFFFFFFFFFFFFFFFFFFFFFFFF AND MUL OR SWAP1 SSTORE POP SWAP1 POP POP PUSH1 0x1 DUP5 PUSH2 0x24EA SWAP2 SWAP1 PUSH2 0x3364 JUMP JUMPDEST PUSH1 0x5 PUSH1 0x0 DUP8 PUSH20 0xFFFFFFFFFFFFFFFFFFFFFFFFFFFFFFFFFFFFFFFF AND PUSH20 0xFFFFFFFFFFFFFFFFFFFFFFFFFFFFFFFFFFFFFFFF AND DUP2 MSTORE PUSH1 0x20 ADD SWAP1 DUP2 MSTORE PUSH1 0x20 ADD PUSH1 0x0 KECCAK256 PUSH1 0x0 PUSH2 0x100 EXP DUP2 SLOAD DUP2 PUSH4 0xFFFFFFFF MUL NOT AND SWAP1 DUP4 PUSH4 0xFFFFFFFF AND MUL OR SWAP1 SSTORE POP JUMPDEST DUP5 PUSH20 0xFFFFFFFFFFFFFFFFFFFFFFFFFFFFFFFFFFFFFFFF AND PUSH32 0xDEC2BACDD2F05B59DE34DA9B523DFF8BE42E5E38E818C82FDB0BAE774387A724 DUP5 DUP5 PUSH1 0x40 MLOAD PUSH2 0x2590 SWAP3 SWAP2 SWAP1 PUSH2 0x339C JUMP JUMPDEST PUSH1 0x40 MLOAD DUP1 SWAP2 SUB SWAP1 LOG2 POP POP POP POP POP JUMP JUMPDEST PUSH1 0x0 PUSH5 0x100000000 DUP4 LT DUP3 SWAP1 PUSH2 0x25EB JUMPI PUSH1 0x40 MLOAD PUSH32 0x8C379A000000000000000000000000000000000000000000000000000000000 DUP2 MSTORE PUSH1 0x4 ADD PUSH2 0x25E2 SWAP2 SWAP1 PUSH2 0x2685 JUMP JUMPDEST PUSH1 0x40 MLOAD DUP1 SWAP2 SUB SWAP1 REVERT JUMPDEST POP DUP3 SWAP1 POP SWAP3 SWAP2 POP POP JUMP JUMPDEST PUSH1 0x0 DUP2 MLOAD SWAP1 POP SWAP2 SWAP1 POP JUMP JUMPDEST PUSH1 0x0 DUP3 DUP3 MSTORE PUSH1 0x20 DUP3 ADD SWAP1 POP SWAP3 SWAP2 POP POP JUMP JUMPDEST PUSH1 0x0 JUMPDEST DUP4 DUP2 LT ISZERO PUSH2 0x262F JUMPI DUP1 DUP3 ADD MLOAD DUP2 DUP5 ADD MSTORE PUSH1 0x20 DUP2 ADD SWAP1 POP PUSH2 0x2614 JUMP JUMPDEST PUSH1 0x0 DUP5 DUP5 ADD MSTORE POP POP POP POP JUMP JUMPDEST PUSH1 0x0 PUSH1 0x1F NOT PUSH1 0x1F DUP4 ADD AND SWAP1 POP SWAP2 SWAP1 POP JUMP JUMPDEST PUSH1 0x0 PUSH2 0x2657 DUP3 PUSH2 0x25F5 JUMP JUMPDEST PUSH2 0x2661 DUP2 DUP6 PUSH2 0x2600 JUMP JUMPDEST SWAP4 POP PUSH2 0x2671 DUP2 DUP6 PUSH1 0x20 DUP7 ADD PUSH2 0x2611 JUMP JUMPDEST PUSH2 0x267A DUP2 PUSH2 0x263B JUMP JUMPDEST DUP5 ADD SWAP2 POP POP SWAP3 SWAP2 POP POP JUMP JUMPDEST PUSH1 0x0 PUSH1 0x20 DUP3 ADD SWAP1 POP DUP2 DUP2 SUB PUSH1 0x0 DUP4 ADD MSTORE PUSH2 0x269F DUP2 DUP5 PUSH2 0x264C JUMP JUMPDEST SWAP1 POP SWAP3 SWAP2 POP POP JUMP JUMPDEST PUSH1 0x0 DUP1 REVERT JUMPDEST PUSH1 0x0 PUSH20 0xFFFFFFFFFFFFFFFFFFFFFFFFFFFFFFFFFFFFFFFF DUP3 AND SWAP1 POP SWAP2 SWAP1 POP JUMP JUMPDEST PUSH1 0x0 PUSH2 0x26D7 DUP3 PUSH2 0x26AC JUMP JUMPDEST SWAP1 POP SWAP2 SWAP1 POP JUMP JUMPDEST PUSH2 0x26E7 DUP2 PUSH2 0x26CC JUMP JUMPDEST DUP2 EQ PUSH2 0x26F2 JUMPI PUSH1 0x0 DUP1 REVERT JUMPDEST POP JUMP JUMPDEST PUSH1 0x0 DUP2 CALLDATALOAD SWAP1 POP PUSH2 0x2704 DUP2 PUSH2 0x26DE JUMP JUMPDEST SWAP3 SWAP2 POP POP JUMP JUMPDEST PUSH1 0x0 DUP2 SWAP1 POP SWAP2 SWAP1 POP JUMP JUMPDEST PUSH2 0x271D DUP2 PUSH2 0x270A JUMP JUMPDEST DUP2 EQ PUSH2 0x2728 JUMPI PUSH1 0x0 DUP1 REVERT JUMPDEST POP JUMP JUMPDEST PUSH1 0x0 DUP2 CALLDATALOAD SWAP1 POP PUSH2 0x273A DUP2 PUSH2 0x2714 JUMP JUMPDEST SWAP3 SWAP2 POP POP JUMP JUMPDEST PUSH1 0x0 DUP1 PUSH1 0x40 DUP4 DUP6 SUB SLT ISZERO PUSH2 0x2757 JUMPI PUSH2 0x2756 PUSH2 0x26A7 JUMP JUMPDEST JUMPDEST PUSH1 0x0 PUSH2 0x2765 DUP6 DUP3 DUP7 ADD PUSH2 0x26F5 JUMP JUMPDEST SWAP3 POP POP PUSH1 0x20 PUSH2 0x2776 DUP6 DUP3 DUP7 ADD PUSH2 0x272B JUMP JUMPDEST SWAP2 POP POP SWAP3 POP SWAP3 SWAP1 POP JUMP JUMPDEST PUSH1 0x0 DUP2 ISZERO ISZERO SWAP1 POP SWAP2 SWAP1 POP JUMP JUMPDEST PUSH2 0x2795 DUP2 PUSH2 0x2780 JUMP JUMPDEST DUP3 MSTORE POP POP JUMP JUMPDEST PUSH1 0x0 PUSH1 0x20 DUP3 ADD SWAP1 POP PUSH2 0x27B0 PUSH1 0x0 DUP4 ADD DUP5 PUSH2 0x278C JUMP JUMPDEST SWAP3 SWAP2 POP POP JUMP JUMPDEST PUSH1 0x0 PUSH12 0xFFFFFFFFFFFFFFFFFFFFFFFF DUP3 AND SWAP1 POP SWAP2 SWAP1 POP JUMP JUMPDEST PUSH2 0x27D7 DUP2 PUSH2 0x27B6 JUMP JUMPDEST DUP3 MSTORE POP POP JUMP JUMPDEST PUSH1 0x0 PUSH1 0x20 DUP3 ADD SWAP1 POP PUSH2 0x27F2 PUSH1 0x0 DUP4 ADD DUP5 PUSH2 0x27CE JUMP JUMPDEST SWAP3 SWAP2 POP POP JUMP JUMPDEST PUSH1 0x0 DUP2 SWAP1 POP SWAP2 SWAP1 POP JUMP JUMPDEST PUSH2 0x280B DUP2 PUSH2 0x27F8 JUMP JUMPDEST DUP3 MSTORE POP POP JUMP JUMPDEST PUSH1 0x0 PUSH1 0x20 DUP3 ADD SWAP1 POP PUSH2 0x2826 PUSH1 0x0 DUP4 ADD DUP5 PUSH2 0x2802 JUMP JUMPDEST SWAP3 SWAP2 POP POP JUMP JUMPDEST PUSH1 0x0 DUP1 PUSH1 0x0 PUSH1 0x60 DUP5 DUP7 SUB SLT ISZERO PUSH2 0x2845 JUMPI PUSH2 0x2844 PUSH2 0x26A7 JUMP JUMPDEST JUMPDEST PUSH1 0x0 PUSH2 0x2853 DUP7 DUP3 DUP8 ADD PUSH2 0x26F5 JUMP JUMPDEST SWAP4 POP POP PUSH1 0x20 PUSH2 0x2864 DUP7 DUP3 DUP8 ADD PUSH2 0x26F5 JUMP JUMPDEST SWAP3 POP POP PUSH1 0x40 PUSH2 0x2875 DUP7 DUP3 DUP8 ADD PUSH2 0x272B JUMP JUMPDEST SWAP2 POP POP SWAP3 POP SWAP3 POP SWAP3 JUMP JUMPDEST PUSH1 0x0 PUSH1 0xFF DUP3 AND SWAP1 POP SWAP2 SWAP1 POP JUMP JUMPDEST PUSH2 0x2895 DUP2 PUSH2 0x287F JUMP JUMPDEST DUP3 MSTORE POP POP JUMP JUMPDEST PUSH1 0x0 PUSH1 0x20 DUP3 ADD SWAP1 POP PUSH2 0x28B0 PUSH1 0x0 DUP4 ADD DUP5 PUSH2 0x288C JUMP JUMPDEST SWAP3 SWAP2 POP POP JUMP JUMPDEST PUSH1 0x0 PUSH1 0x20 DUP3 DUP5 SUB SLT ISZERO PUSH2 0x28CC JUMPI PUSH2 0x28CB PUSH2 0x26A7 JUMP JUMPDEST JUMPDEST PUSH1 0x0 PUSH2 0x28DA DUP5 DUP3 DUP6 ADD PUSH2 0x26F5 JUMP JUMPDEST SWAP2 POP POP SWAP3 SWAP2 POP POP JUMP JUMPDEST PUSH2 0x28EC DUP2 PUSH2 0x26CC JUMP JUMPDEST DUP3 MSTORE POP POP JUMP JUMPDEST PUSH1 0x0 PUSH1 0x20 DUP3 ADD SWAP1 POP PUSH2 0x2907 PUSH1 0x0 DUP4 ADD DUP5 PUSH2 0x28E3 JUMP JUMPDEST SWAP3 SWAP2 POP POP JUMP JUMPDEST PUSH1 0x0 PUSH4 0xFFFFFFFF DUP3 AND SWAP1 POP SWAP2 SWAP1 POP JUMP JUMPDEST PUSH2 0x2926 DUP2 PUSH2 0x290D JUMP JUMPDEST DUP3 MSTORE POP POP JUMP JUMPDEST PUSH1 0x0 PUSH1 0x20 DUP3 ADD SWAP1 POP PUSH2 0x2941 PUSH1 0x0 DUP4 ADD DUP5 PUSH2 0x291D JUMP JUMPDEST SWAP3 SWAP2 POP POP JUMP JUMPDEST PUSH2 0x2950 DUP2 PUSH2 0x270A JUMP JUMPDEST DUP3 MSTORE POP POP JUMP JUMPDEST PUSH1 0x0 PUSH1 0x20 DUP3 ADD SWAP1 POP PUSH2 0x296B PUSH1 0x0 DUP4 ADD DUP5 PUSH2 0x2947 JUMP JUMPDEST SWAP3 SWAP2 POP POP JUMP JUMPDEST PUSH2 0x297A DUP2 PUSH2 0x287F JUMP JUMPDEST DUP2 EQ PUSH2 0x2985 JUMPI PUSH1 0x0 DUP1 REVERT JUMPDEST POP JUMP JUMPDEST PUSH1 0x0 DUP2 CALLDATALOAD SWAP1 POP PUSH2 0x2997 DUP2 PUSH2 0x2971 JUMP JUMPDEST SWAP3 SWAP2 POP POP JUMP JUMPDEST PUSH2 0x29A6 DUP2 PUSH2 0x27F8 JUMP JUMPDEST DUP2 EQ PUSH2 0x29B1 JUMPI PUSH1 0x0 DUP1 REVERT JUMPDEST POP JUMP JUMPDEST PUSH1 0x0 DUP2 CALLDATALOAD SWAP1 POP PUSH2 0x29C3 DUP2 PUSH2 0x299D JUMP JUMPDEST SWAP3 SWAP2 POP POP JUMP JUMPDEST PUSH1 0x0 DUP1 PUSH1 0x0 DUP1 PUSH1 0x0 DUP1 PUSH1 0xC0 DUP8 DUP10 SUB SLT ISZERO PUSH2 0x29E6 JUMPI PUSH2 0x29E5 PUSH2 0x26A7 JUMP JUMPDEST JUMPDEST PUSH1 0x0 PUSH2 0x29F4 DUP10 DUP3 DUP11 ADD PUSH2 0x26F5 JUMP JUMPDEST SWAP7 POP POP PUSH1 0x20 PUSH2 0x2A05 DUP10 DUP3 DUP11 ADD PUSH2 0x272B JUMP JUMPDEST SWAP6 POP POP PUSH1 0x40 PUSH2 0x2A16 DUP10 DUP3 DUP11 ADD PUSH2 0x272B JUMP JUMPDEST SWAP5 POP POP PUSH1 0x60 PUSH2 0x2A27 DUP10 DUP3 DUP11 ADD PUSH2 0x2988 JUMP JUMPDEST SWAP4 POP POP PUSH1 0x80 PUSH2 0x2A38 DUP10 DUP3 DUP11 ADD PUSH2 0x29B4 JUMP JUMPDEST SWAP3 POP POP PUSH1 0xA0 PUSH2 0x2A49 DUP10 DUP3 DUP11 ADD PUSH2 0x29B4 JUMP JUMPDEST SWAP2 POP POP SWAP3 SWAP6 POP SWAP3 SWAP6 POP SWAP3 SWAP6 JUMP JUMPDEST PUSH1 0x0 DUP1 PUSH1 0x40 DUP4 DUP6 SUB SLT ISZERO PUSH2 0x2A6D JUMPI PUSH2 0x2A6C PUSH2 0x26A7 JUMP JUMPDEST JUMPDEST PUSH1 0x0 PUSH2 0x2A7B DUP6 DUP3 DUP7 ADD PUSH2 0x26F5 JUMP JUMPDEST SWAP3 POP POP PUSH1 0x20 PUSH2 0x2A8C DUP6 DUP3 DUP7 ADD PUSH2 0x26F5 JUMP JUMPDEST SWAP2 POP POP SWAP3 POP SWAP3 SWAP1 POP JUMP JUMPDEST PUSH2 0x2A9F DUP2 PUSH2 0x290D JUMP JUMPDEST DUP2 EQ PUSH2 0x2AAA JUMPI PUSH1 0x0 DUP1 REVERT JUMPDEST POP JUMP JUMPDEST PUSH1 0x0 DUP2 CALLDATALOAD SWAP1 POP PUSH2 0x2ABC DUP2 PUSH2 0x2A96 JUMP JUMPDEST SWAP3 SWAP2 POP POP JUMP JUMPDEST PUSH1 0x0 DUP1 PUSH1 0x40 DUP4 DUP6 SUB SLT ISZERO PUSH2 0x2AD9 JUMPI PUSH2 0x2AD8 PUSH2 0x26A7 JUMP JUMPDEST JUMPDEST PUSH1 0x0 PUSH2 0x2AE7 DUP6 DUP3 DUP7 ADD PUSH2 0x26F5 JUMP JUMPDEST SWAP3 POP POP PUSH1 0x20 PUSH2 0x2AF8 DUP6 DUP3 DUP7 ADD PUSH2 0x2AAD JUMP JUMPDEST SWAP2 POP POP SWAP3 POP SWAP3 SWAP1 POP JUMP JUMPDEST PUSH1 0x0 PUSH1 0x40 DUP3 ADD SWAP1 POP PUSH2 0x2B17 PUSH1 0x0 DUP4 ADD DUP6 PUSH2 0x291D JUMP JUMPDEST PUSH2 0x2B24 PUSH1 0x20 DUP4 ADD DUP5 PUSH2 0x27CE JUMP JUMPDEST SWAP4 SWAP3 POP POP POP JUMP JUMPDEST PUSH1 0x0 DUP2 SWAP1 POP SWAP2 SWAP1 POP JUMP JUMPDEST PUSH1 0x0 PUSH2 0x2B50 PUSH2 0x2B4B PUSH2 0x2B46 DUP5 PUSH2 0x27B6 JUMP JUMPDEST PUSH2 0x2B2B JUMP JUMPDEST PUSH2 0x270A JUMP JUMPDEST SWAP1 POP SWAP2 SWAP1 POP JUMP JUMPDEST PUSH2 0x2B60 DUP2 PUSH2 0x2B35 JUMP JUMPDEST DUP3 MSTORE POP POP JUMP JUMPDEST PUSH1 0x0 PUSH1 0x20 DUP3 ADD SWAP1 POP PUSH2 0x2B7B PUSH1 0x0 DUP4 ADD DUP5 PUSH2 0x2B57 JUMP JUMPDEST SWAP3 SWAP2 POP POP JUMP JUMPDEST PUSH32 0x4F776E61626C653A2063616C6C6572206973206E6F7420746865206F776E6572 PUSH1 0x0 DUP3 ADD MSTORE POP JUMP JUMPDEST PUSH1 0x0 PUSH2 0x2BB7 PUSH1 0x20 DUP4 PUSH2 0x2600 JUMP JUMPDEST SWAP2 POP PUSH2 0x2BC2 DUP3 PUSH2 0x2B81 JUMP JUMPDEST PUSH1 0x20 DUP3 ADD SWAP1 POP SWAP2 SWAP1 POP JUMP JUMPDEST PUSH1 0x0 PUSH1 0x20 DUP3 ADD SWAP1 POP DUP2 DUP2 SUB PUSH1 0x0 DUP4 ADD MSTORE PUSH2 0x2BE6 DUP2 PUSH2 0x2BAA JUMP JUMPDEST SWAP1 POP SWAP2 SWAP1 POP JUMP JUMPDEST PUSH32 0x45524332303A206D696E7420746F20746865207A65726F206164647265737300 PUSH1 0x0 DUP3 ADD MSTORE POP JUMP JUMPDEST PUSH1 0x0 PUSH2 0x2C23 PUSH1 0x1F DUP4 PUSH2 0x2600 JUMP JUMPDEST SWAP2 POP PUSH2 0x2C2E DUP3 PUSH2 0x2BED JUMP JUMPDEST PUSH1 0x20 DUP3 ADD SWAP1 POP SWAP2 SWAP1 POP JUMP JUMPDEST PUSH1 0x0 PUSH1 0x20 DUP3 ADD SWAP1 POP DUP2 DUP2 SUB PUSH1 0x0 DUP4 ADD MSTORE PUSH2 0x2C52 DUP2 PUSH2 0x2C16 JUMP JUMPDEST SWAP1 POP SWAP2 SWAP1 POP JUMP JUMPDEST PUSH32 0x4E487B7100000000000000000000000000000000000000000000000000000000 PUSH1 0x0 MSTORE PUSH1 0x11 PUSH1 0x4 MSTORE PUSH1 0x24 PUSH1 0x0 REVERT JUMPDEST PUSH1 0x0 PUSH2 0x2C93 DUP3 PUSH2 0x27B6 JUMP JUMPDEST SWAP2 POP PUSH2 0x2C9E DUP4 PUSH2 0x27B6 JUMP JUMPDEST SWAP3 POP DUP3 DUP3 ADD SWAP1 POP PUSH12 0xFFFFFFFFFFFFFFFFFFFFFFFF DUP2 GT ISZERO PUSH2 0x2CC2 JUMPI PUSH2 0x2CC1 PUSH2 0x2C59 JUMP JUMPDEST JUMPDEST SWAP3 SWAP2 POP POP JUMP JUMPDEST PUSH32 0x536173686F3A3A6765745072696F72566F7465733A206E6F7420796574206465 PUSH1 0x0 DUP3 ADD MSTORE PUSH32 0x7465726D696E6564000000000000000000000000000000000000000000000000 PUSH1 0x20 DUP3 ADD MSTORE POP JUMP JUMPDEST PUSH1 0x0 PUSH2 0x2D24 PUSH1 0x28 DUP4 PUSH2 0x2600 JUMP JUMPDEST SWAP2 POP PUSH2 0x2D2F DUP3 PUSH2 0x2CC8 JUMP JUMPDEST PUSH1 0x40 DUP3 ADD SWAP1 POP SWAP2 SWAP1 POP JUMP JUMPDEST PUSH1 0x0 PUSH1 0x20 DUP3 ADD SWAP1 POP DUP2 DUP2 SUB PUSH1 0x0 DUP4 ADD MSTORE PUSH2 0x2D53 DUP2 PUSH2 0x2D17 JUMP JUMPDEST SWAP1 POP SWAP2 SWAP1 POP JUMP JUMPDEST PUSH1 0x0 PUSH2 0x2D65 DUP3 PUSH2 0x290D JUMP JUMPDEST SWAP2 POP PUSH2 0x2D70 DUP4 PUSH2 0x290D JUMP JUMPDEST SWAP3 POP DUP3 DUP3 SUB SWAP1 POP PUSH4 0xFFFFFFFF DUP2 GT ISZERO PUSH2 0x2D8C JUMPI PUSH2 0x2D8B PUSH2 0x2C59 JUMP JUMPDEST JUMPDEST SWAP3 SWAP2 POP POP JUMP JUMPDEST PUSH32 0x4E487B7100000000000000000000000000000000000000000000000000000000 PUSH1 0x0 MSTORE PUSH1 0x12 PUSH1 0x4 MSTORE PUSH1 0x24 PUSH1 0x0 REVERT JUMPDEST PUSH1 0x0 PUSH2 0x2DCC DUP3 PUSH2 0x290D JUMP JUMPDEST SWAP2 POP PUSH2 0x2DD7 DUP4 PUSH2 0x290D JUMP JUMPDEST SWAP3 POP DUP3 PUSH2 0x2DE7 JUMPI PUSH2 0x2DE6 PUSH2 0x2D92 JUMP JUMPDEST JUMPDEST DUP3 DUP3 DIV SWAP1 POP SWAP3 SWAP2 POP POP JUMP JUMPDEST PUSH1 0x0 PUSH1 0x80 DUP3 ADD SWAP1 POP PUSH2 0x2E07 PUSH1 0x0 DUP4 ADD DUP8 PUSH2 0x2802 JUMP JUMPDEST PUSH2 0x2E14 PUSH1 0x20 DUP4 ADD DUP7 PUSH2 0x2802 JUMP JUMPDEST PUSH2 0x2E21 PUSH1 0x40 DUP4 ADD DUP6 PUSH2 0x2947 JUMP JUMPDEST PUSH2 0x2E2E PUSH1 0x60 DUP4 ADD DUP5 PUSH2 0x28E3 JUMP JUMPDEST SWAP6 SWAP5 POP POP POP POP POP JUMP JUMPDEST PUSH1 0x0 PUSH1 0x80 DUP3 ADD SWAP1 POP PUSH2 0x2E4C PUSH1 0x0 DUP4 ADD DUP8 PUSH2 0x2802 JUMP JUMPDEST PUSH2 0x2E59 PUSH1 0x20 DUP4 ADD DUP7 PUSH2 0x28E3 JUMP JUMPDEST PUSH2 0x2E66 PUSH1 0x40 DUP4 ADD DUP6 PUSH2 0x2947 JUMP JUMPDEST PUSH2 0x2E73 PUSH1 0x60 DUP4 ADD DUP5 PUSH2 0x2947 JUMP JUMPDEST SWAP6 SWAP5 POP POP POP POP POP JUMP JUMPDEST PUSH1 0x0 DUP2 SWAP1 POP SWAP3 SWAP2 POP POP JUMP JUMPDEST PUSH32 0x1901000000000000000000000000000000000000000000000000000000000000 PUSH1 0x0 DUP3 ADD MSTORE POP JUMP JUMPDEST PUSH1 0x0 PUSH2 0x2EBD PUSH1 0x2 DUP4 PUSH2 0x2E7C JUMP JUMPDEST SWAP2 POP PUSH2 0x2EC8 DUP3 PUSH2 0x2E87 JUMP JUMPDEST PUSH1 0x2 DUP3 ADD SWAP1 POP SWAP2 SWAP1 POP JUMP JUMPDEST PUSH1 0x0 DUP2 SWAP1 POP SWAP2 SWAP1 POP JUMP JUMPDEST PUSH2 0x2EEE PUSH2 0x2EE9 DUP3 PUSH2 0x27F8 JUMP JUMPDEST PUSH2 0x2ED3 JUMP JUMPDEST DUP3 MSTORE POP POP JUMP JUMPDEST PUSH1 0x0 PUSH2 0x2EFF DUP3 PUSH2 0x2EB0 JUMP JUMPDEST SWAP2 POP PUSH2 0x2F0B DUP3 DUP6 PUSH2 0x2EDD JUMP JUMPDEST PUSH1 0x20 DUP3 ADD SWAP2 POP PUSH2 0x2F1B DUP3 DUP5 PUSH2 0x2EDD JUMP JUMPDEST PUSH1 0x20 DUP3 ADD SWAP2 POP DUP2 SWAP1 POP SWAP4 SWAP3 POP POP POP JUMP JUMPDEST PUSH1 0x0 PUSH1 0x80 DUP3 ADD SWAP1 POP PUSH2 0x2F40 PUSH1 0x0 DUP4 ADD DUP8 PUSH2 0x2802 JUMP JUMPDEST PUSH2 0x2F4D PUSH1 0x20 DUP4 ADD DUP7 PUSH2 0x288C JUMP JUMPDEST PUSH2 0x2F5A PUSH1 0x40 DUP4 ADD DUP6 PUSH2 0x2802 JUMP JUMPDEST PUSH2 0x2F67 PUSH1 0x60 DUP4 ADD DUP5 PUSH2 0x2802 JUMP JUMPDEST SWAP6 SWAP5 POP POP POP POP POP JUMP JUMPDEST PUSH32 0x536173686F3A3A64656C656761746542795369673A20696E76616C6964207369 PUSH1 0x0 DUP3 ADD MSTORE PUSH32 0x676E617475726500000000000000000000000000000000000000000000000000 PUSH1 0x20 DUP3 ADD MSTORE POP JUMP JUMPDEST PUSH1 0x0 PUSH2 0x2FCC PUSH1 0x27 DUP4 PUSH2 0x2600 JUMP JUMPDEST SWAP2 POP PUSH2 0x2FD7 DUP3 PUSH2 0x2F70 JUMP JUMPDEST PUSH1 0x40 DUP3 ADD SWAP1 POP SWAP2 SWAP1 POP JUMP JUMPDEST PUSH1 0x0 PUSH1 0x20 DUP3 ADD SWAP1 POP DUP2 DUP2 SUB PUSH1 0x0 DUP4 ADD MSTORE PUSH2 0x2FFB DUP2 PUSH2 0x2FBF JUMP JUMPDEST SWAP1 POP SWAP2 SWAP1 POP JUMP JUMPDEST PUSH1 0x0 PUSH2 0x300D DUP3 PUSH2 0x270A JUMP JUMPDEST SWAP2 POP PUSH32 0xFFFFFFFFFFFFFFFFFFFFFFFFFFFFFFFFFFFFFFFFFFFFFFFFFFFFFFFFFFFFFFFF DUP3 SUB PUSH2 0x303F JUMPI PUSH2 0x303E PUSH2 0x2C59 JUMP JUMPDEST JUMPDEST PUSH1 0x1 DUP3 ADD SWAP1 POP SWAP2 SWAP1 POP JUMP JUMPDEST PUSH32 0x536173686F3A3A64656C656761746542795369673A20696E76616C6964206E6F PUSH1 0x0 DUP3 ADD MSTORE PUSH32 0x6E63650000000000000000000000000000000000000000000000000000000000 PUSH1 0x20 DUP3 ADD MSTORE POP JUMP JUMPDEST PUSH1 0x0 PUSH2 0x30A6 PUSH1 0x23 DUP4 PUSH2 0x2600 JUMP JUMPDEST SWAP2 POP PUSH2 0x30B1 DUP3 PUSH2 0x304A JUMP JUMPDEST PUSH1 0x40 DUP3 ADD SWAP1 POP SWAP2 SWAP1 POP JUMP JUMPDEST PUSH1 0x0 PUSH1 0x20 DUP3 ADD SWAP1 POP DUP2 DUP2 SUB PUSH1 0x0 DUP4 ADD MSTORE PUSH2 0x30D5 DUP2 PUSH2 0x3099 JUMP JUMPDEST SWAP1 POP SWAP2 SWAP1 POP JUMP JUMPDEST PUSH32 0x536173686F3A3A64656C656761746542795369673A207369676E617475726520 PUSH1 0x0 DUP3 ADD MSTORE PUSH32 0x6578706972656400000000000000000000000000000000000000000000000000 PUSH1 0x20 DUP3 ADD MSTORE POP JUMP JUMPDEST PUSH1 0x0 PUSH2 0x3138 PUSH1 0x27 DUP4 PUSH2 0x2600 JUMP JUMPDEST SWAP2 POP PUSH2 0x3143 DUP3 PUSH2 0x30DC JUMP JUMPDEST PUSH1 0x40 DUP3 ADD SWAP1 POP SWAP2 SWAP1 POP JUMP JUMPDEST PUSH1 0x0 PUSH1 0x20 DUP3 ADD SWAP1 POP DUP2 DUP2 SUB PUSH1 0x0 DUP4 ADD MSTORE PUSH2 0x3167 DUP2 PUSH2 0x312B JUMP JUMPDEST SWAP1 POP SWAP2 SWAP1 POP JUMP JUMPDEST PUSH32 0x4F776E61626C653A206E6577206F776E657220697320746865207A65726F2061 PUSH1 0x0 DUP3 ADD MSTORE PUSH32 0x6464726573730000000000000000000000000000000000000000000000000000 PUSH1 0x20 DUP3 ADD MSTORE POP JUMP JUMPDEST PUSH1 0x0 PUSH2 0x31CA PUSH1 0x26 DUP4 PUSH2 0x2600 JUMP JUMPDEST SWAP2 POP PUSH2 0x31D5 DUP3 PUSH2 0x316E JUMP JUMPDEST PUSH1 0x40 DUP3 ADD SWAP1 POP SWAP2 SWAP1 POP JUMP JUMPDEST PUSH1 0x0 PUSH1 0x20 DUP3 ADD SWAP1 POP DUP2 DUP2 SUB PUSH1 0x0 DUP4 ADD MSTORE PUSH2 0x31F9 DUP2 PUSH2 0x31BD JUMP JUMPDEST SWAP1 POP SWAP2 SWAP1 POP JUMP JUMPDEST PUSH1 0x0 PUSH2 0x320B DUP3 PUSH2 0x27B6 JUMP JUMPDEST SWAP2 POP PUSH2 0x3216 DUP4 PUSH2 0x27B6 JUMP JUMPDEST SWAP3 POP DUP3 DUP3 SUB SWAP1 POP PUSH12 0xFFFFFFFFFFFFFFFFFFFFFFFF DUP2 GT ISZERO PUSH2 0x323A JUMPI PUSH2 0x3239 PUSH2 0x2C59 JUMP JUMPDEST JUMPDEST SWAP3 SWAP2 POP POP JUMP JUMPDEST PUSH32 0x536173686F3A3A5F7472616E73666572546F6B656E733A2063616E6E6F742074 PUSH1 0x0 DUP3 ADD MSTORE PUSH32 0x72616E736665722066726F6D20746865207A65726F2061646472657373000000 PUSH1 0x20 DUP3 ADD MSTORE POP JUMP JUMPDEST PUSH1 0x0 PUSH2 0x329C PUSH1 0x3D DUP4 PUSH2 0x2600 JUMP JUMPDEST SWAP2 POP PUSH2 0x32A7 DUP3 PUSH2 0x3240 JUMP JUMPDEST PUSH1 0x40 DUP3 ADD SWAP1 POP SWAP2 SWAP1 POP JUMP JUMPDEST PUSH1 0x0 PUSH1 0x20 DUP3 ADD SWAP1 POP DUP2 DUP2 SUB PUSH1 0x0 DUP4 ADD MSTORE PUSH2 0x32CB DUP2 PUSH2 0x328F JUMP JUMPDEST SWAP1 POP SWAP2 SWAP1 POP JUMP JUMPDEST PUSH32 0x536173686F3A3A5F7472616E73666572546F6B656E733A2063616E6E6F742074 PUSH1 0x0 DUP3 ADD MSTORE PUSH32 0x72616E7366657220746F20746865207A65726F20616464726573730000000000 PUSH1 0x20 DUP3 ADD MSTORE POP JUMP JUMPDEST PUSH1 0x0 PUSH2 0x332E PUSH1 0x3B DUP4 PUSH2 0x2600 JUMP JUMPDEST SWAP2 POP PUSH2 0x3339 DUP3 PUSH2 0x32D2 JUMP JUMPDEST PUSH1 0x40 DUP3 ADD SWAP1 POP SWAP2 SWAP1 POP JUMP JUMPDEST PUSH1 0x0 PUSH1 0x20 DUP3 ADD SWAP1 POP DUP2 DUP2 SUB PUSH1 0x0 DUP4 ADD MSTORE PUSH2 0x335D DUP2 PUSH2 0x3321 JUMP JUMPDEST SWAP1 POP SWAP2 SWAP1 POP JUMP JUMPDEST PUSH1 0x0 PUSH2 0x336F DUP3 PUSH2 0x290D JUMP JUMPDEST SWAP2 POP PUSH2 0x337A DUP4 PUSH2 0x290D JUMP JUMPDEST SWAP3 POP DUP3 DUP3 ADD SWAP1 POP PUSH4 0xFFFFFFFF DUP2 GT ISZERO PUSH2 0x3396 JUMPI PUSH2 0x3395 PUSH2 0x2C59 JUMP JUMPDEST JUMPDEST SWAP3 SWAP2 POP POP JUMP JUMPDEST PUSH1 0x0 PUSH1 0x40 DUP3 ADD SWAP1 POP PUSH2 0x33B1 PUSH1 0x0 DUP4 ADD DUP6 PUSH2 0x2B57 JUMP JUMPDEST PUSH2 0x33BE PUSH1 0x20 DUP4 ADD DUP5 PUSH2 0x2B57 JUMP JUMPDEST SWAP4 SWAP3 POP POP POP JUMP INVALID MSTORE8 PUSH2 0x7368 PUSH16 0x3A3A7472616E7366657246726F6D3A20 PUSH21 0x72616E7366657220616D6F756E7420657863656564 PUSH20 0x207370656E64657220616C6C6F77616E63655361 PUSH20 0x686F3A3A5F7472616E73666572546F6B656E733A KECCAK256 PUSH21 0x72616E7366657220616D6F756E7420657863656564 PUSH20 0x2062616C616E6365536173686F3A3A5F6D6F7665 JUMP PUSH16 0x7465733A20766F746520616D6F756E74 KECCAK256 PUSH22 0x6E646572666C6F7773536173686F3A3A5F7772697465 NUMBER PUSH9 0x65636B706F696E743A KECCAK256 PUSH3 0x6C6F63 PUSH12 0x206E756D6265722065786365 PUSH6 0x647320333220 PUSH3 0x697473 MSTORE8 PUSH2 0x7368 PUSH16 0x3A3A7472616E736665723A20616D6F75 PUSH15 0x742065786365656473203936206269 PUSH21 0x73536173686F3A3A5F7472616E73666572546F6B65 PUSH15 0x733A207472616E7366657220616D6F PUSH22 0x6E74206F766572666C6F7773536173686F3A3A617070 PUSH19 0x6F76653A20616D6F756E742065786365656473 KECCAK256 CODECOPY CALLDATASIZE KECCAK256 PUSH3 0x697473 MSTORE8 PUSH2 0x7368 PUSH16 0x3A3A5F6D6F7665566F7465733A20766F PUSH21 0x6520616D6F756E74206F766572666C6F7773A26469 PUSH17 0x667358221220A21AA70CFA3DB695B30EA6 0x1F DELEGATECALL SGT 0x5D PUSH22 0xDD5A8C94F9B4B2DA82C838701F7150964736F6C6343 STOP ADDMOD SLT STOP CALLER "
				},
				"gasEstimates": {
					"creation": {
						"codeDepositCost": "2736800",
						"executionCost": "infinite",
						"totalCost": "infinite"
					},
					"external": {
						"DELEGATION_TYPEHASH()": "417",
						"DOMAIN_TYPEHASH()": "419",
						"allowance(address,address)": "infinite",
						"approve(address,uint256)": "infinite",
						"balanceOf(address)": "3016",
						"checkpoints(address,uint32)": "infinite",
						"decimals()": "358",
						"delegate(address)": "infinite",
						"delegateBySig(address,uint256,uint256,uint8,bytes32,bytes32)": "infinite",
						"delegates(address)": "infinite",
						"getCurrentVotes(address)": "infinite",
						"getPriorVotes(address,uint256)": "infinite",
						"mint(address,uint256)": "infinite",
						"name()": "infinite",
						"nonces(address)": "2881",
						"numCheckpoints(address)": "2956",
						"owner()": "2611",
						"renounceOwnership()": "30397",
						"symbol()": "infinite",
						"totalSupply()": "2589",
						"transfer(address,uint256)": "infinite",
						"transferFrom(address,address,uint256)": "infinite",
						"transferOwnership(address)": "30852"
					},
					"internal": {
						"_delegate(address,address)": "infinite",
						"_moveDelegates(address,address,uint96)": "infinite",
						"_transferTokens(address,address,uint96)": "infinite",
						"_writeCheckpoint(address,uint32,uint96,uint96)": "infinite",
						"add96(uint96,uint96,string memory)": "infinite",
						"getChainId()": "22",
						"safe32(uint256,string memory)": "infinite",
						"safe96(uint256,string memory)": "infinite",
						"sub96(uint96,uint96,string memory)": "infinite"
					}
				},
				"methodIdentifiers": {
					"DELEGATION_TYPEHASH()": "e7a324dc",
					"DOMAIN_TYPEHASH()": "20606b70",
					"allowance(address,address)": "dd62ed3e",
					"approve(address,uint256)": "095ea7b3",
					"balanceOf(address)": "70a08231",
					"checkpoints(address,uint32)": "f1127ed8",
					"decimals()": "313ce567",
					"delegate(address)": "5c19a95c",
					"delegateBySig(address,uint256,uint256,uint8,bytes32,bytes32)": "c3cda520",
					"delegates(address)": "587cde1e",
					"getCurrentVotes(address)": "b4b5ea57",
					"getPriorVotes(address,uint256)": "782d6fe1",
					"mint(address,uint256)": "40c10f19",
					"name()": "06fdde03",
					"nonces(address)": "7ecebe00",
					"numCheckpoints(address)": "6fcfff45",
					"owner()": "8da5cb5b",
					"renounceOwnership()": "715018a6",
					"symbol()": "95d89b41",
					"totalSupply()": "18160ddd",
					"transfer(address,uint256)": "a9059cbb",
					"transferFrom(address,address,uint256)": "23b872dd",
					"transferOwnership(address)": "f2fde38b"
				}
			},
			"storageLayout": {
				"storage": [
					{
						"astId": 27,
						"contract": "Contracts/SashoToken.sol:SashoToken",
						"label": "_owner",
						"offset": 0,
						"slot": "0",
						"type": "t_address"
					},
					{
						"astId": 141,
						"contract": "Contracts/SashoToken.sol:SashoToken",
						"label": "totalSupply",
						"offset": 20,
						"slot": "0",
						"type": "t_uint96"
					},
					{
						"astId": 148,
						"contract": "Contracts/SashoToken.sol:SashoToken",
						"label": "allowances",
						"offset": 0,
						"slot": "1",
						"type": "t_mapping(t_address,t_mapping(t_address,t_uint96))"
					},
					{
						"astId": 153,
						"contract": "Contracts/SashoToken.sol:SashoToken",
						"label": "balances",
						"offset": 0,
						"slot": "2",
						"type": "t_mapping(t_address,t_uint96)"
					},
					{
						"astId": 158,
						"contract": "Contracts/SashoToken.sol:SashoToken",
						"label": "delegates",
						"offset": 0,
						"slot": "3",
						"type": "t_mapping(t_address,t_address)"
					},
					{
						"astId": 171,
						"contract": "Contracts/SashoToken.sol:SashoToken",
						"label": "checkpoints",
						"offset": 0,
						"slot": "4",
						"type": "t_mapping(t_address,t_mapping(t_uint32,t_struct(Checkpoint)163_storage))"
					},
					{
						"astId": 176,
						"contract": "Contracts/SashoToken.sol:SashoToken",
						"label": "numCheckpoints",
						"offset": 0,
						"slot": "5",
						"type": "t_mapping(t_address,t_uint32)"
					},
					{
						"astId": 193,
						"contract": "Contracts/SashoToken.sol:SashoToken",
						"label": "nonces",
						"offset": 0,
						"slot": "6",
						"type": "t_mapping(t_address,t_uint256)"
					}
				],
				"types": {
					"t_address": {
						"encoding": "inplace",
						"label": "address",
						"numberOfBytes": "20"
					},
					"t_mapping(t_address,t_address)": {
						"encoding": "mapping",
						"key": "t_address",
						"label": "mapping(address => address)",
						"numberOfBytes": "32",
						"value": "t_address"
					},
					"t_mapping(t_address,t_mapping(t_address,t_uint96))": {
						"encoding": "mapping",
						"key": "t_address",
						"label": "mapping(address => mapping(address => uint96))",
						"numberOfBytes": "32",
						"value": "t_mapping(t_address,t_uint96)"
					},
					"t_mapping(t_address,t_mapping(t_uint32,t_struct(Checkpoint)163_storage))": {
						"encoding": "mapping",
						"key": "t_address",
						"label": "mapping(address => mapping(uint32 => struct SashoToken.Checkpoint))",
						"numberOfBytes": "32",
						"value": "t_mapping(t_uint32,t_struct(Checkpoint)163_storage)"
					},
					"t_mapping(t_address,t_uint256)": {
						"encoding": "mapping",
						"key": "t_address",
						"label": "mapping(address => uint256)",
						"numberOfBytes": "32",
						"value": "t_uint256"
					},
					"t_mapping(t_address,t_uint32)": {
						"encoding": "mapping",
						"key": "t_address",
						"label": "mapping(address => uint32)",
						"numberOfBytes": "32",
						"value": "t_uint32"
					},
					"t_mapping(t_address,t_uint96)": {
						"encoding": "mapping",
						"key": "t_address",
						"label": "mapping(address => uint96)",
						"numberOfBytes": "32",
						"value": "t_uint96"
					},
					"t_mapping(t_uint32,t_struct(Checkpoint)163_storage)": {
						"encoding": "mapping",
						"key": "t_uint32",
						"label": "mapping(uint32 => struct SashoToken.Checkpoint)",
						"numberOfBytes": "32",
						"value": "t_struct(Checkpoint)163_storage"
					},
					"t_struct(Checkpoint)163_storage": {
						"encoding": "inplace",
						"label": "struct SashoToken.Checkpoint",
						"members": [
							{
								"astId": 160,
								"contract": "Contracts/SashoToken.sol:SashoToken",
								"label": "fromBlock",
								"offset": 0,
								"slot": "0",
								"type": "t_uint32"
							},
							{
								"astId": 162,
								"contract": "Contracts/SashoToken.sol:SashoToken",
								"label": "votes",
								"offset": 4,
								"slot": "0",
								"type": "t_uint96"
							}
						],
						"numberOfBytes": "32"
					},
					"t_uint256": {
						"encoding": "inplace",
						"label": "uint256",
						"numberOfBytes": "32"
					},
					"t_uint32": {
						"encoding": "inplace",
						"label": "uint32",
						"numberOfBytes": "4"
					},
					"t_uint96": {
						"encoding": "inplace",
						"label": "uint96",
						"numberOfBytes": "12"
					}
				}
			},
			"userdoc": {
				"events": {
					"Approval(address,address,uint256)": {
						"notice": "The standard EIP-20 approval event"
					},
					"DelegateChanged(address,address,address)": {
						"notice": "An event thats emitted when an account changes its delegate"
					},
					"DelegateVotesChanged(address,uint256,uint256)": {
						"notice": "An event thats emitted when a delegate account's vote balance changes"
					},
					"Transfer(address,address,uint256)": {
						"notice": "The standard EIP-20 transfer event"
					}
				},
				"kind": "user",
				"methods": {
					"DELEGATION_TYPEHASH()": {
						"notice": "The EIP-712 typehash for the delegation struct used by the contract"
					},
					"DOMAIN_TYPEHASH()": {
						"notice": "The EIP-712 typehash for the contract's domain"
					},
					"allowance(address,address)": {
						"notice": "Get the number of tokens `spender` is approved to spend on behalf of `account`"
					},
					"approve(address,uint256)": {
						"notice": "Approve `spender` to transfer up to `amount` from `src`"
					},
					"balanceOf(address)": {
						"notice": "Get the number of tokens held by the `account`"
					},
					"checkpoints(address,uint32)": {
						"notice": "A record of votes checkpoints for each account, by index"
					},
					"constructor": {
						"notice": "Construct a new Sasho token"
					},
					"decimals()": {
						"notice": "EIP-20 token decimals for this token"
					},
					"delegate(address)": {
						"notice": "Delegate votes from `msg.sender` to `delegatee`"
					},
					"delegateBySig(address,uint256,uint256,uint8,bytes32,bytes32)": {
						"notice": "Delegates votes from signatory to `delegatee`"
					},
					"delegates(address)": {
						"notice": "A record of each accounts delegate"
					},
					"getCurrentVotes(address)": {
						"notice": "Gets the current votes balance for `account`"
					},
					"getPriorVotes(address,uint256)": {
						"notice": "Determine the prior number of votes for an account as of a block number"
					},
					"nonces(address)": {
						"notice": "A record of states for signing / validating signatures"
					},
					"numCheckpoints(address)": {
						"notice": "The number of checkpoints for each account"
					},
					"symbol()": {
						"notice": "EIP-20 token symbol for this token"
					},
					"totalSupply()": {
						"notice": "Total number of tokens in circulation"
					},
					"transfer(address,uint256)": {
						"notice": "Transfer `amount` tokens from `msg.sender` to `dst`"
					},
					"transferFrom(address,address,uint256)": {
						"notice": "Transfer `amount` tokens from `src` to `dst`"
					}
				},
				"version": 1
			}
		}
	}
}